{
	"contracts/Voting.sol": {
		"Voting": {
			"abi": [
				{
					"inputs": [],
					"stateMutability": "nonpayable",
					"type": "constructor"
				},
				{
					"anonymous": false,
					"inputs": [
						{
							"components": [
								{
									"internalType": "string",
									"name": "question",
									"type": "string"
								},
								{
									"components": [
										{
											"internalType": "uint256",
											"name": "optionNumber",
											"type": "uint256"
										},
										{
											"internalType": "string",
											"name": "voteOption",
											"type": "string"
										},
										{
											"internalType": "uint256",
											"name": "voteCount",
											"type": "uint256"
										}
									],
									"internalType": "struct Voting.Option[]",
									"name": "options",
									"type": "tuple[]"
								}
							],
							"indexed": false,
							"internalType": "struct Voting.VoteSession",
							"name": "",
							"type": "tuple"
						}
					],
					"name": "VotingStopped",
					"type": "event"
				},
				{
					"inputs": [],
					"name": "currentSession",
					"outputs": [
						{
							"internalType": "string",
							"name": "question",
							"type": "string"
						}
					],
					"stateMutability": "view",
					"type": "function"
				},
				{
					"inputs": [],
					"name": "getAllVoteSessions",
					"outputs": [
						{
							"components": [
								{
									"internalType": "string",
									"name": "question",
									"type": "string"
								},
								{
									"components": [
										{
											"internalType": "uint256",
											"name": "optionNumber",
											"type": "uint256"
										},
										{
											"internalType": "string",
											"name": "voteOption",
											"type": "string"
										},
										{
											"internalType": "uint256",
											"name": "voteCount",
											"type": "uint256"
										}
									],
									"internalType": "struct Voting.Option[]",
									"name": "options",
									"type": "tuple[]"
								}
							],
							"internalType": "struct Voting.VoteSession[]",
							"name": "",
							"type": "tuple[]"
						}
					],
					"stateMutability": "view",
					"type": "function"
				},
				{
					"inputs": [],
					"name": "getCurrentSession",
					"outputs": [
						{
							"components": [
								{
									"internalType": "string",
									"name": "question",
									"type": "string"
								},
								{
									"components": [
										{
											"internalType": "uint256",
											"name": "optionNumber",
											"type": "uint256"
										},
										{
											"internalType": "string",
											"name": "voteOption",
											"type": "string"
										},
										{
											"internalType": "uint256",
											"name": "voteCount",
											"type": "uint256"
										}
									],
									"internalType": "struct Voting.Option[]",
									"name": "options",
									"type": "tuple[]"
								}
							],
							"internalType": "struct Voting.VoteSession",
							"name": "",
							"type": "tuple"
						}
					],
					"stateMutability": "view",
					"type": "function"
				},
				{
					"inputs": [
						{
							"internalType": "uint256",
							"name": "index",
							"type": "uint256"
						}
					],
					"name": "getVoteSession",
					"outputs": [
						{
							"components": [
								{
									"internalType": "string",
									"name": "question",
									"type": "string"
								},
								{
									"components": [
										{
											"internalType": "uint256",
											"name": "optionNumber",
											"type": "uint256"
										},
										{
											"internalType": "string",
											"name": "voteOption",
											"type": "string"
										},
										{
											"internalType": "uint256",
											"name": "voteCount",
											"type": "uint256"
										}
									],
									"internalType": "struct Voting.Option[]",
									"name": "options",
									"type": "tuple[]"
								}
							],
							"internalType": "struct Voting.VoteSession",
							"name": "",
							"type": "tuple"
						}
					],
					"stateMutability": "view",
					"type": "function"
				},
				{
					"inputs": [],
					"name": "getWinner",
					"outputs": [
						{
							"components": [
								{
									"internalType": "uint256",
									"name": "optionNumber",
									"type": "uint256"
								},
								{
									"internalType": "string",
									"name": "voteOption",
									"type": "string"
								},
								{
									"internalType": "uint256",
									"name": "voteCount",
									"type": "uint256"
								}
							],
							"internalType": "struct Voting.Option",
							"name": "winnerOption",
							"type": "tuple"
						}
					],
					"stateMutability": "view",
					"type": "function"
				},
				{
					"inputs": [],
					"name": "owner",
					"outputs": [
						{
							"internalType": "address",
							"name": "",
							"type": "address"
						}
					],
					"stateMutability": "view",
					"type": "function"
				},
				{
					"inputs": [
						{
							"internalType": "string",
							"name": "_question",
							"type": "string"
						},
						{
							"internalType": "string[]",
							"name": "_options",
							"type": "string[]"
						}
					],
					"name": "setVoteSession",
					"outputs": [],
					"stateMutability": "nonpayable",
					"type": "function"
				},
				{
					"inputs": [],
					"name": "startVoting",
					"outputs": [],
					"stateMutability": "nonpayable",
					"type": "function"
				},
				{
					"inputs": [],
					"name": "stopVoting",
					"outputs": [
						{
							"components": [
								{
									"internalType": "string",
									"name": "question",
									"type": "string"
								},
								{
									"components": [
										{
											"internalType": "uint256",
											"name": "optionNumber",
											"type": "uint256"
										},
										{
											"internalType": "string",
											"name": "voteOption",
											"type": "string"
										},
										{
											"internalType": "uint256",
											"name": "voteCount",
											"type": "uint256"
										}
									],
									"internalType": "struct Voting.Option[]",
									"name": "options",
									"type": "tuple[]"
								}
							],
							"internalType": "struct Voting.VoteSession",
							"name": "",
							"type": "tuple"
						}
					],
					"stateMutability": "nonpayable",
					"type": "function"
				},
				{
					"inputs": [
						{
							"internalType": "uint256",
							"name": "optionNumber",
							"type": "uint256"
						}
					],
					"name": "voteFor",
					"outputs": [],
					"stateMutability": "nonpayable",
					"type": "function"
				}
			],
			"devdoc": {
				"kind": "dev",
				"methods": {},
				"version": 1
			},
			"evm": {
				"assembly": "    /* \"contracts/Voting.sol\":60:3454  contract Voting{... */\n  mstore(0x40, 0x80)\n    /* \"contracts/Voting.sol\":128:133  false */\n  0x00\n    /* \"contracts/Voting.sol\":113:133  bool isStart = false */\n  dup1\n  exp(0x0100, 0x14)\n  dup2\n  sload\n  dup2\n  0xff\n  mul\n  not\n  and\n  swap1\n  dup4\n  iszero\n  iszero\n  mul\n  or\n  swap1\n  sstore\n  pop\n    /* \"contracts/Voting.sol\":1362:1412  constructor(){... */\n  callvalue\n  dup1\n  iszero\n  tag_1\n  jumpi\n  0x00\n  dup1\n  revert\ntag_1:\n  pop\n    /* \"contracts/Voting.sol\":1394:1404  msg.sender */\n  caller\n    /* \"contracts/Voting.sol\":1386:1391  owner */\n  0x00\n  dup1\n    /* \"contracts/Voting.sol\":1386:1404  owner = msg.sender */\n  0x0100\n  exp\n  dup2\n  sload\n  dup2\n  0xffffffffffffffffffffffffffffffffffffffff\n  mul\n  not\n  and\n  swap1\n  dup4\n  0xffffffffffffffffffffffffffffffffffffffff\n  and\n  mul\n  or\n  swap1\n  sstore\n  pop\n    /* \"contracts/Voting.sol\":60:3454  contract Voting{... */\n  dataSize(sub_0)\n  dup1\n  dataOffset(sub_0)\n  0x00\n  codecopy\n  0x00\n  return\nstop\n\nsub_0: assembly {\n        /* \"contracts/Voting.sol\":60:3454  contract Voting{... */\n      mstore(0x40, 0x80)\n      callvalue\n      dup1\n      iszero\n      tag_1\n      jumpi\n      0x00\n      dup1\n      revert\n    tag_1:\n      pop\n      jumpi(tag_2, lt(calldatasize, 0x04))\n      shr(0xe0, calldataload(0x00))\n      dup1\n      0x8da5cb5b\n      gt\n      tag_13\n      jumpi\n      dup1\n      0x8da5cb5b\n      eq\n      tag_8\n      jumpi\n      dup1\n      0x8e7ea5b2\n      eq\n      tag_9\n      jumpi\n      dup1\n      0xd4166763\n      eq\n      tag_10\n      jumpi\n      dup1\n      0xf575e2a7\n      eq\n      tag_11\n      jumpi\n      dup1\n      0xfab2f86b\n      eq\n      tag_12\n      jumpi\n      jump(tag_2)\n    tag_13:\n      dup1\n      0x1401795f\n      eq\n      tag_3\n      jumpi\n      dup1\n      0x1ec6b60a\n      eq\n      tag_4\n      jumpi\n      dup1\n      0x778021e4\n      eq\n      tag_5\n      jumpi\n      dup1\n      0x7fbb63c9\n      eq\n      tag_6\n      jumpi\n      dup1\n      0x86a50535\n      eq\n      tag_7\n      jumpi\n    tag_2:\n      0x00\n      dup1\n      revert\n        /* \"contracts/Voting.sol\":2016:2132  function getCurrentSession() public view Start returns (VoteSession memory) {... */\n    tag_3:\n      tag_14\n      tag_15\n      jump\t// in\n    tag_14:\n      mload(0x40)\n      tag_16\n      swap2\n      swap1\n      tag_17\n      jump\t// in\n    tag_16:\n      mload(0x40)\n      dup1\n      swap2\n      sub\n      swap1\n      return\n        /* \"contracts/Voting.sol\":1047:1119  function startVoting() public onlyOwner{... */\n    tag_4:\n      tag_18\n      tag_19\n      jump\t// in\n    tag_18:\n      stop\n        /* \"contracts/Voting.sol\":3329:3451  function getVoteSession(uint index) public view returns (VoteSession memory) {... */\n    tag_5:\n      tag_20\n      0x04\n      dup1\n      calldatasize\n      sub\n      dup2\n      add\n      swap1\n      tag_21\n      swap2\n      swap1\n      tag_22\n      jump\t// in\n    tag_21:\n      tag_23\n      jump\t// in\n    tag_20:\n      mload(0x40)\n      tag_24\n      swap2\n      swap1\n      tag_17\n      jump\t// in\n    tag_24:\n      mload(0x40)\n      dup1\n      swap2\n      sub\n      swap1\n      return\n        /* \"contracts/Voting.sol\":1420:2008  function setVoteSession(string memory _question, string[] memory _options) public Stop onlyOwner {... */\n    tag_6:\n      tag_25\n      0x04\n      dup1\n      calldatasize\n      sub\n      dup2\n      add\n      swap1\n      tag_26\n      swap2\n      swap1\n      tag_27\n      jump\t// in\n    tag_26:\n      tag_28\n      jump\t// in\n    tag_25:\n      stop\n        /* \"contracts/Voting.sol\":2140:2775  function voteFor(uint optionNumber) public Start {... */\n    tag_7:\n      tag_29\n      0x04\n      dup1\n      calldatasize\n      sub\n      dup2\n      add\n      swap1\n      tag_30\n      swap2\n      swap1\n      tag_22\n      jump\t// in\n    tag_30:\n      tag_31\n      jump\t// in\n    tag_29:\n      stop\n        /* \"contracts/Voting.sol\":84:104  address public owner */\n    tag_8:\n      tag_32\n      tag_33\n      jump\t// in\n    tag_32:\n      mload(0x40)\n      tag_34\n      swap2\n      swap1\n      tag_35\n      jump\t// in\n    tag_34:\n      mload(0x40)\n      dup1\n      swap2\n      sub\n      swap1\n      return\n        /* \"contracts/Voting.sol\":2783:3202  function getWinner() public Stop view returns (Option memory winnerOption){... */\n    tag_9:\n      tag_36\n      tag_37\n      jump\t// in\n    tag_36:\n      mload(0x40)\n      tag_38\n      swap2\n      swap1\n      tag_39\n      jump\t// in\n    tag_38:\n      mload(0x40)\n      dup1\n      swap2\n      sub\n      swap1\n      return\n        /* \"contracts/Voting.sol\":494:527  VoteSession public currentSession */\n    tag_10:\n      tag_40\n      tag_41\n      jump\t// in\n    tag_40:\n      mload(0x40)\n      tag_42\n      swap2\n      swap1\n      tag_43\n      jump\t// in\n    tag_42:\n      mload(0x40)\n      dup1\n      swap2\n      sub\n      swap1\n      return\n        /* \"contracts/Voting.sol\":3210:3321  function getAllVoteSessions() public view returns (VoteSession[] memory) {... */\n    tag_11:\n      tag_44\n      tag_45\n      jump\t// in\n    tag_44:\n      mload(0x40)\n      tag_46\n      swap2\n      swap1\n      tag_47\n      jump\t// in\n    tag_46:\n      mload(0x40)\n      dup1\n      swap2\n      sub\n      swap1\n      return\n        /* \"contracts/Voting.sol\":1125:1354  function stopVoting() public Start onlyOwner returns (VoteSession memory) {... */\n    tag_12:\n      tag_48\n      tag_49\n      jump\t// in\n    tag_48:\n      mload(0x40)\n      tag_50\n      swap2\n      swap1\n      tag_17\n      jump\t// in\n    tag_50:\n      mload(0x40)\n      dup1\n      swap2\n      sub\n      swap1\n      return\n        /* \"contracts/Voting.sol\":2016:2132  function getCurrentSession() public view Start returns (VoteSession memory) {... */\n    tag_15:\n        /* \"contracts/Voting.sol\":2072:2090  VoteSession memory */\n      tag_51\n      tag_52\n      jump\t// in\n    tag_51:\n        /* \"contracts/Voting.sol\":913:917  true */\n      0x01\n        /* \"contracts/Voting.sol\":904:917  isStart==true */\n      iszero\n      iszero\n        /* \"contracts/Voting.sol\":904:911  isStart */\n      0x00\n      0x14\n      swap1\n      sload\n      swap1\n      0x0100\n      exp\n      swap1\n      div\n      0xff\n      and\n        /* \"contracts/Voting.sol\":904:917  isStart==true */\n      iszero\n      iszero\n      eq\n        /* \"contracts/Voting.sol\":896:978  require(isStart==true, \"voting needs to start to vote for or see data or to stop\") */\n      tag_54\n      jumpi\n      mload(0x40)\n      0x08c379a000000000000000000000000000000000000000000000000000000000\n      dup2\n      mstore\n      0x04\n      add\n      tag_55\n      swap1\n      tag_56\n      jump\t// in\n    tag_55:\n      mload(0x40)\n      dup1\n      swap2\n      sub\n      swap1\n      revert\n    tag_54:\n        /* \"contracts/Voting.sol\":2110:2124  currentSession */\n      0x03\n        /* \"contracts/Voting.sol\":2103:2124  return currentSession */\n      mload(0x40)\n      dup1\n      0x40\n      add\n      0x40\n      mstore\n      swap1\n      dup2\n      0x00\n      dup3\n      add\n      dup1\n      sload\n      tag_58\n      swap1\n      tag_59\n      jump\t// in\n    tag_58:\n      dup1\n      0x1f\n      add\n      0x20\n      dup1\n      swap2\n      div\n      mul\n      0x20\n      add\n      mload(0x40)\n      swap1\n      dup2\n      add\n      0x40\n      mstore\n      dup1\n      swap3\n      swap2\n      swap1\n      dup2\n      dup2\n      mstore\n      0x20\n      add\n      dup3\n      dup1\n      sload\n      tag_60\n      swap1\n      tag_59\n      jump\t// in\n    tag_60:\n      dup1\n      iszero\n      tag_61\n      jumpi\n      dup1\n      0x1f\n      lt\n      tag_62\n      jumpi\n      0x0100\n      dup1\n      dup4\n      sload\n      div\n      mul\n      dup4\n      mstore\n      swap2\n      0x20\n      add\n      swap2\n      jump(tag_61)\n    tag_62:\n      dup3\n      add\n      swap2\n      swap1\n      0x00\n      mstore\n      keccak256(0x00, 0x20)\n      swap1\n    tag_63:\n      dup2\n      sload\n      dup2\n      mstore\n      swap1\n      0x01\n      add\n      swap1\n      0x20\n      add\n      dup1\n      dup4\n      gt\n      tag_63\n      jumpi\n      dup3\n      swap1\n      sub\n      0x1f\n      and\n      dup3\n      add\n      swap2\n    tag_61:\n      pop\n      pop\n      pop\n      pop\n      pop\n      dup2\n      mstore\n      0x20\n      add\n      0x01\n      dup3\n      add\n      dup1\n      sload\n      dup1\n      0x20\n      mul\n      0x20\n      add\n      mload(0x40)\n      swap1\n      dup2\n      add\n      0x40\n      mstore\n      dup1\n      swap3\n      swap2\n      swap1\n      dup2\n      dup2\n      mstore\n      0x20\n      add\n      0x00\n      swap1\n    tag_64:\n      dup3\n      dup3\n      lt\n      iszero\n      tag_65\n      jumpi\n      dup4\n      dup3\n      swap1\n      0x00\n      mstore\n      keccak256(0x00, 0x20)\n      swap1\n      0x03\n      mul\n      add\n      mload(0x40)\n      dup1\n      0x60\n      add\n      0x40\n      mstore\n      swap1\n      dup2\n      0x00\n      dup3\n      add\n      sload\n      dup2\n      mstore\n      0x20\n      add\n      0x01\n      dup3\n      add\n      dup1\n      sload\n      tag_67\n      swap1\n      tag_59\n      jump\t// in\n    tag_67:\n      dup1\n      0x1f\n      add\n      0x20\n      dup1\n      swap2\n      div\n      mul\n      0x20\n      add\n      mload(0x40)\n      swap1\n      dup2\n      add\n      0x40\n      mstore\n      dup1\n      swap3\n      swap2\n      swap1\n      dup2\n      dup2\n      mstore\n      0x20\n      add\n      dup3\n      dup1\n      sload\n      tag_68\n      swap1\n      tag_59\n      jump\t// in\n    tag_68:\n      dup1\n      iszero\n      tag_69\n      jumpi\n      dup1\n      0x1f\n      lt\n      tag_70\n      jumpi\n      0x0100\n      dup1\n      dup4\n      sload\n      div\n      mul\n      dup4\n      mstore\n      swap2\n      0x20\n      add\n      swap2\n      jump(tag_69)\n    tag_70:\n      dup3\n      add\n      swap2\n      swap1\n      0x00\n      mstore\n      keccak256(0x00, 0x20)\n      swap1\n    tag_71:\n      dup2\n      sload\n      dup2\n      mstore\n      swap1\n      0x01\n      add\n      swap1\n      0x20\n      add\n      dup1\n      dup4\n      gt\n      tag_71\n      jumpi\n      dup3\n      swap1\n      sub\n      0x1f\n      and\n      dup3\n      add\n      swap2\n    tag_69:\n      pop\n      pop\n      pop\n      pop\n      pop\n      dup2\n      mstore\n      0x20\n      add\n      0x02\n      dup3\n      add\n      sload\n      dup2\n      mstore\n      pop\n      pop\n      dup2\n      mstore\n      0x20\n      add\n      swap1\n      0x01\n      add\n      swap1\n      jump(tag_64)\n    tag_65:\n      pop\n      pop\n      pop\n      pop\n      dup2\n      mstore\n      pop\n      pop\n      swap1\n      pop\n        /* \"contracts/Voting.sol\":2016:2132  function getCurrentSession() public view Start returns (VoteSession memory) {... */\n      swap1\n      jump\t// out\n        /* \"contracts/Voting.sol\":1047:1119  function startVoting() public onlyOwner{... */\n    tag_19:\n        /* \"contracts/Voting.sol\":647:652  owner */\n      0x00\n      dup1\n      sload\n      swap1\n      0x0100\n      exp\n      swap1\n      div\n      0xffffffffffffffffffffffffffffffffffffffff\n      and\n        /* \"contracts/Voting.sol\":633:652  msg.sender == owner */\n      0xffffffffffffffffffffffffffffffffffffffff\n      and\n        /* \"contracts/Voting.sol\":633:643  msg.sender */\n      caller\n        /* \"contracts/Voting.sol\":633:652  msg.sender == owner */\n      0xffffffffffffffffffffffffffffffffffffffff\n      and\n      eq\n        /* \"contracts/Voting.sol\":611:712  require(... */\n      tag_73\n      jumpi\n      mload(0x40)\n      0x08c379a000000000000000000000000000000000000000000000000000000000\n      dup2\n      mstore\n      0x04\n      add\n      tag_74\n      swap1\n      tag_75\n      jump\t// in\n    tag_74:\n      mload(0x40)\n      dup1\n      swap2\n      sub\n      swap1\n      revert\n    tag_73:\n        /* \"contracts/Voting.sol\":1107:1111  true */\n      0x01\n        /* \"contracts/Voting.sol\":1097:1104  isStart */\n      0x00\n      0x14\n        /* \"contracts/Voting.sol\":1097:1111  isStart = true */\n      0x0100\n      exp\n      dup2\n      sload\n      dup2\n      0xff\n      mul\n      not\n      and\n      swap1\n      dup4\n      iszero\n      iszero\n      mul\n      or\n      swap1\n      sstore\n      pop\n        /* \"contracts/Voting.sol\":1047:1119  function startVoting() public onlyOwner{... */\n      jump\t// out\n        /* \"contracts/Voting.sol\":3329:3451  function getVoteSession(uint index) public view returns (VoteSession memory) {... */\n    tag_23:\n        /* \"contracts/Voting.sol\":3386:3404  VoteSession memory */\n      tag_77\n      tag_52\n      jump\t// in\n    tag_77:\n        /* \"contracts/Voting.sol\":3424:3436  voteSessions */\n      0x05\n        /* \"contracts/Voting.sol\":3437:3442  index */\n      dup3\n        /* \"contracts/Voting.sol\":3424:3443  voteSessions[index] */\n      dup2\n      sload\n      dup2\n      lt\n      tag_79\n      jumpi\n      tag_80\n      tag_81\n      jump\t// in\n    tag_80:\n    tag_79:\n      swap1\n      0x00\n      mstore\n      keccak256(0x00, 0x20)\n      swap1\n      0x02\n      mul\n      add\n        /* \"contracts/Voting.sol\":3417:3443  return voteSessions[index] */\n      mload(0x40)\n      dup1\n      0x40\n      add\n      0x40\n      mstore\n      swap1\n      dup2\n      0x00\n      dup3\n      add\n      dup1\n      sload\n      tag_83\n      swap1\n      tag_59\n      jump\t// in\n    tag_83:\n      dup1\n      0x1f\n      add\n      0x20\n      dup1\n      swap2\n      div\n      mul\n      0x20\n      add\n      mload(0x40)\n      swap1\n      dup2\n      add\n      0x40\n      mstore\n      dup1\n      swap3\n      swap2\n      swap1\n      dup2\n      dup2\n      mstore\n      0x20\n      add\n      dup3\n      dup1\n      sload\n      tag_84\n      swap1\n      tag_59\n      jump\t// in\n    tag_84:\n      dup1\n      iszero\n      tag_85\n      jumpi\n      dup1\n      0x1f\n      lt\n      tag_86\n      jumpi\n      0x0100\n      dup1\n      dup4\n      sload\n      div\n      mul\n      dup4\n      mstore\n      swap2\n      0x20\n      add\n      swap2\n      jump(tag_85)\n    tag_86:\n      dup3\n      add\n      swap2\n      swap1\n      0x00\n      mstore\n      keccak256(0x00, 0x20)\n      swap1\n    tag_87:\n      dup2\n      sload\n      dup2\n      mstore\n      swap1\n      0x01\n      add\n      swap1\n      0x20\n      add\n      dup1\n      dup4\n      gt\n      tag_87\n      jumpi\n      dup3\n      swap1\n      sub\n      0x1f\n      and\n      dup3\n      add\n      swap2\n    tag_85:\n      pop\n      pop\n      pop\n      pop\n      pop\n      dup2\n      mstore\n      0x20\n      add\n      0x01\n      dup3\n      add\n      dup1\n      sload\n      dup1\n      0x20\n      mul\n      0x20\n      add\n      mload(0x40)\n      swap1\n      dup2\n      add\n      0x40\n      mstore\n      dup1\n      swap3\n      swap2\n      swap1\n      dup2\n      dup2\n      mstore\n      0x20\n      add\n      0x00\n      swap1\n    tag_88:\n      dup3\n      dup3\n      lt\n      iszero\n      tag_89\n      jumpi\n      dup4\n      dup3\n      swap1\n      0x00\n      mstore\n      keccak256(0x00, 0x20)\n      swap1\n      0x03\n      mul\n      add\n      mload(0x40)\n      dup1\n      0x60\n      add\n      0x40\n      mstore\n      swap1\n      dup2\n      0x00\n      dup3\n      add\n      sload\n      dup2\n      mstore\n      0x20\n      add\n      0x01\n      dup3\n      add\n      dup1\n      sload\n      tag_91\n      swap1\n      tag_59\n      jump\t// in\n    tag_91:\n      dup1\n      0x1f\n      add\n      0x20\n      dup1\n      swap2\n      div\n      mul\n      0x20\n      add\n      mload(0x40)\n      swap1\n      dup2\n      add\n      0x40\n      mstore\n      dup1\n      swap3\n      swap2\n      swap1\n      dup2\n      dup2\n      mstore\n      0x20\n      add\n      dup3\n      dup1\n      sload\n      tag_92\n      swap1\n      tag_59\n      jump\t// in\n    tag_92:\n      dup1\n      iszero\n      tag_93\n      jumpi\n      dup1\n      0x1f\n      lt\n      tag_94\n      jumpi\n      0x0100\n      dup1\n      dup4\n      sload\n      div\n      mul\n      dup4\n      mstore\n      swap2\n      0x20\n      add\n      swap2\n      jump(tag_93)\n    tag_94:\n      dup3\n      add\n      swap2\n      swap1\n      0x00\n      mstore\n      keccak256(0x00, 0x20)\n      swap1\n    tag_95:\n      dup2\n      sload\n      dup2\n      mstore\n      swap1\n      0x01\n      add\n      swap1\n      0x20\n      add\n      dup1\n      dup4\n      gt\n      tag_95\n      jumpi\n      dup3\n      swap1\n      sub\n      0x1f\n      and\n      dup3\n      add\n      swap2\n    tag_93:\n      pop\n      pop\n      pop\n      pop\n      pop\n      dup2\n      mstore\n      0x20\n      add\n      0x02\n      dup3\n      add\n      sload\n      dup2\n      mstore\n      pop\n      pop\n      dup2\n      mstore\n      0x20\n      add\n      swap1\n      0x01\n      add\n      swap1\n      jump(tag_88)\n    tag_89:\n      pop\n      pop\n      pop\n      pop\n      dup2\n      mstore\n      pop\n      pop\n      swap1\n      pop\n        /* \"contracts/Voting.sol\":3329:3451  function getVoteSession(uint index) public view returns (VoteSession memory) {... */\n      swap2\n      swap1\n      pop\n      jump\t// out\n        /* \"contracts/Voting.sol\":1420:2008  function setVoteSession(string memory _question, string[] memory _options) public Stop onlyOwner {... */\n    tag_28:\n        /* \"contracts/Voting.sol\":781:786  false */\n      0x00\n        /* \"contracts/Voting.sol\":772:786  isStart==false */\n      iszero\n      iszero\n        /* \"contracts/Voting.sol\":772:779  isStart */\n      0x00\n      0x14\n      swap1\n      sload\n      swap1\n      0x0100\n      exp\n      swap1\n      div\n      0xff\n      and\n        /* \"contracts/Voting.sol\":772:786  isStart==false */\n      iszero\n      iszero\n      eq\n        /* \"contracts/Voting.sol\":764:843  require(isStart==false, \"voting needs to stop to see winner or set new voting\") */\n      tag_97\n      jumpi\n      mload(0x40)\n      0x08c379a000000000000000000000000000000000000000000000000000000000\n      dup2\n      mstore\n      0x04\n      add\n      tag_98\n      swap1\n      tag_99\n      jump\t// in\n    tag_98:\n      mload(0x40)\n      dup1\n      swap2\n      sub\n      swap1\n      revert\n    tag_97:\n        /* \"contracts/Voting.sol\":647:652  owner */\n      0x00\n      dup1\n      sload\n      swap1\n      0x0100\n      exp\n      swap1\n      div\n      0xffffffffffffffffffffffffffffffffffffffff\n      and\n        /* \"contracts/Voting.sol\":633:652  msg.sender == owner */\n      0xffffffffffffffffffffffffffffffffffffffff\n      and\n        /* \"contracts/Voting.sol\":633:643  msg.sender */\n      caller\n        /* \"contracts/Voting.sol\":633:652  msg.sender == owner */\n      0xffffffffffffffffffffffffffffffffffffffff\n      and\n      eq\n        /* \"contracts/Voting.sol\":611:712  require(... */\n      tag_101\n      jumpi\n      mload(0x40)\n      0x08c379a000000000000000000000000000000000000000000000000000000000\n      dup2\n      mstore\n      0x04\n      add\n      tag_102\n      swap1\n      tag_75\n      jump\t// in\n    tag_102:\n      mload(0x40)\n      dup1\n      swap2\n      sub\n      swap1\n      revert\n    tag_101:\n        /* \"contracts/Voting.sol\":1554:1563  _question */\n      dup2\n        /* \"contracts/Voting.sol\":1528:1542  currentSession */\n      0x03\n        /* \"contracts/Voting.sol\":1528:1551  currentSession.question */\n      0x00\n      add\n        /* \"contracts/Voting.sol\":1528:1563  currentSession.question = _question */\n      swap1\n      dup2\n      tag_104\n      swap2\n      swap1\n      tag_105\n      jump\t// in\n    tag_104:\n      pop\n        /* \"contracts/Voting.sol\":1611:1612  0 */\n      0x00\n        /* \"contracts/Voting.sol\":1578:1592  currentSession */\n      0x03\n        /* \"contracts/Voting.sol\":1578:1600  currentSession.options */\n      0x01\n      add\n        /* \"contracts/Voting.sol\":1578:1607  currentSession.options.length */\n      dup1\n      sload\n      swap1\n      pop\n        /* \"contracts/Voting.sol\":1578:1612  currentSession.options.length != 0 */\n      eq\n        /* \"contracts/Voting.sol\":1574:1759  if (currentSession.options.length != 0) {... */\n      tag_106\n      jumpi\n        /* \"contracts/Voting.sol\":1633:1639  uint i */\n      0x00\n        /* \"contracts/Voting.sol\":1629:1748  for(uint i = 0; i <= currentSession.options.length; i++){... */\n    tag_107:\n        /* \"contracts/Voting.sol\":1650:1664  currentSession */\n      0x03\n        /* \"contracts/Voting.sol\":1650:1672  currentSession.options */\n      0x01\n      add\n        /* \"contracts/Voting.sol\":1650:1679  currentSession.options.length */\n      dup1\n      sload\n      swap1\n      pop\n        /* \"contracts/Voting.sol\":1645:1646  i */\n      dup2\n        /* \"contracts/Voting.sol\":1645:1679  i <= currentSession.options.length */\n      gt\n        /* \"contracts/Voting.sol\":1629:1748  for(uint i = 0; i <= currentSession.options.length; i++){... */\n      tag_108\n      jumpi\n        /* \"contracts/Voting.sol\":1704:1718  currentSession */\n      0x03\n        /* \"contracts/Voting.sol\":1704:1726  currentSession.options */\n      0x01\n      add\n        /* \"contracts/Voting.sol\":1704:1732  currentSession.options.pop() */\n      dup1\n      sload\n      dup1\n      tag_110\n      jumpi\n      tag_111\n      tag_112\n      jump\t// in\n    tag_111:\n    tag_110:\n      0x01\n      swap1\n      sub\n      dup2\n      dup2\n      swap1\n      0x00\n      mstore\n      keccak256(0x00, 0x20)\n      swap1\n      0x03\n      mul\n      add\n      0x00\n      dup1\n      dup3\n      add\n      0x00\n      swap1\n      sstore\n      0x01\n      dup3\n      add\n      0x00\n      tag_114\n      swap2\n      swap1\n      tag_115\n      jump\t// in\n    tag_114:\n      0x02\n      dup3\n      add\n      0x00\n      swap1\n      sstore\n      pop\n      pop\n      swap1\n      sstore\n        /* \"contracts/Voting.sol\":1681:1684  i++ */\n      dup1\n      dup1\n      tag_116\n      swap1\n      tag_117\n      jump\t// in\n    tag_116:\n      swap2\n      pop\n      pop\n        /* \"contracts/Voting.sol\":1629:1748  for(uint i = 0; i <= currentSession.options.length; i++){... */\n      jump(tag_107)\n    tag_108:\n      pop\n        /* \"contracts/Voting.sol\":1574:1759  if (currentSession.options.length != 0) {... */\n    tag_106:\n        /* \"contracts/Voting.sol\":1773:1779  uint i */\n      0x00\n        /* \"contracts/Voting.sol\":1769:1999  for(uint i = 0; i < _options.length; i++){... */\n    tag_118:\n        /* \"contracts/Voting.sol\":1789:1797  _options */\n      dup2\n        /* \"contracts/Voting.sol\":1789:1804  _options.length */\n      mload\n        /* \"contracts/Voting.sol\":1785:1786  i */\n      dup2\n        /* \"contracts/Voting.sol\":1785:1804  i < _options.length */\n      lt\n        /* \"contracts/Voting.sol\":1769:1999  for(uint i = 0; i < _options.length; i++){... */\n      iszero\n      tag_119\n      jumpi\n        /* \"contracts/Voting.sol\":1825:1839  currentSession */\n      0x03\n        /* \"contracts/Voting.sol\":1825:1847  currentSession.options */\n      0x01\n      add\n        /* \"contracts/Voting.sol\":1853:1986  Option({... */\n      mload(0x40)\n      dup1\n      0x60\n      add\n      0x40\n      mstore\n      dup1\n        /* \"contracts/Voting.sol\":1897:1898  1 */\n      0x01\n        /* \"contracts/Voting.sol\":1893:1894  i */\n      dup5\n        /* \"contracts/Voting.sol\":1893:1898  i + 1 */\n      tag_121\n      swap2\n      swap1\n      tag_122\n      jump\t// in\n    tag_121:\n        /* \"contracts/Voting.sol\":1853:1986  Option({... */\n      dup2\n      mstore\n      0x20\n      add\n        /* \"contracts/Voting.sol\":1929:1937  _options */\n      dup5\n        /* \"contracts/Voting.sol\":1938:1939  i */\n      dup5\n        /* \"contracts/Voting.sol\":1929:1940  _options[i] */\n      dup2\n      mload\n      dup2\n      lt\n      tag_123\n      jumpi\n      tag_124\n      tag_81\n      jump\t// in\n    tag_124:\n    tag_123:\n      0x20\n      mul\n      0x20\n      add\n      add\n      mload\n        /* \"contracts/Voting.sol\":1853:1986  Option({... */\n      dup2\n      mstore\n      0x20\n      add\n        /* \"contracts/Voting.sol\":1969:1970  0 */\n      0x00\n        /* \"contracts/Voting.sol\":1853:1986  Option({... */\n      dup2\n      mstore\n      pop\n        /* \"contracts/Voting.sol\":1825:1987  currentSession.options.push(Option({... */\n      swap1\n      dup1\n      0x01\n      dup2\n      sload\n      add\n      dup1\n      dup3\n      sstore\n      dup1\n      swap2\n      pop\n      pop\n      0x01\n      swap1\n      sub\n      swap1\n      0x00\n      mstore\n      keccak256(0x00, 0x20)\n      swap1\n      0x03\n      mul\n      add\n      0x00\n      swap1\n      swap2\n      swap1\n      swap2\n      swap1\n      swap2\n      pop\n      0x00\n      dup3\n      add\n      mload\n      dup2\n      0x00\n      add\n      sstore\n      0x20\n      dup3\n      add\n      mload\n      dup2\n      0x01\n      add\n      swap1\n      dup2\n      tag_126\n      swap2\n      swap1\n      tag_105\n      jump\t// in\n    tag_126:\n      pop\n      0x40\n      dup3\n      add\n      mload\n      dup2\n      0x02\n      add\n      sstore\n      pop\n      pop\n        /* \"contracts/Voting.sol\":1806:1809  i++ */\n      dup1\n      dup1\n      tag_127\n      swap1\n      tag_117\n      jump\t// in\n    tag_127:\n      swap2\n      pop\n      pop\n        /* \"contracts/Voting.sol\":1769:1999  for(uint i = 0; i < _options.length; i++){... */\n      jump(tag_118)\n    tag_119:\n      pop\n        /* \"contracts/Voting.sol\":1420:2008  function setVoteSession(string memory _question, string[] memory _options) public Stop onlyOwner {... */\n      pop\n      pop\n      jump\t// out\n        /* \"contracts/Voting.sol\":2140:2775  function voteFor(uint optionNumber) public Start {... */\n    tag_31:\n        /* \"contracts/Voting.sol\":913:917  true */\n      0x01\n        /* \"contracts/Voting.sol\":904:917  isStart==true */\n      iszero\n      iszero\n        /* \"contracts/Voting.sol\":904:911  isStart */\n      0x00\n      0x14\n      swap1\n      sload\n      swap1\n      0x0100\n      exp\n      swap1\n      div\n      0xff\n      and\n        /* \"contracts/Voting.sol\":904:917  isStart==true */\n      iszero\n      iszero\n      eq\n        /* \"contracts/Voting.sol\":896:978  require(isStart==true, \"voting needs to start to vote for or see data or to stop\") */\n      tag_129\n      jumpi\n      mload(0x40)\n      0x08c379a000000000000000000000000000000000000000000000000000000000\n      dup2\n      mstore\n      0x04\n      add\n      tag_130\n      swap1\n      tag_56\n      jump\t// in\n    tag_130:\n      mload(0x40)\n      dup1\n      swap2\n      sub\n      swap1\n      revert\n    tag_129:\n        /* \"contracts/Voting.sol\":2217:2221  true */\n      0x01\n        /* \"contracts/Voting.sol\":2208:2221  isStart==true */\n      iszero\n      iszero\n        /* \"contracts/Voting.sol\":2208:2215  isStart */\n      0x00\n      0x14\n      swap1\n      sload\n      swap1\n      0x0100\n      exp\n      swap1\n      div\n      0xff\n      and\n        /* \"contracts/Voting.sol\":2208:2221  isStart==true */\n      iszero\n      iszero\n      eq\n        /* \"contracts/Voting.sol\":2200:2256  require(isStart==true, \"voting must be started to vote\") */\n      tag_132\n      jumpi\n      mload(0x40)\n      0x08c379a000000000000000000000000000000000000000000000000000000000\n      dup2\n      mstore\n      0x04\n      add\n      tag_133\n      swap1\n      tag_134\n      jump\t// in\n    tag_133:\n      mload(0x40)\n      dup1\n      swap2\n      sub\n      swap1\n      revert\n    tag_132:\n        /* \"contracts/Voting.sol\":2267:2287  Voter storage sender */\n      0x00\n        /* \"contracts/Voting.sol\":2290:2296  voters */\n      0x01\n        /* \"contracts/Voting.sol\":2290:2308  voters[msg.sender] */\n      0x00\n        /* \"contracts/Voting.sol\":2297:2307  msg.sender */\n      caller\n        /* \"contracts/Voting.sol\":2290:2308  voters[msg.sender] */\n      0xffffffffffffffffffffffffffffffffffffffff\n      and\n      0xffffffffffffffffffffffffffffffffffffffff\n      and\n      dup2\n      mstore\n      0x20\n      add\n      swap1\n      dup2\n      mstore\n      0x20\n      add\n      0x00\n      keccak256\n        /* \"contracts/Voting.sol\":2267:2308  Voter storage sender = voters[msg.sender] */\n      swap1\n      pop\n        /* \"contracts/Voting.sol\":2320:2341  bytes memory lastVote */\n      0x00\n        /* \"contracts/Voting.sol\":2350:2356  sender */\n      dup2\n        /* \"contracts/Voting.sol\":2350:2366  sender.lastVoted */\n      0x00\n      add\n        /* \"contracts/Voting.sol\":2320:2367  bytes memory lastVote = bytes(sender.lastVoted) */\n      dup1\n      sload\n      tag_135\n      swap1\n      tag_59\n      jump\t// in\n    tag_135:\n      dup1\n      0x1f\n      add\n      0x20\n      dup1\n      swap2\n      div\n      mul\n      0x20\n      add\n      mload(0x40)\n      swap1\n      dup2\n      add\n      0x40\n      mstore\n      dup1\n      swap3\n      swap2\n      swap1\n      dup2\n      dup2\n      mstore\n      0x20\n      add\n      dup3\n      dup1\n      sload\n      tag_136\n      swap1\n      tag_59\n      jump\t// in\n    tag_136:\n      dup1\n      iszero\n      tag_137\n      jumpi\n      dup1\n      0x1f\n      lt\n      tag_138\n      jumpi\n      0x0100\n      dup1\n      dup4\n      sload\n      div\n      mul\n      dup4\n      mstore\n      swap2\n      0x20\n      add\n      swap2\n      jump(tag_137)\n    tag_138:\n      dup3\n      add\n      swap2\n      swap1\n      0x00\n      mstore\n      keccak256(0x00, 0x20)\n      swap1\n    tag_139:\n      dup2\n      sload\n      dup2\n      mstore\n      swap1\n      0x01\n      add\n      swap1\n      0x20\n      add\n      dup1\n      dup4\n      gt\n      tag_139\n      jumpi\n      dup3\n      swap1\n      sub\n      0x1f\n      and\n      dup3\n      add\n      swap2\n    tag_137:\n      pop\n      pop\n      pop\n      pop\n      pop\n      swap1\n      pop\n        /* \"contracts/Voting.sol\":2378:2402  bytes memory currentVote */\n      0x00\n        /* \"contracts/Voting.sol\":2411:2425  currentSession */\n      0x03\n        /* \"contracts/Voting.sol\":2411:2434  currentSession.question */\n      0x00\n      add\n        /* \"contracts/Voting.sol\":2378:2435  bytes memory currentVote = bytes(currentSession.question) */\n      dup1\n      sload\n      tag_140\n      swap1\n      tag_59\n      jump\t// in\n    tag_140:\n      dup1\n      0x1f\n      add\n      0x20\n      dup1\n      swap2\n      div\n      mul\n      0x20\n      add\n      mload(0x40)\n      swap1\n      dup2\n      add\n      0x40\n      mstore\n      dup1\n      swap3\n      swap2\n      swap1\n      dup2\n      dup2\n      mstore\n      0x20\n      add\n      dup3\n      dup1\n      sload\n      tag_141\n      swap1\n      tag_59\n      jump\t// in\n    tag_141:\n      dup1\n      iszero\n      tag_142\n      jumpi\n      dup1\n      0x1f\n      lt\n      tag_143\n      jumpi\n      0x0100\n      dup1\n      dup4\n      sload\n      div\n      mul\n      dup4\n      mstore\n      swap2\n      0x20\n      add\n      swap2\n      jump(tag_142)\n    tag_143:\n      dup3\n      add\n      swap2\n      swap1\n      0x00\n      mstore\n      keccak256(0x00, 0x20)\n      swap1\n    tag_144:\n      dup2\n      sload\n      dup2\n      mstore\n      swap1\n      0x01\n      add\n      swap1\n      0x20\n      add\n      dup1\n      dup4\n      gt\n      tag_144\n      jumpi\n      dup3\n      swap1\n      sub\n      0x1f\n      and\n      dup3\n      add\n      swap2\n    tag_142:\n      pop\n      pop\n      pop\n      pop\n      pop\n      swap1\n      pop\n        /* \"contracts/Voting.sol\":2473:2484  currentVote */\n      dup1\n        /* \"contracts/Voting.sol\":2473:2491  currentVote.length */\n      mload\n        /* \"contracts/Voting.sol\":2454:2462  lastVote */\n      dup3\n        /* \"contracts/Voting.sol\":2454:2469  lastVote.length */\n      mload\n        /* \"contracts/Voting.sol\":2454:2491  lastVote.length != currentVote.length */\n      sub\n        /* \"contracts/Voting.sol\":2446:2510  require(lastVote.length != currentVote.length, \"Already voted.\") */\n      tag_145\n      jumpi\n      mload(0x40)\n      0x08c379a000000000000000000000000000000000000000000000000000000000\n      dup2\n      mstore\n      0x04\n      add\n      tag_146\n      swap1\n      tag_147\n      jump\t// in\n    tag_146:\n      mload(0x40)\n      dup1\n      swap2\n      sub\n      swap1\n      revert\n    tag_145:\n        /* \"contracts/Voting.sol\":2545:2546  0 */\n      0x00\n        /* \"contracts/Voting.sol\":2530:2542  optionNumber */\n      dup5\n        /* \"contracts/Voting.sol\":2530:2546  optionNumber > 0 */\n      gt\n        /* \"contracts/Voting.sol\":2530:2595  optionNumber > 0 && optionNumber <= currentSession.options.length */\n      dup1\n      iszero\n      tag_148\n      jumpi\n      pop\n        /* \"contracts/Voting.sol\":2566:2580  currentSession */\n      0x03\n        /* \"contracts/Voting.sol\":2566:2588  currentSession.options */\n      0x01\n      add\n        /* \"contracts/Voting.sol\":2566:2595  currentSession.options.length */\n      dup1\n      sload\n      swap1\n      pop\n        /* \"contracts/Voting.sol\":2550:2562  optionNumber */\n      dup5\n        /* \"contracts/Voting.sol\":2550:2595  optionNumber <= currentSession.options.length */\n      gt\n      iszero\n        /* \"contracts/Voting.sol\":2530:2595  optionNumber > 0 && optionNumber <= currentSession.options.length */\n    tag_148:\n        /* \"contracts/Voting.sol\":2522:2614  require(optionNumber > 0 && optionNumber <= currentSession.options.length, \"Wrong number!\" ) */\n      tag_149\n      jumpi\n      mload(0x40)\n      0x08c379a000000000000000000000000000000000000000000000000000000000\n      dup2\n      mstore\n      0x04\n      add\n      tag_150\n      swap1\n      tag_151\n      jump\t// in\n    tag_150:\n      mload(0x40)\n      dup1\n      swap2\n      sub\n      swap1\n      revert\n    tag_149:\n        /* \"contracts/Voting.sol\":2644:2658  currentSession */\n      0x03\n        /* \"contracts/Voting.sol\":2644:2667  currentSession.question */\n      0x00\n      add\n        /* \"contracts/Voting.sol\":2625:2631  sender */\n      dup4\n        /* \"contracts/Voting.sol\":2625:2641  sender.lastVoted */\n      0x00\n      add\n        /* \"contracts/Voting.sol\":2625:2667  sender.lastVoted = currentSession.question */\n      swap1\n      dup2\n      tag_152\n      swap2\n      swap1\n      tag_153\n      jump\t// in\n    tag_152:\n      pop\n        /* \"contracts/Voting.sol\":2692:2704  optionNumber */\n      dup4\n        /* \"contracts/Voting.sol\":2678:2684  sender */\n      dup4\n        /* \"contracts/Voting.sol\":2678:2689  sender.vote */\n      0x01\n      add\n        /* \"contracts/Voting.sol\":2678:2704  sender.vote = optionNumber */\n      dup2\n      swap1\n      sstore\n      pop\n        /* \"contracts/Voting.sol\":2715:2729  currentSession */\n      0x03\n        /* \"contracts/Voting.sol\":2715:2737  currentSession.options */\n      0x01\n      add\n        /* \"contracts/Voting.sol\":2753:2754  1 */\n      0x01\n        /* \"contracts/Voting.sol\":2738:2750  optionNumber */\n      dup6\n        /* \"contracts/Voting.sol\":2738:2754  optionNumber - 1 */\n      tag_154\n      swap2\n      swap1\n      tag_155\n      jump\t// in\n    tag_154:\n        /* \"contracts/Voting.sol\":2715:2755  currentSession.options[optionNumber - 1] */\n      dup2\n      sload\n      dup2\n      lt\n      tag_156\n      jumpi\n      tag_157\n      tag_81\n      jump\t// in\n    tag_157:\n    tag_156:\n      swap1\n      0x00\n      mstore\n      keccak256(0x00, 0x20)\n      swap1\n      0x03\n      mul\n      add\n        /* \"contracts/Voting.sol\":2715:2765  currentSession.options[optionNumber - 1].voteCount */\n      0x02\n      add\n      0x00\n        /* \"contracts/Voting.sol\":2715:2767  currentSession.options[optionNumber - 1].voteCount++ */\n      dup2\n      sload\n      dup1\n      swap3\n      swap2\n      swap1\n      tag_159\n      swap1\n      tag_117\n      jump\t// in\n    tag_159:\n      swap2\n      swap1\n      pop\n      sstore\n      pop\n        /* \"contracts/Voting.sol\":2189:2775  {... */\n      pop\n      pop\n      pop\n        /* \"contracts/Voting.sol\":2140:2775  function voteFor(uint optionNumber) public Start {... */\n      pop\n      jump\t// out\n        /* \"contracts/Voting.sol\":84:104  address public owner */\n    tag_33:\n      0x00\n      dup1\n      sload\n      swap1\n      0x0100\n      exp\n      swap1\n      div\n      0xffffffffffffffffffffffffffffffffffffffff\n      and\n      dup2\n      jump\t// out\n        /* \"contracts/Voting.sol\":2783:3202  function getWinner() public Stop view returns (Option memory winnerOption){... */\n    tag_37:\n        /* \"contracts/Voting.sol\":2830:2856  Option memory winnerOption */\n      tag_160\n      tag_161\n      jump\t// in\n    tag_160:\n        /* \"contracts/Voting.sol\":781:786  false */\n      0x00\n        /* \"contracts/Voting.sol\":772:786  isStart==false */\n      iszero\n      iszero\n        /* \"contracts/Voting.sol\":772:779  isStart */\n      0x00\n      0x14\n      swap1\n      sload\n      swap1\n      0x0100\n      exp\n      swap1\n      div\n      0xff\n      and\n        /* \"contracts/Voting.sol\":772:786  isStart==false */\n      iszero\n      iszero\n      eq\n        /* \"contracts/Voting.sol\":764:843  require(isStart==false, \"voting needs to stop to see winner or set new voting\") */\n      tag_163\n      jumpi\n      mload(0x40)\n      0x08c379a000000000000000000000000000000000000000000000000000000000\n      dup2\n      mstore\n      0x04\n      add\n      tag_164\n      swap1\n      tag_99\n      jump\t// in\n    tag_164:\n      mload(0x40)\n      dup1\n      swap2\n      sub\n      swap1\n      revert\n    tag_163:\n        /* \"contracts/Voting.sol\":2868:2880  uint largest */\n      0x00\n        /* \"contracts/Voting.sol\":2899:2905  uint i */\n      dup1\n        /* \"contracts/Voting.sol\":2895:3165  for(uint i = 0; i < currentSession.options.length; i++){... */\n    tag_166:\n        /* \"contracts/Voting.sol\":2915:2929  currentSession */\n      0x03\n        /* \"contracts/Voting.sol\":2915:2937  currentSession.options */\n      0x01\n      add\n        /* \"contracts/Voting.sol\":2915:2944  currentSession.options.length */\n      dup1\n      sload\n      swap1\n      pop\n        /* \"contracts/Voting.sol\":2911:2912  i */\n      dup2\n        /* \"contracts/Voting.sol\":2911:2944  i < currentSession.options.length */\n      lt\n        /* \"contracts/Voting.sol\":2895:3165  for(uint i = 0; i < currentSession.options.length; i++){... */\n      iszero\n      tag_167\n      jumpi\n        /* \"contracts/Voting.sol\":3007:3014  largest */\n      dup2\n        /* \"contracts/Voting.sol\":2969:2983  currentSession */\n      0x03\n        /* \"contracts/Voting.sol\":2969:2991  currentSession.options */\n      0x01\n      add\n        /* \"contracts/Voting.sol\":2992:2993  i */\n      dup3\n        /* \"contracts/Voting.sol\":2969:2994  currentSession.options[i] */\n      dup2\n      sload\n      dup2\n      lt\n      tag_169\n      jumpi\n      tag_170\n      tag_81\n      jump\t// in\n    tag_170:\n    tag_169:\n      swap1\n      0x00\n      mstore\n      keccak256(0x00, 0x20)\n      swap1\n      0x03\n      mul\n      add\n        /* \"contracts/Voting.sol\":2969:3004  currentSession.options[i].voteCount */\n      0x02\n      add\n      sload\n        /* \"contracts/Voting.sol\":2969:3014  currentSession.options[i].voteCount > largest */\n      gt\n        /* \"contracts/Voting.sol\":2965:3154  if (currentSession.options[i].voteCount > largest){... */\n      iszero\n      tag_172\n      jumpi\n        /* \"contracts/Voting.sol\":3044:3058  currentSession */\n      0x03\n        /* \"contracts/Voting.sol\":3044:3066  currentSession.options */\n      0x01\n      add\n        /* \"contracts/Voting.sol\":3067:3068  i */\n      dup2\n        /* \"contracts/Voting.sol\":3044:3069  currentSession.options[i] */\n      dup2\n      sload\n      dup2\n      lt\n      tag_173\n      jumpi\n      tag_174\n      tag_81\n      jump\t// in\n    tag_174:\n    tag_173:\n      swap1\n      0x00\n      mstore\n      keccak256(0x00, 0x20)\n      swap1\n      0x03\n      mul\n      add\n        /* \"contracts/Voting.sol\":3044:3079  currentSession.options[i].voteCount */\n      0x02\n      add\n      sload\n        /* \"contracts/Voting.sol\":3034:3079  largest = currentSession.options[i].voteCount */\n      swap2\n      pop\n        /* \"contracts/Voting.sol\":3113:3127  currentSession */\n      0x03\n        /* \"contracts/Voting.sol\":3113:3135  currentSession.options */\n      0x01\n      add\n        /* \"contracts/Voting.sol\":3136:3137  i */\n      dup2\n        /* \"contracts/Voting.sol\":3113:3138  currentSession.options[i] */\n      dup2\n      sload\n      dup2\n      lt\n      tag_176\n      jumpi\n      tag_177\n      tag_81\n      jump\t// in\n    tag_177:\n    tag_176:\n      swap1\n      0x00\n      mstore\n      keccak256(0x00, 0x20)\n      swap1\n      0x03\n      mul\n      add\n        /* \"contracts/Voting.sol\":3098:3138  winnerOption = currentSession.options[i] */\n      mload(0x40)\n      dup1\n      0x60\n      add\n      0x40\n      mstore\n      swap1\n      dup2\n      0x00\n      dup3\n      add\n      sload\n      dup2\n      mstore\n      0x20\n      add\n      0x01\n      dup3\n      add\n      dup1\n      sload\n      tag_179\n      swap1\n      tag_59\n      jump\t// in\n    tag_179:\n      dup1\n      0x1f\n      add\n      0x20\n      dup1\n      swap2\n      div\n      mul\n      0x20\n      add\n      mload(0x40)\n      swap1\n      dup2\n      add\n      0x40\n      mstore\n      dup1\n      swap3\n      swap2\n      swap1\n      dup2\n      dup2\n      mstore\n      0x20\n      add\n      dup3\n      dup1\n      sload\n      tag_180\n      swap1\n      tag_59\n      jump\t// in\n    tag_180:\n      dup1\n      iszero\n      tag_181\n      jumpi\n      dup1\n      0x1f\n      lt\n      tag_182\n      jumpi\n      0x0100\n      dup1\n      dup4\n      sload\n      div\n      mul\n      dup4\n      mstore\n      swap2\n      0x20\n      add\n      swap2\n      jump(tag_181)\n    tag_182:\n      dup3\n      add\n      swap2\n      swap1\n      0x00\n      mstore\n      keccak256(0x00, 0x20)\n      swap1\n    tag_183:\n      dup2\n      sload\n      dup2\n      mstore\n      swap1\n      0x01\n      add\n      swap1\n      0x20\n      add\n      dup1\n      dup4\n      gt\n      tag_183\n      jumpi\n      dup3\n      swap1\n      sub\n      0x1f\n      and\n      dup3\n      add\n      swap2\n    tag_181:\n      pop\n      pop\n      pop\n      pop\n      pop\n      dup2\n      mstore\n      0x20\n      add\n      0x02\n      dup3\n      add\n      sload\n      dup2\n      mstore\n      pop\n      pop\n      swap3\n      pop\n        /* \"contracts/Voting.sol\":2965:3154  if (currentSession.options[i].voteCount > largest){... */\n    tag_172:\n        /* \"contracts/Voting.sol\":2946:2949  i++ */\n      dup1\n      dup1\n      tag_184\n      swap1\n      tag_117\n      jump\t// in\n    tag_184:\n      swap2\n      pop\n      pop\n        /* \"contracts/Voting.sol\":2895:3165  for(uint i = 0; i < currentSession.options.length; i++){... */\n      jump(tag_166)\n    tag_167:\n      pop\n        /* \"contracts/Voting.sol\":3175:3194  return winnerOption */\n      pop\n        /* \"contracts/Voting.sol\":2783:3202  function getWinner() public Stop view returns (Option memory winnerOption){... */\n      swap1\n      jump\t// out\n        /* \"contracts/Voting.sol\":494:527  VoteSession public currentSession */\n    tag_41:\n      0x03\n      dup1\n      0x00\n      add\n      dup1\n      sload\n      tag_185\n      swap1\n      tag_59\n      jump\t// in\n    tag_185:\n      dup1\n      0x1f\n      add\n      0x20\n      dup1\n      swap2\n      div\n      mul\n      0x20\n      add\n      mload(0x40)\n      swap1\n      dup2\n      add\n      0x40\n      mstore\n      dup1\n      swap3\n      swap2\n      swap1\n      dup2\n      dup2\n      mstore\n      0x20\n      add\n      dup3\n      dup1\n      sload\n      tag_186\n      swap1\n      tag_59\n      jump\t// in\n    tag_186:\n      dup1\n      iszero\n      tag_187\n      jumpi\n      dup1\n      0x1f\n      lt\n      tag_188\n      jumpi\n      0x0100\n      dup1\n      dup4\n      sload\n      div\n      mul\n      dup4\n      mstore\n      swap2\n      0x20\n      add\n      swap2\n      jump(tag_187)\n    tag_188:\n      dup3\n      add\n      swap2\n      swap1\n      0x00\n      mstore\n      keccak256(0x00, 0x20)\n      swap1\n    tag_189:\n      dup2\n      sload\n      dup2\n      mstore\n      swap1\n      0x01\n      add\n      swap1\n      0x20\n      add\n      dup1\n      dup4\n      gt\n      tag_189\n      jumpi\n      dup3\n      swap1\n      sub\n      0x1f\n      and\n      dup3\n      add\n      swap2\n    tag_187:\n      pop\n      pop\n      pop\n      pop\n      pop\n      swap1\n      pop\n      dup2\n      jump\t// out\n        /* \"contracts/Voting.sol\":3210:3321  function getAllVoteSessions() public view returns (VoteSession[] memory) {... */\n    tag_45:\n        /* \"contracts/Voting.sol\":3261:3281  VoteSession[] memory */\n      0x60\n        /* \"contracts/Voting.sol\":3301:3313  voteSessions */\n      0x05\n        /* \"contracts/Voting.sol\":3294:3313  return voteSessions */\n      dup1\n      sload\n      dup1\n      0x20\n      mul\n      0x20\n      add\n      mload(0x40)\n      swap1\n      dup2\n      add\n      0x40\n      mstore\n      dup1\n      swap3\n      swap2\n      swap1\n      dup2\n      dup2\n      mstore\n      0x20\n      add\n      0x00\n      swap1\n    tag_191:\n      dup3\n      dup3\n      lt\n      iszero\n      tag_192\n      jumpi\n      dup4\n      dup3\n      swap1\n      0x00\n      mstore\n      keccak256(0x00, 0x20)\n      swap1\n      0x02\n      mul\n      add\n      mload(0x40)\n      dup1\n      0x40\n      add\n      0x40\n      mstore\n      swap1\n      dup2\n      0x00\n      dup3\n      add\n      dup1\n      sload\n      tag_194\n      swap1\n      tag_59\n      jump\t// in\n    tag_194:\n      dup1\n      0x1f\n      add\n      0x20\n      dup1\n      swap2\n      div\n      mul\n      0x20\n      add\n      mload(0x40)\n      swap1\n      dup2\n      add\n      0x40\n      mstore\n      dup1\n      swap3\n      swap2\n      swap1\n      dup2\n      dup2\n      mstore\n      0x20\n      add\n      dup3\n      dup1\n      sload\n      tag_195\n      swap1\n      tag_59\n      jump\t// in\n    tag_195:\n      dup1\n      iszero\n      tag_196\n      jumpi\n      dup1\n      0x1f\n      lt\n      tag_197\n      jumpi\n      0x0100\n      dup1\n      dup4\n      sload\n      div\n      mul\n      dup4\n      mstore\n      swap2\n      0x20\n      add\n      swap2\n      jump(tag_196)\n    tag_197:\n      dup3\n      add\n      swap2\n      swap1\n      0x00\n      mstore\n      keccak256(0x00, 0x20)\n      swap1\n    tag_198:\n      dup2\n      sload\n      dup2\n      mstore\n      swap1\n      0x01\n      add\n      swap1\n      0x20\n      add\n      dup1\n      dup4\n      gt\n      tag_198\n      jumpi\n      dup3\n      swap1\n      sub\n      0x1f\n      and\n      dup3\n      add\n      swap2\n    tag_196:\n      pop\n      pop\n      pop\n      pop\n      pop\n      dup2\n      mstore\n      0x20\n      add\n      0x01\n      dup3\n      add\n      dup1\n      sload\n      dup1\n      0x20\n      mul\n      0x20\n      add\n      mload(0x40)\n      swap1\n      dup2\n      add\n      0x40\n      mstore\n      dup1\n      swap3\n      swap2\n      swap1\n      dup2\n      dup2\n      mstore\n      0x20\n      add\n      0x00\n      swap1\n    tag_199:\n      dup3\n      dup3\n      lt\n      iszero\n      tag_200\n      jumpi\n      dup4\n      dup3\n      swap1\n      0x00\n      mstore\n      keccak256(0x00, 0x20)\n      swap1\n      0x03\n      mul\n      add\n      mload(0x40)\n      dup1\n      0x60\n      add\n      0x40\n      mstore\n      swap1\n      dup2\n      0x00\n      dup3\n      add\n      sload\n      dup2\n      mstore\n      0x20\n      add\n      0x01\n      dup3\n      add\n      dup1\n      sload\n      tag_202\n      swap1\n      tag_59\n      jump\t// in\n    tag_202:\n      dup1\n      0x1f\n      add\n      0x20\n      dup1\n      swap2\n      div\n      mul\n      0x20\n      add\n      mload(0x40)\n      swap1\n      dup2\n      add\n      0x40\n      mstore\n      dup1\n      swap3\n      swap2\n      swap1\n      dup2\n      dup2\n      mstore\n      0x20\n      add\n      dup3\n      dup1\n      sload\n      tag_203\n      swap1\n      tag_59\n      jump\t// in\n    tag_203:\n      dup1\n      iszero\n      tag_204\n      jumpi\n      dup1\n      0x1f\n      lt\n      tag_205\n      jumpi\n      0x0100\n      dup1\n      dup4\n      sload\n      div\n      mul\n      dup4\n      mstore\n      swap2\n      0x20\n      add\n      swap2\n      jump(tag_204)\n    tag_205:\n      dup3\n      add\n      swap2\n      swap1\n      0x00\n      mstore\n      keccak256(0x00, 0x20)\n      swap1\n    tag_206:\n      dup2\n      sload\n      dup2\n      mstore\n      swap1\n      0x01\n      add\n      swap1\n      0x20\n      add\n      dup1\n      dup4\n      gt\n      tag_206\n      jumpi\n      dup3\n      swap1\n      sub\n      0x1f\n      and\n      dup3\n      add\n      swap2\n    tag_204:\n      pop\n      pop\n      pop\n      pop\n      pop\n      dup2\n      mstore\n      0x20\n      add\n      0x02\n      dup3\n      add\n      sload\n      dup2\n      mstore\n      pop\n      pop\n      dup2\n      mstore\n      0x20\n      add\n      swap1\n      0x01\n      add\n      swap1\n      jump(tag_199)\n    tag_200:\n      pop\n      pop\n      pop\n      pop\n      dup2\n      mstore\n      pop\n      pop\n      dup2\n      mstore\n      0x20\n      add\n      swap1\n      0x01\n      add\n      swap1\n      jump(tag_191)\n    tag_192:\n      pop\n      pop\n      pop\n      pop\n      swap1\n      pop\n        /* \"contracts/Voting.sol\":3210:3321  function getAllVoteSessions() public view returns (VoteSession[] memory) {... */\n      swap1\n      jump\t// out\n        /* \"contracts/Voting.sol\":1125:1354  function stopVoting() public Start onlyOwner returns (VoteSession memory) {... */\n    tag_49:\n        /* \"contracts/Voting.sol\":1179:1197  VoteSession memory */\n      tag_207\n      tag_52\n      jump\t// in\n    tag_207:\n        /* \"contracts/Voting.sol\":913:917  true */\n      0x01\n        /* \"contracts/Voting.sol\":904:917  isStart==true */\n      iszero\n      iszero\n        /* \"contracts/Voting.sol\":904:911  isStart */\n      0x00\n      0x14\n      swap1\n      sload\n      swap1\n      0x0100\n      exp\n      swap1\n      div\n      0xff\n      and\n        /* \"contracts/Voting.sol\":904:917  isStart==true */\n      iszero\n      iszero\n      eq\n        /* \"contracts/Voting.sol\":896:978  require(isStart==true, \"voting needs to start to vote for or see data or to stop\") */\n      tag_209\n      jumpi\n      mload(0x40)\n      0x08c379a000000000000000000000000000000000000000000000000000000000\n      dup2\n      mstore\n      0x04\n      add\n      tag_210\n      swap1\n      tag_56\n      jump\t// in\n    tag_210:\n      mload(0x40)\n      dup1\n      swap2\n      sub\n      swap1\n      revert\n    tag_209:\n        /* \"contracts/Voting.sol\":647:652  owner */\n      0x00\n      dup1\n      sload\n      swap1\n      0x0100\n      exp\n      swap1\n      div\n      0xffffffffffffffffffffffffffffffffffffffff\n      and\n        /* \"contracts/Voting.sol\":633:652  msg.sender == owner */\n      0xffffffffffffffffffffffffffffffffffffffff\n      and\n        /* \"contracts/Voting.sol\":633:643  msg.sender */\n      caller\n        /* \"contracts/Voting.sol\":633:652  msg.sender == owner */\n      0xffffffffffffffffffffffffffffffffffffffff\n      and\n      eq\n        /* \"contracts/Voting.sol\":611:712  require(... */\n      tag_212\n      jumpi\n      mload(0x40)\n      0x08c379a000000000000000000000000000000000000000000000000000000000\n      dup2\n      mstore\n      0x04\n      add\n      tag_213\n      swap1\n      tag_75\n      jump\t// in\n    tag_213:\n      mload(0x40)\n      dup1\n      swap2\n      sub\n      swap1\n      revert\n    tag_212:\n        /* \"contracts/Voting.sol\":1220:1225  false */\n      0x00\n        /* \"contracts/Voting.sol\":1210:1217  isStart */\n      dup1\n      0x14\n        /* \"contracts/Voting.sol\":1210:1225  isStart = false */\n      0x0100\n      exp\n      dup2\n      sload\n      dup2\n      0xff\n      mul\n      not\n      and\n      swap1\n      dup4\n      iszero\n      iszero\n      mul\n      or\n      swap1\n      sstore\n      pop\n        /* \"contracts/Voting.sol\":1236:1248  voteSessions */\n      0x05\n        /* \"contracts/Voting.sol\":1254:1268  currentSession */\n      0x03\n        /* \"contracts/Voting.sol\":1236:1269  voteSessions.push(currentSession) */\n      swap1\n      dup1\n      0x01\n      dup2\n      sload\n      add\n      dup1\n      dup3\n      sstore\n      dup1\n      swap2\n      pop\n      pop\n      0x01\n      swap1\n      sub\n      swap1\n      0x00\n      mstore\n      keccak256(0x00, 0x20)\n      swap1\n      0x02\n      mul\n      add\n      0x00\n      swap1\n      swap2\n      swap1\n      swap2\n      swap1\n      swap2\n      pop\n      0x00\n      dup3\n      add\n      dup2\n      0x00\n      add\n      swap1\n      dup2\n      tag_216\n      swap2\n      swap1\n      tag_217\n      jump\t// in\n    tag_216:\n      pop\n      0x01\n      dup3\n      add\n      dup2\n      0x01\n      add\n      swap1\n      dup1\n      sload\n      tag_218\n      swap3\n      swap2\n      swap1\n      tag_219\n      jump\t// in\n    tag_218:\n      pop\n      pop\n      pop\n        /* \"contracts/Voting.sol\":1285:1314  VotingStopped(currentSession) */\n      0xe358bd83bcb7bc82ef83fbc3a494e602febb5a2639e796a44ea1ac5fc94e8843\n        /* \"contracts/Voting.sol\":1299:1313  currentSession */\n      0x03\n        /* \"contracts/Voting.sol\":1285:1314  VotingStopped(currentSession) */\n      mload(0x40)\n      tag_220\n      swap2\n      swap1\n      tag_221\n      jump\t// in\n    tag_220:\n      mload(0x40)\n      dup1\n      swap2\n      sub\n      swap1\n      log1\n        /* \"contracts/Voting.sol\":1332:1346  currentSession */\n      0x03\n        /* \"contracts/Voting.sol\":1325:1346  return currentSession */\n      mload(0x40)\n      dup1\n      0x40\n      add\n      0x40\n      mstore\n      swap1\n      dup2\n      0x00\n      dup3\n      add\n      dup1\n      sload\n      tag_222\n      swap1\n      tag_59\n      jump\t// in\n    tag_222:\n      dup1\n      0x1f\n      add\n      0x20\n      dup1\n      swap2\n      div\n      mul\n      0x20\n      add\n      mload(0x40)\n      swap1\n      dup2\n      add\n      0x40\n      mstore\n      dup1\n      swap3\n      swap2\n      swap1\n      dup2\n      dup2\n      mstore\n      0x20\n      add\n      dup3\n      dup1\n      sload\n      tag_223\n      swap1\n      tag_59\n      jump\t// in\n    tag_223:\n      dup1\n      iszero\n      tag_224\n      jumpi\n      dup1\n      0x1f\n      lt\n      tag_225\n      jumpi\n      0x0100\n      dup1\n      dup4\n      sload\n      div\n      mul\n      dup4\n      mstore\n      swap2\n      0x20\n      add\n      swap2\n      jump(tag_224)\n    tag_225:\n      dup3\n      add\n      swap2\n      swap1\n      0x00\n      mstore\n      keccak256(0x00, 0x20)\n      swap1\n    tag_226:\n      dup2\n      sload\n      dup2\n      mstore\n      swap1\n      0x01\n      add\n      swap1\n      0x20\n      add\n      dup1\n      dup4\n      gt\n      tag_226\n      jumpi\n      dup3\n      swap1\n      sub\n      0x1f\n      and\n      dup3\n      add\n      swap2\n    tag_224:\n      pop\n      pop\n      pop\n      pop\n      pop\n      dup2\n      mstore\n      0x20\n      add\n      0x01\n      dup3\n      add\n      dup1\n      sload\n      dup1\n      0x20\n      mul\n      0x20\n      add\n      mload(0x40)\n      swap1\n      dup2\n      add\n      0x40\n      mstore\n      dup1\n      swap3\n      swap2\n      swap1\n      dup2\n      dup2\n      mstore\n      0x20\n      add\n      0x00\n      swap1\n    tag_227:\n      dup3\n      dup3\n      lt\n      iszero\n      tag_228\n      jumpi\n      dup4\n      dup3\n      swap1\n      0x00\n      mstore\n      keccak256(0x00, 0x20)\n      swap1\n      0x03\n      mul\n      add\n      mload(0x40)\n      dup1\n      0x60\n      add\n      0x40\n      mstore\n      swap1\n      dup2\n      0x00\n      dup3\n      add\n      sload\n      dup2\n      mstore\n      0x20\n      add\n      0x01\n      dup3\n      add\n      dup1\n      sload\n      tag_230\n      swap1\n      tag_59\n      jump\t// in\n    tag_230:\n      dup1\n      0x1f\n      add\n      0x20\n      dup1\n      swap2\n      div\n      mul\n      0x20\n      add\n      mload(0x40)\n      swap1\n      dup2\n      add\n      0x40\n      mstore\n      dup1\n      swap3\n      swap2\n      swap1\n      dup2\n      dup2\n      mstore\n      0x20\n      add\n      dup3\n      dup1\n      sload\n      tag_231\n      swap1\n      tag_59\n      jump\t// in\n    tag_231:\n      dup1\n      iszero\n      tag_232\n      jumpi\n      dup1\n      0x1f\n      lt\n      tag_233\n      jumpi\n      0x0100\n      dup1\n      dup4\n      sload\n      div\n      mul\n      dup4\n      mstore\n      swap2\n      0x20\n      add\n      swap2\n      jump(tag_232)\n    tag_233:\n      dup3\n      add\n      swap2\n      swap1\n      0x00\n      mstore\n      keccak256(0x00, 0x20)\n      swap1\n    tag_234:\n      dup2\n      sload\n      dup2\n      mstore\n      swap1\n      0x01\n      add\n      swap1\n      0x20\n      add\n      dup1\n      dup4\n      gt\n      tag_234\n      jumpi\n      dup3\n      swap1\n      sub\n      0x1f\n      and\n      dup3\n      add\n      swap2\n    tag_232:\n      pop\n      pop\n      pop\n      pop\n      pop\n      dup2\n      mstore\n      0x20\n      add\n      0x02\n      dup3\n      add\n      sload\n      dup2\n      mstore\n      pop\n      pop\n      dup2\n      mstore\n      0x20\n      add\n      swap1\n      0x01\n      add\n      swap1\n      jump(tag_227)\n    tag_228:\n      pop\n      pop\n      pop\n      pop\n      dup2\n      mstore\n      pop\n      pop\n      swap1\n      pop\n        /* \"contracts/Voting.sol\":1125:1354  function stopVoting() public Start onlyOwner returns (VoteSession memory) {... */\n      swap1\n      jump\t// out\n    tag_52:\n      mload(0x40)\n      dup1\n      0x40\n      add\n      0x40\n      mstore\n      dup1\n      0x60\n      dup2\n      mstore\n      0x20\n      add\n      0x60\n      dup2\n      mstore\n      pop\n      swap1\n      jump\t// out\n    tag_115:\n      pop\n      dup1\n      sload\n      tag_235\n      swap1\n      tag_59\n      jump\t// in\n    tag_235:\n      0x00\n      dup3\n      sstore\n      dup1\n      0x1f\n      lt\n      tag_237\n      jumpi\n      pop\n      jump(tag_236)\n    tag_237:\n      0x1f\n      add\n      0x20\n      swap1\n      div\n      swap1\n      0x00\n      mstore\n      keccak256(0x00, 0x20)\n      swap1\n      dup2\n      add\n      swap1\n      tag_238\n      swap2\n      swap1\n      tag_239\n      jump\t// in\n    tag_238:\n    tag_236:\n      pop\n      jump\t// out\n    tag_161:\n      mload(0x40)\n      dup1\n      0x60\n      add\n      0x40\n      mstore\n      dup1\n      0x00\n      dup2\n      mstore\n      0x20\n      add\n      0x60\n      dup2\n      mstore\n      0x20\n      add\n      0x00\n      dup2\n      mstore\n      pop\n      swap1\n      jump\t// out\n    tag_219:\n      dup3\n      dup1\n      sload\n      dup3\n      dup3\n      sstore\n      swap1\n      0x00\n      mstore\n      keccak256(0x00, 0x20)\n      swap1\n      0x03\n      mul\n      dup2\n      add\n      swap3\n      dup3\n      iszero\n      tag_240\n      jumpi\n      0x00\n      mstore\n      keccak256(0x00, 0x20)\n      swap2\n      0x03\n      mul\n      dup3\n      add\n    tag_241:\n      dup3\n      dup2\n      gt\n      iszero\n      tag_242\n      jumpi\n      dup3\n      dup3\n      0x00\n      dup3\n      add\n      sload\n      dup2\n      0x00\n      add\n      sstore\n      0x01\n      dup3\n      add\n      dup2\n      0x01\n      add\n      swap1\n      dup2\n      tag_243\n      swap2\n      swap1\n      tag_217\n      jump\t// in\n    tag_243:\n      pop\n      0x02\n      dup3\n      add\n      sload\n      dup2\n      0x02\n      add\n      sstore\n      pop\n      pop\n      swap2\n      0x03\n      add\n      swap2\n      swap1\n      0x03\n      add\n      swap1\n      jump(tag_241)\n    tag_242:\n    tag_240:\n      pop\n      swap1\n      pop\n      tag_244\n      swap2\n      swap1\n      tag_245\n      jump\t// in\n    tag_244:\n      pop\n      swap1\n      jump\t// out\n    tag_239:\n    tag_246:\n      dup1\n      dup3\n      gt\n      iszero\n      tag_247\n      jumpi\n      0x00\n      dup2\n      0x00\n      swap1\n      sstore\n      pop\n      0x01\n      add\n      jump(tag_246)\n    tag_247:\n      pop\n      swap1\n      jump\t// out\n    tag_245:\n    tag_248:\n      dup1\n      dup3\n      gt\n      iszero\n      tag_249\n      jumpi\n      0x00\n      dup1\n      dup3\n      add\n      0x00\n      swap1\n      sstore\n      0x01\n      dup3\n      add\n      0x00\n      tag_250\n      swap2\n      swap1\n      tag_115\n      jump\t// in\n    tag_250:\n      0x02\n      dup3\n      add\n      0x00\n      swap1\n      sstore\n      pop\n      0x03\n      add\n      jump(tag_248)\n    tag_249:\n      pop\n      swap1\n      jump\t// out\n        /* \"#utility.yul\":7:106   */\n    tag_251:\n        /* \"#utility.yul\":59:65   */\n      0x00\n        /* \"#utility.yul\":93:98   */\n      dup2\n        /* \"#utility.yul\":87:99   */\n      mload\n        /* \"#utility.yul\":77:99   */\n      swap1\n      pop\n        /* \"#utility.yul\":7:106   */\n      swap2\n      swap1\n      pop\n      jump\t// out\n        /* \"#utility.yul\":112:271   */\n    tag_252:\n        /* \"#utility.yul\":186:197   */\n      0x00\n        /* \"#utility.yul\":220:226   */\n      dup3\n        /* \"#utility.yul\":215:218   */\n      dup3\n        /* \"#utility.yul\":208:227   */\n      mstore\n        /* \"#utility.yul\":260:264   */\n      0x20\n        /* \"#utility.yul\":255:258   */\n      dup3\n        /* \"#utility.yul\":251:265   */\n      add\n        /* \"#utility.yul\":236:265   */\n      swap1\n      pop\n        /* \"#utility.yul\":112:271   */\n      swap3\n      swap2\n      pop\n      pop\n      jump\t// out\n        /* \"#utility.yul\":277:523   */\n    tag_253:\n        /* \"#utility.yul\":358:359   */\n      0x00\n        /* \"#utility.yul\":368:481   */\n    tag_344:\n        /* \"#utility.yul\":382:388   */\n      dup4\n        /* \"#utility.yul\":379:380   */\n      dup2\n        /* \"#utility.yul\":376:389   */\n      lt\n        /* \"#utility.yul\":368:481   */\n      iszero\n      tag_346\n      jumpi\n        /* \"#utility.yul\":467:468   */\n      dup1\n        /* \"#utility.yul\":462:465   */\n      dup3\n        /* \"#utility.yul\":458:469   */\n      add\n        /* \"#utility.yul\":452:470   */\n      mload\n        /* \"#utility.yul\":448:449   */\n      dup2\n        /* \"#utility.yul\":443:446   */\n      dup5\n        /* \"#utility.yul\":439:450   */\n      add\n        /* \"#utility.yul\":432:471   */\n      mstore\n        /* \"#utility.yul\":404:406   */\n      0x20\n        /* \"#utility.yul\":401:402   */\n      dup2\n        /* \"#utility.yul\":397:407   */\n      add\n        /* \"#utility.yul\":392:407   */\n      swap1\n      pop\n        /* \"#utility.yul\":368:481   */\n      jump(tag_344)\n    tag_346:\n        /* \"#utility.yul\":515:516   */\n      0x00\n        /* \"#utility.yul\":506:512   */\n      dup5\n        /* \"#utility.yul\":501:504   */\n      dup5\n        /* \"#utility.yul\":497:513   */\n      add\n        /* \"#utility.yul\":490:517   */\n      mstore\n        /* \"#utility.yul\":339:523   */\n      pop\n        /* \"#utility.yul\":277:523   */\n      pop\n      pop\n      pop\n      jump\t// out\n        /* \"#utility.yul\":529:631   */\n    tag_254:\n        /* \"#utility.yul\":570:576   */\n      0x00\n        /* \"#utility.yul\":621:623   */\n      0x1f\n        /* \"#utility.yul\":617:624   */\n      not\n        /* \"#utility.yul\":612:614   */\n      0x1f\n        /* \"#utility.yul\":605:610   */\n      dup4\n        /* \"#utility.yul\":601:615   */\n      add\n        /* \"#utility.yul\":597:625   */\n      and\n        /* \"#utility.yul\":587:625   */\n      swap1\n      pop\n        /* \"#utility.yul\":529:631   */\n      swap2\n      swap1\n      pop\n      jump\t// out\n        /* \"#utility.yul\":637:994   */\n    tag_255:\n        /* \"#utility.yul\":715:718   */\n      0x00\n        /* \"#utility.yul\":743:782   */\n      tag_349\n        /* \"#utility.yul\":776:781   */\n      dup3\n        /* \"#utility.yul\":743:782   */\n      tag_251\n      jump\t// in\n    tag_349:\n        /* \"#utility.yul\":798:859   */\n      tag_350\n        /* \"#utility.yul\":852:858   */\n      dup2\n        /* \"#utility.yul\":847:850   */\n      dup6\n        /* \"#utility.yul\":798:859   */\n      tag_252\n      jump\t// in\n    tag_350:\n        /* \"#utility.yul\":791:859   */\n      swap4\n      pop\n        /* \"#utility.yul\":868:933   */\n      tag_351\n        /* \"#utility.yul\":926:932   */\n      dup2\n        /* \"#utility.yul\":921:924   */\n      dup6\n        /* \"#utility.yul\":914:918   */\n      0x20\n        /* \"#utility.yul\":907:912   */\n      dup7\n        /* \"#utility.yul\":903:919   */\n      add\n        /* \"#utility.yul\":868:933   */\n      tag_253\n      jump\t// in\n    tag_351:\n        /* \"#utility.yul\":958:987   */\n      tag_352\n        /* \"#utility.yul\":980:986   */\n      dup2\n        /* \"#utility.yul\":958:987   */\n      tag_254\n      jump\t// in\n    tag_352:\n        /* \"#utility.yul\":953:956   */\n      dup5\n        /* \"#utility.yul\":949:988   */\n      add\n        /* \"#utility.yul\":942:988   */\n      swap2\n      pop\n        /* \"#utility.yul\":719:994   */\n      pop\n        /* \"#utility.yul\":637:994   */\n      swap3\n      swap2\n      pop\n      pop\n      jump\t// out\n        /* \"#utility.yul\":1000:1136   */\n    tag_256:\n        /* \"#utility.yul\":1089:1095   */\n      0x00\n        /* \"#utility.yul\":1123:1128   */\n      dup2\n        /* \"#utility.yul\":1117:1129   */\n      mload\n        /* \"#utility.yul\":1107:1129   */\n      swap1\n      pop\n        /* \"#utility.yul\":1000:1136   */\n      swap2\n      swap1\n      pop\n      jump\t// out\n        /* \"#utility.yul\":1142:1338   */\n    tag_257:\n        /* \"#utility.yul\":1253:1264   */\n      0x00\n        /* \"#utility.yul\":1287:1293   */\n      dup3\n        /* \"#utility.yul\":1282:1285   */\n      dup3\n        /* \"#utility.yul\":1275:1294   */\n      mstore\n        /* \"#utility.yul\":1327:1331   */\n      0x20\n        /* \"#utility.yul\":1322:1325   */\n      dup3\n        /* \"#utility.yul\":1318:1332   */\n      add\n        /* \"#utility.yul\":1303:1332   */\n      swap1\n      pop\n        /* \"#utility.yul\":1142:1338   */\n      swap3\n      swap2\n      pop\n      pop\n      jump\t// out\n        /* \"#utility.yul\":1344:1498   */\n    tag_258:\n        /* \"#utility.yul\":1433:1437   */\n      0x00\n        /* \"#utility.yul\":1456:1459   */\n      dup2\n        /* \"#utility.yul\":1448:1459   */\n      swap1\n      pop\n        /* \"#utility.yul\":1486:1490   */\n      0x20\n        /* \"#utility.yul\":1481:1484   */\n      dup3\n        /* \"#utility.yul\":1477:1491   */\n      add\n        /* \"#utility.yul\":1469:1491   */\n      swap1\n      pop\n        /* \"#utility.yul\":1344:1498   */\n      swap2\n      swap1\n      pop\n      jump\t// out\n        /* \"#utility.yul\":1504:1581   */\n    tag_259:\n        /* \"#utility.yul\":1541:1548   */\n      0x00\n        /* \"#utility.yul\":1570:1575   */\n      dup2\n        /* \"#utility.yul\":1559:1575   */\n      swap1\n      pop\n        /* \"#utility.yul\":1504:1581   */\n      swap2\n      swap1\n      pop\n      jump\t// out\n        /* \"#utility.yul\":1587:1695   */\n    tag_260:\n        /* \"#utility.yul\":1664:1688   */\n      tag_358\n        /* \"#utility.yul\":1682:1687   */\n      dup2\n        /* \"#utility.yul\":1664:1688   */\n      tag_259\n      jump\t// in\n    tag_358:\n        /* \"#utility.yul\":1659:1662   */\n      dup3\n        /* \"#utility.yul\":1652:1689   */\n      mstore\n        /* \"#utility.yul\":1587:1695   */\n      pop\n      pop\n      jump\t// out\n        /* \"#utility.yul\":1753:2536   */\n    tag_261:\n        /* \"#utility.yul\":1856:1859   */\n      0x00\n        /* \"#utility.yul\":1892:1896   */\n      0x60\n        /* \"#utility.yul\":1887:1890   */\n      dup4\n        /* \"#utility.yul\":1883:1897   */\n      add\n        /* \"#utility.yul\":1987:1991   */\n      0x00\n        /* \"#utility.yul\":1980:1985   */\n      dup4\n        /* \"#utility.yul\":1976:1992   */\n      add\n        /* \"#utility.yul\":1970:1993   */\n      mload\n        /* \"#utility.yul\":2006:2069   */\n      tag_360\n        /* \"#utility.yul\":2063:2067   */\n      0x00\n        /* \"#utility.yul\":2058:2061   */\n      dup7\n        /* \"#utility.yul\":2054:2068   */\n      add\n        /* \"#utility.yul\":2040:2052   */\n      dup3\n        /* \"#utility.yul\":2006:2069   */\n      tag_260\n      jump\t// in\n    tag_360:\n        /* \"#utility.yul\":1907:2079   */\n      pop\n        /* \"#utility.yul\":2167:2171   */\n      0x20\n        /* \"#utility.yul\":2160:2165   */\n      dup4\n        /* \"#utility.yul\":2156:2172   */\n      add\n        /* \"#utility.yul\":2150:2173   */\n      mload\n        /* \"#utility.yul\":2220:2223   */\n      dup5\n        /* \"#utility.yul\":2214:2218   */\n      dup3\n        /* \"#utility.yul\":2210:2224   */\n      sub\n        /* \"#utility.yul\":2203:2207   */\n      0x20\n        /* \"#utility.yul\":2198:2201   */\n      dup7\n        /* \"#utility.yul\":2194:2208   */\n      add\n        /* \"#utility.yul\":2187:2225   */\n      mstore\n        /* \"#utility.yul\":2246:2319   */\n      tag_361\n        /* \"#utility.yul\":2314:2318   */\n      dup3\n        /* \"#utility.yul\":2300:2312   */\n      dup3\n        /* \"#utility.yul\":2246:2319   */\n      tag_255\n      jump\t// in\n    tag_361:\n        /* \"#utility.yul\":2238:2319   */\n      swap2\n      pop\n        /* \"#utility.yul\":2089:2330   */\n      pop\n        /* \"#utility.yul\":2417:2421   */\n      0x40\n        /* \"#utility.yul\":2410:2415   */\n      dup4\n        /* \"#utility.yul\":2406:2422   */\n      add\n        /* \"#utility.yul\":2400:2423   */\n      mload\n        /* \"#utility.yul\":2436:2499   */\n      tag_362\n        /* \"#utility.yul\":2493:2497   */\n      0x40\n        /* \"#utility.yul\":2488:2491   */\n      dup7\n        /* \"#utility.yul\":2484:2498   */\n      add\n        /* \"#utility.yul\":2470:2482   */\n      dup3\n        /* \"#utility.yul\":2436:2499   */\n      tag_260\n      jump\t// in\n    tag_362:\n        /* \"#utility.yul\":2340:2509   */\n      pop\n        /* \"#utility.yul\":2526:2530   */\n      dup1\n        /* \"#utility.yul\":2519:2530   */\n      swap2\n      pop\n        /* \"#utility.yul\":1861:2536   */\n      pop\n        /* \"#utility.yul\":1753:2536   */\n      swap3\n      swap2\n      pop\n      pop\n      jump\t// out\n        /* \"#utility.yul\":2542:2786   */\n    tag_262:\n        /* \"#utility.yul\":2655:2665   */\n      0x00\n        /* \"#utility.yul\":2690:2780   */\n      tag_364\n        /* \"#utility.yul\":2776:2779   */\n      dup4\n        /* \"#utility.yul\":2768:2774   */\n      dup4\n        /* \"#utility.yul\":2690:2780   */\n      tag_261\n      jump\t// in\n    tag_364:\n        /* \"#utility.yul\":2676:2780   */\n      swap1\n      pop\n        /* \"#utility.yul\":2542:2786   */\n      swap3\n      swap2\n      pop\n      pop\n      jump\t// out\n        /* \"#utility.yul\":2792:2927   */\n    tag_263:\n        /* \"#utility.yul\":2884:2888   */\n      0x00\n        /* \"#utility.yul\":2916:2920   */\n      0x20\n        /* \"#utility.yul\":2911:2914   */\n      dup3\n        /* \"#utility.yul\":2907:2921   */\n      add\n        /* \"#utility.yul\":2899:2921   */\n      swap1\n      pop\n        /* \"#utility.yul\":2792:2927   */\n      swap2\n      swap1\n      pop\n      jump\t// out\n        /* \"#utility.yul\":2989:4056   */\n    tag_264:\n        /* \"#utility.yul\":3142:3145   */\n      0x00\n        /* \"#utility.yul\":3171:3247   */\n      tag_367\n        /* \"#utility.yul\":3241:3246   */\n      dup3\n        /* \"#utility.yul\":3171:3247   */\n      tag_256\n      jump\t// in\n    tag_367:\n        /* \"#utility.yul\":3263:3361   */\n      tag_368\n        /* \"#utility.yul\":3354:3360   */\n      dup2\n        /* \"#utility.yul\":3349:3352   */\n      dup6\n        /* \"#utility.yul\":3263:3361   */\n      tag_257\n      jump\t// in\n    tag_368:\n        /* \"#utility.yul\":3256:3361   */\n      swap4\n      pop\n        /* \"#utility.yul\":3387:3390   */\n      dup4\n        /* \"#utility.yul\":3432:3436   */\n      0x20\n        /* \"#utility.yul\":3424:3430   */\n      dup3\n        /* \"#utility.yul\":3420:3437   */\n      mul\n        /* \"#utility.yul\":3415:3418   */\n      dup6\n        /* \"#utility.yul\":3411:3438   */\n      add\n        /* \"#utility.yul\":3462:3540   */\n      tag_369\n        /* \"#utility.yul\":3534:3539   */\n      dup6\n        /* \"#utility.yul\":3462:3540   */\n      tag_258\n      jump\t// in\n    tag_369:\n        /* \"#utility.yul\":3563:3570   */\n      dup1\n        /* \"#utility.yul\":3594:3595   */\n      0x00\n        /* \"#utility.yul\":3579:4011   */\n    tag_370:\n        /* \"#utility.yul\":3604:3610   */\n      dup6\n        /* \"#utility.yul\":3601:3602   */\n      dup2\n        /* \"#utility.yul\":3598:3611   */\n      lt\n        /* \"#utility.yul\":3579:4011   */\n      iszero\n      tag_372\n      jumpi\n        /* \"#utility.yul\":3675:3684   */\n      dup5\n        /* \"#utility.yul\":3669:3673   */\n      dup5\n        /* \"#utility.yul\":3665:3685   */\n      sub\n        /* \"#utility.yul\":3660:3663   */\n      dup10\n        /* \"#utility.yul\":3653:3686   */\n      mstore\n        /* \"#utility.yul\":3726:3732   */\n      dup2\n        /* \"#utility.yul\":3720:3733   */\n      mload\n        /* \"#utility.yul\":3754:3862   */\n      tag_373\n        /* \"#utility.yul\":3857:3861   */\n      dup6\n        /* \"#utility.yul\":3842:3855   */\n      dup3\n        /* \"#utility.yul\":3754:3862   */\n      tag_262\n      jump\t// in\n    tag_373:\n        /* \"#utility.yul\":3746:3862   */\n      swap5\n      pop\n        /* \"#utility.yul\":3885:3967   */\n      tag_374\n        /* \"#utility.yul\":3960:3966   */\n      dup4\n        /* \"#utility.yul\":3885:3967   */\n      tag_263\n      jump\t// in\n    tag_374:\n        /* \"#utility.yul\":3875:3967   */\n      swap3\n      pop\n        /* \"#utility.yul\":3996:4000   */\n      0x20\n        /* \"#utility.yul\":3991:3994   */\n      dup11\n        /* \"#utility.yul\":3987:4001   */\n      add\n        /* \"#utility.yul\":3980:4001   */\n      swap10\n      pop\n        /* \"#utility.yul\":3639:4011   */\n      pop\n        /* \"#utility.yul\":3626:3627   */\n      0x01\n        /* \"#utility.yul\":3623:3624   */\n      dup2\n        /* \"#utility.yul\":3619:3628   */\n      add\n        /* \"#utility.yul\":3614:3628   */\n      swap1\n      pop\n        /* \"#utility.yul\":3579:4011   */\n      jump(tag_370)\n    tag_372:\n        /* \"#utility.yul\":3583:3597   */\n      pop\n        /* \"#utility.yul\":4027:4031   */\n      dup3\n        /* \"#utility.yul\":4020:4031   */\n      swap8\n      pop\n        /* \"#utility.yul\":4047:4050   */\n      dup8\n        /* \"#utility.yul\":4040:4050   */\n      swap6\n      pop\n        /* \"#utility.yul\":3147:4056   */\n      pop\n      pop\n      pop\n      pop\n      pop\n        /* \"#utility.yul\":2989:4056   */\n      swap3\n      swap2\n      pop\n      pop\n      jump\t// out\n        /* \"#utility.yul\":4124:4886   */\n    tag_265:\n        /* \"#utility.yul\":4247:4250   */\n      0x00\n        /* \"#utility.yul\":4283:4287   */\n      0x40\n        /* \"#utility.yul\":4278:4281   */\n      dup4\n        /* \"#utility.yul\":4274:4288   */\n      add\n        /* \"#utility.yul\":4374:4378   */\n      0x00\n        /* \"#utility.yul\":4367:4372   */\n      dup4\n        /* \"#utility.yul\":4363:4379   */\n      add\n        /* \"#utility.yul\":4357:4380   */\n      mload\n        /* \"#utility.yul\":4427:4430   */\n      dup5\n        /* \"#utility.yul\":4421:4425   */\n      dup3\n        /* \"#utility.yul\":4417:4431   */\n      sub\n        /* \"#utility.yul\":4410:4414   */\n      0x00\n        /* \"#utility.yul\":4405:4408   */\n      dup7\n        /* \"#utility.yul\":4401:4415   */\n      add\n        /* \"#utility.yul\":4394:4432   */\n      mstore\n        /* \"#utility.yul\":4453:4526   */\n      tag_376\n        /* \"#utility.yul\":4521:4525   */\n      dup3\n        /* \"#utility.yul\":4507:4519   */\n      dup3\n        /* \"#utility.yul\":4453:4526   */\n      tag_255\n      jump\t// in\n    tag_376:\n        /* \"#utility.yul\":4445:4526   */\n      swap2\n      pop\n        /* \"#utility.yul\":4298:4537   */\n      pop\n        /* \"#utility.yul\":4622:4626   */\n      0x20\n        /* \"#utility.yul\":4615:4620   */\n      dup4\n        /* \"#utility.yul\":4611:4627   */\n      add\n        /* \"#utility.yul\":4605:4628   */\n      mload\n        /* \"#utility.yul\":4675:4678   */\n      dup5\n        /* \"#utility.yul\":4669:4673   */\n      dup3\n        /* \"#utility.yul\":4665:4679   */\n      sub\n        /* \"#utility.yul\":4658:4662   */\n      0x20\n        /* \"#utility.yul\":4653:4656   */\n      dup7\n        /* \"#utility.yul\":4649:4663   */\n      add\n        /* \"#utility.yul\":4642:4680   */\n      mstore\n        /* \"#utility.yul\":4701:4848   */\n      tag_377\n        /* \"#utility.yul\":4843:4847   */\n      dup3\n        /* \"#utility.yul\":4829:4841   */\n      dup3\n        /* \"#utility.yul\":4701:4848   */\n      tag_264\n      jump\t// in\n    tag_377:\n        /* \"#utility.yul\":4693:4848   */\n      swap2\n      pop\n        /* \"#utility.yul\":4547:4859   */\n      pop\n        /* \"#utility.yul\":4876:4880   */\n      dup1\n        /* \"#utility.yul\":4869:4880   */\n      swap2\n      pop\n        /* \"#utility.yul\":4252:4886   */\n      pop\n        /* \"#utility.yul\":4124:4886   */\n      swap3\n      swap2\n      pop\n      pop\n      jump\t// out\n        /* \"#utility.yul\":4892:5273   */\n    tag_17:\n        /* \"#utility.yul\":5039:5043   */\n      0x00\n        /* \"#utility.yul\":5077:5079   */\n      0x20\n        /* \"#utility.yul\":5066:5075   */\n      dup3\n        /* \"#utility.yul\":5062:5080   */\n      add\n        /* \"#utility.yul\":5054:5080   */\n      swap1\n      pop\n        /* \"#utility.yul\":5126:5135   */\n      dup2\n        /* \"#utility.yul\":5120:5124   */\n      dup2\n        /* \"#utility.yul\":5116:5136   */\n      sub\n        /* \"#utility.yul\":5112:5113   */\n      0x00\n        /* \"#utility.yul\":5101:5110   */\n      dup4\n        /* \"#utility.yul\":5097:5114   */\n      add\n        /* \"#utility.yul\":5090:5137   */\n      mstore\n        /* \"#utility.yul\":5154:5266   */\n      tag_379\n        /* \"#utility.yul\":5261:5265   */\n      dup2\n        /* \"#utility.yul\":5252:5258   */\n      dup5\n        /* \"#utility.yul\":5154:5266   */\n      tag_265\n      jump\t// in\n    tag_379:\n        /* \"#utility.yul\":5146:5266   */\n      swap1\n      pop\n        /* \"#utility.yul\":4892:5273   */\n      swap3\n      swap2\n      pop\n      pop\n      jump\t// out\n        /* \"#utility.yul\":5279:5354   */\n    tag_266:\n        /* \"#utility.yul\":5312:5318   */\n      0x00\n        /* \"#utility.yul\":5345:5347   */\n      0x40\n        /* \"#utility.yul\":5339:5348   */\n      mload\n        /* \"#utility.yul\":5329:5348   */\n      swap1\n      pop\n        /* \"#utility.yul\":5279:5354   */\n      swap1\n      jump\t// out\n        /* \"#utility.yul\":5360:5477   */\n    tag_267:\n        /* \"#utility.yul\":5469:5470   */\n      0x00\n        /* \"#utility.yul\":5466:5467   */\n      dup1\n        /* \"#utility.yul\":5459:5471   */\n      revert\n        /* \"#utility.yul\":5483:5600   */\n    tag_268:\n        /* \"#utility.yul\":5592:5593   */\n      0x00\n        /* \"#utility.yul\":5589:5590   */\n      dup1\n        /* \"#utility.yul\":5582:5594   */\n      revert\n        /* \"#utility.yul\":5606:5728   */\n    tag_269:\n        /* \"#utility.yul\":5679:5703   */\n      tag_384\n        /* \"#utility.yul\":5697:5702   */\n      dup2\n        /* \"#utility.yul\":5679:5703   */\n      tag_259\n      jump\t// in\n    tag_384:\n        /* \"#utility.yul\":5672:5677   */\n      dup2\n        /* \"#utility.yul\":5669:5704   */\n      eq\n        /* \"#utility.yul\":5659:5722   */\n      tag_385\n      jumpi\n        /* \"#utility.yul\":5718:5719   */\n      0x00\n        /* \"#utility.yul\":5715:5716   */\n      dup1\n        /* \"#utility.yul\":5708:5720   */\n      revert\n        /* \"#utility.yul\":5659:5722   */\n    tag_385:\n        /* \"#utility.yul\":5606:5728   */\n      pop\n      jump\t// out\n        /* \"#utility.yul\":5734:5873   */\n    tag_270:\n        /* \"#utility.yul\":5780:5785   */\n      0x00\n        /* \"#utility.yul\":5818:5824   */\n      dup2\n        /* \"#utility.yul\":5805:5825   */\n      calldataload\n        /* \"#utility.yul\":5796:5825   */\n      swap1\n      pop\n        /* \"#utility.yul\":5834:5867   */\n      tag_387\n        /* \"#utility.yul\":5861:5866   */\n      dup2\n        /* \"#utility.yul\":5834:5867   */\n      tag_269\n      jump\t// in\n    tag_387:\n        /* \"#utility.yul\":5734:5873   */\n      swap3\n      swap2\n      pop\n      pop\n      jump\t// out\n        /* \"#utility.yul\":5879:6208   */\n    tag_22:\n        /* \"#utility.yul\":5938:5944   */\n      0x00\n        /* \"#utility.yul\":5987:5989   */\n      0x20\n        /* \"#utility.yul\":5975:5984   */\n      dup3\n        /* \"#utility.yul\":5966:5973   */\n      dup5\n        /* \"#utility.yul\":5962:5985   */\n      sub\n        /* \"#utility.yul\":5958:5990   */\n      slt\n        /* \"#utility.yul\":5955:6074   */\n      iszero\n      tag_389\n      jumpi\n        /* \"#utility.yul\":5993:6072   */\n      tag_390\n      tag_267\n      jump\t// in\n    tag_390:\n        /* \"#utility.yul\":5955:6074   */\n    tag_389:\n        /* \"#utility.yul\":6113:6114   */\n      0x00\n        /* \"#utility.yul\":6138:6191   */\n      tag_391\n        /* \"#utility.yul\":6183:6190   */\n      dup5\n        /* \"#utility.yul\":6174:6180   */\n      dup3\n        /* \"#utility.yul\":6163:6172   */\n      dup6\n        /* \"#utility.yul\":6159:6181   */\n      add\n        /* \"#utility.yul\":6138:6191   */\n      tag_270\n      jump\t// in\n    tag_391:\n        /* \"#utility.yul\":6128:6191   */\n      swap2\n      pop\n        /* \"#utility.yul\":6084:6201   */\n      pop\n        /* \"#utility.yul\":5879:6208   */\n      swap3\n      swap2\n      pop\n      pop\n      jump\t// out\n        /* \"#utility.yul\":6214:6331   */\n    tag_271:\n        /* \"#utility.yul\":6323:6324   */\n      0x00\n        /* \"#utility.yul\":6320:6321   */\n      dup1\n        /* \"#utility.yul\":6313:6325   */\n      revert\n        /* \"#utility.yul\":6337:6454   */\n    tag_272:\n        /* \"#utility.yul\":6446:6447   */\n      0x00\n        /* \"#utility.yul\":6443:6444   */\n      dup1\n        /* \"#utility.yul\":6436:6448   */\n      revert\n        /* \"#utility.yul\":6460:6640   */\n    tag_273:\n        /* \"#utility.yul\":6508:6585   */\n      0x4e487b7100000000000000000000000000000000000000000000000000000000\n        /* \"#utility.yul\":6505:6506   */\n      0x00\n        /* \"#utility.yul\":6498:6586   */\n      mstore\n        /* \"#utility.yul\":6605:6609   */\n      0x41\n        /* \"#utility.yul\":6602:6603   */\n      0x04\n        /* \"#utility.yul\":6595:6610   */\n      mstore\n        /* \"#utility.yul\":6629:6633   */\n      0x24\n        /* \"#utility.yul\":6626:6627   */\n      0x00\n        /* \"#utility.yul\":6619:6634   */\n      revert\n        /* \"#utility.yul\":6646:6927   */\n    tag_274:\n        /* \"#utility.yul\":6729:6756   */\n      tag_396\n        /* \"#utility.yul\":6751:6755   */\n      dup3\n        /* \"#utility.yul\":6729:6756   */\n      tag_254\n      jump\t// in\n    tag_396:\n        /* \"#utility.yul\":6721:6727   */\n      dup2\n        /* \"#utility.yul\":6717:6757   */\n      add\n        /* \"#utility.yul\":6859:6865   */\n      dup2\n        /* \"#utility.yul\":6847:6857   */\n      dup2\n        /* \"#utility.yul\":6844:6866   */\n      lt\n        /* \"#utility.yul\":6823:6841   */\n      0xffffffffffffffff\n        /* \"#utility.yul\":6811:6821   */\n      dup3\n        /* \"#utility.yul\":6808:6842   */\n      gt\n        /* \"#utility.yul\":6805:6867   */\n      or\n        /* \"#utility.yul\":6802:6890   */\n      iszero\n      tag_397\n      jumpi\n        /* \"#utility.yul\":6870:6888   */\n      tag_398\n      tag_273\n      jump\t// in\n    tag_398:\n        /* \"#utility.yul\":6802:6890   */\n    tag_397:\n        /* \"#utility.yul\":6910:6920   */\n      dup1\n        /* \"#utility.yul\":6906:6908   */\n      0x40\n        /* \"#utility.yul\":6899:6921   */\n      mstore\n        /* \"#utility.yul\":6689:6927   */\n      pop\n        /* \"#utility.yul\":6646:6927   */\n      pop\n      pop\n      jump\t// out\n        /* \"#utility.yul\":6933:7062   */\n    tag_275:\n        /* \"#utility.yul\":6967:6973   */\n      0x00\n        /* \"#utility.yul\":6994:7014   */\n      tag_400\n      tag_266\n      jump\t// in\n    tag_400:\n        /* \"#utility.yul\":6984:7014   */\n      swap1\n      pop\n        /* \"#utility.yul\":7023:7056   */\n      tag_401\n        /* \"#utility.yul\":7051:7055   */\n      dup3\n        /* \"#utility.yul\":7043:7049   */\n      dup3\n        /* \"#utility.yul\":7023:7056   */\n      tag_274\n      jump\t// in\n    tag_401:\n        /* \"#utility.yul\":6933:7062   */\n      swap2\n      swap1\n      pop\n      jump\t// out\n        /* \"#utility.yul\":7068:7376   */\n    tag_276:\n        /* \"#utility.yul\":7130:7134   */\n      0x00\n        /* \"#utility.yul\":7220:7238   */\n      0xffffffffffffffff\n        /* \"#utility.yul\":7212:7218   */\n      dup3\n        /* \"#utility.yul\":7209:7239   */\n      gt\n        /* \"#utility.yul\":7206:7262   */\n      iszero\n      tag_403\n      jumpi\n        /* \"#utility.yul\":7242:7260   */\n      tag_404\n      tag_273\n      jump\t// in\n    tag_404:\n        /* \"#utility.yul\":7206:7262   */\n    tag_403:\n        /* \"#utility.yul\":7280:7309   */\n      tag_405\n        /* \"#utility.yul\":7302:7308   */\n      dup3\n        /* \"#utility.yul\":7280:7309   */\n      tag_254\n      jump\t// in\n    tag_405:\n        /* \"#utility.yul\":7272:7309   */\n      swap1\n      pop\n        /* \"#utility.yul\":7364:7368   */\n      0x20\n        /* \"#utility.yul\":7358:7362   */\n      dup2\n        /* \"#utility.yul\":7354:7369   */\n      add\n        /* \"#utility.yul\":7346:7369   */\n      swap1\n      pop\n        /* \"#utility.yul\":7068:7376   */\n      swap2\n      swap1\n      pop\n      jump\t// out\n        /* \"#utility.yul\":7382:7528   */\n    tag_277:\n        /* \"#utility.yul\":7479:7485   */\n      dup3\n        /* \"#utility.yul\":7474:7477   */\n      dup2\n        /* \"#utility.yul\":7469:7472   */\n      dup4\n        /* \"#utility.yul\":7456:7486   */\n      calldatacopy\n        /* \"#utility.yul\":7520:7521   */\n      0x00\n        /* \"#utility.yul\":7511:7517   */\n      dup4\n        /* \"#utility.yul\":7506:7509   */\n      dup4\n        /* \"#utility.yul\":7502:7518   */\n      add\n        /* \"#utility.yul\":7495:7522   */\n      mstore\n        /* \"#utility.yul\":7382:7528   */\n      pop\n      pop\n      pop\n      jump\t// out\n        /* \"#utility.yul\":7534:7959   */\n    tag_278:\n        /* \"#utility.yul\":7612:7617   */\n      0x00\n        /* \"#utility.yul\":7637:7703   */\n      tag_408\n        /* \"#utility.yul\":7653:7702   */\n      tag_409\n        /* \"#utility.yul\":7695:7701   */\n      dup5\n        /* \"#utility.yul\":7653:7702   */\n      tag_276\n      jump\t// in\n    tag_409:\n        /* \"#utility.yul\":7637:7703   */\n      tag_275\n      jump\t// in\n    tag_408:\n        /* \"#utility.yul\":7628:7703   */\n      swap1\n      pop\n        /* \"#utility.yul\":7726:7732   */\n      dup3\n        /* \"#utility.yul\":7719:7724   */\n      dup2\n        /* \"#utility.yul\":7712:7733   */\n      mstore\n        /* \"#utility.yul\":7764:7768   */\n      0x20\n        /* \"#utility.yul\":7757:7762   */\n      dup2\n        /* \"#utility.yul\":7753:7769   */\n      add\n        /* \"#utility.yul\":7802:7805   */\n      dup5\n        /* \"#utility.yul\":7793:7799   */\n      dup5\n        /* \"#utility.yul\":7788:7791   */\n      dup5\n        /* \"#utility.yul\":7784:7800   */\n      add\n        /* \"#utility.yul\":7781:7806   */\n      gt\n        /* \"#utility.yul\":7778:7890   */\n      iszero\n      tag_410\n      jumpi\n        /* \"#utility.yul\":7809:7888   */\n      tag_411\n      tag_272\n      jump\t// in\n    tag_411:\n        /* \"#utility.yul\":7778:7890   */\n    tag_410:\n        /* \"#utility.yul\":7899:7953   */\n      tag_412\n        /* \"#utility.yul\":7946:7952   */\n      dup5\n        /* \"#utility.yul\":7941:7944   */\n      dup3\n        /* \"#utility.yul\":7936:7939   */\n      dup6\n        /* \"#utility.yul\":7899:7953   */\n      tag_277\n      jump\t// in\n    tag_412:\n        /* \"#utility.yul\":7618:7959   */\n      pop\n        /* \"#utility.yul\":7534:7959   */\n      swap4\n      swap3\n      pop\n      pop\n      pop\n      jump\t// out\n        /* \"#utility.yul\":7979:8319   */\n    tag_279:\n        /* \"#utility.yul\":8035:8040   */\n      0x00\n        /* \"#utility.yul\":8084:8087   */\n      dup3\n        /* \"#utility.yul\":8077:8081   */\n      0x1f\n        /* \"#utility.yul\":8069:8075   */\n      dup4\n        /* \"#utility.yul\":8065:8082   */\n      add\n        /* \"#utility.yul\":8061:8088   */\n      slt\n        /* \"#utility.yul\":8051:8173   */\n      tag_414\n      jumpi\n        /* \"#utility.yul\":8092:8171   */\n      tag_415\n      tag_271\n      jump\t// in\n    tag_415:\n        /* \"#utility.yul\":8051:8173   */\n    tag_414:\n        /* \"#utility.yul\":8209:8215   */\n      dup2\n        /* \"#utility.yul\":8196:8216   */\n      calldataload\n        /* \"#utility.yul\":8234:8313   */\n      tag_416\n        /* \"#utility.yul\":8309:8312   */\n      dup5\n        /* \"#utility.yul\":8301:8307   */\n      dup3\n        /* \"#utility.yul\":8294:8298   */\n      0x20\n        /* \"#utility.yul\":8286:8292   */\n      dup7\n        /* \"#utility.yul\":8282:8299   */\n      add\n        /* \"#utility.yul\":8234:8313   */\n      tag_278\n      jump\t// in\n    tag_416:\n        /* \"#utility.yul\":8225:8313   */\n      swap2\n      pop\n        /* \"#utility.yul\":8041:8319   */\n      pop\n        /* \"#utility.yul\":7979:8319   */\n      swap3\n      swap2\n      pop\n      pop\n      jump\t// out\n        /* \"#utility.yul\":8325:8646   */\n    tag_280:\n        /* \"#utility.yul\":8412:8416   */\n      0x00\n        /* \"#utility.yul\":8502:8520   */\n      0xffffffffffffffff\n        /* \"#utility.yul\":8494:8500   */\n      dup3\n        /* \"#utility.yul\":8491:8521   */\n      gt\n        /* \"#utility.yul\":8488:8544   */\n      iszero\n      tag_418\n      jumpi\n        /* \"#utility.yul\":8524:8542   */\n      tag_419\n      tag_273\n      jump\t// in\n    tag_419:\n        /* \"#utility.yul\":8488:8544   */\n    tag_418:\n        /* \"#utility.yul\":8574:8578   */\n      0x20\n        /* \"#utility.yul\":8566:8572   */\n      dup3\n        /* \"#utility.yul\":8562:8579   */\n      mul\n        /* \"#utility.yul\":8554:8579   */\n      swap1\n      pop\n        /* \"#utility.yul\":8634:8638   */\n      0x20\n        /* \"#utility.yul\":8628:8632   */\n      dup2\n        /* \"#utility.yul\":8624:8639   */\n      add\n        /* \"#utility.yul\":8616:8639   */\n      swap1\n      pop\n        /* \"#utility.yul\":8325:8646   */\n      swap2\n      swap1\n      pop\n      jump\t// out\n        /* \"#utility.yul\":8652:8769   */\n    tag_281:\n        /* \"#utility.yul\":8761:8762   */\n      0x00\n        /* \"#utility.yul\":8758:8759   */\n      dup1\n        /* \"#utility.yul\":8751:8763   */\n      revert\n        /* \"#utility.yul\":8791:9736   */\n    tag_282:\n        /* \"#utility.yul\":8897:8902   */\n      0x00\n        /* \"#utility.yul\":8922:9013   */\n      tag_422\n        /* \"#utility.yul\":8938:9012   */\n      tag_423\n        /* \"#utility.yul\":9005:9011   */\n      dup5\n        /* \"#utility.yul\":8938:9012   */\n      tag_280\n      jump\t// in\n    tag_423:\n        /* \"#utility.yul\":8922:9013   */\n      tag_275\n      jump\t// in\n    tag_422:\n        /* \"#utility.yul\":8913:9013   */\n      swap1\n      pop\n        /* \"#utility.yul\":9033:9038   */\n      dup1\n        /* \"#utility.yul\":9062:9068   */\n      dup4\n        /* \"#utility.yul\":9055:9060   */\n      dup3\n        /* \"#utility.yul\":9048:9069   */\n      mstore\n        /* \"#utility.yul\":9096:9100   */\n      0x20\n        /* \"#utility.yul\":9089:9094   */\n      dup3\n        /* \"#utility.yul\":9085:9101   */\n      add\n        /* \"#utility.yul\":9078:9101   */\n      swap1\n      pop\n        /* \"#utility.yul\":9149:9153   */\n      0x20\n        /* \"#utility.yul\":9141:9147   */\n      dup5\n        /* \"#utility.yul\":9137:9154   */\n      mul\n        /* \"#utility.yul\":9129:9135   */\n      dup4\n        /* \"#utility.yul\":9125:9155   */\n      add\n        /* \"#utility.yul\":9178:9181   */\n      dup6\n        /* \"#utility.yul\":9170:9176   */\n      dup2\n        /* \"#utility.yul\":9167:9182   */\n      gt\n        /* \"#utility.yul\":9164:9286   */\n      iszero\n      tag_424\n      jumpi\n        /* \"#utility.yul\":9197:9276   */\n      tag_425\n      tag_281\n      jump\t// in\n    tag_425:\n        /* \"#utility.yul\":9164:9286   */\n    tag_424:\n        /* \"#utility.yul\":9312:9318   */\n      dup4\n        /* \"#utility.yul\":9295:9730   */\n    tag_426:\n        /* \"#utility.yul\":9329:9335   */\n      dup2\n        /* \"#utility.yul\":9324:9327   */\n      dup2\n        /* \"#utility.yul\":9321:9336   */\n      lt\n        /* \"#utility.yul\":9295:9730   */\n      iszero\n      tag_428\n      jumpi\n        /* \"#utility.yul\":9418:9421   */\n      dup1\n        /* \"#utility.yul\":9405:9422   */\n      calldataload\n        /* \"#utility.yul\":9454:9472   */\n      0xffffffffffffffff\n        /* \"#utility.yul\":9441:9452   */\n      dup2\n        /* \"#utility.yul\":9438:9473   */\n      gt\n        /* \"#utility.yul\":9435:9557   */\n      iszero\n      tag_429\n      jumpi\n        /* \"#utility.yul\":9476:9555   */\n      tag_430\n      tag_271\n      jump\t// in\n    tag_430:\n        /* \"#utility.yul\":9435:9557   */\n    tag_429:\n        /* \"#utility.yul\":9600:9611   */\n      dup1\n        /* \"#utility.yul\":9592:9598   */\n      dup7\n        /* \"#utility.yul\":9588:9612   */\n      add\n        /* \"#utility.yul\":9638:9685   */\n      tag_431\n        /* \"#utility.yul\":9681:9684   */\n      dup10\n        /* \"#utility.yul\":9669:9679   */\n      dup3\n        /* \"#utility.yul\":9638:9685   */\n      tag_279\n      jump\t// in\n    tag_431:\n        /* \"#utility.yul\":9633:9636   */\n      dup6\n        /* \"#utility.yul\":9626:9686   */\n      mstore\n        /* \"#utility.yul\":9715:9719   */\n      0x20\n        /* \"#utility.yul\":9710:9713   */\n      dup6\n        /* \"#utility.yul\":9706:9720   */\n      add\n        /* \"#utility.yul\":9699:9720   */\n      swap5\n      pop\n        /* \"#utility.yul\":9371:9730   */\n      pop\n      pop\n        /* \"#utility.yul\":9355:9359   */\n      0x20\n        /* \"#utility.yul\":9350:9353   */\n      dup2\n        /* \"#utility.yul\":9346:9360   */\n      add\n        /* \"#utility.yul\":9339:9360   */\n      swap1\n      pop\n        /* \"#utility.yul\":9295:9730   */\n      jump(tag_426)\n    tag_428:\n        /* \"#utility.yul\":9299:9320   */\n      pop\n        /* \"#utility.yul\":8903:9736   */\n      pop\n      pop\n        /* \"#utility.yul\":8791:9736   */\n      swap4\n      swap3\n      pop\n      pop\n      pop\n      jump\t// out\n        /* \"#utility.yul\":9758:10148   */\n    tag_283:\n        /* \"#utility.yul\":9839:9844   */\n      0x00\n        /* \"#utility.yul\":9888:9891   */\n      dup3\n        /* \"#utility.yul\":9881:9885   */\n      0x1f\n        /* \"#utility.yul\":9873:9879   */\n      dup4\n        /* \"#utility.yul\":9869:9886   */\n      add\n        /* \"#utility.yul\":9865:9892   */\n      slt\n        /* \"#utility.yul\":9855:9977   */\n      tag_433\n      jumpi\n        /* \"#utility.yul\":9896:9975   */\n      tag_434\n      tag_271\n      jump\t// in\n    tag_434:\n        /* \"#utility.yul\":9855:9977   */\n    tag_433:\n        /* \"#utility.yul\":10013:10019   */\n      dup2\n        /* \"#utility.yul\":10000:10020   */\n      calldataload\n        /* \"#utility.yul\":10038:10142   */\n      tag_435\n        /* \"#utility.yul\":10138:10141   */\n      dup5\n        /* \"#utility.yul\":10130:10136   */\n      dup3\n        /* \"#utility.yul\":10123:10127   */\n      0x20\n        /* \"#utility.yul\":10115:10121   */\n      dup7\n        /* \"#utility.yul\":10111:10128   */\n      add\n        /* \"#utility.yul\":10038:10142   */\n      tag_282\n      jump\t// in\n    tag_435:\n        /* \"#utility.yul\":10029:10142   */\n      swap2\n      pop\n        /* \"#utility.yul\":9845:10148   */\n      pop\n        /* \"#utility.yul\":9758:10148   */\n      swap3\n      swap2\n      pop\n      pop\n      jump\t// out\n        /* \"#utility.yul\":10154:11038   */\n    tag_27:\n        /* \"#utility.yul\":10267:10273   */\n      0x00\n        /* \"#utility.yul\":10275:10281   */\n      dup1\n        /* \"#utility.yul\":10324:10326   */\n      0x40\n        /* \"#utility.yul\":10312:10321   */\n      dup4\n        /* \"#utility.yul\":10303:10310   */\n      dup6\n        /* \"#utility.yul\":10299:10322   */\n      sub\n        /* \"#utility.yul\":10295:10327   */\n      slt\n        /* \"#utility.yul\":10292:10411   */\n      iszero\n      tag_437\n      jumpi\n        /* \"#utility.yul\":10330:10409   */\n      tag_438\n      tag_267\n      jump\t// in\n    tag_438:\n        /* \"#utility.yul\":10292:10411   */\n    tag_437:\n        /* \"#utility.yul\":10478:10479   */\n      0x00\n        /* \"#utility.yul\":10467:10476   */\n      dup4\n        /* \"#utility.yul\":10463:10480   */\n      add\n        /* \"#utility.yul\":10450:10481   */\n      calldataload\n        /* \"#utility.yul\":10508:10526   */\n      0xffffffffffffffff\n        /* \"#utility.yul\":10500:10506   */\n      dup2\n        /* \"#utility.yul\":10497:10527   */\n      gt\n        /* \"#utility.yul\":10494:10611   */\n      iszero\n      tag_439\n      jumpi\n        /* \"#utility.yul\":10530:10609   */\n      tag_440\n      tag_268\n      jump\t// in\n    tag_440:\n        /* \"#utility.yul\":10494:10611   */\n    tag_439:\n        /* \"#utility.yul\":10635:10698   */\n      tag_441\n        /* \"#utility.yul\":10690:10697   */\n      dup6\n        /* \"#utility.yul\":10681:10687   */\n      dup3\n        /* \"#utility.yul\":10670:10679   */\n      dup7\n        /* \"#utility.yul\":10666:10688   */\n      add\n        /* \"#utility.yul\":10635:10698   */\n      tag_279\n      jump\t// in\n    tag_441:\n        /* \"#utility.yul\":10625:10698   */\n      swap3\n      pop\n        /* \"#utility.yul\":10421:10708   */\n      pop\n        /* \"#utility.yul\":10775:10777   */\n      0x20\n        /* \"#utility.yul\":10764:10773   */\n      dup4\n        /* \"#utility.yul\":10760:10778   */\n      add\n        /* \"#utility.yul\":10747:10779   */\n      calldataload\n        /* \"#utility.yul\":10806:10824   */\n      0xffffffffffffffff\n        /* \"#utility.yul\":10798:10804   */\n      dup2\n        /* \"#utility.yul\":10795:10825   */\n      gt\n        /* \"#utility.yul\":10792:10909   */\n      iszero\n      tag_442\n      jumpi\n        /* \"#utility.yul\":10828:10907   */\n      tag_443\n      tag_268\n      jump\t// in\n    tag_443:\n        /* \"#utility.yul\":10792:10909   */\n    tag_442:\n        /* \"#utility.yul\":10933:11021   */\n      tag_444\n        /* \"#utility.yul\":11013:11020   */\n      dup6\n        /* \"#utility.yul\":11004:11010   */\n      dup3\n        /* \"#utility.yul\":10993:11002   */\n      dup7\n        /* \"#utility.yul\":10989:11011   */\n      add\n        /* \"#utility.yul\":10933:11021   */\n      tag_283\n      jump\t// in\n    tag_444:\n        /* \"#utility.yul\":10923:11021   */\n      swap2\n      pop\n        /* \"#utility.yul\":10718:11031   */\n      pop\n        /* \"#utility.yul\":10154:11038   */\n      swap3\n      pop\n      swap3\n      swap1\n      pop\n      jump\t// out\n        /* \"#utility.yul\":11044:11170   */\n    tag_284:\n        /* \"#utility.yul\":11081:11088   */\n      0x00\n        /* \"#utility.yul\":11121:11163   */\n      0xffffffffffffffffffffffffffffffffffffffff\n        /* \"#utility.yul\":11114:11119   */\n      dup3\n        /* \"#utility.yul\":11110:11164   */\n      and\n        /* \"#utility.yul\":11099:11164   */\n      swap1\n      pop\n        /* \"#utility.yul\":11044:11170   */\n      swap2\n      swap1\n      pop\n      jump\t// out\n        /* \"#utility.yul\":11176:11272   */\n    tag_285:\n        /* \"#utility.yul\":11213:11220   */\n      0x00\n        /* \"#utility.yul\":11242:11266   */\n      tag_447\n        /* \"#utility.yul\":11260:11265   */\n      dup3\n        /* \"#utility.yul\":11242:11266   */\n      tag_284\n      jump\t// in\n    tag_447:\n        /* \"#utility.yul\":11231:11266   */\n      swap1\n      pop\n        /* \"#utility.yul\":11176:11272   */\n      swap2\n      swap1\n      pop\n      jump\t// out\n        /* \"#utility.yul\":11278:11396   */\n    tag_286:\n        /* \"#utility.yul\":11365:11389   */\n      tag_449\n        /* \"#utility.yul\":11383:11388   */\n      dup2\n        /* \"#utility.yul\":11365:11389   */\n      tag_285\n      jump\t// in\n    tag_449:\n        /* \"#utility.yul\":11360:11363   */\n      dup3\n        /* \"#utility.yul\":11353:11390   */\n      mstore\n        /* \"#utility.yul\":11278:11396   */\n      pop\n      pop\n      jump\t// out\n        /* \"#utility.yul\":11402:11624   */\n    tag_35:\n        /* \"#utility.yul\":11495:11499   */\n      0x00\n        /* \"#utility.yul\":11533:11535   */\n      0x20\n        /* \"#utility.yul\":11522:11531   */\n      dup3\n        /* \"#utility.yul\":11518:11536   */\n      add\n        /* \"#utility.yul\":11510:11536   */\n      swap1\n      pop\n        /* \"#utility.yul\":11546:11617   */\n      tag_451\n        /* \"#utility.yul\":11614:11615   */\n      0x00\n        /* \"#utility.yul\":11603:11612   */\n      dup4\n        /* \"#utility.yul\":11599:11616   */\n      add\n        /* \"#utility.yul\":11590:11596   */\n      dup5\n        /* \"#utility.yul\":11546:11617   */\n      tag_286\n      jump\t// in\n    tag_451:\n        /* \"#utility.yul\":11402:11624   */\n      swap3\n      swap2\n      pop\n      pop\n      jump\t// out\n        /* \"#utility.yul\":11682:12475   */\n    tag_287:\n        /* \"#utility.yul\":11795:11798   */\n      0x00\n        /* \"#utility.yul\":11831:11835   */\n      0x60\n        /* \"#utility.yul\":11826:11829   */\n      dup4\n        /* \"#utility.yul\":11822:11836   */\n      add\n        /* \"#utility.yul\":11926:11930   */\n      0x00\n        /* \"#utility.yul\":11919:11924   */\n      dup4\n        /* \"#utility.yul\":11915:11931   */\n      add\n        /* \"#utility.yul\":11909:11932   */\n      mload\n        /* \"#utility.yul\":11945:12008   */\n      tag_453\n        /* \"#utility.yul\":12002:12006   */\n      0x00\n        /* \"#utility.yul\":11997:12000   */\n      dup7\n        /* \"#utility.yul\":11993:12007   */\n      add\n        /* \"#utility.yul\":11979:11991   */\n      dup3\n        /* \"#utility.yul\":11945:12008   */\n      tag_260\n      jump\t// in\n    tag_453:\n        /* \"#utility.yul\":11846:12018   */\n      pop\n        /* \"#utility.yul\":12106:12110   */\n      0x20\n        /* \"#utility.yul\":12099:12104   */\n      dup4\n        /* \"#utility.yul\":12095:12111   */\n      add\n        /* \"#utility.yul\":12089:12112   */\n      mload\n        /* \"#utility.yul\":12159:12162   */\n      dup5\n        /* \"#utility.yul\":12153:12157   */\n      dup3\n        /* \"#utility.yul\":12149:12163   */\n      sub\n        /* \"#utility.yul\":12142:12146   */\n      0x20\n        /* \"#utility.yul\":12137:12140   */\n      dup7\n        /* \"#utility.yul\":12133:12147   */\n      add\n        /* \"#utility.yul\":12126:12164   */\n      mstore\n        /* \"#utility.yul\":12185:12258   */\n      tag_454\n        /* \"#utility.yul\":12253:12257   */\n      dup3\n        /* \"#utility.yul\":12239:12251   */\n      dup3\n        /* \"#utility.yul\":12185:12258   */\n      tag_255\n      jump\t// in\n    tag_454:\n        /* \"#utility.yul\":12177:12258   */\n      swap2\n      pop\n        /* \"#utility.yul\":12028:12269   */\n      pop\n        /* \"#utility.yul\":12356:12360   */\n      0x40\n        /* \"#utility.yul\":12349:12354   */\n      dup4\n        /* \"#utility.yul\":12345:12361   */\n      add\n        /* \"#utility.yul\":12339:12362   */\n      mload\n        /* \"#utility.yul\":12375:12438   */\n      tag_455\n        /* \"#utility.yul\":12432:12436   */\n      0x40\n        /* \"#utility.yul\":12427:12430   */\n      dup7\n        /* \"#utility.yul\":12423:12437   */\n      add\n        /* \"#utility.yul\":12409:12421   */\n      dup3\n        /* \"#utility.yul\":12375:12438   */\n      tag_260\n      jump\t// in\n    tag_455:\n        /* \"#utility.yul\":12279:12448   */\n      pop\n        /* \"#utility.yul\":12465:12469   */\n      dup1\n        /* \"#utility.yul\":12458:12469   */\n      swap2\n      pop\n        /* \"#utility.yul\":11800:12475   */\n      pop\n        /* \"#utility.yul\":11682:12475   */\n      swap3\n      swap2\n      pop\n      pop\n      jump\t// out\n        /* \"#utility.yul\":12481:12842   */\n    tag_39:\n        /* \"#utility.yul\":12618:12622   */\n      0x00\n        /* \"#utility.yul\":12656:12658   */\n      0x20\n        /* \"#utility.yul\":12645:12654   */\n      dup3\n        /* \"#utility.yul\":12641:12659   */\n      add\n        /* \"#utility.yul\":12633:12659   */\n      swap1\n      pop\n        /* \"#utility.yul\":12705:12714   */\n      dup2\n        /* \"#utility.yul\":12699:12703   */\n      dup2\n        /* \"#utility.yul\":12695:12715   */\n      sub\n        /* \"#utility.yul\":12691:12692   */\n      0x00\n        /* \"#utility.yul\":12680:12689   */\n      dup4\n        /* \"#utility.yul\":12676:12693   */\n      add\n        /* \"#utility.yul\":12669:12716   */\n      mstore\n        /* \"#utility.yul\":12733:12835   */\n      tag_457\n        /* \"#utility.yul\":12830:12834   */\n      dup2\n        /* \"#utility.yul\":12821:12827   */\n      dup5\n        /* \"#utility.yul\":12733:12835   */\n      tag_287\n      jump\t// in\n    tag_457:\n        /* \"#utility.yul\":12725:12835   */\n      swap1\n      pop\n        /* \"#utility.yul\":12481:12842   */\n      swap3\n      swap2\n      pop\n      pop\n      jump\t// out\n        /* \"#utility.yul\":12848:13017   */\n    tag_288:\n        /* \"#utility.yul\":12932:12943   */\n      0x00\n        /* \"#utility.yul\":12966:12972   */\n      dup3\n        /* \"#utility.yul\":12961:12964   */\n      dup3\n        /* \"#utility.yul\":12954:12973   */\n      mstore\n        /* \"#utility.yul\":13006:13010   */\n      0x20\n        /* \"#utility.yul\":13001:13004   */\n      dup3\n        /* \"#utility.yul\":12997:13011   */\n      add\n        /* \"#utility.yul\":12982:13011   */\n      swap1\n      pop\n        /* \"#utility.yul\":12848:13017   */\n      swap3\n      swap2\n      pop\n      pop\n      jump\t// out\n        /* \"#utility.yul\":13023:13400   */\n    tag_289:\n        /* \"#utility.yul\":13111:13114   */\n      0x00\n        /* \"#utility.yul\":13139:13178   */\n      tag_460\n        /* \"#utility.yul\":13172:13177   */\n      dup3\n        /* \"#utility.yul\":13139:13178   */\n      tag_251\n      jump\t// in\n    tag_460:\n        /* \"#utility.yul\":13194:13265   */\n      tag_461\n        /* \"#utility.yul\":13258:13264   */\n      dup2\n        /* \"#utility.yul\":13253:13256   */\n      dup6\n        /* \"#utility.yul\":13194:13265   */\n      tag_288\n      jump\t// in\n    tag_461:\n        /* \"#utility.yul\":13187:13265   */\n      swap4\n      pop\n        /* \"#utility.yul\":13274:13339   */\n      tag_462\n        /* \"#utility.yul\":13332:13338   */\n      dup2\n        /* \"#utility.yul\":13327:13330   */\n      dup6\n        /* \"#utility.yul\":13320:13324   */\n      0x20\n        /* \"#utility.yul\":13313:13318   */\n      dup7\n        /* \"#utility.yul\":13309:13325   */\n      add\n        /* \"#utility.yul\":13274:13339   */\n      tag_253\n      jump\t// in\n    tag_462:\n        /* \"#utility.yul\":13364:13393   */\n      tag_463\n        /* \"#utility.yul\":13386:13392   */\n      dup2\n        /* \"#utility.yul\":13364:13393   */\n      tag_254\n      jump\t// in\n    tag_463:\n        /* \"#utility.yul\":13359:13362   */\n      dup5\n        /* \"#utility.yul\":13355:13394   */\n      add\n        /* \"#utility.yul\":13348:13394   */\n      swap2\n      pop\n        /* \"#utility.yul\":13115:13400   */\n      pop\n        /* \"#utility.yul\":13023:13400   */\n      swap3\n      swap2\n      pop\n      pop\n      jump\t// out\n        /* \"#utility.yul\":13406:13719   */\n    tag_43:\n        /* \"#utility.yul\":13519:13523   */\n      0x00\n        /* \"#utility.yul\":13557:13559   */\n      0x20\n        /* \"#utility.yul\":13546:13555   */\n      dup3\n        /* \"#utility.yul\":13542:13560   */\n      add\n        /* \"#utility.yul\":13534:13560   */\n      swap1\n      pop\n        /* \"#utility.yul\":13606:13615   */\n      dup2\n        /* \"#utility.yul\":13600:13604   */\n      dup2\n        /* \"#utility.yul\":13596:13616   */\n      sub\n        /* \"#utility.yul\":13592:13593   */\n      0x00\n        /* \"#utility.yul\":13581:13590   */\n      dup4\n        /* \"#utility.yul\":13577:13594   */\n      add\n        /* \"#utility.yul\":13570:13617   */\n      mstore\n        /* \"#utility.yul\":13634:13712   */\n      tag_465\n        /* \"#utility.yul\":13707:13711   */\n      dup2\n        /* \"#utility.yul\":13698:13704   */\n      dup5\n        /* \"#utility.yul\":13634:13712   */\n      tag_289\n      jump\t// in\n    tag_465:\n        /* \"#utility.yul\":13626:13712   */\n      swap1\n      pop\n        /* \"#utility.yul\":13406:13719   */\n      swap3\n      swap2\n      pop\n      pop\n      jump\t// out\n        /* \"#utility.yul\":13725:13866   */\n    tag_290:\n        /* \"#utility.yul\":13819:13825   */\n      0x00\n        /* \"#utility.yul\":13853:13858   */\n      dup2\n        /* \"#utility.yul\":13847:13859   */\n      mload\n        /* \"#utility.yul\":13837:13859   */\n      swap1\n      pop\n        /* \"#utility.yul\":13725:13866   */\n      swap2\n      swap1\n      pop\n      jump\t// out\n        /* \"#utility.yul\":13872:14083   */\n    tag_291:\n        /* \"#utility.yul\":13998:14009   */\n      0x00\n        /* \"#utility.yul\":14032:14038   */\n      dup3\n        /* \"#utility.yul\":14027:14030   */\n      dup3\n        /* \"#utility.yul\":14020:14039   */\n      mstore\n        /* \"#utility.yul\":14072:14076   */\n      0x20\n        /* \"#utility.yul\":14067:14070   */\n      dup3\n        /* \"#utility.yul\":14063:14077   */\n      add\n        /* \"#utility.yul\":14048:14077   */\n      swap1\n      pop\n        /* \"#utility.yul\":13872:14083   */\n      swap3\n      swap2\n      pop\n      pop\n      jump\t// out\n        /* \"#utility.yul\":14089:14248   */\n    tag_292:\n        /* \"#utility.yul\":14183:14187   */\n      0x00\n        /* \"#utility.yul\":14206:14209   */\n      dup2\n        /* \"#utility.yul\":14198:14209   */\n      swap1\n      pop\n        /* \"#utility.yul\":14236:14240   */\n      0x20\n        /* \"#utility.yul\":14231:14234   */\n      dup3\n        /* \"#utility.yul\":14227:14241   */\n      add\n        /* \"#utility.yul\":14219:14241   */\n      swap1\n      pop\n        /* \"#utility.yul\":14089:14248   */\n      swap2\n      swap1\n      pop\n      jump\t// out\n        /* \"#utility.yul\":14316:15068   */\n    tag_293:\n        /* \"#utility.yul\":14429:14432   */\n      0x00\n        /* \"#utility.yul\":14465:14469   */\n      0x40\n        /* \"#utility.yul\":14460:14463   */\n      dup4\n        /* \"#utility.yul\":14456:14470   */\n      add\n        /* \"#utility.yul\":14556:14560   */\n      0x00\n        /* \"#utility.yul\":14549:14554   */\n      dup4\n        /* \"#utility.yul\":14545:14561   */\n      add\n        /* \"#utility.yul\":14539:14562   */\n      mload\n        /* \"#utility.yul\":14609:14612   */\n      dup5\n        /* \"#utility.yul\":14603:14607   */\n      dup3\n        /* \"#utility.yul\":14599:14613   */\n      sub\n        /* \"#utility.yul\":14592:14596   */\n      0x00\n        /* \"#utility.yul\":14587:14590   */\n      dup7\n        /* \"#utility.yul\":14583:14597   */\n      add\n        /* \"#utility.yul\":14576:14614   */\n      mstore\n        /* \"#utility.yul\":14635:14708   */\n      tag_470\n        /* \"#utility.yul\":14703:14707   */\n      dup3\n        /* \"#utility.yul\":14689:14701   */\n      dup3\n        /* \"#utility.yul\":14635:14708   */\n      tag_255\n      jump\t// in\n    tag_470:\n        /* \"#utility.yul\":14627:14708   */\n      swap2\n      pop\n        /* \"#utility.yul\":14480:14719   */\n      pop\n        /* \"#utility.yul\":14804:14808   */\n      0x20\n        /* \"#utility.yul\":14797:14802   */\n      dup4\n        /* \"#utility.yul\":14793:14809   */\n      add\n        /* \"#utility.yul\":14787:14810   */\n      mload\n        /* \"#utility.yul\":14857:14860   */\n      dup5\n        /* \"#utility.yul\":14851:14855   */\n      dup3\n        /* \"#utility.yul\":14847:14861   */\n      sub\n        /* \"#utility.yul\":14840:14844   */\n      0x20\n        /* \"#utility.yul\":14835:14838   */\n      dup7\n        /* \"#utility.yul\":14831:14845   */\n      add\n        /* \"#utility.yul\":14824:14862   */\n      mstore\n        /* \"#utility.yul\":14883:15030   */\n      tag_471\n        /* \"#utility.yul\":15025:15029   */\n      dup3\n        /* \"#utility.yul\":15011:15023   */\n      dup3\n        /* \"#utility.yul\":14883:15030   */\n      tag_264\n      jump\t// in\n    tag_471:\n        /* \"#utility.yul\":14875:15030   */\n      swap2\n      pop\n        /* \"#utility.yul\":14729:15041   */\n      pop\n        /* \"#utility.yul\":15058:15062   */\n      dup1\n        /* \"#utility.yul\":15051:15062   */\n      swap2\n      pop\n        /* \"#utility.yul\":14434:15068   */\n      pop\n        /* \"#utility.yul\":14316:15068   */\n      swap3\n      swap2\n      pop\n      pop\n      jump\t// out\n        /* \"#utility.yul\":15074:15338   */\n    tag_294:\n        /* \"#utility.yul\":15197:15207   */\n      0x00\n        /* \"#utility.yul\":15232:15332   */\n      tag_473\n        /* \"#utility.yul\":15328:15331   */\n      dup4\n        /* \"#utility.yul\":15320:15326   */\n      dup4\n        /* \"#utility.yul\":15232:15332   */\n      tag_293\n      jump\t// in\n    tag_473:\n        /* \"#utility.yul\":15218:15332   */\n      swap1\n      pop\n        /* \"#utility.yul\":15074:15338   */\n      swap3\n      swap2\n      pop\n      pop\n      jump\t// out\n        /* \"#utility.yul\":15344:15484   */\n    tag_295:\n        /* \"#utility.yul\":15441:15445   */\n      0x00\n        /* \"#utility.yul\":15473:15477   */\n      0x20\n        /* \"#utility.yul\":15468:15471   */\n      dup3\n        /* \"#utility.yul\":15464:15478   */\n      add\n        /* \"#utility.yul\":15456:15478   */\n      swap1\n      pop\n        /* \"#utility.yul\":15344:15484   */\n      swap2\n      swap1\n      pop\n      jump\t// out\n        /* \"#utility.yul\":15556:16683   */\n    tag_296:\n        /* \"#utility.yul\":15729:15732   */\n      0x00\n        /* \"#utility.yul\":15758:15839   */\n      tag_476\n        /* \"#utility.yul\":15833:15838   */\n      dup3\n        /* \"#utility.yul\":15758:15839   */\n      tag_290\n      jump\t// in\n    tag_476:\n        /* \"#utility.yul\":15855:15968   */\n      tag_477\n        /* \"#utility.yul\":15961:15967   */\n      dup2\n        /* \"#utility.yul\":15956:15959   */\n      dup6\n        /* \"#utility.yul\":15855:15968   */\n      tag_291\n      jump\t// in\n    tag_477:\n        /* \"#utility.yul\":15848:15968   */\n      swap4\n      pop\n        /* \"#utility.yul\":15994:15997   */\n      dup4\n        /* \"#utility.yul\":16039:16043   */\n      0x20\n        /* \"#utility.yul\":16031:16037   */\n      dup3\n        /* \"#utility.yul\":16027:16044   */\n      mul\n        /* \"#utility.yul\":16022:16025   */\n      dup6\n        /* \"#utility.yul\":16018:16045   */\n      add\n        /* \"#utility.yul\":16069:16152   */\n      tag_478\n        /* \"#utility.yul\":16146:16151   */\n      dup6\n        /* \"#utility.yul\":16069:16152   */\n      tag_292\n      jump\t// in\n    tag_478:\n        /* \"#utility.yul\":16175:16182   */\n      dup1\n        /* \"#utility.yul\":16206:16207   */\n      0x00\n        /* \"#utility.yul\":16191:16638   */\n    tag_479:\n        /* \"#utility.yul\":16216:16222   */\n      dup6\n        /* \"#utility.yul\":16213:16214   */\n      dup2\n        /* \"#utility.yul\":16210:16223   */\n      lt\n        /* \"#utility.yul\":16191:16638   */\n      iszero\n      tag_481\n      jumpi\n        /* \"#utility.yul\":16287:16296   */\n      dup5\n        /* \"#utility.yul\":16281:16285   */\n      dup5\n        /* \"#utility.yul\":16277:16297   */\n      sub\n        /* \"#utility.yul\":16272:16275   */\n      dup10\n        /* \"#utility.yul\":16265:16298   */\n      mstore\n        /* \"#utility.yul\":16338:16344   */\n      dup2\n        /* \"#utility.yul\":16332:16345   */\n      mload\n        /* \"#utility.yul\":16366:16484   */\n      tag_482\n        /* \"#utility.yul\":16479:16483   */\n      dup6\n        /* \"#utility.yul\":16464:16477   */\n      dup3\n        /* \"#utility.yul\":16366:16484   */\n      tag_294\n      jump\t// in\n    tag_482:\n        /* \"#utility.yul\":16358:16484   */\n      swap5\n      pop\n        /* \"#utility.yul\":16507:16594   */\n      tag_483\n        /* \"#utility.yul\":16587:16593   */\n      dup4\n        /* \"#utility.yul\":16507:16594   */\n      tag_295\n      jump\t// in\n    tag_483:\n        /* \"#utility.yul\":16497:16594   */\n      swap3\n      pop\n        /* \"#utility.yul\":16623:16627   */\n      0x20\n        /* \"#utility.yul\":16618:16621   */\n      dup11\n        /* \"#utility.yul\":16614:16628   */\n      add\n        /* \"#utility.yul\":16607:16628   */\n      swap10\n      pop\n        /* \"#utility.yul\":16251:16638   */\n      pop\n        /* \"#utility.yul\":16238:16239   */\n      0x01\n        /* \"#utility.yul\":16235:16236   */\n      dup2\n        /* \"#utility.yul\":16231:16240   */\n      add\n        /* \"#utility.yul\":16226:16240   */\n      swap1\n      pop\n        /* \"#utility.yul\":16191:16638   */\n      jump(tag_479)\n    tag_481:\n        /* \"#utility.yul\":16195:16209   */\n      pop\n        /* \"#utility.yul\":16654:16658   */\n      dup3\n        /* \"#utility.yul\":16647:16658   */\n      swap8\n      pop\n        /* \"#utility.yul\":16674:16677   */\n      dup8\n        /* \"#utility.yul\":16667:16677   */\n      swap6\n      pop\n        /* \"#utility.yul\":15734:16683   */\n      pop\n      pop\n      pop\n      pop\n      pop\n        /* \"#utility.yul\":15556:16683   */\n      swap3\n      swap2\n      pop\n      pop\n      jump\t// out\n        /* \"#utility.yul\":16689:17170   */\n    tag_47:\n        /* \"#utility.yul\":16886:16890   */\n      0x00\n        /* \"#utility.yul\":16924:16926   */\n      0x20\n        /* \"#utility.yul\":16913:16922   */\n      dup3\n        /* \"#utility.yul\":16909:16927   */\n      add\n        /* \"#utility.yul\":16901:16927   */\n      swap1\n      pop\n        /* \"#utility.yul\":16973:16982   */\n      dup2\n        /* \"#utility.yul\":16967:16971   */\n      dup2\n        /* \"#utility.yul\":16963:16983   */\n      sub\n        /* \"#utility.yul\":16959:16960   */\n      0x00\n        /* \"#utility.yul\":16948:16957   */\n      dup4\n        /* \"#utility.yul\":16944:16961   */\n      add\n        /* \"#utility.yul\":16937:16984   */\n      mstore\n        /* \"#utility.yul\":17001:17163   */\n      tag_485\n        /* \"#utility.yul\":17158:17162   */\n      dup2\n        /* \"#utility.yul\":17149:17155   */\n      dup5\n        /* \"#utility.yul\":17001:17163   */\n      tag_296\n      jump\t// in\n    tag_485:\n        /* \"#utility.yul\":16993:17163   */\n      swap1\n      pop\n        /* \"#utility.yul\":16689:17170   */\n      swap3\n      swap2\n      pop\n      pop\n      jump\t// out\n        /* \"#utility.yul\":17176:17419   */\n    tag_297:\n        /* \"#utility.yul\":17316:17350   */\n      0x766f74696e67206e6565647320746f20737461727420746f20766f746520666f\n        /* \"#utility.yul\":17312:17313   */\n      0x00\n        /* \"#utility.yul\":17304:17310   */\n      dup3\n        /* \"#utility.yul\":17300:17314   */\n      add\n        /* \"#utility.yul\":17293:17351   */\n      mstore\n        /* \"#utility.yul\":17385:17411   */\n      0x72206f72207365652064617461206f7220746f2073746f700000000000000000\n        /* \"#utility.yul\":17380:17382   */\n      0x20\n        /* \"#utility.yul\":17372:17378   */\n      dup3\n        /* \"#utility.yul\":17368:17383   */\n      add\n        /* \"#utility.yul\":17361:17412   */\n      mstore\n        /* \"#utility.yul\":17176:17419   */\n      pop\n      jump\t// out\n        /* \"#utility.yul\":17425:17791   */\n    tag_298:\n        /* \"#utility.yul\":17567:17570   */\n      0x00\n        /* \"#utility.yul\":17588:17655   */\n      tag_488\n        /* \"#utility.yul\":17652:17654   */\n      0x38\n        /* \"#utility.yul\":17647:17650   */\n      dup4\n        /* \"#utility.yul\":17588:17655   */\n      tag_288\n      jump\t// in\n    tag_488:\n        /* \"#utility.yul\":17581:17655   */\n      swap2\n      pop\n        /* \"#utility.yul\":17664:17757   */\n      tag_489\n        /* \"#utility.yul\":17753:17756   */\n      dup3\n        /* \"#utility.yul\":17664:17757   */\n      tag_297\n      jump\t// in\n    tag_489:\n        /* \"#utility.yul\":17782:17784   */\n      0x40\n        /* \"#utility.yul\":17777:17780   */\n      dup3\n        /* \"#utility.yul\":17773:17785   */\n      add\n        /* \"#utility.yul\":17766:17785   */\n      swap1\n      pop\n        /* \"#utility.yul\":17425:17791   */\n      swap2\n      swap1\n      pop\n      jump\t// out\n        /* \"#utility.yul\":17797:18216   */\n    tag_56:\n        /* \"#utility.yul\":17963:17967   */\n      0x00\n        /* \"#utility.yul\":18001:18003   */\n      0x20\n        /* \"#utility.yul\":17990:17999   */\n      dup3\n        /* \"#utility.yul\":17986:18004   */\n      add\n        /* \"#utility.yul\":17978:18004   */\n      swap1\n      pop\n        /* \"#utility.yul\":18050:18059   */\n      dup2\n        /* \"#utility.yul\":18044:18048   */\n      dup2\n        /* \"#utility.yul\":18040:18060   */\n      sub\n        /* \"#utility.yul\":18036:18037   */\n      0x00\n        /* \"#utility.yul\":18025:18034   */\n      dup4\n        /* \"#utility.yul\":18021:18038   */\n      add\n        /* \"#utility.yul\":18014:18061   */\n      mstore\n        /* \"#utility.yul\":18078:18209   */\n      tag_491\n        /* \"#utility.yul\":18204:18208   */\n      dup2\n        /* \"#utility.yul\":18078:18209   */\n      tag_298\n      jump\t// in\n    tag_491:\n        /* \"#utility.yul\":18070:18209   */\n      swap1\n      pop\n        /* \"#utility.yul\":17797:18216   */\n      swap2\n      swap1\n      pop\n      jump\t// out\n        /* \"#utility.yul\":18222:18402   */\n    tag_299:\n        /* \"#utility.yul\":18270:18347   */\n      0x4e487b7100000000000000000000000000000000000000000000000000000000\n        /* \"#utility.yul\":18267:18268   */\n      0x00\n        /* \"#utility.yul\":18260:18348   */\n      mstore\n        /* \"#utility.yul\":18367:18371   */\n      0x22\n        /* \"#utility.yul\":18364:18365   */\n      0x04\n        /* \"#utility.yul\":18357:18372   */\n      mstore\n        /* \"#utility.yul\":18391:18395   */\n      0x24\n        /* \"#utility.yul\":18388:18389   */\n      0x00\n        /* \"#utility.yul\":18381:18396   */\n      revert\n        /* \"#utility.yul\":18408:18728   */\n    tag_59:\n        /* \"#utility.yul\":18452:18458   */\n      0x00\n        /* \"#utility.yul\":18489:18490   */\n      0x02\n        /* \"#utility.yul\":18483:18487   */\n      dup3\n        /* \"#utility.yul\":18479:18491   */\n      div\n        /* \"#utility.yul\":18469:18491   */\n      swap1\n      pop\n        /* \"#utility.yul\":18536:18537   */\n      0x01\n        /* \"#utility.yul\":18530:18534   */\n      dup3\n        /* \"#utility.yul\":18526:18538   */\n      and\n        /* \"#utility.yul\":18557:18575   */\n      dup1\n        /* \"#utility.yul\":18547:18628   */\n      tag_494\n      jumpi\n        /* \"#utility.yul\":18613:18617   */\n      0x7f\n        /* \"#utility.yul\":18605:18611   */\n      dup3\n        /* \"#utility.yul\":18601:18618   */\n      and\n        /* \"#utility.yul\":18591:18618   */\n      swap2\n      pop\n        /* \"#utility.yul\":18547:18628   */\n    tag_494:\n        /* \"#utility.yul\":18675:18677   */\n      0x20\n        /* \"#utility.yul\":18667:18673   */\n      dup3\n        /* \"#utility.yul\":18664:18678   */\n      lt\n        /* \"#utility.yul\":18644:18662   */\n      dup2\n        /* \"#utility.yul\":18641:18679   */\n      sub\n        /* \"#utility.yul\":18638:18722   */\n      tag_495\n      jumpi\n        /* \"#utility.yul\":18694:18712   */\n      tag_496\n      tag_299\n      jump\t// in\n    tag_496:\n        /* \"#utility.yul\":18638:18722   */\n    tag_495:\n        /* \"#utility.yul\":18459:18728   */\n      pop\n        /* \"#utility.yul\":18408:18728   */\n      swap2\n      swap1\n      pop\n      jump\t// out\n        /* \"#utility.yul\":18734:18916   */\n    tag_300:\n        /* \"#utility.yul\":18874:18908   */\n      0x6f6e6c79206f776e6572206861732072696768747320746f20646f2074686973\n        /* \"#utility.yul\":18870:18871   */\n      0x00\n        /* \"#utility.yul\":18862:18868   */\n      dup3\n        /* \"#utility.yul\":18858:18872   */\n      add\n        /* \"#utility.yul\":18851:18909   */\n      mstore\n        /* \"#utility.yul\":18734:18916   */\n      pop\n      jump\t// out\n        /* \"#utility.yul\":18922:19288   */\n    tag_301:\n        /* \"#utility.yul\":19064:19067   */\n      0x00\n        /* \"#utility.yul\":19085:19152   */\n      tag_499\n        /* \"#utility.yul\":19149:19151   */\n      0x20\n        /* \"#utility.yul\":19144:19147   */\n      dup4\n        /* \"#utility.yul\":19085:19152   */\n      tag_288\n      jump\t// in\n    tag_499:\n        /* \"#utility.yul\":19078:19152   */\n      swap2\n      pop\n        /* \"#utility.yul\":19161:19254   */\n      tag_500\n        /* \"#utility.yul\":19250:19253   */\n      dup3\n        /* \"#utility.yul\":19161:19254   */\n      tag_300\n      jump\t// in\n    tag_500:\n        /* \"#utility.yul\":19279:19281   */\n      0x20\n        /* \"#utility.yul\":19274:19277   */\n      dup3\n        /* \"#utility.yul\":19270:19282   */\n      add\n        /* \"#utility.yul\":19263:19282   */\n      swap1\n      pop\n        /* \"#utility.yul\":18922:19288   */\n      swap2\n      swap1\n      pop\n      jump\t// out\n        /* \"#utility.yul\":19294:19713   */\n    tag_75:\n        /* \"#utility.yul\":19460:19464   */\n      0x00\n        /* \"#utility.yul\":19498:19500   */\n      0x20\n        /* \"#utility.yul\":19487:19496   */\n      dup3\n        /* \"#utility.yul\":19483:19501   */\n      add\n        /* \"#utility.yul\":19475:19501   */\n      swap1\n      pop\n        /* \"#utility.yul\":19547:19556   */\n      dup2\n        /* \"#utility.yul\":19541:19545   */\n      dup2\n        /* \"#utility.yul\":19537:19557   */\n      sub\n        /* \"#utility.yul\":19533:19534   */\n      0x00\n        /* \"#utility.yul\":19522:19531   */\n      dup4\n        /* \"#utility.yul\":19518:19535   */\n      add\n        /* \"#utility.yul\":19511:19558   */\n      mstore\n        /* \"#utility.yul\":19575:19706   */\n      tag_502\n        /* \"#utility.yul\":19701:19705   */\n      dup2\n        /* \"#utility.yul\":19575:19706   */\n      tag_301\n      jump\t// in\n    tag_502:\n        /* \"#utility.yul\":19567:19706   */\n      swap1\n      pop\n        /* \"#utility.yul\":19294:19713   */\n      swap2\n      swap1\n      pop\n      jump\t// out\n        /* \"#utility.yul\":19719:19899   */\n    tag_81:\n        /* \"#utility.yul\":19767:19844   */\n      0x4e487b7100000000000000000000000000000000000000000000000000000000\n        /* \"#utility.yul\":19764:19765   */\n      0x00\n        /* \"#utility.yul\":19757:19845   */\n      mstore\n        /* \"#utility.yul\":19864:19868   */\n      0x32\n        /* \"#utility.yul\":19861:19862   */\n      0x04\n        /* \"#utility.yul\":19854:19869   */\n      mstore\n        /* \"#utility.yul\":19888:19892   */\n      0x24\n        /* \"#utility.yul\":19885:19886   */\n      0x00\n        /* \"#utility.yul\":19878:19893   */\n      revert\n        /* \"#utility.yul\":19905:20144   */\n    tag_302:\n        /* \"#utility.yul\":20045:20079   */\n      0x766f74696e67206e6565647320746f2073746f7020746f207365652077696e6e\n        /* \"#utility.yul\":20041:20042   */\n      0x00\n        /* \"#utility.yul\":20033:20039   */\n      dup3\n        /* \"#utility.yul\":20029:20043   */\n      add\n        /* \"#utility.yul\":20022:20080   */\n      mstore\n        /* \"#utility.yul\":20114:20136   */\n      0x6572206f7220736574206e657720766f74696e67000000000000000000000000\n        /* \"#utility.yul\":20109:20111   */\n      0x20\n        /* \"#utility.yul\":20101:20107   */\n      dup3\n        /* \"#utility.yul\":20097:20112   */\n      add\n        /* \"#utility.yul\":20090:20137   */\n      mstore\n        /* \"#utility.yul\":19905:20144   */\n      pop\n      jump\t// out\n        /* \"#utility.yul\":20150:20516   */\n    tag_303:\n        /* \"#utility.yul\":20292:20295   */\n      0x00\n        /* \"#utility.yul\":20313:20380   */\n      tag_506\n        /* \"#utility.yul\":20377:20379   */\n      0x34\n        /* \"#utility.yul\":20372:20375   */\n      dup4\n        /* \"#utility.yul\":20313:20380   */\n      tag_288\n      jump\t// in\n    tag_506:\n        /* \"#utility.yul\":20306:20380   */\n      swap2\n      pop\n        /* \"#utility.yul\":20389:20482   */\n      tag_507\n        /* \"#utility.yul\":20478:20481   */\n      dup3\n        /* \"#utility.yul\":20389:20482   */\n      tag_302\n      jump\t// in\n    tag_507:\n        /* \"#utility.yul\":20507:20509   */\n      0x40\n        /* \"#utility.yul\":20502:20505   */\n      dup3\n        /* \"#utility.yul\":20498:20510   */\n      add\n        /* \"#utility.yul\":20491:20510   */\n      swap1\n      pop\n        /* \"#utility.yul\":20150:20516   */\n      swap2\n      swap1\n      pop\n      jump\t// out\n        /* \"#utility.yul\":20522:20941   */\n    tag_99:\n        /* \"#utility.yul\":20688:20692   */\n      0x00\n        /* \"#utility.yul\":20726:20728   */\n      0x20\n        /* \"#utility.yul\":20715:20724   */\n      dup3\n        /* \"#utility.yul\":20711:20729   */\n      add\n        /* \"#utility.yul\":20703:20729   */\n      swap1\n      pop\n        /* \"#utility.yul\":20775:20784   */\n      dup2\n        /* \"#utility.yul\":20769:20773   */\n      dup2\n        /* \"#utility.yul\":20765:20785   */\n      sub\n        /* \"#utility.yul\":20761:20762   */\n      0x00\n        /* \"#utility.yul\":20750:20759   */\n      dup4\n        /* \"#utility.yul\":20746:20763   */\n      add\n        /* \"#utility.yul\":20739:20786   */\n      mstore\n        /* \"#utility.yul\":20803:20934   */\n      tag_509\n        /* \"#utility.yul\":20929:20933   */\n      dup2\n        /* \"#utility.yul\":20803:20934   */\n      tag_303\n      jump\t// in\n    tag_509:\n        /* \"#utility.yul\":20795:20934   */\n      swap1\n      pop\n        /* \"#utility.yul\":20522:20941   */\n      swap2\n      swap1\n      pop\n      jump\t// out\n        /* \"#utility.yul\":20947:21088   */\n    tag_304:\n        /* \"#utility.yul\":20996:21000   */\n      0x00\n        /* \"#utility.yul\":21019:21022   */\n      dup2\n        /* \"#utility.yul\":21011:21022   */\n      swap1\n      pop\n        /* \"#utility.yul\":21042:21045   */\n      dup2\n        /* \"#utility.yul\":21039:21040   */\n      0x00\n        /* \"#utility.yul\":21032:21046   */\n      mstore\n        /* \"#utility.yul\":21076:21080   */\n      0x20\n        /* \"#utility.yul\":21073:21074   */\n      0x00\n        /* \"#utility.yul\":21063:21081   */\n      keccak256\n        /* \"#utility.yul\":21055:21081   */\n      swap1\n      pop\n        /* \"#utility.yul\":20947:21088   */\n      swap2\n      swap1\n      pop\n      jump\t// out\n        /* \"#utility.yul\":21094:21187   */\n    tag_305:\n        /* \"#utility.yul\":21131:21137   */\n      0x00\n        /* \"#utility.yul\":21178:21180   */\n      0x20\n        /* \"#utility.yul\":21173:21175   */\n      0x1f\n        /* \"#utility.yul\":21166:21171   */\n      dup4\n        /* \"#utility.yul\":21162:21176   */\n      add\n        /* \"#utility.yul\":21158:21181   */\n      div\n        /* \"#utility.yul\":21148:21181   */\n      swap1\n      pop\n        /* \"#utility.yul\":21094:21187   */\n      swap2\n      swap1\n      pop\n      jump\t// out\n        /* \"#utility.yul\":21193:21300   */\n    tag_306:\n        /* \"#utility.yul\":21237:21245   */\n      0x00\n        /* \"#utility.yul\":21287:21292   */\n      dup3\n        /* \"#utility.yul\":21281:21285   */\n      dup3\n        /* \"#utility.yul\":21277:21293   */\n      shl\n        /* \"#utility.yul\":21256:21293   */\n      swap1\n      pop\n        /* \"#utility.yul\":21193:21300   */\n      swap3\n      swap2\n      pop\n      pop\n      jump\t// out\n        /* \"#utility.yul\":21306:21699   */\n    tag_307:\n        /* \"#utility.yul\":21375:21381   */\n      0x00\n        /* \"#utility.yul\":21425:21426   */\n      0x08\n        /* \"#utility.yul\":21413:21423   */\n      dup4\n        /* \"#utility.yul\":21409:21427   */\n      mul\n        /* \"#utility.yul\":21448:21545   */\n      tag_514\n        /* \"#utility.yul\":21478:21544   */\n      0xffffffffffffffffffffffffffffffffffffffffffffffffffffffffffffffff\n        /* \"#utility.yul\":21467:21476   */\n      dup3\n        /* \"#utility.yul\":21448:21545   */\n      tag_306\n      jump\t// in\n    tag_514:\n        /* \"#utility.yul\":21566:21605   */\n      tag_515\n        /* \"#utility.yul\":21596:21604   */\n      dup7\n        /* \"#utility.yul\":21585:21594   */\n      dup4\n        /* \"#utility.yul\":21566:21605   */\n      tag_306\n      jump\t// in\n    tag_515:\n        /* \"#utility.yul\":21554:21605   */\n      swap6\n      pop\n        /* \"#utility.yul\":21638:21642   */\n      dup1\n        /* \"#utility.yul\":21634:21643   */\n      not\n        /* \"#utility.yul\":21627:21632   */\n      dup5\n        /* \"#utility.yul\":21623:21644   */\n      and\n        /* \"#utility.yul\":21614:21644   */\n      swap4\n      pop\n        /* \"#utility.yul\":21687:21691   */\n      dup1\n        /* \"#utility.yul\":21677:21685   */\n      dup7\n        /* \"#utility.yul\":21673:21692   */\n      and\n        /* \"#utility.yul\":21666:21671   */\n      dup5\n        /* \"#utility.yul\":21663:21693   */\n      or\n        /* \"#utility.yul\":21653:21693   */\n      swap3\n      pop\n        /* \"#utility.yul\":21382:21699   */\n      pop\n      pop\n        /* \"#utility.yul\":21306:21699   */\n      swap4\n      swap3\n      pop\n      pop\n      pop\n      jump\t// out\n        /* \"#utility.yul\":21705:21765   */\n    tag_308:\n        /* \"#utility.yul\":21733:21736   */\n      0x00\n        /* \"#utility.yul\":21754:21759   */\n      dup2\n        /* \"#utility.yul\":21747:21759   */\n      swap1\n      pop\n        /* \"#utility.yul\":21705:21765   */\n      swap2\n      swap1\n      pop\n      jump\t// out\n        /* \"#utility.yul\":21771:21913   */\n    tag_309:\n        /* \"#utility.yul\":21821:21830   */\n      0x00\n        /* \"#utility.yul\":21854:21907   */\n      tag_518\n        /* \"#utility.yul\":21872:21906   */\n      tag_519\n        /* \"#utility.yul\":21881:21905   */\n      tag_520\n        /* \"#utility.yul\":21899:21904   */\n      dup5\n        /* \"#utility.yul\":21881:21905   */\n      tag_259\n      jump\t// in\n    tag_520:\n        /* \"#utility.yul\":21872:21906   */\n      tag_308\n      jump\t// in\n    tag_519:\n        /* \"#utility.yul\":21854:21907   */\n      tag_259\n      jump\t// in\n    tag_518:\n        /* \"#utility.yul\":21841:21907   */\n      swap1\n      pop\n        /* \"#utility.yul\":21771:21913   */\n      swap2\n      swap1\n      pop\n      jump\t// out\n        /* \"#utility.yul\":21919:21994   */\n    tag_310:\n        /* \"#utility.yul\":21962:21965   */\n      0x00\n        /* \"#utility.yul\":21983:21988   */\n      dup2\n        /* \"#utility.yul\":21976:21988   */\n      swap1\n      pop\n        /* \"#utility.yul\":21919:21994   */\n      swap2\n      swap1\n      pop\n      jump\t// out\n        /* \"#utility.yul\":22000:22269   */\n    tag_311:\n        /* \"#utility.yul\":22110:22149   */\n      tag_523\n        /* \"#utility.yul\":22141:22148   */\n      dup4\n        /* \"#utility.yul\":22110:22149   */\n      tag_309\n      jump\t// in\n    tag_523:\n        /* \"#utility.yul\":22171:22262   */\n      tag_524\n        /* \"#utility.yul\":22220:22261   */\n      tag_525\n        /* \"#utility.yul\":22244:22260   */\n      dup3\n        /* \"#utility.yul\":22220:22261   */\n      tag_310\n      jump\t// in\n    tag_525:\n        /* \"#utility.yul\":22212:22218   */\n      dup5\n        /* \"#utility.yul\":22205:22209   */\n      dup5\n        /* \"#utility.yul\":22199:22210   */\n      sload\n        /* \"#utility.yul\":22171:22262   */\n      tag_307\n      jump\t// in\n    tag_524:\n        /* \"#utility.yul\":22165:22169   */\n      dup3\n        /* \"#utility.yul\":22158:22263   */\n      sstore\n        /* \"#utility.yul\":22076:22269   */\n      pop\n        /* \"#utility.yul\":22000:22269   */\n      pop\n      pop\n      pop\n      jump\t// out\n        /* \"#utility.yul\":22275:22348   */\n    tag_312:\n        /* \"#utility.yul\":22320:22323   */\n      0x00\n        /* \"#utility.yul\":22275:22348   */\n      swap1\n      jump\t// out\n        /* \"#utility.yul\":22354:22543   */\n    tag_313:\n        /* \"#utility.yul\":22431:22463   */\n      tag_528\n      tag_312\n      jump\t// in\n    tag_528:\n        /* \"#utility.yul\":22472:22537   */\n      tag_529\n        /* \"#utility.yul\":22530:22536   */\n      dup2\n        /* \"#utility.yul\":22522:22528   */\n      dup5\n        /* \"#utility.yul\":22516:22520   */\n      dup5\n        /* \"#utility.yul\":22472:22537   */\n      tag_311\n      jump\t// in\n    tag_529:\n        /* \"#utility.yul\":22407:22543   */\n      pop\n        /* \"#utility.yul\":22354:22543   */\n      pop\n      pop\n      jump\t// out\n        /* \"#utility.yul\":22549:22735   */\n    tag_314:\n        /* \"#utility.yul\":22609:22729   */\n    tag_531:\n        /* \"#utility.yul\":22626:22629   */\n      dup2\n        /* \"#utility.yul\":22619:22624   */\n      dup2\n        /* \"#utility.yul\":22616:22630   */\n      lt\n        /* \"#utility.yul\":22609:22729   */\n      iszero\n      tag_533\n      jumpi\n        /* \"#utility.yul\":22680:22719   */\n      tag_534\n        /* \"#utility.yul\":22717:22718   */\n      0x00\n        /* \"#utility.yul\":22710:22715   */\n      dup3\n        /* \"#utility.yul\":22680:22719   */\n      tag_313\n      jump\t// in\n    tag_534:\n        /* \"#utility.yul\":22653:22654   */\n      0x01\n        /* \"#utility.yul\":22646:22651   */\n      dup2\n        /* \"#utility.yul\":22642:22655   */\n      add\n        /* \"#utility.yul\":22633:22655   */\n      swap1\n      pop\n        /* \"#utility.yul\":22609:22729   */\n      jump(tag_531)\n    tag_533:\n        /* \"#utility.yul\":22549:22735   */\n      pop\n      pop\n      jump\t// out\n        /* \"#utility.yul\":22741:23284   */\n    tag_315:\n        /* \"#utility.yul\":22842:22844   */\n      0x1f\n        /* \"#utility.yul\":22837:22840   */\n      dup3\n        /* \"#utility.yul\":22834:22845   */\n      gt\n        /* \"#utility.yul\":22831:23277   */\n      iszero\n      tag_536\n      jumpi\n        /* \"#utility.yul\":22876:22914   */\n      tag_537\n        /* \"#utility.yul\":22908:22913   */\n      dup2\n        /* \"#utility.yul\":22876:22914   */\n      tag_304\n      jump\t// in\n    tag_537:\n        /* \"#utility.yul\":22960:22989   */\n      tag_538\n        /* \"#utility.yul\":22978:22988   */\n      dup5\n        /* \"#utility.yul\":22960:22989   */\n      tag_305\n      jump\t// in\n    tag_538:\n        /* \"#utility.yul\":22950:22958   */\n      dup2\n        /* \"#utility.yul\":22946:22990   */\n      add\n        /* \"#utility.yul\":23143:23145   */\n      0x20\n        /* \"#utility.yul\":23131:23141   */\n      dup6\n        /* \"#utility.yul\":23128:23146   */\n      lt\n        /* \"#utility.yul\":23125:23174   */\n      iszero\n      tag_539\n      jumpi\n        /* \"#utility.yul\":23164:23172   */\n      dup2\n        /* \"#utility.yul\":23149:23172   */\n      swap1\n      pop\n        /* \"#utility.yul\":23125:23174   */\n    tag_539:\n        /* \"#utility.yul\":23187:23267   */\n      tag_540\n        /* \"#utility.yul\":23243:23265   */\n      tag_541\n        /* \"#utility.yul\":23261:23264   */\n      dup6\n        /* \"#utility.yul\":23243:23265   */\n      tag_305\n      jump\t// in\n    tag_541:\n        /* \"#utility.yul\":23233:23241   */\n      dup4\n        /* \"#utility.yul\":23229:23266   */\n      add\n        /* \"#utility.yul\":23216:23227   */\n      dup3\n        /* \"#utility.yul\":23187:23267   */\n      tag_314\n      jump\t// in\n    tag_540:\n        /* \"#utility.yul\":22846:23277   */\n      pop\n      pop\n        /* \"#utility.yul\":22831:23277   */\n    tag_536:\n        /* \"#utility.yul\":22741:23284   */\n      pop\n      pop\n      pop\n      jump\t// out\n        /* \"#utility.yul\":23290:23407   */\n    tag_316:\n        /* \"#utility.yul\":23344:23352   */\n      0x00\n        /* \"#utility.yul\":23394:23399   */\n      dup3\n        /* \"#utility.yul\":23388:23392   */\n      dup3\n        /* \"#utility.yul\":23384:23400   */\n      shr\n        /* \"#utility.yul\":23363:23400   */\n      swap1\n      pop\n        /* \"#utility.yul\":23290:23407   */\n      swap3\n      swap2\n      pop\n      pop\n      jump\t// out\n        /* \"#utility.yul\":23413:23582   */\n    tag_317:\n        /* \"#utility.yul\":23457:23463   */\n      0x00\n        /* \"#utility.yul\":23490:23541   */\n      tag_544\n        /* \"#utility.yul\":23538:23539   */\n      0x00\n        /* \"#utility.yul\":23534:23540   */\n      not\n        /* \"#utility.yul\":23526:23531   */\n      dup5\n        /* \"#utility.yul\":23523:23524   */\n      0x08\n        /* \"#utility.yul\":23519:23532   */\n      mul\n        /* \"#utility.yul\":23490:23541   */\n      tag_316\n      jump\t// in\n    tag_544:\n        /* \"#utility.yul\":23486:23542   */\n      not\n        /* \"#utility.yul\":23571:23575   */\n      dup1\n        /* \"#utility.yul\":23565:23569   */\n      dup4\n        /* \"#utility.yul\":23561:23576   */\n      and\n        /* \"#utility.yul\":23551:23576   */\n      swap2\n      pop\n        /* \"#utility.yul\":23464:23582   */\n      pop\n        /* \"#utility.yul\":23413:23582   */\n      swap3\n      swap2\n      pop\n      pop\n      jump\t// out\n        /* \"#utility.yul\":23587:23882   */\n    tag_318:\n        /* \"#utility.yul\":23663:23667   */\n      0x00\n        /* \"#utility.yul\":23809:23838   */\n      tag_546\n        /* \"#utility.yul\":23834:23837   */\n      dup4\n        /* \"#utility.yul\":23828:23832   */\n      dup4\n        /* \"#utility.yul\":23809:23838   */\n      tag_317\n      jump\t// in\n    tag_546:\n        /* \"#utility.yul\":23801:23838   */\n      swap2\n      pop\n        /* \"#utility.yul\":23871:23874   */\n      dup3\n        /* \"#utility.yul\":23868:23869   */\n      0x02\n        /* \"#utility.yul\":23864:23875   */\n      mul\n        /* \"#utility.yul\":23858:23862   */\n      dup3\n        /* \"#utility.yul\":23855:23876   */\n      or\n        /* \"#utility.yul\":23847:23876   */\n      swap1\n      pop\n        /* \"#utility.yul\":23587:23882   */\n      swap3\n      swap2\n      pop\n      pop\n      jump\t// out\n        /* \"#utility.yul\":23887:25282   */\n    tag_105:\n        /* \"#utility.yul\":24004:24041   */\n      tag_548\n        /* \"#utility.yul\":24037:24040   */\n      dup3\n        /* \"#utility.yul\":24004:24041   */\n      tag_251\n      jump\t// in\n    tag_548:\n        /* \"#utility.yul\":24106:24124   */\n      0xffffffffffffffff\n        /* \"#utility.yul\":24098:24104   */\n      dup2\n        /* \"#utility.yul\":24095:24125   */\n      gt\n        /* \"#utility.yul\":24092:24148   */\n      iszero\n      tag_549\n      jumpi\n        /* \"#utility.yul\":24128:24146   */\n      tag_550\n      tag_273\n      jump\t// in\n    tag_550:\n        /* \"#utility.yul\":24092:24148   */\n    tag_549:\n        /* \"#utility.yul\":24172:24210   */\n      tag_551\n        /* \"#utility.yul\":24204:24208   */\n      dup3\n        /* \"#utility.yul\":24198:24209   */\n      sload\n        /* \"#utility.yul\":24172:24210   */\n      tag_59\n      jump\t// in\n    tag_551:\n        /* \"#utility.yul\":24257:24324   */\n      tag_552\n        /* \"#utility.yul\":24317:24323   */\n      dup3\n        /* \"#utility.yul\":24309:24315   */\n      dup3\n        /* \"#utility.yul\":24303:24307   */\n      dup6\n        /* \"#utility.yul\":24257:24324   */\n      tag_315\n      jump\t// in\n    tag_552:\n        /* \"#utility.yul\":24351:24352   */\n      0x00\n        /* \"#utility.yul\":24375:24379   */\n      0x20\n        /* \"#utility.yul\":24362:24379   */\n      swap1\n      pop\n        /* \"#utility.yul\":24407:24409   */\n      0x1f\n        /* \"#utility.yul\":24399:24405   */\n      dup4\n        /* \"#utility.yul\":24396:24410   */\n      gt\n        /* \"#utility.yul\":24424:24425   */\n      0x01\n        /* \"#utility.yul\":24419:25037   */\n      dup2\n      eq\n      tag_554\n      jumpi\n        /* \"#utility.yul\":25081:25082   */\n      0x00\n        /* \"#utility.yul\":25098:25104   */\n      dup5\n        /* \"#utility.yul\":25095:25172   */\n      iszero\n      tag_555\n      jumpi\n        /* \"#utility.yul\":25147:25156   */\n      dup3\n        /* \"#utility.yul\":25142:25145   */\n      dup8\n        /* \"#utility.yul\":25138:25157   */\n      add\n        /* \"#utility.yul\":25132:25158   */\n      mload\n        /* \"#utility.yul\":25123:25158   */\n      swap1\n      pop\n        /* \"#utility.yul\":25095:25172   */\n    tag_555:\n        /* \"#utility.yul\":25198:25265   */\n      tag_556\n        /* \"#utility.yul\":25258:25264   */\n      dup6\n        /* \"#utility.yul\":25251:25256   */\n      dup3\n        /* \"#utility.yul\":25198:25265   */\n      tag_318\n      jump\t// in\n    tag_556:\n        /* \"#utility.yul\":25192:25196   */\n      dup7\n        /* \"#utility.yul\":25185:25266   */\n      sstore\n        /* \"#utility.yul\":25054:25276   */\n      pop\n        /* \"#utility.yul\":24389:25276   */\n      jump(tag_553)\n        /* \"#utility.yul\":24419:25037   */\n    tag_554:\n        /* \"#utility.yul\":24471:24475   */\n      0x1f\n        /* \"#utility.yul\":24467:24476   */\n      not\n        /* \"#utility.yul\":24459:24465   */\n      dup5\n        /* \"#utility.yul\":24455:24477   */\n      and\n        /* \"#utility.yul\":24505:24542   */\n      tag_557\n        /* \"#utility.yul\":24537:24541   */\n      dup7\n        /* \"#utility.yul\":24505:24542   */\n      tag_304\n      jump\t// in\n    tag_557:\n        /* \"#utility.yul\":24564:24565   */\n      0x00\n        /* \"#utility.yul\":24578:24786   */\n    tag_558:\n        /* \"#utility.yul\":24592:24599   */\n      dup3\n        /* \"#utility.yul\":24589:24590   */\n      dup2\n        /* \"#utility.yul\":24586:24600   */\n      lt\n        /* \"#utility.yul\":24578:24786   */\n      iszero\n      tag_560\n      jumpi\n        /* \"#utility.yul\":24671:24680   */\n      dup5\n        /* \"#utility.yul\":24666:24669   */\n      dup10\n        /* \"#utility.yul\":24662:24681   */\n      add\n        /* \"#utility.yul\":24656:24682   */\n      mload\n        /* \"#utility.yul\":24648:24654   */\n      dup3\n        /* \"#utility.yul\":24641:24683   */\n      sstore\n        /* \"#utility.yul\":24722:24723   */\n      0x01\n        /* \"#utility.yul\":24714:24720   */\n      dup3\n        /* \"#utility.yul\":24710:24724   */\n      add\n        /* \"#utility.yul\":24700:24724   */\n      swap2\n      pop\n        /* \"#utility.yul\":24769:24771   */\n      0x20\n        /* \"#utility.yul\":24758:24767   */\n      dup6\n        /* \"#utility.yul\":24754:24772   */\n      add\n        /* \"#utility.yul\":24741:24772   */\n      swap5\n      pop\n        /* \"#utility.yul\":24615:24619   */\n      0x20\n        /* \"#utility.yul\":24612:24613   */\n      dup2\n        /* \"#utility.yul\":24608:24620   */\n      add\n        /* \"#utility.yul\":24603:24620   */\n      swap1\n      pop\n        /* \"#utility.yul\":24578:24786   */\n      jump(tag_558)\n    tag_560:\n        /* \"#utility.yul\":24814:24820   */\n      dup7\n        /* \"#utility.yul\":24805:24812   */\n      dup4\n        /* \"#utility.yul\":24802:24821   */\n      lt\n        /* \"#utility.yul\":24799:24978   */\n      iszero\n      tag_561\n      jumpi\n        /* \"#utility.yul\":24872:24881   */\n      dup5\n        /* \"#utility.yul\":24867:24870   */\n      dup10\n        /* \"#utility.yul\":24863:24882   */\n      add\n        /* \"#utility.yul\":24857:24883   */\n      mload\n        /* \"#utility.yul\":24915:24963   */\n      tag_562\n        /* \"#utility.yul\":24957:24961   */\n      0x1f\n        /* \"#utility.yul\":24949:24955   */\n      dup10\n        /* \"#utility.yul\":24945:24962   */\n      and\n        /* \"#utility.yul\":24934:24943   */\n      dup3\n        /* \"#utility.yul\":24915:24963   */\n      tag_317\n      jump\t// in\n    tag_562:\n        /* \"#utility.yul\":24907:24913   */\n      dup4\n        /* \"#utility.yul\":24900:24964   */\n      sstore\n        /* \"#utility.yul\":24822:24978   */\n      pop\n        /* \"#utility.yul\":24799:24978   */\n    tag_561:\n        /* \"#utility.yul\":25024:25025   */\n      0x01\n        /* \"#utility.yul\":25020:25021   */\n      0x02\n        /* \"#utility.yul\":25012:25018   */\n      dup9\n        /* \"#utility.yul\":25008:25022   */\n      mul\n        /* \"#utility.yul\":25004:25026   */\n      add\n        /* \"#utility.yul\":24998:25002   */\n      dup9\n        /* \"#utility.yul\":24991:25027   */\n      sstore\n        /* \"#utility.yul\":24426:25037   */\n      pop\n      pop\n      pop\n        /* \"#utility.yul\":24389:25276   */\n    tag_553:\n      pop\n        /* \"#utility.yul\":23979:25282   */\n      pop\n      pop\n      pop\n        /* \"#utility.yul\":23887:25282   */\n      pop\n      pop\n      jump\t// out\n        /* \"#utility.yul\":25288:25468   */\n    tag_112:\n        /* \"#utility.yul\":25336:25413   */\n      0x4e487b7100000000000000000000000000000000000000000000000000000000\n        /* \"#utility.yul\":25333:25334   */\n      0x00\n        /* \"#utility.yul\":25326:25414   */\n      mstore\n        /* \"#utility.yul\":25433:25437   */\n      0x31\n        /* \"#utility.yul\":25430:25431   */\n      0x04\n        /* \"#utility.yul\":25423:25438   */\n      mstore\n        /* \"#utility.yul\":25457:25461   */\n      0x24\n        /* \"#utility.yul\":25454:25455   */\n      0x00\n        /* \"#utility.yul\":25447:25462   */\n      revert\n        /* \"#utility.yul\":25474:25654   */\n    tag_319:\n        /* \"#utility.yul\":25522:25599   */\n      0x4e487b7100000000000000000000000000000000000000000000000000000000\n        /* \"#utility.yul\":25519:25520   */\n      0x00\n        /* \"#utility.yul\":25512:25600   */\n      mstore\n        /* \"#utility.yul\":25619:25623   */\n      0x11\n        /* \"#utility.yul\":25616:25617   */\n      0x04\n        /* \"#utility.yul\":25609:25624   */\n      mstore\n        /* \"#utility.yul\":25643:25647   */\n      0x24\n        /* \"#utility.yul\":25640:25641   */\n      0x00\n        /* \"#utility.yul\":25633:25648   */\n      revert\n        /* \"#utility.yul\":25660:25893   */\n    tag_117:\n        /* \"#utility.yul\":25699:25702   */\n      0x00\n        /* \"#utility.yul\":25722:25746   */\n      tag_566\n        /* \"#utility.yul\":25740:25745   */\n      dup3\n        /* \"#utility.yul\":25722:25746   */\n      tag_259\n      jump\t// in\n    tag_566:\n        /* \"#utility.yul\":25713:25746   */\n      swap2\n      pop\n        /* \"#utility.yul\":25768:25834   */\n      0xffffffffffffffffffffffffffffffffffffffffffffffffffffffffffffffff\n        /* \"#utility.yul\":25761:25766   */\n      dup3\n        /* \"#utility.yul\":25758:25835   */\n      sub\n        /* \"#utility.yul\":25755:25858   */\n      tag_567\n      jumpi\n        /* \"#utility.yul\":25838:25856   */\n      tag_568\n      tag_319\n      jump\t// in\n    tag_568:\n        /* \"#utility.yul\":25755:25858   */\n    tag_567:\n        /* \"#utility.yul\":25885:25886   */\n      0x01\n        /* \"#utility.yul\":25878:25883   */\n      dup3\n        /* \"#utility.yul\":25874:25887   */\n      add\n        /* \"#utility.yul\":25867:25887   */\n      swap1\n      pop\n        /* \"#utility.yul\":25660:25893   */\n      swap2\n      swap1\n      pop\n      jump\t// out\n        /* \"#utility.yul\":25899:26090   */\n    tag_122:\n        /* \"#utility.yul\":25939:25942   */\n      0x00\n        /* \"#utility.yul\":25958:25978   */\n      tag_570\n        /* \"#utility.yul\":25976:25977   */\n      dup3\n        /* \"#utility.yul\":25958:25978   */\n      tag_259\n      jump\t// in\n    tag_570:\n        /* \"#utility.yul\":25953:25978   */\n      swap2\n      pop\n        /* \"#utility.yul\":25992:26012   */\n      tag_571\n        /* \"#utility.yul\":26010:26011   */\n      dup4\n        /* \"#utility.yul\":25992:26012   */\n      tag_259\n      jump\t// in\n    tag_571:\n        /* \"#utility.yul\":25987:26012   */\n      swap3\n      pop\n        /* \"#utility.yul\":26035:26036   */\n      dup3\n        /* \"#utility.yul\":26032:26033   */\n      dup3\n        /* \"#utility.yul\":26028:26037   */\n      add\n        /* \"#utility.yul\":26021:26037   */\n      swap1\n      pop\n        /* \"#utility.yul\":26056:26059   */\n      dup1\n        /* \"#utility.yul\":26053:26054   */\n      dup3\n        /* \"#utility.yul\":26050:26060   */\n      gt\n        /* \"#utility.yul\":26047:26083   */\n      iszero\n      tag_572\n      jumpi\n        /* \"#utility.yul\":26063:26081   */\n      tag_573\n      tag_319\n      jump\t// in\n    tag_573:\n        /* \"#utility.yul\":26047:26083   */\n    tag_572:\n        /* \"#utility.yul\":25899:26090   */\n      swap3\n      swap2\n      pop\n      pop\n      jump\t// out\n        /* \"#utility.yul\":26096:26276   */\n    tag_320:\n        /* \"#utility.yul\":26236:26268   */\n      0x766f74696e67206d757374206265207374617274656420746f20766f74650000\n        /* \"#utility.yul\":26232:26233   */\n      0x00\n        /* \"#utility.yul\":26224:26230   */\n      dup3\n        /* \"#utility.yul\":26220:26234   */\n      add\n        /* \"#utility.yul\":26213:26269   */\n      mstore\n        /* \"#utility.yul\":26096:26276   */\n      pop\n      jump\t// out\n        /* \"#utility.yul\":26282:26648   */\n    tag_321:\n        /* \"#utility.yul\":26424:26427   */\n      0x00\n        /* \"#utility.yul\":26445:26512   */\n      tag_576\n        /* \"#utility.yul\":26509:26511   */\n      0x1e\n        /* \"#utility.yul\":26504:26507   */\n      dup4\n        /* \"#utility.yul\":26445:26512   */\n      tag_288\n      jump\t// in\n    tag_576:\n        /* \"#utility.yul\":26438:26512   */\n      swap2\n      pop\n        /* \"#utility.yul\":26521:26614   */\n      tag_577\n        /* \"#utility.yul\":26610:26613   */\n      dup3\n        /* \"#utility.yul\":26521:26614   */\n      tag_320\n      jump\t// in\n    tag_577:\n        /* \"#utility.yul\":26639:26641   */\n      0x20\n        /* \"#utility.yul\":26634:26637   */\n      dup3\n        /* \"#utility.yul\":26630:26642   */\n      add\n        /* \"#utility.yul\":26623:26642   */\n      swap1\n      pop\n        /* \"#utility.yul\":26282:26648   */\n      swap2\n      swap1\n      pop\n      jump\t// out\n        /* \"#utility.yul\":26654:27073   */\n    tag_134:\n        /* \"#utility.yul\":26820:26824   */\n      0x00\n        /* \"#utility.yul\":26858:26860   */\n      0x20\n        /* \"#utility.yul\":26847:26856   */\n      dup3\n        /* \"#utility.yul\":26843:26861   */\n      add\n        /* \"#utility.yul\":26835:26861   */\n      swap1\n      pop\n        /* \"#utility.yul\":26907:26916   */\n      dup2\n        /* \"#utility.yul\":26901:26905   */\n      dup2\n        /* \"#utility.yul\":26897:26917   */\n      sub\n        /* \"#utility.yul\":26893:26894   */\n      0x00\n        /* \"#utility.yul\":26882:26891   */\n      dup4\n        /* \"#utility.yul\":26878:26895   */\n      add\n        /* \"#utility.yul\":26871:26918   */\n      mstore\n        /* \"#utility.yul\":26935:27066   */\n      tag_579\n        /* \"#utility.yul\":27061:27065   */\n      dup2\n        /* \"#utility.yul\":26935:27066   */\n      tag_321\n      jump\t// in\n    tag_579:\n        /* \"#utility.yul\":26927:27066   */\n      swap1\n      pop\n        /* \"#utility.yul\":26654:27073   */\n      swap2\n      swap1\n      pop\n      jump\t// out\n        /* \"#utility.yul\":27079:27243   */\n    tag_322:\n        /* \"#utility.yul\":27219:27235   */\n      0x416c726561647920766f7465642e000000000000000000000000000000000000\n        /* \"#utility.yul\":27215:27216   */\n      0x00\n        /* \"#utility.yul\":27207:27213   */\n      dup3\n        /* \"#utility.yul\":27203:27217   */\n      add\n        /* \"#utility.yul\":27196:27236   */\n      mstore\n        /* \"#utility.yul\":27079:27243   */\n      pop\n      jump\t// out\n        /* \"#utility.yul\":27249:27615   */\n    tag_323:\n        /* \"#utility.yul\":27391:27394   */\n      0x00\n        /* \"#utility.yul\":27412:27479   */\n      tag_582\n        /* \"#utility.yul\":27476:27478   */\n      0x0e\n        /* \"#utility.yul\":27471:27474   */\n      dup4\n        /* \"#utility.yul\":27412:27479   */\n      tag_288\n      jump\t// in\n    tag_582:\n        /* \"#utility.yul\":27405:27479   */\n      swap2\n      pop\n        /* \"#utility.yul\":27488:27581   */\n      tag_583\n        /* \"#utility.yul\":27577:27580   */\n      dup3\n        /* \"#utility.yul\":27488:27581   */\n      tag_322\n      jump\t// in\n    tag_583:\n        /* \"#utility.yul\":27606:27608   */\n      0x20\n        /* \"#utility.yul\":27601:27604   */\n      dup3\n        /* \"#utility.yul\":27597:27609   */\n      add\n        /* \"#utility.yul\":27590:27609   */\n      swap1\n      pop\n        /* \"#utility.yul\":27249:27615   */\n      swap2\n      swap1\n      pop\n      jump\t// out\n        /* \"#utility.yul\":27621:28040   */\n    tag_147:\n        /* \"#utility.yul\":27787:27791   */\n      0x00\n        /* \"#utility.yul\":27825:27827   */\n      0x20\n        /* \"#utility.yul\":27814:27823   */\n      dup3\n        /* \"#utility.yul\":27810:27828   */\n      add\n        /* \"#utility.yul\":27802:27828   */\n      swap1\n      pop\n        /* \"#utility.yul\":27874:27883   */\n      dup2\n        /* \"#utility.yul\":27868:27872   */\n      dup2\n        /* \"#utility.yul\":27864:27884   */\n      sub\n        /* \"#utility.yul\":27860:27861   */\n      0x00\n        /* \"#utility.yul\":27849:27858   */\n      dup4\n        /* \"#utility.yul\":27845:27862   */\n      add\n        /* \"#utility.yul\":27838:27885   */\n      mstore\n        /* \"#utility.yul\":27902:28033   */\n      tag_585\n        /* \"#utility.yul\":28028:28032   */\n      dup2\n        /* \"#utility.yul\":27902:28033   */\n      tag_323\n      jump\t// in\n    tag_585:\n        /* \"#utility.yul\":27894:28033   */\n      swap1\n      pop\n        /* \"#utility.yul\":27621:28040   */\n      swap2\n      swap1\n      pop\n      jump\t// out\n        /* \"#utility.yul\":28046:28209   */\n    tag_324:\n        /* \"#utility.yul\":28186:28201   */\n      0x57726f6e67206e756d6265722100000000000000000000000000000000000000\n        /* \"#utility.yul\":28182:28183   */\n      0x00\n        /* \"#utility.yul\":28174:28180   */\n      dup3\n        /* \"#utility.yul\":28170:28184   */\n      add\n        /* \"#utility.yul\":28163:28202   */\n      mstore\n        /* \"#utility.yul\":28046:28209   */\n      pop\n      jump\t// out\n        /* \"#utility.yul\":28215:28581   */\n    tag_325:\n        /* \"#utility.yul\":28357:28360   */\n      0x00\n        /* \"#utility.yul\":28378:28445   */\n      tag_588\n        /* \"#utility.yul\":28442:28444   */\n      0x0d\n        /* \"#utility.yul\":28437:28440   */\n      dup4\n        /* \"#utility.yul\":28378:28445   */\n      tag_288\n      jump\t// in\n    tag_588:\n        /* \"#utility.yul\":28371:28445   */\n      swap2\n      pop\n        /* \"#utility.yul\":28454:28547   */\n      tag_589\n        /* \"#utility.yul\":28543:28546   */\n      dup3\n        /* \"#utility.yul\":28454:28547   */\n      tag_324\n      jump\t// in\n    tag_589:\n        /* \"#utility.yul\":28572:28574   */\n      0x20\n        /* \"#utility.yul\":28567:28570   */\n      dup3\n        /* \"#utility.yul\":28563:28575   */\n      add\n        /* \"#utility.yul\":28556:28575   */\n      swap1\n      pop\n        /* \"#utility.yul\":28215:28581   */\n      swap2\n      swap1\n      pop\n      jump\t// out\n        /* \"#utility.yul\":28587:29006   */\n    tag_151:\n        /* \"#utility.yul\":28753:28757   */\n      0x00\n        /* \"#utility.yul\":28791:28793   */\n      0x20\n        /* \"#utility.yul\":28780:28789   */\n      dup3\n        /* \"#utility.yul\":28776:28794   */\n      add\n        /* \"#utility.yul\":28768:28794   */\n      swap1\n      pop\n        /* \"#utility.yul\":28840:28849   */\n      dup2\n        /* \"#utility.yul\":28834:28838   */\n      dup2\n        /* \"#utility.yul\":28830:28850   */\n      sub\n        /* \"#utility.yul\":28826:28827   */\n      0x00\n        /* \"#utility.yul\":28815:28824   */\n      dup4\n        /* \"#utility.yul\":28811:28828   */\n      add\n        /* \"#utility.yul\":28804:28851   */\n      mstore\n        /* \"#utility.yul\":28868:28999   */\n      tag_591\n        /* \"#utility.yul\":28994:28998   */\n      dup2\n        /* \"#utility.yul\":28868:28999   */\n      tag_325\n      jump\t// in\n    tag_591:\n        /* \"#utility.yul\":28860:28999   */\n      swap1\n      pop\n        /* \"#utility.yul\":28587:29006   */\n      swap2\n      swap1\n      pop\n      jump\t// out\n        /* \"#utility.yul\":29012:29165   */\n    tag_326:\n        /* \"#utility.yul\":29065:29071   */\n      0x00\n        /* \"#utility.yul\":29099:29104   */\n      dup2\n        /* \"#utility.yul\":29093:29105   */\n      sload\n        /* \"#utility.yul\":29083:29105   */\n      swap1\n      pop\n        /* \"#utility.yul\":29125:29158   */\n      tag_593\n        /* \"#utility.yul\":29151:29157   */\n      dup2\n        /* \"#utility.yul\":29125:29158   */\n      tag_59\n      jump\t// in\n    tag_593:\n        /* \"#utility.yul\":29115:29158   */\n      swap1\n      pop\n        /* \"#utility.yul\":29012:29165   */\n      swap2\n      swap1\n      pop\n      jump\t// out\n        /* \"#utility.yul\":29171:29316   */\n    tag_327:\n        /* \"#utility.yul\":29224:29228   */\n      0x00\n        /* \"#utility.yul\":29247:29250   */\n      dup2\n        /* \"#utility.yul\":29239:29250   */\n      swap1\n      pop\n        /* \"#utility.yul\":29270:29273   */\n      dup2\n        /* \"#utility.yul\":29267:29268   */\n      0x00\n        /* \"#utility.yul\":29260:29274   */\n      mstore\n        /* \"#utility.yul\":29304:29308   */\n      0x20\n        /* \"#utility.yul\":29301:29302   */\n      0x00\n        /* \"#utility.yul\":29291:29309   */\n      keccak256\n        /* \"#utility.yul\":29283:29309   */\n      swap1\n      pop\n        /* \"#utility.yul\":29171:29316   */\n      swap2\n      swap1\n      pop\n      jump\t// out\n        /* \"#utility.yul\":29322:30785   */\n    tag_153:\n        /* \"#utility.yul\":29437:29440   */\n      dup2\n        /* \"#utility.yul\":29431:29435   */\n      dup2\n        /* \"#utility.yul\":29428:29441   */\n      sub\n        /* \"#utility.yul\":29425:29451   */\n      tag_596\n      jumpi\n        /* \"#utility.yul\":29444:29449   */\n      pop\n      pop\n      jump(tag_595)\n        /* \"#utility.yul\":29425:29451   */\n    tag_596:\n        /* \"#utility.yul\":29475:29513   */\n      tag_597\n        /* \"#utility.yul\":29509:29512   */\n      dup3\n        /* \"#utility.yul\":29475:29513   */\n      tag_326\n      jump\t// in\n    tag_597:\n        /* \"#utility.yul\":29578:29596   */\n      0xffffffffffffffff\n        /* \"#utility.yul\":29570:29576   */\n      dup2\n        /* \"#utility.yul\":29567:29597   */\n      gt\n        /* \"#utility.yul\":29564:29620   */\n      iszero\n      tag_598\n      jumpi\n        /* \"#utility.yul\":29600:29618   */\n      tag_599\n      tag_273\n      jump\t// in\n    tag_599:\n        /* \"#utility.yul\":29564:29620   */\n    tag_598:\n        /* \"#utility.yul\":29644:29682   */\n      tag_600\n        /* \"#utility.yul\":29676:29680   */\n      dup3\n        /* \"#utility.yul\":29670:29681   */\n      sload\n        /* \"#utility.yul\":29644:29682   */\n      tag_59\n      jump\t// in\n    tag_600:\n        /* \"#utility.yul\":29729:29796   */\n      tag_601\n        /* \"#utility.yul\":29789:29795   */\n      dup3\n        /* \"#utility.yul\":29781:29787   */\n      dup3\n        /* \"#utility.yul\":29775:29779   */\n      dup6\n        /* \"#utility.yul\":29729:29796   */\n      tag_315\n      jump\t// in\n    tag_601:\n        /* \"#utility.yul\":29823:29824   */\n      0x00\n        /* \"#utility.yul\":29852:29854   */\n      0x1f\n        /* \"#utility.yul\":29844:29850   */\n      dup4\n        /* \"#utility.yul\":29841:29855   */\n      gt\n        /* \"#utility.yul\":29869:29870   */\n      0x01\n        /* \"#utility.yul\":29864:30540   */\n      dup2\n      eq\n      tag_603\n      jumpi\n        /* \"#utility.yul\":30584:30585   */\n      0x00\n        /* \"#utility.yul\":30601:30607   */\n      dup5\n        /* \"#utility.yul\":30598:30675   */\n      iszero\n      tag_604\n      jumpi\n        /* \"#utility.yul\":30650:30659   */\n      dup3\n        /* \"#utility.yul\":30645:30648   */\n      dup8\n        /* \"#utility.yul\":30641:30660   */\n      add\n        /* \"#utility.yul\":30635:30661   */\n      sload\n        /* \"#utility.yul\":30626:30661   */\n      swap1\n      pop\n        /* \"#utility.yul\":30598:30675   */\n    tag_604:\n        /* \"#utility.yul\":30701:30768   */\n      tag_605\n        /* \"#utility.yul\":30761:30767   */\n      dup6\n        /* \"#utility.yul\":30754:30759   */\n      dup3\n        /* \"#utility.yul\":30701:30768   */\n      tag_318\n      jump\t// in\n    tag_605:\n        /* \"#utility.yul\":30695:30699   */\n      dup7\n        /* \"#utility.yul\":30688:30769   */\n      sstore\n        /* \"#utility.yul\":30557:30779   */\n      pop\n        /* \"#utility.yul\":29834:30779   */\n      jump(tag_602)\n        /* \"#utility.yul\":29864:30540   */\n    tag_603:\n        /* \"#utility.yul\":29916:29920   */\n      0x1f\n        /* \"#utility.yul\":29912:29921   */\n      not\n        /* \"#utility.yul\":29904:29910   */\n      dup5\n        /* \"#utility.yul\":29900:29922   */\n      and\n        /* \"#utility.yul\":29942:29982   */\n      tag_606\n        /* \"#utility.yul\":29978:29981   */\n      dup8\n        /* \"#utility.yul\":29942:29982   */\n      tag_327\n      jump\t// in\n    tag_606:\n        /* \"#utility.yul\":29935:29982   */\n      swap7\n      pop\n        /* \"#utility.yul\":30009:30046   */\n      tag_607\n        /* \"#utility.yul\":30041:30045   */\n      dup7\n        /* \"#utility.yul\":30009:30046   */\n      tag_304\n      jump\t// in\n    tag_607:\n        /* \"#utility.yul\":30068:30069   */\n      0x00\n        /* \"#utility.yul\":30082:30289   */\n    tag_608:\n        /* \"#utility.yul\":30096:30103   */\n      dup3\n        /* \"#utility.yul\":30093:30094   */\n      dup2\n        /* \"#utility.yul\":30090:30104   */\n      lt\n        /* \"#utility.yul\":30082:30289   */\n      iszero\n      tag_610\n      jumpi\n        /* \"#utility.yul\":30175:30184   */\n      dup5\n        /* \"#utility.yul\":30170:30173   */\n      dup10\n        /* \"#utility.yul\":30166:30185   */\n      add\n        /* \"#utility.yul\":30160:30186   */\n      sload\n        /* \"#utility.yul\":30152:30158   */\n      dup3\n        /* \"#utility.yul\":30145:30187   */\n      sstore\n        /* \"#utility.yul\":30226:30227   */\n      0x01\n        /* \"#utility.yul\":30218:30224   */\n      dup3\n        /* \"#utility.yul\":30214:30228   */\n      add\n        /* \"#utility.yul\":30204:30228   */\n      swap2\n      pop\n        /* \"#utility.yul\":30273:30274   */\n      0x01\n        /* \"#utility.yul\":30262:30271   */\n      dup6\n        /* \"#utility.yul\":30258:30275   */\n      add\n        /* \"#utility.yul\":30245:30275   */\n      swap5\n      pop\n        /* \"#utility.yul\":30119:30123   */\n      0x20\n        /* \"#utility.yul\":30116:30117   */\n      dup2\n        /* \"#utility.yul\":30112:30124   */\n      add\n        /* \"#utility.yul\":30107:30124   */\n      swap1\n      pop\n        /* \"#utility.yul\":30082:30289   */\n      jump(tag_608)\n    tag_610:\n        /* \"#utility.yul\":30317:30323   */\n      dup7\n        /* \"#utility.yul\":30308:30315   */\n      dup4\n        /* \"#utility.yul\":30305:30324   */\n      lt\n        /* \"#utility.yul\":30302:30481   */\n      iszero\n      tag_611\n      jumpi\n        /* \"#utility.yul\":30375:30384   */\n      dup5\n        /* \"#utility.yul\":30370:30373   */\n      dup10\n        /* \"#utility.yul\":30366:30385   */\n      add\n        /* \"#utility.yul\":30360:30386   */\n      sload\n        /* \"#utility.yul\":30418:30466   */\n      tag_612\n        /* \"#utility.yul\":30460:30464   */\n      0x1f\n        /* \"#utility.yul\":30452:30458   */\n      dup10\n        /* \"#utility.yul\":30448:30465   */\n      and\n        /* \"#utility.yul\":30437:30446   */\n      dup3\n        /* \"#utility.yul\":30418:30466   */\n      tag_317\n      jump\t// in\n    tag_612:\n        /* \"#utility.yul\":30410:30416   */\n      dup4\n        /* \"#utility.yul\":30403:30467   */\n      sstore\n        /* \"#utility.yul\":30325:30481   */\n      pop\n        /* \"#utility.yul\":30302:30481   */\n    tag_611:\n        /* \"#utility.yul\":30527:30528   */\n      0x01\n        /* \"#utility.yul\":30523:30524   */\n      0x02\n        /* \"#utility.yul\":30515:30521   */\n      dup9\n        /* \"#utility.yul\":30511:30525   */\n      mul\n        /* \"#utility.yul\":30507:30529   */\n      add\n        /* \"#utility.yul\":30501:30505   */\n      dup9\n        /* \"#utility.yul\":30494:30530   */\n      sstore\n        /* \"#utility.yul\":29871:30540   */\n      pop\n      pop\n      pop\n        /* \"#utility.yul\":29834:30779   */\n    tag_602:\n      pop\n        /* \"#utility.yul\":29415:30785   */\n      pop\n      pop\n      pop\n        /* \"#utility.yul\":29322:30785   */\n      pop\n      pop\n    tag_595:\n      jump\t// out\n        /* \"#utility.yul\":30791:30985   */\n    tag_155:\n        /* \"#utility.yul\":30831:30835   */\n      0x00\n        /* \"#utility.yul\":30851:30871   */\n      tag_614\n        /* \"#utility.yul\":30869:30870   */\n      dup3\n        /* \"#utility.yul\":30851:30871   */\n      tag_259\n      jump\t// in\n    tag_614:\n        /* \"#utility.yul\":30846:30871   */\n      swap2\n      pop\n        /* \"#utility.yul\":30885:30905   */\n      tag_615\n        /* \"#utility.yul\":30903:30904   */\n      dup4\n        /* \"#utility.yul\":30885:30905   */\n      tag_259\n      jump\t// in\n    tag_615:\n        /* \"#utility.yul\":30880:30905   */\n      swap3\n      pop\n        /* \"#utility.yul\":30929:30930   */\n      dup3\n        /* \"#utility.yul\":30926:30927   */\n      dup3\n        /* \"#utility.yul\":30922:30931   */\n      sub\n        /* \"#utility.yul\":30914:30931   */\n      swap1\n      pop\n        /* \"#utility.yul\":30953:30954   */\n      dup2\n        /* \"#utility.yul\":30947:30951   */\n      dup2\n        /* \"#utility.yul\":30944:30955   */\n      gt\n        /* \"#utility.yul\":30941:30978   */\n      iszero\n      tag_616\n      jumpi\n        /* \"#utility.yul\":30958:30976   */\n      tag_617\n      tag_319\n      jump\t// in\n    tag_617:\n        /* \"#utility.yul\":30941:30978   */\n    tag_616:\n        /* \"#utility.yul\":30791:30985   */\n      swap3\n      swap2\n      pop\n      pop\n      jump\t// out\n        /* \"#utility.yul\":30991:31140   */\n    tag_328:\n        /* \"#utility.yul\":31040:31046   */\n      0x00\n        /* \"#utility.yul\":31074:31079   */\n      dup2\n        /* \"#utility.yul\":31068:31080   */\n      sload\n        /* \"#utility.yul\":31058:31080   */\n      swap1\n      pop\n        /* \"#utility.yul\":31100:31133   */\n      tag_619\n        /* \"#utility.yul\":31126:31132   */\n      dup2\n        /* \"#utility.yul\":31100:31133   */\n      tag_59\n      jump\t// in\n    tag_619:\n        /* \"#utility.yul\":31090:31133   */\n      swap1\n      pop\n        /* \"#utility.yul\":30991:31140   */\n      swap2\n      swap1\n      pop\n      jump\t// out\n        /* \"#utility.yul\":31146:32597   */\n    tag_217:\n        /* \"#utility.yul\":31257:31260   */\n      dup2\n        /* \"#utility.yul\":31251:31255   */\n      dup2\n        /* \"#utility.yul\":31248:31261   */\n      sub\n        /* \"#utility.yul\":31245:31271   */\n      tag_621\n      jumpi\n        /* \"#utility.yul\":31264:31269   */\n      pop\n      pop\n      jump(tag_620)\n        /* \"#utility.yul\":31245:31271   */\n    tag_621:\n        /* \"#utility.yul\":31295:31329   */\n      tag_622\n        /* \"#utility.yul\":31325:31328   */\n      dup3\n        /* \"#utility.yul\":31295:31329   */\n      tag_328\n      jump\t// in\n    tag_622:\n        /* \"#utility.yul\":31394:31412   */\n      0xffffffffffffffff\n        /* \"#utility.yul\":31386:31392   */\n      dup2\n        /* \"#utility.yul\":31383:31413   */\n      gt\n        /* \"#utility.yul\":31380:31436   */\n      iszero\n      tag_623\n      jumpi\n        /* \"#utility.yul\":31416:31434   */\n      tag_624\n      tag_273\n      jump\t// in\n    tag_624:\n        /* \"#utility.yul\":31380:31436   */\n    tag_623:\n        /* \"#utility.yul\":31460:31498   */\n      tag_625\n        /* \"#utility.yul\":31492:31496   */\n      dup3\n        /* \"#utility.yul\":31486:31497   */\n      sload\n        /* \"#utility.yul\":31460:31498   */\n      tag_59\n      jump\t// in\n    tag_625:\n        /* \"#utility.yul\":31545:31612   */\n      tag_626\n        /* \"#utility.yul\":31605:31611   */\n      dup3\n        /* \"#utility.yul\":31597:31603   */\n      dup3\n        /* \"#utility.yul\":31591:31595   */\n      dup6\n        /* \"#utility.yul\":31545:31612   */\n      tag_315\n      jump\t// in\n    tag_626:\n        /* \"#utility.yul\":31639:31640   */\n      0x00\n        /* \"#utility.yul\":31668:31670   */\n      0x1f\n        /* \"#utility.yul\":31660:31666   */\n      dup4\n        /* \"#utility.yul\":31657:31671   */\n      gt\n        /* \"#utility.yul\":31685:31686   */\n      0x01\n        /* \"#utility.yul\":31680:32352   */\n      dup2\n      eq\n      tag_628\n      jumpi\n        /* \"#utility.yul\":32396:32397   */\n      0x00\n        /* \"#utility.yul\":32413:32419   */\n      dup5\n        /* \"#utility.yul\":32410:32487   */\n      iszero\n      tag_629\n      jumpi\n        /* \"#utility.yul\":32462:32471   */\n      dup3\n        /* \"#utility.yul\":32457:32460   */\n      dup8\n        /* \"#utility.yul\":32453:32472   */\n      add\n        /* \"#utility.yul\":32447:32473   */\n      sload\n        /* \"#utility.yul\":32438:32473   */\n      swap1\n      pop\n        /* \"#utility.yul\":32410:32487   */\n    tag_629:\n        /* \"#utility.yul\":32513:32580   */\n      tag_630\n        /* \"#utility.yul\":32573:32579   */\n      dup6\n        /* \"#utility.yul\":32566:32571   */\n      dup3\n        /* \"#utility.yul\":32513:32580   */\n      tag_318\n      jump\t// in\n    tag_630:\n        /* \"#utility.yul\":32507:32511   */\n      dup7\n        /* \"#utility.yul\":32500:32581   */\n      sstore\n        /* \"#utility.yul\":32369:32591   */\n      pop\n        /* \"#utility.yul\":31650:32591   */\n      jump(tag_627)\n        /* \"#utility.yul\":31680:32352   */\n    tag_628:\n        /* \"#utility.yul\":31732:31736   */\n      0x1f\n        /* \"#utility.yul\":31728:31737   */\n      not\n        /* \"#utility.yul\":31720:31726   */\n      dup5\n        /* \"#utility.yul\":31716:31738   */\n      and\n        /* \"#utility.yul\":31758:31794   */\n      tag_631\n        /* \"#utility.yul\":31790:31793   */\n      dup8\n        /* \"#utility.yul\":31758:31794   */\n      tag_304\n      jump\t// in\n    tag_631:\n        /* \"#utility.yul\":31751:31794   */\n      swap7\n      pop\n        /* \"#utility.yul\":31821:31858   */\n      tag_632\n        /* \"#utility.yul\":31853:31857   */\n      dup7\n        /* \"#utility.yul\":31821:31858   */\n      tag_304\n      jump\t// in\n    tag_632:\n        /* \"#utility.yul\":31880:31881   */\n      0x00\n        /* \"#utility.yul\":31894:32101   */\n    tag_633:\n        /* \"#utility.yul\":31908:31915   */\n      dup3\n        /* \"#utility.yul\":31905:31906   */\n      dup2\n        /* \"#utility.yul\":31902:31916   */\n      lt\n        /* \"#utility.yul\":31894:32101   */\n      iszero\n      tag_635\n      jumpi\n        /* \"#utility.yul\":31987:31996   */\n      dup5\n        /* \"#utility.yul\":31982:31985   */\n      dup10\n        /* \"#utility.yul\":31978:31997   */\n      add\n        /* \"#utility.yul\":31972:31998   */\n      sload\n        /* \"#utility.yul\":31964:31970   */\n      dup3\n        /* \"#utility.yul\":31957:31999   */\n      sstore\n        /* \"#utility.yul\":32038:32039   */\n      0x01\n        /* \"#utility.yul\":32030:32036   */\n      dup3\n        /* \"#utility.yul\":32026:32040   */\n      add\n        /* \"#utility.yul\":32016:32040   */\n      swap2\n      pop\n        /* \"#utility.yul\":32085:32086   */\n      0x01\n        /* \"#utility.yul\":32074:32083   */\n      dup6\n        /* \"#utility.yul\":32070:32087   */\n      add\n        /* \"#utility.yul\":32057:32087   */\n      swap5\n      pop\n        /* \"#utility.yul\":31931:31935   */\n      0x20\n        /* \"#utility.yul\":31928:31929   */\n      dup2\n        /* \"#utility.yul\":31924:31936   */\n      add\n        /* \"#utility.yul\":31919:31936   */\n      swap1\n      pop\n        /* \"#utility.yul\":31894:32101   */\n      jump(tag_633)\n    tag_635:\n        /* \"#utility.yul\":32129:32135   */\n      dup7\n        /* \"#utility.yul\":32120:32127   */\n      dup4\n        /* \"#utility.yul\":32117:32136   */\n      lt\n        /* \"#utility.yul\":32114:32293   */\n      iszero\n      tag_636\n      jumpi\n        /* \"#utility.yul\":32187:32196   */\n      dup5\n        /* \"#utility.yul\":32182:32185   */\n      dup10\n        /* \"#utility.yul\":32178:32197   */\n      add\n        /* \"#utility.yul\":32172:32198   */\n      sload\n        /* \"#utility.yul\":32230:32278   */\n      tag_637\n        /* \"#utility.yul\":32272:32276   */\n      0x1f\n        /* \"#utility.yul\":32264:32270   */\n      dup10\n        /* \"#utility.yul\":32260:32277   */\n      and\n        /* \"#utility.yul\":32249:32258   */\n      dup3\n        /* \"#utility.yul\":32230:32278   */\n      tag_317\n      jump\t// in\n    tag_637:\n        /* \"#utility.yul\":32222:32228   */\n      dup4\n        /* \"#utility.yul\":32215:32279   */\n      sstore\n        /* \"#utility.yul\":32137:32293   */\n      pop\n        /* \"#utility.yul\":32114:32293   */\n    tag_636:\n        /* \"#utility.yul\":32339:32340   */\n      0x01\n        /* \"#utility.yul\":32335:32336   */\n      0x02\n        /* \"#utility.yul\":32327:32333   */\n      dup9\n        /* \"#utility.yul\":32323:32337   */\n      mul\n        /* \"#utility.yul\":32319:32341   */\n      add\n        /* \"#utility.yul\":32313:32317   */\n      dup9\n        /* \"#utility.yul\":32306:32342   */\n      sstore\n        /* \"#utility.yul\":31687:32352   */\n      pop\n      pop\n      pop\n        /* \"#utility.yul\":31650:32591   */\n    tag_627:\n      pop\n        /* \"#utility.yul\":31235:32597   */\n      pop\n      pop\n      pop\n        /* \"#utility.yul\":31146:32597   */\n      pop\n      pop\n    tag_620:\n      jump\t// out\n        /* \"#utility.yul\":32627:33438   */\n    tag_329:\n        /* \"#utility.yul\":32702:32705   */\n      0x00\n        /* \"#utility.yul\":32739:32744   */\n      dup2\n        /* \"#utility.yul\":32733:32745   */\n      sload\n        /* \"#utility.yul\":32768:32804   */\n      tag_639\n        /* \"#utility.yul\":32794:32803   */\n      dup2\n        /* \"#utility.yul\":32768:32804   */\n      tag_59\n      jump\t// in\n    tag_639:\n        /* \"#utility.yul\":32820:32881   */\n      tag_640\n        /* \"#utility.yul\":32874:32880   */\n      dup2\n        /* \"#utility.yul\":32869:32872   */\n      dup7\n        /* \"#utility.yul\":32820:32881   */\n      tag_252\n      jump\t// in\n    tag_640:\n        /* \"#utility.yul\":32813:32881   */\n      swap5\n      pop\n        /* \"#utility.yul\":32912:32913   */\n      0x01\n        /* \"#utility.yul\":32901:32910   */\n      dup3\n        /* \"#utility.yul\":32897:32914   */\n      and\n        /* \"#utility.yul\":32928:32929   */\n      0x00\n        /* \"#utility.yul\":32923:33087   */\n      dup2\n      eq\n      tag_642\n      jumpi\n        /* \"#utility.yul\":33101:33102   */\n      0x01\n        /* \"#utility.yul\":33096:33432   */\n      dup2\n      eq\n      tag_643\n      jumpi\n        /* \"#utility.yul\":32890:33432   */\n      jump(tag_641)\n        /* \"#utility.yul\":32923:33087   */\n    tag_642:\n        /* \"#utility.yul\":33007:33011   */\n      0xff\n        /* \"#utility.yul\":33003:33012   */\n      not\n        /* \"#utility.yul\":32992:33001   */\n      dup4\n        /* \"#utility.yul\":32988:33013   */\n      and\n        /* \"#utility.yul\":32983:32986   */\n      dup7\n        /* \"#utility.yul\":32976:33014   */\n      mstore\n        /* \"#utility.yul\":33067:33073   */\n      dup2\n        /* \"#utility.yul\":33060:33074   */\n      iszero\n        /* \"#utility.yul\":33053:33075   */\n      iszero\n        /* \"#utility.yul\":33047:33051   */\n      0x20\n        /* \"#utility.yul\":33043:33076   */\n      mul\n        /* \"#utility.yul\":33038:33041   */\n      dup7\n        /* \"#utility.yul\":33034:33077   */\n      add\n        /* \"#utility.yul\":33027:33077   */\n      swap4\n      pop\n        /* \"#utility.yul\":32923:33087   */\n      jump(tag_641)\n        /* \"#utility.yul\":33096:33432   */\n    tag_643:\n        /* \"#utility.yul\":33163:33201   */\n      tag_644\n        /* \"#utility.yul\":33195:33200   */\n      dup6\n        /* \"#utility.yul\":33163:33201   */\n      tag_304\n      jump\t// in\n    tag_644:\n        /* \"#utility.yul\":33223:33224   */\n      0x00\n        /* \"#utility.yul\":33237:33391   */\n    tag_645:\n        /* \"#utility.yul\":33251:33257   */\n      dup4\n        /* \"#utility.yul\":33248:33249   */\n      dup2\n        /* \"#utility.yul\":33245:33258   */\n      lt\n        /* \"#utility.yul\":33237:33391   */\n      iszero\n      tag_647\n      jumpi\n        /* \"#utility.yul\":33325:33332   */\n      dup2\n        /* \"#utility.yul\":33319:33333   */\n      sload\n        /* \"#utility.yul\":33315:33316   */\n      dup2\n        /* \"#utility.yul\":33310:33313   */\n      dup10\n        /* \"#utility.yul\":33306:33317   */\n      add\n        /* \"#utility.yul\":33299:33334   */\n      mstore\n        /* \"#utility.yul\":33375:33376   */\n      0x01\n        /* \"#utility.yul\":33366:33373   */\n      dup3\n        /* \"#utility.yul\":33362:33377   */\n      add\n        /* \"#utility.yul\":33351:33377   */\n      swap2\n      pop\n        /* \"#utility.yul\":33273:33277   */\n      0x20\n        /* \"#utility.yul\":33270:33271   */\n      dup2\n        /* \"#utility.yul\":33266:33278   */\n      add\n        /* \"#utility.yul\":33261:33278   */\n      swap1\n      pop\n        /* \"#utility.yul\":33237:33391   */\n      jump(tag_645)\n    tag_647:\n        /* \"#utility.yul\":33420:33421   */\n      dup1\n        /* \"#utility.yul\":33415:33418   */\n      dup9\n        /* \"#utility.yul\":33411:33422   */\n      add\n        /* \"#utility.yul\":33404:33422   */\n      swap6\n      pop\n        /* \"#utility.yul\":33103:33432   */\n      pop\n      pop\n        /* \"#utility.yul\":32890:33432   */\n    tag_641:\n      pop\n        /* \"#utility.yul\":32706:33438   */\n      pop\n      pop\n        /* \"#utility.yul\":32627:33438   */\n      swap3\n      swap2\n      pop\n      pop\n      jump\t// out\n        /* \"#utility.yul\":33444:33574   */\n    tag_330:\n        /* \"#utility.yul\":33527:33533   */\n      0x00\n        /* \"#utility.yul\":33561:33566   */\n      dup2\n        /* \"#utility.yul\":33555:33567   */\n      sload\n        /* \"#utility.yul\":33545:33567   */\n      swap1\n      pop\n        /* \"#utility.yul\":33444:33574   */\n      swap2\n      swap1\n      pop\n      jump\t// out\n        /* \"#utility.yul\":33580:33755   */\n    tag_331:\n        /* \"#utility.yul\":33663:33667   */\n      0x00\n        /* \"#utility.yul\":33686:33689   */\n      dup2\n        /* \"#utility.yul\":33678:33689   */\n      swap1\n      pop\n        /* \"#utility.yul\":33709:33712   */\n      dup2\n        /* \"#utility.yul\":33706:33707   */\n      0x00\n        /* \"#utility.yul\":33699:33713   */\n      mstore\n        /* \"#utility.yul\":33743:33747   */\n      0x20\n        /* \"#utility.yul\":33740:33741   */\n      0x00\n        /* \"#utility.yul\":33730:33748   */\n      keccak256\n        /* \"#utility.yul\":33722:33748   */\n      swap1\n      pop\n        /* \"#utility.yul\":33580:33755   */\n      swap2\n      swap1\n      pop\n      jump\t// out\n        /* \"#utility.yul\":33761:33863   */\n    tag_332:\n        /* \"#utility.yul\":33803:33811   */\n      0x00\n        /* \"#utility.yul\":33850:33855   */\n      dup2\n        /* \"#utility.yul\":33847:33848   */\n      0x00\n        /* \"#utility.yul\":33843:33856   */\n      shr\n        /* \"#utility.yul\":33822:33856   */\n      swap1\n      pop\n        /* \"#utility.yul\":33761:33863   */\n      swap2\n      swap1\n      pop\n      jump\t// out\n        /* \"#utility.yul\":33869:33959   */\n    tag_333:\n        /* \"#utility.yul\":33919:33926   */\n      0x00\n        /* \"#utility.yul\":33948:33953   */\n      dup2\n        /* \"#utility.yul\":33937:33953   */\n      swap1\n      pop\n        /* \"#utility.yul\":33869:33959   */\n      swap2\n      swap1\n      pop\n      jump\t// out\n        /* \"#utility.yul\":33965:34131   */\n    tag_334:\n        /* \"#utility.yul\":34034:34039   */\n      0x00\n        /* \"#utility.yul\":34059:34125   */\n      tag_653\n        /* \"#utility.yul\":34090:34124   */\n      tag_654\n        /* \"#utility.yul\":34113:34123   */\n      dup4\n        /* \"#utility.yul\":34090:34124   */\n      tag_332\n      jump\t// in\n    tag_654:\n        /* \"#utility.yul\":34059:34125   */\n      tag_333\n      jump\t// in\n    tag_653:\n        /* \"#utility.yul\":34050:34125   */\n      swap1\n      pop\n        /* \"#utility.yul\":33965:34131   */\n      swap2\n      swap1\n      pop\n      jump\t// out\n        /* \"#utility.yul\":34189:35146   */\n    tag_335:\n        /* \"#utility.yul\":34289:34292   */\n      0x00\n        /* \"#utility.yul\":34325:34329   */\n      0x60\n        /* \"#utility.yul\":34320:34323   */\n      dup4\n        /* \"#utility.yul\":34316:34330   */\n      add\n        /* \"#utility.yul\":34356:34357   */\n      0x00\n        /* \"#utility.yul\":34439:34443   */\n      dup1\n        /* \"#utility.yul\":34432:34437   */\n      dup5\n        /* \"#utility.yul\":34428:34444   */\n      add\n        /* \"#utility.yul\":34422:34445   */\n      sload\n        /* \"#utility.yul\":34409:34445   */\n      swap1\n      pop\n        /* \"#utility.yul\":34478:34533   */\n      tag_656\n        /* \"#utility.yul\":34523:34532   */\n      dup2\n        /* \"#utility.yul\":34478:34533   */\n      tag_334\n      jump\t// in\n    tag_656:\n        /* \"#utility.yul\":34546:34609   */\n      tag_657\n        /* \"#utility.yul\":34603:34607   */\n      0x00\n        /* \"#utility.yul\":34598:34601   */\n      dup8\n        /* \"#utility.yul\":34594:34608   */\n      add\n        /* \"#utility.yul\":34580:34592   */\n      dup3\n        /* \"#utility.yul\":34546:34609   */\n      tag_260\n      jump\t// in\n    tag_657:\n        /* \"#utility.yul\":34367:34619   */\n      pop\n        /* \"#utility.yul\":34701:34705   */\n      0x01\n        /* \"#utility.yul\":34694:34699   */\n      dup5\n        /* \"#utility.yul\":34690:34706   */\n      add\n        /* \"#utility.yul\":34753:34756   */\n      dup6\n        /* \"#utility.yul\":34747:34751   */\n      dup4\n        /* \"#utility.yul\":34743:34757   */\n      sub\n        /* \"#utility.yul\":34736:34740   */\n      0x20\n        /* \"#utility.yul\":34731:34734   */\n      dup8\n        /* \"#utility.yul\":34727:34741   */\n      add\n        /* \"#utility.yul\":34720:34758   */\n      mstore\n        /* \"#utility.yul\":34779:34849   */\n      tag_658\n        /* \"#utility.yul\":34844:34848   */\n      dup4\n        /* \"#utility.yul\":34830:34842   */\n      dup3\n        /* \"#utility.yul\":34779:34849   */\n      tag_329\n      jump\t// in\n    tag_658:\n        /* \"#utility.yul\":34771:34849   */\n      swap3\n      pop\n        /* \"#utility.yul\":34629:34860   */\n      pop\n        /* \"#utility.yul\":34939:34943   */\n      0x02\n        /* \"#utility.yul\":34932:34937   */\n      dup5\n        /* \"#utility.yul\":34928:34944   */\n      add\n        /* \"#utility.yul\":34922:34945   */\n      sload\n        /* \"#utility.yul\":34909:34945   */\n      swap1\n      pop\n        /* \"#utility.yul\":34978:35033   */\n      tag_659\n        /* \"#utility.yul\":35023:35032   */\n      dup2\n        /* \"#utility.yul\":34978:35033   */\n      tag_334\n      jump\t// in\n    tag_659:\n        /* \"#utility.yul\":35046:35109   */\n      tag_660\n        /* \"#utility.yul\":35103:35107   */\n      0x40\n        /* \"#utility.yul\":35098:35101   */\n      dup8\n        /* \"#utility.yul\":35094:35108   */\n      add\n        /* \"#utility.yul\":35080:35092   */\n      dup3\n        /* \"#utility.yul\":35046:35109   */\n      tag_260\n      jump\t// in\n    tag_660:\n        /* \"#utility.yul\":34870:35119   */\n      pop\n        /* \"#utility.yul\":35136:35140   */\n      dup2\n        /* \"#utility.yul\":35129:35140   */\n      swap3\n      pop\n        /* \"#utility.yul\":34294:35146   */\n      pop\n      pop\n        /* \"#utility.yul\":34189:35146   */\n      swap3\n      swap2\n      pop\n      pop\n      jump\t// out\n        /* \"#utility.yul\":35152:35390   */\n    tag_336:\n        /* \"#utility.yul\":35262:35272   */\n      0x00\n        /* \"#utility.yul\":35297:35384   */\n      tag_662\n        /* \"#utility.yul\":35380:35383   */\n      dup4\n        /* \"#utility.yul\":35372:35378   */\n      dup4\n        /* \"#utility.yul\":35297:35384   */\n      tag_335\n      jump\t// in\n    tag_662:\n        /* \"#utility.yul\":35283:35384   */\n      swap1\n      pop\n        /* \"#utility.yul\":35152:35390   */\n      swap3\n      swap2\n      pop\n      pop\n      jump\t// out\n        /* \"#utility.yul\":35396:35525   */\n    tag_337:\n        /* \"#utility.yul\":35482:35486   */\n      0x00\n        /* \"#utility.yul\":35514:35518   */\n      0x03\n        /* \"#utility.yul\":35509:35512   */\n      dup3\n        /* \"#utility.yul\":35505:35519   */\n      add\n        /* \"#utility.yul\":35497:35519   */\n      swap1\n      pop\n        /* \"#utility.yul\":35396:35525   */\n      swap2\n      swap1\n      pop\n      jump\t// out\n        /* \"#utility.yul\":35587:36620   */\n    tag_338:\n        /* \"#utility.yul\":35734:35737   */\n      0x00\n        /* \"#utility.yul\":35763:35833   */\n      tag_665\n        /* \"#utility.yul\":35827:35832   */\n      dup3\n        /* \"#utility.yul\":35763:35833   */\n      tag_330\n      jump\t// in\n    tag_665:\n        /* \"#utility.yul\":35849:35947   */\n      tag_666\n        /* \"#utility.yul\":35940:35946   */\n      dup2\n        /* \"#utility.yul\":35935:35938   */\n      dup6\n        /* \"#utility.yul\":35849:35947   */\n      tag_257\n      jump\t// in\n    tag_666:\n        /* \"#utility.yul\":35842:35947   */\n      swap4\n      pop\n        /* \"#utility.yul\":35973:35976   */\n      dup4\n        /* \"#utility.yul\":36018:36022   */\n      0x20\n        /* \"#utility.yul\":36010:36016   */\n      dup3\n        /* \"#utility.yul\":36006:36023   */\n      mul\n        /* \"#utility.yul\":36001:36004   */\n      dup6\n        /* \"#utility.yul\":35997:36024   */\n      add\n        /* \"#utility.yul\":36048:36120   */\n      tag_667\n        /* \"#utility.yul\":36114:36119   */\n      dup6\n        /* \"#utility.yul\":36048:36120   */\n      tag_331\n      jump\t// in\n    tag_667:\n        /* \"#utility.yul\":36143:36150   */\n      dup1\n        /* \"#utility.yul\":36174:36175   */\n      0x00\n        /* \"#utility.yul\":36159:36575   */\n    tag_668:\n        /* \"#utility.yul\":36184:36190   */\n      dup6\n        /* \"#utility.yul\":36181:36182   */\n      dup2\n        /* \"#utility.yul\":36178:36191   */\n      lt\n        /* \"#utility.yul\":36159:36575   */\n      iszero\n      tag_670\n      jumpi\n        /* \"#utility.yul\":36255:36264   */\n      dup5\n        /* \"#utility.yul\":36249:36253   */\n      dup5\n        /* \"#utility.yul\":36245:36265   */\n      sub\n        /* \"#utility.yul\":36240:36243   */\n      dup10\n        /* \"#utility.yul\":36233:36266   */\n      mstore\n        /* \"#utility.yul\":36300:36306   */\n      dup2\n        /* \"#utility.yul\":36327:36432   */\n      tag_671\n        /* \"#utility.yul\":36427:36431   */\n      dup6\n        /* \"#utility.yul\":36412:36425   */\n      dup3\n        /* \"#utility.yul\":36327:36432   */\n      tag_336\n      jump\t// in\n    tag_671:\n        /* \"#utility.yul\":36319:36432   */\n      swap5\n      pop\n        /* \"#utility.yul\":36455:36531   */\n      tag_672\n        /* \"#utility.yul\":36524:36530   */\n      dup4\n        /* \"#utility.yul\":36455:36531   */\n      tag_337\n      jump\t// in\n    tag_672:\n        /* \"#utility.yul\":36445:36531   */\n      swap3\n      pop\n        /* \"#utility.yul\":36560:36564   */\n      0x20\n        /* \"#utility.yul\":36555:36558   */\n      dup11\n        /* \"#utility.yul\":36551:36565   */\n      add\n        /* \"#utility.yul\":36544:36565   */\n      swap10\n      pop\n        /* \"#utility.yul\":36219:36575   */\n      pop\n        /* \"#utility.yul\":36206:36207   */\n      0x01\n        /* \"#utility.yul\":36203:36204   */\n      dup2\n        /* \"#utility.yul\":36199:36208   */\n      add\n        /* \"#utility.yul\":36194:36208   */\n      swap1\n      pop\n        /* \"#utility.yul\":36159:36575   */\n      jump(tag_668)\n    tag_670:\n        /* \"#utility.yul\":36163:36177   */\n      pop\n        /* \"#utility.yul\":36591:36595   */\n      dup3\n        /* \"#utility.yul\":36584:36595   */\n      swap8\n      pop\n        /* \"#utility.yul\":36611:36614   */\n      dup8\n        /* \"#utility.yul\":36604:36614   */\n      swap6\n      pop\n        /* \"#utility.yul\":35739:36620   */\n      pop\n      pop\n      pop\n      pop\n      pop\n        /* \"#utility.yul\":35587:36620   */\n      swap3\n      swap2\n      pop\n      pop\n      jump\t// out\n        /* \"#utility.yul\":36688:37451   */\n    tag_339:\n        /* \"#utility.yul\":36808:36811   */\n      0x00\n        /* \"#utility.yul\":36844:36848   */\n      0x40\n        /* \"#utility.yul\":36839:36842   */\n      dup4\n        /* \"#utility.yul\":36835:36849   */\n      add\n        /* \"#utility.yul\":36875:36876   */\n      0x00\n        /* \"#utility.yul\":36956:36960   */\n      dup1\n        /* \"#utility.yul\":36949:36954   */\n      dup5\n        /* \"#utility.yul\":36945:36961   */\n      add\n        /* \"#utility.yul\":37008:37011   */\n      dup6\n        /* \"#utility.yul\":37002:37006   */\n      dup4\n        /* \"#utility.yul\":36998:37012   */\n      sub\n        /* \"#utility.yul\":36991:36995   */\n      0x00\n        /* \"#utility.yul\":36986:36989   */\n      dup8\n        /* \"#utility.yul\":36982:36996   */\n      add\n        /* \"#utility.yul\":36975:37013   */\n      mstore\n        /* \"#utility.yul\":37034:37104   */\n      tag_674\n        /* \"#utility.yul\":37099:37103   */\n      dup4\n        /* \"#utility.yul\":37085:37097   */\n      dup3\n        /* \"#utility.yul\":37034:37104   */\n      tag_329\n      jump\t// in\n    tag_674:\n        /* \"#utility.yul\":37026:37104   */\n      swap3\n      pop\n        /* \"#utility.yul\":36886:37115   */\n      pop\n        /* \"#utility.yul\":37194:37198   */\n      0x01\n        /* \"#utility.yul\":37187:37192   */\n      dup5\n        /* \"#utility.yul\":37183:37199   */\n      add\n        /* \"#utility.yul\":37246:37249   */\n      dup6\n        /* \"#utility.yul\":37240:37244   */\n      dup4\n        /* \"#utility.yul\":37236:37250   */\n      sub\n        /* \"#utility.yul\":37229:37233   */\n      0x20\n        /* \"#utility.yul\":37224:37227   */\n      dup8\n        /* \"#utility.yul\":37220:37234   */\n      add\n        /* \"#utility.yul\":37213:37251   */\n      mstore\n        /* \"#utility.yul\":37272:37413   */\n      tag_675\n        /* \"#utility.yul\":37408:37412   */\n      dup4\n        /* \"#utility.yul\":37394:37406   */\n      dup3\n        /* \"#utility.yul\":37272:37413   */\n      tag_338\n      jump\t// in\n    tag_675:\n        /* \"#utility.yul\":37264:37413   */\n      swap3\n      pop\n        /* \"#utility.yul\":37125:37424   */\n      pop\n        /* \"#utility.yul\":37441:37445   */\n      dup2\n        /* \"#utility.yul\":37434:37445   */\n      swap3\n      pop\n        /* \"#utility.yul\":36813:37451   */\n      pop\n      pop\n        /* \"#utility.yul\":36688:37451   */\n      swap3\n      swap2\n      pop\n      pop\n      jump\t// out\n        /* \"#utility.yul\":37457:37832   */\n    tag_221:\n        /* \"#utility.yul\":37601:37605   */\n      0x00\n        /* \"#utility.yul\":37639:37641   */\n      0x20\n        /* \"#utility.yul\":37628:37637   */\n      dup3\n        /* \"#utility.yul\":37624:37642   */\n      add\n        /* \"#utility.yul\":37616:37642   */\n      swap1\n      pop\n        /* \"#utility.yul\":37688:37697   */\n      dup2\n        /* \"#utility.yul\":37682:37686   */\n      dup2\n        /* \"#utility.yul\":37678:37698   */\n      sub\n        /* \"#utility.yul\":37674:37675   */\n      0x00\n        /* \"#utility.yul\":37663:37672   */\n      dup4\n        /* \"#utility.yul\":37659:37676   */\n      add\n        /* \"#utility.yul\":37652:37699   */\n      mstore\n        /* \"#utility.yul\":37716:37825   */\n      tag_677\n        /* \"#utility.yul\":37820:37824   */\n      dup2\n        /* \"#utility.yul\":37811:37817   */\n      dup5\n        /* \"#utility.yul\":37716:37825   */\n      tag_339\n      jump\t// in\n    tag_677:\n        /* \"#utility.yul\":37708:37825   */\n      swap1\n      pop\n        /* \"#utility.yul\":37457:37832   */\n      swap3\n      swap2\n      pop\n      pop\n      jump\t// out\n\n    auxdata: 0xa26469706673582212203ffb3ba2e0aa32f3bd745f18bf7cf156487aa142006986756673a159406f1c5264736f6c63430008120033\n}\n",
				"bytecode": {
					"linkReferences": {},
					"object": "608060405260008060146101000a81548160ff02191690831515021790555034801561002a57600080fd5b50336000806101000a81548173ffffffffffffffffffffffffffffffffffffffff021916908373ffffffffffffffffffffffffffffffffffffffff1602179055506127948061007a6000396000f3fe608060405234801561001057600080fd5b506004361061009e5760003560e01c80638da5cb5b116100665780638da5cb5b146101335780638e7ea5b214610151578063d41667631461016f578063f575e2a71461018d578063fab2f86b146101ab5761009e565b80631401795f146100a35780631ec6b60a146100c1578063778021e4146100cb5780637fbb63c9146100fb57806386a5053514610117575b600080fd5b6100ab6101c9565b6040516100b891906116a3565b60405180910390f35b6100c96103d0565b005b6100e560048036038101906100e09190611705565b61047b565b6040516100f291906116a3565b60405180910390f35b6101156004803603810190610110919061194d565b61064e565b005b610131600480360381019061012c9190611705565b61088a565b005b61013b610ba6565b6040516101489190611a06565b60405180910390f35b610159610bca565b6040516101669190611a71565b60405180910390f35b610177610d88565b6040516101849190611add565b60405180910390f35b610195610e1c565b6040516101a29190611c05565b60405180910390f35b6101b3611012565b6040516101c091906116a3565b60405180910390f35b6101d1611354565b60011515600060149054906101000a900460ff16151514610227576040517f08c379a000000000000000000000000000000000000000000000000000000000815260040161021e90611c99565b60405180910390fd5b600360405180604001604052908160008201805461024490611ce8565b80601f016020809104026020016040519081016040528092919081815260200182805461027090611ce8565b80156102bd5780601f10610292576101008083540402835291602001916102bd565b820191906000526020600020905b8154815290600101906020018083116102a057829003601f168201915b5050505050815260200160018201805480602002602001604051908101604052809291908181526020016000905b828210156103c357838290600052602060002090600302016040518060600160405290816000820154815260200160018201805461032890611ce8565b80601f016020809104026020016040519081016040528092919081815260200182805461035490611ce8565b80156103a15780601f10610376576101008083540402835291602001916103a1565b820191906000526020600020905b81548152906001019060200180831161038457829003601f168201915b50505050508152602001600282015481525050815260200190600101906102eb565b5050505081525050905090565b60008054906101000a900473ffffffffffffffffffffffffffffffffffffffff1673ffffffffffffffffffffffffffffffffffffffff163373ffffffffffffffffffffffffffffffffffffffff161461045e576040517f08c379a000000000000000000000000000000000000000000000000000000000815260040161045590611d65565b60405180910390fd5b6001600060146101000a81548160ff021916908315150217905550565b610483611354565b6005828154811061049757610496611d85565b5b90600052602060002090600202016040518060400160405290816000820180546104c090611ce8565b80601f01602080910402602001604051908101604052809291908181526020018280546104ec90611ce8565b80156105395780601f1061050e57610100808354040283529160200191610539565b820191906000526020600020905b81548152906001019060200180831161051c57829003601f168201915b5050505050815260200160018201805480602002602001604051908101604052809291908181526020016000905b8282101561063f5783829060005260206000209060030201604051806060016040529081600082015481526020016001820180546105a490611ce8565b80601f01602080910402602001604051908101604052809291908181526020018280546105d090611ce8565b801561061d5780601f106105f25761010080835404028352916020019161061d565b820191906000526020600020905b81548152906001019060200180831161060057829003601f168201915b5050505050815260200160028201548152505081526020019060010190610567565b50505050815250509050919050565b60001515600060149054906101000a900460ff161515146106a4576040517f08c379a000000000000000000000000000000000000000000000000000000000815260040161069b90611e26565b60405180910390fd5b60008054906101000a900473ffffffffffffffffffffffffffffffffffffffff1673ffffffffffffffffffffffffffffffffffffffff163373ffffffffffffffffffffffffffffffffffffffff1614610732576040517f08c379a000000000000000000000000000000000000000000000000000000000815260040161072990611d65565b60405180910390fd5b81600360000190816107449190611ff2565b506000600360010180549050146107ca5760005b60036001018054905081116107c857600360010180548061077c5761077b6120c4565b5b60019003818190600052602060002090600302016000808201600090556001820160006107a9919061136e565b60028201600090555050905580806107c090612122565b915050610758565b505b60005b815181101561088557600360010160405180606001604052806001846107f3919061216a565b815260200184848151811061080b5761080a611d85565b5b60200260200101518152602001600081525090806001815401808255809150506001900390600052602060002090600302016000909190919091506000820151816000015560208201518160010190816108659190611ff2565b50604082015181600201555050808061087d90612122565b9150506107cd565b505050565b60011515600060149054906101000a900460ff161515146108e0576040517f08c379a00000000000000000000000000000000000000000000000000000000081526004016108d790611c99565b60405180910390fd5b60011515600060149054906101000a900460ff16151514610936576040517f08c379a000000000000000000000000000000000000000000000000000000000815260040161092d906121ea565b60405180910390fd5b6000600160003373ffffffffffffffffffffffffffffffffffffffff1673ffffffffffffffffffffffffffffffffffffffff1681526020019081526020016000209050600081600001805461098a90611ce8565b80601f01602080910402602001604051908101604052809291908181526020018280546109b690611ce8565b8015610a035780601f106109d857610100808354040283529160200191610a03565b820191906000526020600020905b8154815290600101906020018083116109e657829003601f168201915b50505050509050600060036000018054610a1c90611ce8565b80601f0160208091040260200160405190810160405280929190818152602001828054610a4890611ce8565b8015610a955780601f10610a6a57610100808354040283529160200191610a95565b820191906000526020600020905b815481529060010190602001808311610a7857829003601f168201915b505050505090508051825103610ae0576040517f08c379a0000000000000000000000000000000000000000000000000000000008152600401610ad790612256565b60405180910390fd5b600084118015610af857506003600101805490508411155b610b37576040517f08c379a0000000000000000000000000000000000000000000000000000000008152600401610b2e906122c2565b60405180910390fd5b6003600001836000019081610b4c919061230d565b508383600101819055506003600101600185610b6891906123f5565b81548110610b7957610b78611d85565b5b90600052602060002090600302016002016000815480929190610b9b90612122565b919050555050505050565b60008054906101000a900473ffffffffffffffffffffffffffffffffffffffff1681565b610bd26113ae565b60001515600060149054906101000a900460ff16151514610c28576040517f08c379a0000000000000000000000000000000000000000000000000000000008152600401610c1f90611e26565b60405180910390fd5b6000805b600360010180549050811015610d83578160036001018281548110610c5457610c53611d85565b5b9060005260206000209060030201600201541115610d705760036001018181548110610c8357610c82611d85565b5b906000526020600020906003020160020154915060036001018181548110610cae57610cad611d85565b5b906000526020600020906003020160405180606001604052908160008201548152602001600182018054610ce190611ce8565b80601f0160208091040260200160405190810160405280929190818152602001828054610d0d90611ce8565b8015610d5a5780601f10610d2f57610100808354040283529160200191610d5a565b820191906000526020600020905b815481529060010190602001808311610d3d57829003601f168201915b5050505050815260200160028201548152505092505b8080610d7b90612122565b915050610c2c565b505090565b6003806000018054610d9990611ce8565b80601f0160208091040260200160405190810160405280929190818152602001828054610dc590611ce8565b8015610e125780601f10610de757610100808354040283529160200191610e12565b820191906000526020600020905b815481529060010190602001808311610df557829003601f168201915b5050505050905081565b60606005805480602002602001604051908101604052809291908181526020016000905b828210156110095783829060005260206000209060020201604051806040016040529081600082018054610e7390611ce8565b80601f0160208091040260200160405190810160405280929190818152602001828054610e9f90611ce8565b8015610eec5780601f10610ec157610100808354040283529160200191610eec565b820191906000526020600020905b815481529060010190602001808311610ecf57829003601f168201915b5050505050815260200160018201805480602002602001604051908101604052809291908181526020016000905b82821015610ff2578382906000526020600020906003020160405180606001604052908160008201548152602001600182018054610f5790611ce8565b80601f0160208091040260200160405190810160405280929190818152602001828054610f8390611ce8565b8015610fd05780601f10610fa557610100808354040283529160200191610fd0565b820191906000526020600020905b815481529060010190602001808311610fb357829003601f168201915b5050505050815260200160028201548152505081526020019060010190610f1a565b505050508152505081526020019060010190610e40565b50505050905090565b61101a611354565b60011515600060149054906101000a900460ff16151514611070576040517f08c379a000000000000000000000000000000000000000000000000000000000815260040161106790611c99565b60405180910390fd5b60008054906101000a900473ffffffffffffffffffffffffffffffffffffffff1673ffffffffffffffffffffffffffffffffffffffff163373ffffffffffffffffffffffffffffffffffffffff16146110fe576040517f08c379a00000000000000000000000000000000000000000000000000000000081526004016110f590611d65565b60405180910390fd5b60008060146101000a81548160ff02191690831515021790555060056003908060018154018082558091505060019003906000526020600020906002020160009091909190915060008201816000019081611159919061243f565b5060018201816001019080546111709291906113cf565b5050507fe358bd83bcb7bc82ef83fbc3a494e602febb5a2639e796a44ea1ac5fc94e884360036040516111a3919061273c565b60405180910390a160036040518060400160405290816000820180546111c890611ce8565b80601f01602080910402602001604051908101604052809291908181526020018280546111f490611ce8565b80156112415780601f1061121657610100808354040283529160200191611241565b820191906000526020600020905b81548152906001019060200180831161122457829003601f168201915b5050505050815260200160018201805480602002602001604051908101604052809291908181526020016000905b828210156113475783829060005260206000209060030201604051806060016040529081600082015481526020016001820180546112ac90611ce8565b80601f01602080910402602001604051908101604052809291908181526020018280546112d890611ce8565b80156113255780601f106112fa57610100808354040283529160200191611325565b820191906000526020600020905b81548152906001019060200180831161130857829003601f168201915b505050505081526020016002820154815250508152602001906001019061126f565b5050505081525050905090565b604051806040016040528060608152602001606081525090565b50805461137a90611ce8565b6000825580601f1061138c57506113ab565b601f0160209004906000526020600020908101906113aa9190611450565b5b50565b60405180606001604052806000815260200160608152602001600081525090565b82805482825590600052602060002090600302810192821561143f5760005260206000209160030282015b8281111561143e5782826000820154816000015560018201816001019081611422919061243f565b50600282015481600201555050916003019190600301906113fa565b5b50905061144c919061146d565b5090565b5b80821115611469576000816000905550600101611451565b5090565b5b808211156114a05760008082016000905560018201600061148f919061136e565b60028201600090555060030161146e565b5090565b600081519050919050565b600082825260208201905092915050565b60005b838110156114de5780820151818401526020810190506114c3565b60008484015250505050565b6000601f19601f8301169050919050565b6000611506826114a4565b61151081856114af565b93506115208185602086016114c0565b611529816114ea565b840191505092915050565b600081519050919050565b600082825260208201905092915050565b6000819050602082019050919050565b6000819050919050565b61157381611560565b82525050565b6000606083016000830151611591600086018261156a565b50602083015184820360208601526115a982826114fb565b91505060408301516115be604086018261156a565b508091505092915050565b60006115d58383611579565b905092915050565b6000602082019050919050565b60006115f582611534565b6115ff818561153f565b93508360208202850161161185611550565b8060005b8581101561164d578484038952815161162e85826115c9565b9450611639836115dd565b925060208a01995050600181019050611615565b50829750879550505050505092915050565b6000604083016000830151848203600086015261167c82826114fb565b9150506020830151848203602086015261169682826115ea565b9150508091505092915050565b600060208201905081810360008301526116bd818461165f565b905092915050565b6000604051905090565b600080fd5b600080fd5b6116e281611560565b81146116ed57600080fd5b50565b6000813590506116ff816116d9565b92915050565b60006020828403121561171b5761171a6116cf565b5b6000611729848285016116f0565b91505092915050565b600080fd5b600080fd5b7f4e487b7100000000000000000000000000000000000000000000000000000000600052604160045260246000fd5b611774826114ea565b810181811067ffffffffffffffff821117156117935761179261173c565b5b80604052505050565b60006117a66116c5565b90506117b2828261176b565b919050565b600067ffffffffffffffff8211156117d2576117d161173c565b5b6117db826114ea565b9050602081019050919050565b82818337600083830152505050565b600061180a611805846117b7565b61179c565b90508281526020810184848401111561182657611825611737565b5b6118318482856117e8565b509392505050565b600082601f83011261184e5761184d611732565b5b813561185e8482602086016117f7565b91505092915050565b600067ffffffffffffffff8211156118825761188161173c565b5b602082029050602081019050919050565b600080fd5b60006118ab6118a684611867565b61179c565b905080838252602082019050602084028301858111156118ce576118cd611893565b5b835b8181101561191557803567ffffffffffffffff8111156118f3576118f2611732565b5b8086016119008982611839565b855260208501945050506020810190506118d0565b5050509392505050565b600082601f83011261193457611933611732565b5b8135611944848260208601611898565b91505092915050565b60008060408385031215611964576119636116cf565b5b600083013567ffffffffffffffff811115611982576119816116d4565b5b61198e85828601611839565b925050602083013567ffffffffffffffff8111156119af576119ae6116d4565b5b6119bb8582860161191f565b9150509250929050565b600073ffffffffffffffffffffffffffffffffffffffff82169050919050565b60006119f0826119c5565b9050919050565b611a00816119e5565b82525050565b6000602082019050611a1b60008301846119f7565b92915050565b6000606083016000830151611a39600086018261156a565b5060208301518482036020860152611a5182826114fb565b9150506040830151611a66604086018261156a565b508091505092915050565b60006020820190508181036000830152611a8b8184611a21565b905092915050565b600082825260208201905092915050565b6000611aaf826114a4565b611ab98185611a93565b9350611ac98185602086016114c0565b611ad2816114ea565b840191505092915050565b60006020820190508181036000830152611af78184611aa4565b905092915050565b600081519050919050565b600082825260208201905092915050565b6000819050602082019050919050565b60006040830160008301518482036000860152611b4882826114fb565b91505060208301518482036020860152611b6282826115ea565b9150508091505092915050565b6000611b7b8383611b2b565b905092915050565b6000602082019050919050565b6000611b9b82611aff565b611ba58185611b0a565b935083602082028501611bb785611b1b565b8060005b85811015611bf35784840389528151611bd48582611b6f565b9450611bdf83611b83565b925060208a01995050600181019050611bbb565b50829750879550505050505092915050565b60006020820190508181036000830152611c1f8184611b90565b905092915050565b7f766f74696e67206e6565647320746f20737461727420746f20766f746520666f60008201527f72206f72207365652064617461206f7220746f2073746f700000000000000000602082015250565b6000611c83603883611a93565b9150611c8e82611c27565b604082019050919050565b60006020820190508181036000830152611cb281611c76565b9050919050565b7f4e487b7100000000000000000000000000000000000000000000000000000000600052602260045260246000fd5b60006002820490506001821680611d0057607f821691505b602082108103611d1357611d12611cb9565b5b50919050565b7f6f6e6c79206f776e6572206861732072696768747320746f20646f2074686973600082015250565b6000611d4f602083611a93565b9150611d5a82611d19565b602082019050919050565b60006020820190508181036000830152611d7e81611d42565b9050919050565b7f4e487b7100000000000000000000000000000000000000000000000000000000600052603260045260246000fd5b7f766f74696e67206e6565647320746f2073746f7020746f207365652077696e6e60008201527f6572206f7220736574206e657720766f74696e67000000000000000000000000602082015250565b6000611e10603483611a93565b9150611e1b82611db4565b604082019050919050565b60006020820190508181036000830152611e3f81611e03565b9050919050565b60008190508160005260206000209050919050565b60006020601f8301049050919050565b600082821b905092915050565b600060088302611ea87fffffffffffffffffffffffffffffffffffffffffffffffffffffffffffffffff82611e6b565b611eb28683611e6b565b95508019841693508086168417925050509392505050565b6000819050919050565b6000611eef611eea611ee584611560565b611eca565b611560565b9050919050565b6000819050919050565b611f0983611ed4565b611f1d611f1582611ef6565b848454611e78565b825550505050565b600090565b611f32611f25565b611f3d818484611f00565b505050565b5b81811015611f6157611f56600082611f2a565b600181019050611f43565b5050565b601f821115611fa657611f7781611e46565b611f8084611e5b565b81016020851015611f8f578190505b611fa3611f9b85611e5b565b830182611f42565b50505b505050565b600082821c905092915050565b6000611fc960001984600802611fab565b1980831691505092915050565b6000611fe28383611fb8565b9150826002028217905092915050565b611ffb826114a4565b67ffffffffffffffff8111156120145761201361173c565b5b61201e8254611ce8565b612029828285611f65565b600060209050601f83116001811461205c576000841561204a578287015190505b6120548582611fd6565b8655506120bc565b601f19841661206a86611e46565b60005b828110156120925784890151825560018201915060208501945060208101905061206d565b868310156120af57848901516120ab601f891682611fb8565b8355505b6001600288020188555050505b505050505050565b7f4e487b7100000000000000000000000000000000000000000000000000000000600052603160045260246000fd5b7f4e487b7100000000000000000000000000000000000000000000000000000000600052601160045260246000fd5b600061212d82611560565b91507fffffffffffffffffffffffffffffffffffffffffffffffffffffffffffffffff820361215f5761215e6120f3565b5b600182019050919050565b600061217582611560565b915061218083611560565b9250828201905080821115612198576121976120f3565b5b92915050565b7f766f74696e67206d757374206265207374617274656420746f20766f74650000600082015250565b60006121d4601e83611a93565b91506121df8261219e565b602082019050919050565b60006020820190508181036000830152612203816121c7565b9050919050565b7f416c726561647920766f7465642e000000000000000000000000000000000000600082015250565b6000612240600e83611a93565b915061224b8261220a565b602082019050919050565b6000602082019050818103600083015261226f81612233565b9050919050565b7f57726f6e67206e756d6265722100000000000000000000000000000000000000600082015250565b60006122ac600d83611a93565b91506122b782612276565b602082019050919050565b600060208201905081810360008301526122db8161229f565b9050919050565b6000815490506122f181611ce8565b9050919050565b60008190508160005260206000209050919050565b81810361231b5750506123f3565b612324826122e2565b67ffffffffffffffff81111561233d5761233c61173c565b5b6123478254611ce8565b612352828285611f65565b6000601f831160018114612381576000841561236f578287015490505b6123798582611fd6565b8655506123ec565b601f19841661238f876122f8565b965061239a86611e46565b60005b828110156123c25784890154825560018201915060018501945060208101905061239d565b868310156123df57848901546123db601f891682611fb8565b8355505b6001600288020188555050505b5050505050505b565b600061240082611560565b915061240b83611560565b9250828203905081811115612423576124226120f3565b5b92915050565b60008154905061243881611ce8565b9050919050565b81810361244d575050612525565b61245682612429565b67ffffffffffffffff81111561246f5761246e61173c565b5b6124798254611ce8565b612484828285611f65565b6000601f8311600181146124b357600084156124a1578287015490505b6124ab8582611fd6565b86555061251e565b601f1984166124c187611e46565b96506124cc86611e46565b60005b828110156124f4578489015482556001820191506001850194506020810190506124cf565b86831015612511578489015461250d601f891682611fb8565b8355505b6001600288020188555050505b5050505050505b565b6000815461253481611ce8565b61253e81866114af565b94506001821660008114612559576001811461256f576125a2565b60ff1983168652811515602002860193506125a2565b61257885611e46565b60005b8381101561259a5781548189015260018201915060208101905061257b565b808801955050505b50505092915050565b600081549050919050565b60008190508160005260206000209050919050565b60008160001c9050919050565b6000819050919050565b60006125f56125f0836125cb565b6125d8565b9050919050565b6000606083016000808401549050612613816125e2565b612620600087018261156a565b506001840185830360208701526126378382612527565b9250506002840154905061264a816125e2565b612657604087018261156a565b50819250505092915050565b600061266f83836125fc565b905092915050565b6000600382019050919050565b600061268f826125ab565b612699818561153f565b9350836020820285016126ab856125b6565b8060005b858110156126e6578484038952816126c78582612663565b94506126d283612677565b925060208a019950506001810190506126af565b50829750879550505050505092915050565b600060408301600080840185830360008701526127158382612527565b92505060018401858303602087015261272e8382612684565b925050819250505092915050565b6000602082019050818103600083015261275681846126f8565b90509291505056fea26469706673582212203ffb3ba2e0aa32f3bd745f18bf7cf156487aa142006986756673a159406f1c5264736f6c63430008120033",
					"opcodes": "PUSH1 0x80 PUSH1 0x40 MSTORE PUSH1 0x0 DUP1 PUSH1 0x14 PUSH2 0x100 EXP DUP2 SLOAD DUP2 PUSH1 0xFF MUL NOT AND SWAP1 DUP4 ISZERO ISZERO MUL OR SWAP1 SSTORE POP CALLVALUE DUP1 ISZERO PUSH2 0x2A JUMPI PUSH1 0x0 DUP1 REVERT JUMPDEST POP CALLER PUSH1 0x0 DUP1 PUSH2 0x100 EXP DUP2 SLOAD DUP2 PUSH20 0xFFFFFFFFFFFFFFFFFFFFFFFFFFFFFFFFFFFFFFFF MUL NOT AND SWAP1 DUP4 PUSH20 0xFFFFFFFFFFFFFFFFFFFFFFFFFFFFFFFFFFFFFFFF AND MUL OR SWAP1 SSTORE POP PUSH2 0x2794 DUP1 PUSH2 0x7A PUSH1 0x0 CODECOPY PUSH1 0x0 RETURN INVALID PUSH1 0x80 PUSH1 0x40 MSTORE CALLVALUE DUP1 ISZERO PUSH2 0x10 JUMPI PUSH1 0x0 DUP1 REVERT JUMPDEST POP PUSH1 0x4 CALLDATASIZE LT PUSH2 0x9E JUMPI PUSH1 0x0 CALLDATALOAD PUSH1 0xE0 SHR DUP1 PUSH4 0x8DA5CB5B GT PUSH2 0x66 JUMPI DUP1 PUSH4 0x8DA5CB5B EQ PUSH2 0x133 JUMPI DUP1 PUSH4 0x8E7EA5B2 EQ PUSH2 0x151 JUMPI DUP1 PUSH4 0xD4166763 EQ PUSH2 0x16F JUMPI DUP1 PUSH4 0xF575E2A7 EQ PUSH2 0x18D JUMPI DUP1 PUSH4 0xFAB2F86B EQ PUSH2 0x1AB JUMPI PUSH2 0x9E JUMP JUMPDEST DUP1 PUSH4 0x1401795F EQ PUSH2 0xA3 JUMPI DUP1 PUSH4 0x1EC6B60A EQ PUSH2 0xC1 JUMPI DUP1 PUSH4 0x778021E4 EQ PUSH2 0xCB JUMPI DUP1 PUSH4 0x7FBB63C9 EQ PUSH2 0xFB JUMPI DUP1 PUSH4 0x86A50535 EQ PUSH2 0x117 JUMPI JUMPDEST PUSH1 0x0 DUP1 REVERT JUMPDEST PUSH2 0xAB PUSH2 0x1C9 JUMP JUMPDEST PUSH1 0x40 MLOAD PUSH2 0xB8 SWAP2 SWAP1 PUSH2 0x16A3 JUMP JUMPDEST PUSH1 0x40 MLOAD DUP1 SWAP2 SUB SWAP1 RETURN JUMPDEST PUSH2 0xC9 PUSH2 0x3D0 JUMP JUMPDEST STOP JUMPDEST PUSH2 0xE5 PUSH1 0x4 DUP1 CALLDATASIZE SUB DUP2 ADD SWAP1 PUSH2 0xE0 SWAP2 SWAP1 PUSH2 0x1705 JUMP JUMPDEST PUSH2 0x47B JUMP JUMPDEST PUSH1 0x40 MLOAD PUSH2 0xF2 SWAP2 SWAP1 PUSH2 0x16A3 JUMP JUMPDEST PUSH1 0x40 MLOAD DUP1 SWAP2 SUB SWAP1 RETURN JUMPDEST PUSH2 0x115 PUSH1 0x4 DUP1 CALLDATASIZE SUB DUP2 ADD SWAP1 PUSH2 0x110 SWAP2 SWAP1 PUSH2 0x194D JUMP JUMPDEST PUSH2 0x64E JUMP JUMPDEST STOP JUMPDEST PUSH2 0x131 PUSH1 0x4 DUP1 CALLDATASIZE SUB DUP2 ADD SWAP1 PUSH2 0x12C SWAP2 SWAP1 PUSH2 0x1705 JUMP JUMPDEST PUSH2 0x88A JUMP JUMPDEST STOP JUMPDEST PUSH2 0x13B PUSH2 0xBA6 JUMP JUMPDEST PUSH1 0x40 MLOAD PUSH2 0x148 SWAP2 SWAP1 PUSH2 0x1A06 JUMP JUMPDEST PUSH1 0x40 MLOAD DUP1 SWAP2 SUB SWAP1 RETURN JUMPDEST PUSH2 0x159 PUSH2 0xBCA JUMP JUMPDEST PUSH1 0x40 MLOAD PUSH2 0x166 SWAP2 SWAP1 PUSH2 0x1A71 JUMP JUMPDEST PUSH1 0x40 MLOAD DUP1 SWAP2 SUB SWAP1 RETURN JUMPDEST PUSH2 0x177 PUSH2 0xD88 JUMP JUMPDEST PUSH1 0x40 MLOAD PUSH2 0x184 SWAP2 SWAP1 PUSH2 0x1ADD JUMP JUMPDEST PUSH1 0x40 MLOAD DUP1 SWAP2 SUB SWAP1 RETURN JUMPDEST PUSH2 0x195 PUSH2 0xE1C JUMP JUMPDEST PUSH1 0x40 MLOAD PUSH2 0x1A2 SWAP2 SWAP1 PUSH2 0x1C05 JUMP JUMPDEST PUSH1 0x40 MLOAD DUP1 SWAP2 SUB SWAP1 RETURN JUMPDEST PUSH2 0x1B3 PUSH2 0x1012 JUMP JUMPDEST PUSH1 0x40 MLOAD PUSH2 0x1C0 SWAP2 SWAP1 PUSH2 0x16A3 JUMP JUMPDEST PUSH1 0x40 MLOAD DUP1 SWAP2 SUB SWAP1 RETURN JUMPDEST PUSH2 0x1D1 PUSH2 0x1354 JUMP JUMPDEST PUSH1 0x1 ISZERO ISZERO PUSH1 0x0 PUSH1 0x14 SWAP1 SLOAD SWAP1 PUSH2 0x100 EXP SWAP1 DIV PUSH1 0xFF AND ISZERO ISZERO EQ PUSH2 0x227 JUMPI PUSH1 0x40 MLOAD PUSH32 0x8C379A000000000000000000000000000000000000000000000000000000000 DUP2 MSTORE PUSH1 0x4 ADD PUSH2 0x21E SWAP1 PUSH2 0x1C99 JUMP JUMPDEST PUSH1 0x40 MLOAD DUP1 SWAP2 SUB SWAP1 REVERT JUMPDEST PUSH1 0x3 PUSH1 0x40 MLOAD DUP1 PUSH1 0x40 ADD PUSH1 0x40 MSTORE SWAP1 DUP2 PUSH1 0x0 DUP3 ADD DUP1 SLOAD PUSH2 0x244 SWAP1 PUSH2 0x1CE8 JUMP JUMPDEST DUP1 PUSH1 0x1F ADD PUSH1 0x20 DUP1 SWAP2 DIV MUL PUSH1 0x20 ADD PUSH1 0x40 MLOAD SWAP1 DUP2 ADD PUSH1 0x40 MSTORE DUP1 SWAP3 SWAP2 SWAP1 DUP2 DUP2 MSTORE PUSH1 0x20 ADD DUP3 DUP1 SLOAD PUSH2 0x270 SWAP1 PUSH2 0x1CE8 JUMP JUMPDEST DUP1 ISZERO PUSH2 0x2BD JUMPI DUP1 PUSH1 0x1F LT PUSH2 0x292 JUMPI PUSH2 0x100 DUP1 DUP4 SLOAD DIV MUL DUP4 MSTORE SWAP2 PUSH1 0x20 ADD SWAP2 PUSH2 0x2BD JUMP JUMPDEST DUP3 ADD SWAP2 SWAP1 PUSH1 0x0 MSTORE PUSH1 0x20 PUSH1 0x0 KECCAK256 SWAP1 JUMPDEST DUP2 SLOAD DUP2 MSTORE SWAP1 PUSH1 0x1 ADD SWAP1 PUSH1 0x20 ADD DUP1 DUP4 GT PUSH2 0x2A0 JUMPI DUP3 SWAP1 SUB PUSH1 0x1F AND DUP3 ADD SWAP2 JUMPDEST POP POP POP POP POP DUP2 MSTORE PUSH1 0x20 ADD PUSH1 0x1 DUP3 ADD DUP1 SLOAD DUP1 PUSH1 0x20 MUL PUSH1 0x20 ADD PUSH1 0x40 MLOAD SWAP1 DUP2 ADD PUSH1 0x40 MSTORE DUP1 SWAP3 SWAP2 SWAP1 DUP2 DUP2 MSTORE PUSH1 0x20 ADD PUSH1 0x0 SWAP1 JUMPDEST DUP3 DUP3 LT ISZERO PUSH2 0x3C3 JUMPI DUP4 DUP3 SWAP1 PUSH1 0x0 MSTORE PUSH1 0x20 PUSH1 0x0 KECCAK256 SWAP1 PUSH1 0x3 MUL ADD PUSH1 0x40 MLOAD DUP1 PUSH1 0x60 ADD PUSH1 0x40 MSTORE SWAP1 DUP2 PUSH1 0x0 DUP3 ADD SLOAD DUP2 MSTORE PUSH1 0x20 ADD PUSH1 0x1 DUP3 ADD DUP1 SLOAD PUSH2 0x328 SWAP1 PUSH2 0x1CE8 JUMP JUMPDEST DUP1 PUSH1 0x1F ADD PUSH1 0x20 DUP1 SWAP2 DIV MUL PUSH1 0x20 ADD PUSH1 0x40 MLOAD SWAP1 DUP2 ADD PUSH1 0x40 MSTORE DUP1 SWAP3 SWAP2 SWAP1 DUP2 DUP2 MSTORE PUSH1 0x20 ADD DUP3 DUP1 SLOAD PUSH2 0x354 SWAP1 PUSH2 0x1CE8 JUMP JUMPDEST DUP1 ISZERO PUSH2 0x3A1 JUMPI DUP1 PUSH1 0x1F LT PUSH2 0x376 JUMPI PUSH2 0x100 DUP1 DUP4 SLOAD DIV MUL DUP4 MSTORE SWAP2 PUSH1 0x20 ADD SWAP2 PUSH2 0x3A1 JUMP JUMPDEST DUP3 ADD SWAP2 SWAP1 PUSH1 0x0 MSTORE PUSH1 0x20 PUSH1 0x0 KECCAK256 SWAP1 JUMPDEST DUP2 SLOAD DUP2 MSTORE SWAP1 PUSH1 0x1 ADD SWAP1 PUSH1 0x20 ADD DUP1 DUP4 GT PUSH2 0x384 JUMPI DUP3 SWAP1 SUB PUSH1 0x1F AND DUP3 ADD SWAP2 JUMPDEST POP POP POP POP POP DUP2 MSTORE PUSH1 0x20 ADD PUSH1 0x2 DUP3 ADD SLOAD DUP2 MSTORE POP POP DUP2 MSTORE PUSH1 0x20 ADD SWAP1 PUSH1 0x1 ADD SWAP1 PUSH2 0x2EB JUMP JUMPDEST POP POP POP POP DUP2 MSTORE POP POP SWAP1 POP SWAP1 JUMP JUMPDEST PUSH1 0x0 DUP1 SLOAD SWAP1 PUSH2 0x100 EXP SWAP1 DIV PUSH20 0xFFFFFFFFFFFFFFFFFFFFFFFFFFFFFFFFFFFFFFFF AND PUSH20 0xFFFFFFFFFFFFFFFFFFFFFFFFFFFFFFFFFFFFFFFF AND CALLER PUSH20 0xFFFFFFFFFFFFFFFFFFFFFFFFFFFFFFFFFFFFFFFF AND EQ PUSH2 0x45E JUMPI PUSH1 0x40 MLOAD PUSH32 0x8C379A000000000000000000000000000000000000000000000000000000000 DUP2 MSTORE PUSH1 0x4 ADD PUSH2 0x455 SWAP1 PUSH2 0x1D65 JUMP JUMPDEST PUSH1 0x40 MLOAD DUP1 SWAP2 SUB SWAP1 REVERT JUMPDEST PUSH1 0x1 PUSH1 0x0 PUSH1 0x14 PUSH2 0x100 EXP DUP2 SLOAD DUP2 PUSH1 0xFF MUL NOT AND SWAP1 DUP4 ISZERO ISZERO MUL OR SWAP1 SSTORE POP JUMP JUMPDEST PUSH2 0x483 PUSH2 0x1354 JUMP JUMPDEST PUSH1 0x5 DUP3 DUP2 SLOAD DUP2 LT PUSH2 0x497 JUMPI PUSH2 0x496 PUSH2 0x1D85 JUMP JUMPDEST JUMPDEST SWAP1 PUSH1 0x0 MSTORE PUSH1 0x20 PUSH1 0x0 KECCAK256 SWAP1 PUSH1 0x2 MUL ADD PUSH1 0x40 MLOAD DUP1 PUSH1 0x40 ADD PUSH1 0x40 MSTORE SWAP1 DUP2 PUSH1 0x0 DUP3 ADD DUP1 SLOAD PUSH2 0x4C0 SWAP1 PUSH2 0x1CE8 JUMP JUMPDEST DUP1 PUSH1 0x1F ADD PUSH1 0x20 DUP1 SWAP2 DIV MUL PUSH1 0x20 ADD PUSH1 0x40 MLOAD SWAP1 DUP2 ADD PUSH1 0x40 MSTORE DUP1 SWAP3 SWAP2 SWAP1 DUP2 DUP2 MSTORE PUSH1 0x20 ADD DUP3 DUP1 SLOAD PUSH2 0x4EC SWAP1 PUSH2 0x1CE8 JUMP JUMPDEST DUP1 ISZERO PUSH2 0x539 JUMPI DUP1 PUSH1 0x1F LT PUSH2 0x50E JUMPI PUSH2 0x100 DUP1 DUP4 SLOAD DIV MUL DUP4 MSTORE SWAP2 PUSH1 0x20 ADD SWAP2 PUSH2 0x539 JUMP JUMPDEST DUP3 ADD SWAP2 SWAP1 PUSH1 0x0 MSTORE PUSH1 0x20 PUSH1 0x0 KECCAK256 SWAP1 JUMPDEST DUP2 SLOAD DUP2 MSTORE SWAP1 PUSH1 0x1 ADD SWAP1 PUSH1 0x20 ADD DUP1 DUP4 GT PUSH2 0x51C JUMPI DUP3 SWAP1 SUB PUSH1 0x1F AND DUP3 ADD SWAP2 JUMPDEST POP POP POP POP POP DUP2 MSTORE PUSH1 0x20 ADD PUSH1 0x1 DUP3 ADD DUP1 SLOAD DUP1 PUSH1 0x20 MUL PUSH1 0x20 ADD PUSH1 0x40 MLOAD SWAP1 DUP2 ADD PUSH1 0x40 MSTORE DUP1 SWAP3 SWAP2 SWAP1 DUP2 DUP2 MSTORE PUSH1 0x20 ADD PUSH1 0x0 SWAP1 JUMPDEST DUP3 DUP3 LT ISZERO PUSH2 0x63F JUMPI DUP4 DUP3 SWAP1 PUSH1 0x0 MSTORE PUSH1 0x20 PUSH1 0x0 KECCAK256 SWAP1 PUSH1 0x3 MUL ADD PUSH1 0x40 MLOAD DUP1 PUSH1 0x60 ADD PUSH1 0x40 MSTORE SWAP1 DUP2 PUSH1 0x0 DUP3 ADD SLOAD DUP2 MSTORE PUSH1 0x20 ADD PUSH1 0x1 DUP3 ADD DUP1 SLOAD PUSH2 0x5A4 SWAP1 PUSH2 0x1CE8 JUMP JUMPDEST DUP1 PUSH1 0x1F ADD PUSH1 0x20 DUP1 SWAP2 DIV MUL PUSH1 0x20 ADD PUSH1 0x40 MLOAD SWAP1 DUP2 ADD PUSH1 0x40 MSTORE DUP1 SWAP3 SWAP2 SWAP1 DUP2 DUP2 MSTORE PUSH1 0x20 ADD DUP3 DUP1 SLOAD PUSH2 0x5D0 SWAP1 PUSH2 0x1CE8 JUMP JUMPDEST DUP1 ISZERO PUSH2 0x61D JUMPI DUP1 PUSH1 0x1F LT PUSH2 0x5F2 JUMPI PUSH2 0x100 DUP1 DUP4 SLOAD DIV MUL DUP4 MSTORE SWAP2 PUSH1 0x20 ADD SWAP2 PUSH2 0x61D JUMP JUMPDEST DUP3 ADD SWAP2 SWAP1 PUSH1 0x0 MSTORE PUSH1 0x20 PUSH1 0x0 KECCAK256 SWAP1 JUMPDEST DUP2 SLOAD DUP2 MSTORE SWAP1 PUSH1 0x1 ADD SWAP1 PUSH1 0x20 ADD DUP1 DUP4 GT PUSH2 0x600 JUMPI DUP3 SWAP1 SUB PUSH1 0x1F AND DUP3 ADD SWAP2 JUMPDEST POP POP POP POP POP DUP2 MSTORE PUSH1 0x20 ADD PUSH1 0x2 DUP3 ADD SLOAD DUP2 MSTORE POP POP DUP2 MSTORE PUSH1 0x20 ADD SWAP1 PUSH1 0x1 ADD SWAP1 PUSH2 0x567 JUMP JUMPDEST POP POP POP POP DUP2 MSTORE POP POP SWAP1 POP SWAP2 SWAP1 POP JUMP JUMPDEST PUSH1 0x0 ISZERO ISZERO PUSH1 0x0 PUSH1 0x14 SWAP1 SLOAD SWAP1 PUSH2 0x100 EXP SWAP1 DIV PUSH1 0xFF AND ISZERO ISZERO EQ PUSH2 0x6A4 JUMPI PUSH1 0x40 MLOAD PUSH32 0x8C379A000000000000000000000000000000000000000000000000000000000 DUP2 MSTORE PUSH1 0x4 ADD PUSH2 0x69B SWAP1 PUSH2 0x1E26 JUMP JUMPDEST PUSH1 0x40 MLOAD DUP1 SWAP2 SUB SWAP1 REVERT JUMPDEST PUSH1 0x0 DUP1 SLOAD SWAP1 PUSH2 0x100 EXP SWAP1 DIV PUSH20 0xFFFFFFFFFFFFFFFFFFFFFFFFFFFFFFFFFFFFFFFF AND PUSH20 0xFFFFFFFFFFFFFFFFFFFFFFFFFFFFFFFFFFFFFFFF AND CALLER PUSH20 0xFFFFFFFFFFFFFFFFFFFFFFFFFFFFFFFFFFFFFFFF AND EQ PUSH2 0x732 JUMPI PUSH1 0x40 MLOAD PUSH32 0x8C379A000000000000000000000000000000000000000000000000000000000 DUP2 MSTORE PUSH1 0x4 ADD PUSH2 0x729 SWAP1 PUSH2 0x1D65 JUMP JUMPDEST PUSH1 0x40 MLOAD DUP1 SWAP2 SUB SWAP1 REVERT JUMPDEST DUP2 PUSH1 0x3 PUSH1 0x0 ADD SWAP1 DUP2 PUSH2 0x744 SWAP2 SWAP1 PUSH2 0x1FF2 JUMP JUMPDEST POP PUSH1 0x0 PUSH1 0x3 PUSH1 0x1 ADD DUP1 SLOAD SWAP1 POP EQ PUSH2 0x7CA JUMPI PUSH1 0x0 JUMPDEST PUSH1 0x3 PUSH1 0x1 ADD DUP1 SLOAD SWAP1 POP DUP2 GT PUSH2 0x7C8 JUMPI PUSH1 0x3 PUSH1 0x1 ADD DUP1 SLOAD DUP1 PUSH2 0x77C JUMPI PUSH2 0x77B PUSH2 0x20C4 JUMP JUMPDEST JUMPDEST PUSH1 0x1 SWAP1 SUB DUP2 DUP2 SWAP1 PUSH1 0x0 MSTORE PUSH1 0x20 PUSH1 0x0 KECCAK256 SWAP1 PUSH1 0x3 MUL ADD PUSH1 0x0 DUP1 DUP3 ADD PUSH1 0x0 SWAP1 SSTORE PUSH1 0x1 DUP3 ADD PUSH1 0x0 PUSH2 0x7A9 SWAP2 SWAP1 PUSH2 0x136E JUMP JUMPDEST PUSH1 0x2 DUP3 ADD PUSH1 0x0 SWAP1 SSTORE POP POP SWAP1 SSTORE DUP1 DUP1 PUSH2 0x7C0 SWAP1 PUSH2 0x2122 JUMP JUMPDEST SWAP2 POP POP PUSH2 0x758 JUMP JUMPDEST POP JUMPDEST PUSH1 0x0 JUMPDEST DUP2 MLOAD DUP2 LT ISZERO PUSH2 0x885 JUMPI PUSH1 0x3 PUSH1 0x1 ADD PUSH1 0x40 MLOAD DUP1 PUSH1 0x60 ADD PUSH1 0x40 MSTORE DUP1 PUSH1 0x1 DUP5 PUSH2 0x7F3 SWAP2 SWAP1 PUSH2 0x216A JUMP JUMPDEST DUP2 MSTORE PUSH1 0x20 ADD DUP5 DUP5 DUP2 MLOAD DUP2 LT PUSH2 0x80B JUMPI PUSH2 0x80A PUSH2 0x1D85 JUMP JUMPDEST JUMPDEST PUSH1 0x20 MUL PUSH1 0x20 ADD ADD MLOAD DUP2 MSTORE PUSH1 0x20 ADD PUSH1 0x0 DUP2 MSTORE POP SWAP1 DUP1 PUSH1 0x1 DUP2 SLOAD ADD DUP1 DUP3 SSTORE DUP1 SWAP2 POP POP PUSH1 0x1 SWAP1 SUB SWAP1 PUSH1 0x0 MSTORE PUSH1 0x20 PUSH1 0x0 KECCAK256 SWAP1 PUSH1 0x3 MUL ADD PUSH1 0x0 SWAP1 SWAP2 SWAP1 SWAP2 SWAP1 SWAP2 POP PUSH1 0x0 DUP3 ADD MLOAD DUP2 PUSH1 0x0 ADD SSTORE PUSH1 0x20 DUP3 ADD MLOAD DUP2 PUSH1 0x1 ADD SWAP1 DUP2 PUSH2 0x865 SWAP2 SWAP1 PUSH2 0x1FF2 JUMP JUMPDEST POP PUSH1 0x40 DUP3 ADD MLOAD DUP2 PUSH1 0x2 ADD SSTORE POP POP DUP1 DUP1 PUSH2 0x87D SWAP1 PUSH2 0x2122 JUMP JUMPDEST SWAP2 POP POP PUSH2 0x7CD JUMP JUMPDEST POP POP POP JUMP JUMPDEST PUSH1 0x1 ISZERO ISZERO PUSH1 0x0 PUSH1 0x14 SWAP1 SLOAD SWAP1 PUSH2 0x100 EXP SWAP1 DIV PUSH1 0xFF AND ISZERO ISZERO EQ PUSH2 0x8E0 JUMPI PUSH1 0x40 MLOAD PUSH32 0x8C379A000000000000000000000000000000000000000000000000000000000 DUP2 MSTORE PUSH1 0x4 ADD PUSH2 0x8D7 SWAP1 PUSH2 0x1C99 JUMP JUMPDEST PUSH1 0x40 MLOAD DUP1 SWAP2 SUB SWAP1 REVERT JUMPDEST PUSH1 0x1 ISZERO ISZERO PUSH1 0x0 PUSH1 0x14 SWAP1 SLOAD SWAP1 PUSH2 0x100 EXP SWAP1 DIV PUSH1 0xFF AND ISZERO ISZERO EQ PUSH2 0x936 JUMPI PUSH1 0x40 MLOAD PUSH32 0x8C379A000000000000000000000000000000000000000000000000000000000 DUP2 MSTORE PUSH1 0x4 ADD PUSH2 0x92D SWAP1 PUSH2 0x21EA JUMP JUMPDEST PUSH1 0x40 MLOAD DUP1 SWAP2 SUB SWAP1 REVERT JUMPDEST PUSH1 0x0 PUSH1 0x1 PUSH1 0x0 CALLER PUSH20 0xFFFFFFFFFFFFFFFFFFFFFFFFFFFFFFFFFFFFFFFF AND PUSH20 0xFFFFFFFFFFFFFFFFFFFFFFFFFFFFFFFFFFFFFFFF AND DUP2 MSTORE PUSH1 0x20 ADD SWAP1 DUP2 MSTORE PUSH1 0x20 ADD PUSH1 0x0 KECCAK256 SWAP1 POP PUSH1 0x0 DUP2 PUSH1 0x0 ADD DUP1 SLOAD PUSH2 0x98A SWAP1 PUSH2 0x1CE8 JUMP JUMPDEST DUP1 PUSH1 0x1F ADD PUSH1 0x20 DUP1 SWAP2 DIV MUL PUSH1 0x20 ADD PUSH1 0x40 MLOAD SWAP1 DUP2 ADD PUSH1 0x40 MSTORE DUP1 SWAP3 SWAP2 SWAP1 DUP2 DUP2 MSTORE PUSH1 0x20 ADD DUP3 DUP1 SLOAD PUSH2 0x9B6 SWAP1 PUSH2 0x1CE8 JUMP JUMPDEST DUP1 ISZERO PUSH2 0xA03 JUMPI DUP1 PUSH1 0x1F LT PUSH2 0x9D8 JUMPI PUSH2 0x100 DUP1 DUP4 SLOAD DIV MUL DUP4 MSTORE SWAP2 PUSH1 0x20 ADD SWAP2 PUSH2 0xA03 JUMP JUMPDEST DUP3 ADD SWAP2 SWAP1 PUSH1 0x0 MSTORE PUSH1 0x20 PUSH1 0x0 KECCAK256 SWAP1 JUMPDEST DUP2 SLOAD DUP2 MSTORE SWAP1 PUSH1 0x1 ADD SWAP1 PUSH1 0x20 ADD DUP1 DUP4 GT PUSH2 0x9E6 JUMPI DUP3 SWAP1 SUB PUSH1 0x1F AND DUP3 ADD SWAP2 JUMPDEST POP POP POP POP POP SWAP1 POP PUSH1 0x0 PUSH1 0x3 PUSH1 0x0 ADD DUP1 SLOAD PUSH2 0xA1C SWAP1 PUSH2 0x1CE8 JUMP JUMPDEST DUP1 PUSH1 0x1F ADD PUSH1 0x20 DUP1 SWAP2 DIV MUL PUSH1 0x20 ADD PUSH1 0x40 MLOAD SWAP1 DUP2 ADD PUSH1 0x40 MSTORE DUP1 SWAP3 SWAP2 SWAP1 DUP2 DUP2 MSTORE PUSH1 0x20 ADD DUP3 DUP1 SLOAD PUSH2 0xA48 SWAP1 PUSH2 0x1CE8 JUMP JUMPDEST DUP1 ISZERO PUSH2 0xA95 JUMPI DUP1 PUSH1 0x1F LT PUSH2 0xA6A JUMPI PUSH2 0x100 DUP1 DUP4 SLOAD DIV MUL DUP4 MSTORE SWAP2 PUSH1 0x20 ADD SWAP2 PUSH2 0xA95 JUMP JUMPDEST DUP3 ADD SWAP2 SWAP1 PUSH1 0x0 MSTORE PUSH1 0x20 PUSH1 0x0 KECCAK256 SWAP1 JUMPDEST DUP2 SLOAD DUP2 MSTORE SWAP1 PUSH1 0x1 ADD SWAP1 PUSH1 0x20 ADD DUP1 DUP4 GT PUSH2 0xA78 JUMPI DUP3 SWAP1 SUB PUSH1 0x1F AND DUP3 ADD SWAP2 JUMPDEST POP POP POP POP POP SWAP1 POP DUP1 MLOAD DUP3 MLOAD SUB PUSH2 0xAE0 JUMPI PUSH1 0x40 MLOAD PUSH32 0x8C379A000000000000000000000000000000000000000000000000000000000 DUP2 MSTORE PUSH1 0x4 ADD PUSH2 0xAD7 SWAP1 PUSH2 0x2256 JUMP JUMPDEST PUSH1 0x40 MLOAD DUP1 SWAP2 SUB SWAP1 REVERT JUMPDEST PUSH1 0x0 DUP5 GT DUP1 ISZERO PUSH2 0xAF8 JUMPI POP PUSH1 0x3 PUSH1 0x1 ADD DUP1 SLOAD SWAP1 POP DUP5 GT ISZERO JUMPDEST PUSH2 0xB37 JUMPI PUSH1 0x40 MLOAD PUSH32 0x8C379A000000000000000000000000000000000000000000000000000000000 DUP2 MSTORE PUSH1 0x4 ADD PUSH2 0xB2E SWAP1 PUSH2 0x22C2 JUMP JUMPDEST PUSH1 0x40 MLOAD DUP1 SWAP2 SUB SWAP1 REVERT JUMPDEST PUSH1 0x3 PUSH1 0x0 ADD DUP4 PUSH1 0x0 ADD SWAP1 DUP2 PUSH2 0xB4C SWAP2 SWAP1 PUSH2 0x230D JUMP JUMPDEST POP DUP4 DUP4 PUSH1 0x1 ADD DUP2 SWAP1 SSTORE POP PUSH1 0x3 PUSH1 0x1 ADD PUSH1 0x1 DUP6 PUSH2 0xB68 SWAP2 SWAP1 PUSH2 0x23F5 JUMP JUMPDEST DUP2 SLOAD DUP2 LT PUSH2 0xB79 JUMPI PUSH2 0xB78 PUSH2 0x1D85 JUMP JUMPDEST JUMPDEST SWAP1 PUSH1 0x0 MSTORE PUSH1 0x20 PUSH1 0x0 KECCAK256 SWAP1 PUSH1 0x3 MUL ADD PUSH1 0x2 ADD PUSH1 0x0 DUP2 SLOAD DUP1 SWAP3 SWAP2 SWAP1 PUSH2 0xB9B SWAP1 PUSH2 0x2122 JUMP JUMPDEST SWAP2 SWAP1 POP SSTORE POP POP POP POP POP JUMP JUMPDEST PUSH1 0x0 DUP1 SLOAD SWAP1 PUSH2 0x100 EXP SWAP1 DIV PUSH20 0xFFFFFFFFFFFFFFFFFFFFFFFFFFFFFFFFFFFFFFFF AND DUP2 JUMP JUMPDEST PUSH2 0xBD2 PUSH2 0x13AE JUMP JUMPDEST PUSH1 0x0 ISZERO ISZERO PUSH1 0x0 PUSH1 0x14 SWAP1 SLOAD SWAP1 PUSH2 0x100 EXP SWAP1 DIV PUSH1 0xFF AND ISZERO ISZERO EQ PUSH2 0xC28 JUMPI PUSH1 0x40 MLOAD PUSH32 0x8C379A000000000000000000000000000000000000000000000000000000000 DUP2 MSTORE PUSH1 0x4 ADD PUSH2 0xC1F SWAP1 PUSH2 0x1E26 JUMP JUMPDEST PUSH1 0x40 MLOAD DUP1 SWAP2 SUB SWAP1 REVERT JUMPDEST PUSH1 0x0 DUP1 JUMPDEST PUSH1 0x3 PUSH1 0x1 ADD DUP1 SLOAD SWAP1 POP DUP2 LT ISZERO PUSH2 0xD83 JUMPI DUP2 PUSH1 0x3 PUSH1 0x1 ADD DUP3 DUP2 SLOAD DUP2 LT PUSH2 0xC54 JUMPI PUSH2 0xC53 PUSH2 0x1D85 JUMP JUMPDEST JUMPDEST SWAP1 PUSH1 0x0 MSTORE PUSH1 0x20 PUSH1 0x0 KECCAK256 SWAP1 PUSH1 0x3 MUL ADD PUSH1 0x2 ADD SLOAD GT ISZERO PUSH2 0xD70 JUMPI PUSH1 0x3 PUSH1 0x1 ADD DUP2 DUP2 SLOAD DUP2 LT PUSH2 0xC83 JUMPI PUSH2 0xC82 PUSH2 0x1D85 JUMP JUMPDEST JUMPDEST SWAP1 PUSH1 0x0 MSTORE PUSH1 0x20 PUSH1 0x0 KECCAK256 SWAP1 PUSH1 0x3 MUL ADD PUSH1 0x2 ADD SLOAD SWAP2 POP PUSH1 0x3 PUSH1 0x1 ADD DUP2 DUP2 SLOAD DUP2 LT PUSH2 0xCAE JUMPI PUSH2 0xCAD PUSH2 0x1D85 JUMP JUMPDEST JUMPDEST SWAP1 PUSH1 0x0 MSTORE PUSH1 0x20 PUSH1 0x0 KECCAK256 SWAP1 PUSH1 0x3 MUL ADD PUSH1 0x40 MLOAD DUP1 PUSH1 0x60 ADD PUSH1 0x40 MSTORE SWAP1 DUP2 PUSH1 0x0 DUP3 ADD SLOAD DUP2 MSTORE PUSH1 0x20 ADD PUSH1 0x1 DUP3 ADD DUP1 SLOAD PUSH2 0xCE1 SWAP1 PUSH2 0x1CE8 JUMP JUMPDEST DUP1 PUSH1 0x1F ADD PUSH1 0x20 DUP1 SWAP2 DIV MUL PUSH1 0x20 ADD PUSH1 0x40 MLOAD SWAP1 DUP2 ADD PUSH1 0x40 MSTORE DUP1 SWAP3 SWAP2 SWAP1 DUP2 DUP2 MSTORE PUSH1 0x20 ADD DUP3 DUP1 SLOAD PUSH2 0xD0D SWAP1 PUSH2 0x1CE8 JUMP JUMPDEST DUP1 ISZERO PUSH2 0xD5A JUMPI DUP1 PUSH1 0x1F LT PUSH2 0xD2F JUMPI PUSH2 0x100 DUP1 DUP4 SLOAD DIV MUL DUP4 MSTORE SWAP2 PUSH1 0x20 ADD SWAP2 PUSH2 0xD5A JUMP JUMPDEST DUP3 ADD SWAP2 SWAP1 PUSH1 0x0 MSTORE PUSH1 0x20 PUSH1 0x0 KECCAK256 SWAP1 JUMPDEST DUP2 SLOAD DUP2 MSTORE SWAP1 PUSH1 0x1 ADD SWAP1 PUSH1 0x20 ADD DUP1 DUP4 GT PUSH2 0xD3D JUMPI DUP3 SWAP1 SUB PUSH1 0x1F AND DUP3 ADD SWAP2 JUMPDEST POP POP POP POP POP DUP2 MSTORE PUSH1 0x20 ADD PUSH1 0x2 DUP3 ADD SLOAD DUP2 MSTORE POP POP SWAP3 POP JUMPDEST DUP1 DUP1 PUSH2 0xD7B SWAP1 PUSH2 0x2122 JUMP JUMPDEST SWAP2 POP POP PUSH2 0xC2C JUMP JUMPDEST POP POP SWAP1 JUMP JUMPDEST PUSH1 0x3 DUP1 PUSH1 0x0 ADD DUP1 SLOAD PUSH2 0xD99 SWAP1 PUSH2 0x1CE8 JUMP JUMPDEST DUP1 PUSH1 0x1F ADD PUSH1 0x20 DUP1 SWAP2 DIV MUL PUSH1 0x20 ADD PUSH1 0x40 MLOAD SWAP1 DUP2 ADD PUSH1 0x40 MSTORE DUP1 SWAP3 SWAP2 SWAP1 DUP2 DUP2 MSTORE PUSH1 0x20 ADD DUP3 DUP1 SLOAD PUSH2 0xDC5 SWAP1 PUSH2 0x1CE8 JUMP JUMPDEST DUP1 ISZERO PUSH2 0xE12 JUMPI DUP1 PUSH1 0x1F LT PUSH2 0xDE7 JUMPI PUSH2 0x100 DUP1 DUP4 SLOAD DIV MUL DUP4 MSTORE SWAP2 PUSH1 0x20 ADD SWAP2 PUSH2 0xE12 JUMP JUMPDEST DUP3 ADD SWAP2 SWAP1 PUSH1 0x0 MSTORE PUSH1 0x20 PUSH1 0x0 KECCAK256 SWAP1 JUMPDEST DUP2 SLOAD DUP2 MSTORE SWAP1 PUSH1 0x1 ADD SWAP1 PUSH1 0x20 ADD DUP1 DUP4 GT PUSH2 0xDF5 JUMPI DUP3 SWAP1 SUB PUSH1 0x1F AND DUP3 ADD SWAP2 JUMPDEST POP POP POP POP POP SWAP1 POP DUP2 JUMP JUMPDEST PUSH1 0x60 PUSH1 0x5 DUP1 SLOAD DUP1 PUSH1 0x20 MUL PUSH1 0x20 ADD PUSH1 0x40 MLOAD SWAP1 DUP2 ADD PUSH1 0x40 MSTORE DUP1 SWAP3 SWAP2 SWAP1 DUP2 DUP2 MSTORE PUSH1 0x20 ADD PUSH1 0x0 SWAP1 JUMPDEST DUP3 DUP3 LT ISZERO PUSH2 0x1009 JUMPI DUP4 DUP3 SWAP1 PUSH1 0x0 MSTORE PUSH1 0x20 PUSH1 0x0 KECCAK256 SWAP1 PUSH1 0x2 MUL ADD PUSH1 0x40 MLOAD DUP1 PUSH1 0x40 ADD PUSH1 0x40 MSTORE SWAP1 DUP2 PUSH1 0x0 DUP3 ADD DUP1 SLOAD PUSH2 0xE73 SWAP1 PUSH2 0x1CE8 JUMP JUMPDEST DUP1 PUSH1 0x1F ADD PUSH1 0x20 DUP1 SWAP2 DIV MUL PUSH1 0x20 ADD PUSH1 0x40 MLOAD SWAP1 DUP2 ADD PUSH1 0x40 MSTORE DUP1 SWAP3 SWAP2 SWAP1 DUP2 DUP2 MSTORE PUSH1 0x20 ADD DUP3 DUP1 SLOAD PUSH2 0xE9F SWAP1 PUSH2 0x1CE8 JUMP JUMPDEST DUP1 ISZERO PUSH2 0xEEC JUMPI DUP1 PUSH1 0x1F LT PUSH2 0xEC1 JUMPI PUSH2 0x100 DUP1 DUP4 SLOAD DIV MUL DUP4 MSTORE SWAP2 PUSH1 0x20 ADD SWAP2 PUSH2 0xEEC JUMP JUMPDEST DUP3 ADD SWAP2 SWAP1 PUSH1 0x0 MSTORE PUSH1 0x20 PUSH1 0x0 KECCAK256 SWAP1 JUMPDEST DUP2 SLOAD DUP2 MSTORE SWAP1 PUSH1 0x1 ADD SWAP1 PUSH1 0x20 ADD DUP1 DUP4 GT PUSH2 0xECF JUMPI DUP3 SWAP1 SUB PUSH1 0x1F AND DUP3 ADD SWAP2 JUMPDEST POP POP POP POP POP DUP2 MSTORE PUSH1 0x20 ADD PUSH1 0x1 DUP3 ADD DUP1 SLOAD DUP1 PUSH1 0x20 MUL PUSH1 0x20 ADD PUSH1 0x40 MLOAD SWAP1 DUP2 ADD PUSH1 0x40 MSTORE DUP1 SWAP3 SWAP2 SWAP1 DUP2 DUP2 MSTORE PUSH1 0x20 ADD PUSH1 0x0 SWAP1 JUMPDEST DUP3 DUP3 LT ISZERO PUSH2 0xFF2 JUMPI DUP4 DUP3 SWAP1 PUSH1 0x0 MSTORE PUSH1 0x20 PUSH1 0x0 KECCAK256 SWAP1 PUSH1 0x3 MUL ADD PUSH1 0x40 MLOAD DUP1 PUSH1 0x60 ADD PUSH1 0x40 MSTORE SWAP1 DUP2 PUSH1 0x0 DUP3 ADD SLOAD DUP2 MSTORE PUSH1 0x20 ADD PUSH1 0x1 DUP3 ADD DUP1 SLOAD PUSH2 0xF57 SWAP1 PUSH2 0x1CE8 JUMP JUMPDEST DUP1 PUSH1 0x1F ADD PUSH1 0x20 DUP1 SWAP2 DIV MUL PUSH1 0x20 ADD PUSH1 0x40 MLOAD SWAP1 DUP2 ADD PUSH1 0x40 MSTORE DUP1 SWAP3 SWAP2 SWAP1 DUP2 DUP2 MSTORE PUSH1 0x20 ADD DUP3 DUP1 SLOAD PUSH2 0xF83 SWAP1 PUSH2 0x1CE8 JUMP JUMPDEST DUP1 ISZERO PUSH2 0xFD0 JUMPI DUP1 PUSH1 0x1F LT PUSH2 0xFA5 JUMPI PUSH2 0x100 DUP1 DUP4 SLOAD DIV MUL DUP4 MSTORE SWAP2 PUSH1 0x20 ADD SWAP2 PUSH2 0xFD0 JUMP JUMPDEST DUP3 ADD SWAP2 SWAP1 PUSH1 0x0 MSTORE PUSH1 0x20 PUSH1 0x0 KECCAK256 SWAP1 JUMPDEST DUP2 SLOAD DUP2 MSTORE SWAP1 PUSH1 0x1 ADD SWAP1 PUSH1 0x20 ADD DUP1 DUP4 GT PUSH2 0xFB3 JUMPI DUP3 SWAP1 SUB PUSH1 0x1F AND DUP3 ADD SWAP2 JUMPDEST POP POP POP POP POP DUP2 MSTORE PUSH1 0x20 ADD PUSH1 0x2 DUP3 ADD SLOAD DUP2 MSTORE POP POP DUP2 MSTORE PUSH1 0x20 ADD SWAP1 PUSH1 0x1 ADD SWAP1 PUSH2 0xF1A JUMP JUMPDEST POP POP POP POP DUP2 MSTORE POP POP DUP2 MSTORE PUSH1 0x20 ADD SWAP1 PUSH1 0x1 ADD SWAP1 PUSH2 0xE40 JUMP JUMPDEST POP POP POP POP SWAP1 POP SWAP1 JUMP JUMPDEST PUSH2 0x101A PUSH2 0x1354 JUMP JUMPDEST PUSH1 0x1 ISZERO ISZERO PUSH1 0x0 PUSH1 0x14 SWAP1 SLOAD SWAP1 PUSH2 0x100 EXP SWAP1 DIV PUSH1 0xFF AND ISZERO ISZERO EQ PUSH2 0x1070 JUMPI PUSH1 0x40 MLOAD PUSH32 0x8C379A000000000000000000000000000000000000000000000000000000000 DUP2 MSTORE PUSH1 0x4 ADD PUSH2 0x1067 SWAP1 PUSH2 0x1C99 JUMP JUMPDEST PUSH1 0x40 MLOAD DUP1 SWAP2 SUB SWAP1 REVERT JUMPDEST PUSH1 0x0 DUP1 SLOAD SWAP1 PUSH2 0x100 EXP SWAP1 DIV PUSH20 0xFFFFFFFFFFFFFFFFFFFFFFFFFFFFFFFFFFFFFFFF AND PUSH20 0xFFFFFFFFFFFFFFFFFFFFFFFFFFFFFFFFFFFFFFFF AND CALLER PUSH20 0xFFFFFFFFFFFFFFFFFFFFFFFFFFFFFFFFFFFFFFFF AND EQ PUSH2 0x10FE JUMPI PUSH1 0x40 MLOAD PUSH32 0x8C379A000000000000000000000000000000000000000000000000000000000 DUP2 MSTORE PUSH1 0x4 ADD PUSH2 0x10F5 SWAP1 PUSH2 0x1D65 JUMP JUMPDEST PUSH1 0x40 MLOAD DUP1 SWAP2 SUB SWAP1 REVERT JUMPDEST PUSH1 0x0 DUP1 PUSH1 0x14 PUSH2 0x100 EXP DUP2 SLOAD DUP2 PUSH1 0xFF MUL NOT AND SWAP1 DUP4 ISZERO ISZERO MUL OR SWAP1 SSTORE POP PUSH1 0x5 PUSH1 0x3 SWAP1 DUP1 PUSH1 0x1 DUP2 SLOAD ADD DUP1 DUP3 SSTORE DUP1 SWAP2 POP POP PUSH1 0x1 SWAP1 SUB SWAP1 PUSH1 0x0 MSTORE PUSH1 0x20 PUSH1 0x0 KECCAK256 SWAP1 PUSH1 0x2 MUL ADD PUSH1 0x0 SWAP1 SWAP2 SWAP1 SWAP2 SWAP1 SWAP2 POP PUSH1 0x0 DUP3 ADD DUP2 PUSH1 0x0 ADD SWAP1 DUP2 PUSH2 0x1159 SWAP2 SWAP1 PUSH2 0x243F JUMP JUMPDEST POP PUSH1 0x1 DUP3 ADD DUP2 PUSH1 0x1 ADD SWAP1 DUP1 SLOAD PUSH2 0x1170 SWAP3 SWAP2 SWAP1 PUSH2 0x13CF JUMP JUMPDEST POP POP POP PUSH32 0xE358BD83BCB7BC82EF83FBC3A494E602FEBB5A2639E796A44EA1AC5FC94E8843 PUSH1 0x3 PUSH1 0x40 MLOAD PUSH2 0x11A3 SWAP2 SWAP1 PUSH2 0x273C JUMP JUMPDEST PUSH1 0x40 MLOAD DUP1 SWAP2 SUB SWAP1 LOG1 PUSH1 0x3 PUSH1 0x40 MLOAD DUP1 PUSH1 0x40 ADD PUSH1 0x40 MSTORE SWAP1 DUP2 PUSH1 0x0 DUP3 ADD DUP1 SLOAD PUSH2 0x11C8 SWAP1 PUSH2 0x1CE8 JUMP JUMPDEST DUP1 PUSH1 0x1F ADD PUSH1 0x20 DUP1 SWAP2 DIV MUL PUSH1 0x20 ADD PUSH1 0x40 MLOAD SWAP1 DUP2 ADD PUSH1 0x40 MSTORE DUP1 SWAP3 SWAP2 SWAP1 DUP2 DUP2 MSTORE PUSH1 0x20 ADD DUP3 DUP1 SLOAD PUSH2 0x11F4 SWAP1 PUSH2 0x1CE8 JUMP JUMPDEST DUP1 ISZERO PUSH2 0x1241 JUMPI DUP1 PUSH1 0x1F LT PUSH2 0x1216 JUMPI PUSH2 0x100 DUP1 DUP4 SLOAD DIV MUL DUP4 MSTORE SWAP2 PUSH1 0x20 ADD SWAP2 PUSH2 0x1241 JUMP JUMPDEST DUP3 ADD SWAP2 SWAP1 PUSH1 0x0 MSTORE PUSH1 0x20 PUSH1 0x0 KECCAK256 SWAP1 JUMPDEST DUP2 SLOAD DUP2 MSTORE SWAP1 PUSH1 0x1 ADD SWAP1 PUSH1 0x20 ADD DUP1 DUP4 GT PUSH2 0x1224 JUMPI DUP3 SWAP1 SUB PUSH1 0x1F AND DUP3 ADD SWAP2 JUMPDEST POP POP POP POP POP DUP2 MSTORE PUSH1 0x20 ADD PUSH1 0x1 DUP3 ADD DUP1 SLOAD DUP1 PUSH1 0x20 MUL PUSH1 0x20 ADD PUSH1 0x40 MLOAD SWAP1 DUP2 ADD PUSH1 0x40 MSTORE DUP1 SWAP3 SWAP2 SWAP1 DUP2 DUP2 MSTORE PUSH1 0x20 ADD PUSH1 0x0 SWAP1 JUMPDEST DUP3 DUP3 LT ISZERO PUSH2 0x1347 JUMPI DUP4 DUP3 SWAP1 PUSH1 0x0 MSTORE PUSH1 0x20 PUSH1 0x0 KECCAK256 SWAP1 PUSH1 0x3 MUL ADD PUSH1 0x40 MLOAD DUP1 PUSH1 0x60 ADD PUSH1 0x40 MSTORE SWAP1 DUP2 PUSH1 0x0 DUP3 ADD SLOAD DUP2 MSTORE PUSH1 0x20 ADD PUSH1 0x1 DUP3 ADD DUP1 SLOAD PUSH2 0x12AC SWAP1 PUSH2 0x1CE8 JUMP JUMPDEST DUP1 PUSH1 0x1F ADD PUSH1 0x20 DUP1 SWAP2 DIV MUL PUSH1 0x20 ADD PUSH1 0x40 MLOAD SWAP1 DUP2 ADD PUSH1 0x40 MSTORE DUP1 SWAP3 SWAP2 SWAP1 DUP2 DUP2 MSTORE PUSH1 0x20 ADD DUP3 DUP1 SLOAD PUSH2 0x12D8 SWAP1 PUSH2 0x1CE8 JUMP JUMPDEST DUP1 ISZERO PUSH2 0x1325 JUMPI DUP1 PUSH1 0x1F LT PUSH2 0x12FA JUMPI PUSH2 0x100 DUP1 DUP4 SLOAD DIV MUL DUP4 MSTORE SWAP2 PUSH1 0x20 ADD SWAP2 PUSH2 0x1325 JUMP JUMPDEST DUP3 ADD SWAP2 SWAP1 PUSH1 0x0 MSTORE PUSH1 0x20 PUSH1 0x0 KECCAK256 SWAP1 JUMPDEST DUP2 SLOAD DUP2 MSTORE SWAP1 PUSH1 0x1 ADD SWAP1 PUSH1 0x20 ADD DUP1 DUP4 GT PUSH2 0x1308 JUMPI DUP3 SWAP1 SUB PUSH1 0x1F AND DUP3 ADD SWAP2 JUMPDEST POP POP POP POP POP DUP2 MSTORE PUSH1 0x20 ADD PUSH1 0x2 DUP3 ADD SLOAD DUP2 MSTORE POP POP DUP2 MSTORE PUSH1 0x20 ADD SWAP1 PUSH1 0x1 ADD SWAP1 PUSH2 0x126F JUMP JUMPDEST POP POP POP POP DUP2 MSTORE POP POP SWAP1 POP SWAP1 JUMP JUMPDEST PUSH1 0x40 MLOAD DUP1 PUSH1 0x40 ADD PUSH1 0x40 MSTORE DUP1 PUSH1 0x60 DUP2 MSTORE PUSH1 0x20 ADD PUSH1 0x60 DUP2 MSTORE POP SWAP1 JUMP JUMPDEST POP DUP1 SLOAD PUSH2 0x137A SWAP1 PUSH2 0x1CE8 JUMP JUMPDEST PUSH1 0x0 DUP3 SSTORE DUP1 PUSH1 0x1F LT PUSH2 0x138C JUMPI POP PUSH2 0x13AB JUMP JUMPDEST PUSH1 0x1F ADD PUSH1 0x20 SWAP1 DIV SWAP1 PUSH1 0x0 MSTORE PUSH1 0x20 PUSH1 0x0 KECCAK256 SWAP1 DUP2 ADD SWAP1 PUSH2 0x13AA SWAP2 SWAP1 PUSH2 0x1450 JUMP JUMPDEST JUMPDEST POP JUMP JUMPDEST PUSH1 0x40 MLOAD DUP1 PUSH1 0x60 ADD PUSH1 0x40 MSTORE DUP1 PUSH1 0x0 DUP2 MSTORE PUSH1 0x20 ADD PUSH1 0x60 DUP2 MSTORE PUSH1 0x20 ADD PUSH1 0x0 DUP2 MSTORE POP SWAP1 JUMP JUMPDEST DUP3 DUP1 SLOAD DUP3 DUP3 SSTORE SWAP1 PUSH1 0x0 MSTORE PUSH1 0x20 PUSH1 0x0 KECCAK256 SWAP1 PUSH1 0x3 MUL DUP2 ADD SWAP3 DUP3 ISZERO PUSH2 0x143F JUMPI PUSH1 0x0 MSTORE PUSH1 0x20 PUSH1 0x0 KECCAK256 SWAP2 PUSH1 0x3 MUL DUP3 ADD JUMPDEST DUP3 DUP2 GT ISZERO PUSH2 0x143E JUMPI DUP3 DUP3 PUSH1 0x0 DUP3 ADD SLOAD DUP2 PUSH1 0x0 ADD SSTORE PUSH1 0x1 DUP3 ADD DUP2 PUSH1 0x1 ADD SWAP1 DUP2 PUSH2 0x1422 SWAP2 SWAP1 PUSH2 0x243F JUMP JUMPDEST POP PUSH1 0x2 DUP3 ADD SLOAD DUP2 PUSH1 0x2 ADD SSTORE POP POP SWAP2 PUSH1 0x3 ADD SWAP2 SWAP1 PUSH1 0x3 ADD SWAP1 PUSH2 0x13FA JUMP JUMPDEST JUMPDEST POP SWAP1 POP PUSH2 0x144C SWAP2 SWAP1 PUSH2 0x146D JUMP JUMPDEST POP SWAP1 JUMP JUMPDEST JUMPDEST DUP1 DUP3 GT ISZERO PUSH2 0x1469 JUMPI PUSH1 0x0 DUP2 PUSH1 0x0 SWAP1 SSTORE POP PUSH1 0x1 ADD PUSH2 0x1451 JUMP JUMPDEST POP SWAP1 JUMP JUMPDEST JUMPDEST DUP1 DUP3 GT ISZERO PUSH2 0x14A0 JUMPI PUSH1 0x0 DUP1 DUP3 ADD PUSH1 0x0 SWAP1 SSTORE PUSH1 0x1 DUP3 ADD PUSH1 0x0 PUSH2 0x148F SWAP2 SWAP1 PUSH2 0x136E JUMP JUMPDEST PUSH1 0x2 DUP3 ADD PUSH1 0x0 SWAP1 SSTORE POP PUSH1 0x3 ADD PUSH2 0x146E JUMP JUMPDEST POP SWAP1 JUMP JUMPDEST PUSH1 0x0 DUP2 MLOAD SWAP1 POP SWAP2 SWAP1 POP JUMP JUMPDEST PUSH1 0x0 DUP3 DUP3 MSTORE PUSH1 0x20 DUP3 ADD SWAP1 POP SWAP3 SWAP2 POP POP JUMP JUMPDEST PUSH1 0x0 JUMPDEST DUP4 DUP2 LT ISZERO PUSH2 0x14DE JUMPI DUP1 DUP3 ADD MLOAD DUP2 DUP5 ADD MSTORE PUSH1 0x20 DUP2 ADD SWAP1 POP PUSH2 0x14C3 JUMP JUMPDEST PUSH1 0x0 DUP5 DUP5 ADD MSTORE POP POP POP POP JUMP JUMPDEST PUSH1 0x0 PUSH1 0x1F NOT PUSH1 0x1F DUP4 ADD AND SWAP1 POP SWAP2 SWAP1 POP JUMP JUMPDEST PUSH1 0x0 PUSH2 0x1506 DUP3 PUSH2 0x14A4 JUMP JUMPDEST PUSH2 0x1510 DUP2 DUP6 PUSH2 0x14AF JUMP JUMPDEST SWAP4 POP PUSH2 0x1520 DUP2 DUP6 PUSH1 0x20 DUP7 ADD PUSH2 0x14C0 JUMP JUMPDEST PUSH2 0x1529 DUP2 PUSH2 0x14EA JUMP JUMPDEST DUP5 ADD SWAP2 POP POP SWAP3 SWAP2 POP POP JUMP JUMPDEST PUSH1 0x0 DUP2 MLOAD SWAP1 POP SWAP2 SWAP1 POP JUMP JUMPDEST PUSH1 0x0 DUP3 DUP3 MSTORE PUSH1 0x20 DUP3 ADD SWAP1 POP SWAP3 SWAP2 POP POP JUMP JUMPDEST PUSH1 0x0 DUP2 SWAP1 POP PUSH1 0x20 DUP3 ADD SWAP1 POP SWAP2 SWAP1 POP JUMP JUMPDEST PUSH1 0x0 DUP2 SWAP1 POP SWAP2 SWAP1 POP JUMP JUMPDEST PUSH2 0x1573 DUP2 PUSH2 0x1560 JUMP JUMPDEST DUP3 MSTORE POP POP JUMP JUMPDEST PUSH1 0x0 PUSH1 0x60 DUP4 ADD PUSH1 0x0 DUP4 ADD MLOAD PUSH2 0x1591 PUSH1 0x0 DUP7 ADD DUP3 PUSH2 0x156A JUMP JUMPDEST POP PUSH1 0x20 DUP4 ADD MLOAD DUP5 DUP3 SUB PUSH1 0x20 DUP7 ADD MSTORE PUSH2 0x15A9 DUP3 DUP3 PUSH2 0x14FB JUMP JUMPDEST SWAP2 POP POP PUSH1 0x40 DUP4 ADD MLOAD PUSH2 0x15BE PUSH1 0x40 DUP7 ADD DUP3 PUSH2 0x156A JUMP JUMPDEST POP DUP1 SWAP2 POP POP SWAP3 SWAP2 POP POP JUMP JUMPDEST PUSH1 0x0 PUSH2 0x15D5 DUP4 DUP4 PUSH2 0x1579 JUMP JUMPDEST SWAP1 POP SWAP3 SWAP2 POP POP JUMP JUMPDEST PUSH1 0x0 PUSH1 0x20 DUP3 ADD SWAP1 POP SWAP2 SWAP1 POP JUMP JUMPDEST PUSH1 0x0 PUSH2 0x15F5 DUP3 PUSH2 0x1534 JUMP JUMPDEST PUSH2 0x15FF DUP2 DUP6 PUSH2 0x153F JUMP JUMPDEST SWAP4 POP DUP4 PUSH1 0x20 DUP3 MUL DUP6 ADD PUSH2 0x1611 DUP6 PUSH2 0x1550 JUMP JUMPDEST DUP1 PUSH1 0x0 JUMPDEST DUP6 DUP2 LT ISZERO PUSH2 0x164D JUMPI DUP5 DUP5 SUB DUP10 MSTORE DUP2 MLOAD PUSH2 0x162E DUP6 DUP3 PUSH2 0x15C9 JUMP JUMPDEST SWAP5 POP PUSH2 0x1639 DUP4 PUSH2 0x15DD JUMP JUMPDEST SWAP3 POP PUSH1 0x20 DUP11 ADD SWAP10 POP POP PUSH1 0x1 DUP2 ADD SWAP1 POP PUSH2 0x1615 JUMP JUMPDEST POP DUP3 SWAP8 POP DUP8 SWAP6 POP POP POP POP POP POP SWAP3 SWAP2 POP POP JUMP JUMPDEST PUSH1 0x0 PUSH1 0x40 DUP4 ADD PUSH1 0x0 DUP4 ADD MLOAD DUP5 DUP3 SUB PUSH1 0x0 DUP7 ADD MSTORE PUSH2 0x167C DUP3 DUP3 PUSH2 0x14FB JUMP JUMPDEST SWAP2 POP POP PUSH1 0x20 DUP4 ADD MLOAD DUP5 DUP3 SUB PUSH1 0x20 DUP7 ADD MSTORE PUSH2 0x1696 DUP3 DUP3 PUSH2 0x15EA JUMP JUMPDEST SWAP2 POP POP DUP1 SWAP2 POP POP SWAP3 SWAP2 POP POP JUMP JUMPDEST PUSH1 0x0 PUSH1 0x20 DUP3 ADD SWAP1 POP DUP2 DUP2 SUB PUSH1 0x0 DUP4 ADD MSTORE PUSH2 0x16BD DUP2 DUP5 PUSH2 0x165F JUMP JUMPDEST SWAP1 POP SWAP3 SWAP2 POP POP JUMP JUMPDEST PUSH1 0x0 PUSH1 0x40 MLOAD SWAP1 POP SWAP1 JUMP JUMPDEST PUSH1 0x0 DUP1 REVERT JUMPDEST PUSH1 0x0 DUP1 REVERT JUMPDEST PUSH2 0x16E2 DUP2 PUSH2 0x1560 JUMP JUMPDEST DUP2 EQ PUSH2 0x16ED JUMPI PUSH1 0x0 DUP1 REVERT JUMPDEST POP JUMP JUMPDEST PUSH1 0x0 DUP2 CALLDATALOAD SWAP1 POP PUSH2 0x16FF DUP2 PUSH2 0x16D9 JUMP JUMPDEST SWAP3 SWAP2 POP POP JUMP JUMPDEST PUSH1 0x0 PUSH1 0x20 DUP3 DUP5 SUB SLT ISZERO PUSH2 0x171B JUMPI PUSH2 0x171A PUSH2 0x16CF JUMP JUMPDEST JUMPDEST PUSH1 0x0 PUSH2 0x1729 DUP5 DUP3 DUP6 ADD PUSH2 0x16F0 JUMP JUMPDEST SWAP2 POP POP SWAP3 SWAP2 POP POP JUMP JUMPDEST PUSH1 0x0 DUP1 REVERT JUMPDEST PUSH1 0x0 DUP1 REVERT JUMPDEST PUSH32 0x4E487B7100000000000000000000000000000000000000000000000000000000 PUSH1 0x0 MSTORE PUSH1 0x41 PUSH1 0x4 MSTORE PUSH1 0x24 PUSH1 0x0 REVERT JUMPDEST PUSH2 0x1774 DUP3 PUSH2 0x14EA JUMP JUMPDEST DUP2 ADD DUP2 DUP2 LT PUSH8 0xFFFFFFFFFFFFFFFF DUP3 GT OR ISZERO PUSH2 0x1793 JUMPI PUSH2 0x1792 PUSH2 0x173C JUMP JUMPDEST JUMPDEST DUP1 PUSH1 0x40 MSTORE POP POP POP JUMP JUMPDEST PUSH1 0x0 PUSH2 0x17A6 PUSH2 0x16C5 JUMP JUMPDEST SWAP1 POP PUSH2 0x17B2 DUP3 DUP3 PUSH2 0x176B JUMP JUMPDEST SWAP2 SWAP1 POP JUMP JUMPDEST PUSH1 0x0 PUSH8 0xFFFFFFFFFFFFFFFF DUP3 GT ISZERO PUSH2 0x17D2 JUMPI PUSH2 0x17D1 PUSH2 0x173C JUMP JUMPDEST JUMPDEST PUSH2 0x17DB DUP3 PUSH2 0x14EA JUMP JUMPDEST SWAP1 POP PUSH1 0x20 DUP2 ADD SWAP1 POP SWAP2 SWAP1 POP JUMP JUMPDEST DUP3 DUP2 DUP4 CALLDATACOPY PUSH1 0x0 DUP4 DUP4 ADD MSTORE POP POP POP JUMP JUMPDEST PUSH1 0x0 PUSH2 0x180A PUSH2 0x1805 DUP5 PUSH2 0x17B7 JUMP JUMPDEST PUSH2 0x179C JUMP JUMPDEST SWAP1 POP DUP3 DUP2 MSTORE PUSH1 0x20 DUP2 ADD DUP5 DUP5 DUP5 ADD GT ISZERO PUSH2 0x1826 JUMPI PUSH2 0x1825 PUSH2 0x1737 JUMP JUMPDEST JUMPDEST PUSH2 0x1831 DUP5 DUP3 DUP6 PUSH2 0x17E8 JUMP JUMPDEST POP SWAP4 SWAP3 POP POP POP JUMP JUMPDEST PUSH1 0x0 DUP3 PUSH1 0x1F DUP4 ADD SLT PUSH2 0x184E JUMPI PUSH2 0x184D PUSH2 0x1732 JUMP JUMPDEST JUMPDEST DUP2 CALLDATALOAD PUSH2 0x185E DUP5 DUP3 PUSH1 0x20 DUP7 ADD PUSH2 0x17F7 JUMP JUMPDEST SWAP2 POP POP SWAP3 SWAP2 POP POP JUMP JUMPDEST PUSH1 0x0 PUSH8 0xFFFFFFFFFFFFFFFF DUP3 GT ISZERO PUSH2 0x1882 JUMPI PUSH2 0x1881 PUSH2 0x173C JUMP JUMPDEST JUMPDEST PUSH1 0x20 DUP3 MUL SWAP1 POP PUSH1 0x20 DUP2 ADD SWAP1 POP SWAP2 SWAP1 POP JUMP JUMPDEST PUSH1 0x0 DUP1 REVERT JUMPDEST PUSH1 0x0 PUSH2 0x18AB PUSH2 0x18A6 DUP5 PUSH2 0x1867 JUMP JUMPDEST PUSH2 0x179C JUMP JUMPDEST SWAP1 POP DUP1 DUP4 DUP3 MSTORE PUSH1 0x20 DUP3 ADD SWAP1 POP PUSH1 0x20 DUP5 MUL DUP4 ADD DUP6 DUP2 GT ISZERO PUSH2 0x18CE JUMPI PUSH2 0x18CD PUSH2 0x1893 JUMP JUMPDEST JUMPDEST DUP4 JUMPDEST DUP2 DUP2 LT ISZERO PUSH2 0x1915 JUMPI DUP1 CALLDATALOAD PUSH8 0xFFFFFFFFFFFFFFFF DUP2 GT ISZERO PUSH2 0x18F3 JUMPI PUSH2 0x18F2 PUSH2 0x1732 JUMP JUMPDEST JUMPDEST DUP1 DUP7 ADD PUSH2 0x1900 DUP10 DUP3 PUSH2 0x1839 JUMP JUMPDEST DUP6 MSTORE PUSH1 0x20 DUP6 ADD SWAP5 POP POP POP PUSH1 0x20 DUP2 ADD SWAP1 POP PUSH2 0x18D0 JUMP JUMPDEST POP POP POP SWAP4 SWAP3 POP POP POP JUMP JUMPDEST PUSH1 0x0 DUP3 PUSH1 0x1F DUP4 ADD SLT PUSH2 0x1934 JUMPI PUSH2 0x1933 PUSH2 0x1732 JUMP JUMPDEST JUMPDEST DUP2 CALLDATALOAD PUSH2 0x1944 DUP5 DUP3 PUSH1 0x20 DUP7 ADD PUSH2 0x1898 JUMP JUMPDEST SWAP2 POP POP SWAP3 SWAP2 POP POP JUMP JUMPDEST PUSH1 0x0 DUP1 PUSH1 0x40 DUP4 DUP6 SUB SLT ISZERO PUSH2 0x1964 JUMPI PUSH2 0x1963 PUSH2 0x16CF JUMP JUMPDEST JUMPDEST PUSH1 0x0 DUP4 ADD CALLDATALOAD PUSH8 0xFFFFFFFFFFFFFFFF DUP2 GT ISZERO PUSH2 0x1982 JUMPI PUSH2 0x1981 PUSH2 0x16D4 JUMP JUMPDEST JUMPDEST PUSH2 0x198E DUP6 DUP3 DUP7 ADD PUSH2 0x1839 JUMP JUMPDEST SWAP3 POP POP PUSH1 0x20 DUP4 ADD CALLDATALOAD PUSH8 0xFFFFFFFFFFFFFFFF DUP2 GT ISZERO PUSH2 0x19AF JUMPI PUSH2 0x19AE PUSH2 0x16D4 JUMP JUMPDEST JUMPDEST PUSH2 0x19BB DUP6 DUP3 DUP7 ADD PUSH2 0x191F JUMP JUMPDEST SWAP2 POP POP SWAP3 POP SWAP3 SWAP1 POP JUMP JUMPDEST PUSH1 0x0 PUSH20 0xFFFFFFFFFFFFFFFFFFFFFFFFFFFFFFFFFFFFFFFF DUP3 AND SWAP1 POP SWAP2 SWAP1 POP JUMP JUMPDEST PUSH1 0x0 PUSH2 0x19F0 DUP3 PUSH2 0x19C5 JUMP JUMPDEST SWAP1 POP SWAP2 SWAP1 POP JUMP JUMPDEST PUSH2 0x1A00 DUP2 PUSH2 0x19E5 JUMP JUMPDEST DUP3 MSTORE POP POP JUMP JUMPDEST PUSH1 0x0 PUSH1 0x20 DUP3 ADD SWAP1 POP PUSH2 0x1A1B PUSH1 0x0 DUP4 ADD DUP5 PUSH2 0x19F7 JUMP JUMPDEST SWAP3 SWAP2 POP POP JUMP JUMPDEST PUSH1 0x0 PUSH1 0x60 DUP4 ADD PUSH1 0x0 DUP4 ADD MLOAD PUSH2 0x1A39 PUSH1 0x0 DUP7 ADD DUP3 PUSH2 0x156A JUMP JUMPDEST POP PUSH1 0x20 DUP4 ADD MLOAD DUP5 DUP3 SUB PUSH1 0x20 DUP7 ADD MSTORE PUSH2 0x1A51 DUP3 DUP3 PUSH2 0x14FB JUMP JUMPDEST SWAP2 POP POP PUSH1 0x40 DUP4 ADD MLOAD PUSH2 0x1A66 PUSH1 0x40 DUP7 ADD DUP3 PUSH2 0x156A JUMP JUMPDEST POP DUP1 SWAP2 POP POP SWAP3 SWAP2 POP POP JUMP JUMPDEST PUSH1 0x0 PUSH1 0x20 DUP3 ADD SWAP1 POP DUP2 DUP2 SUB PUSH1 0x0 DUP4 ADD MSTORE PUSH2 0x1A8B DUP2 DUP5 PUSH2 0x1A21 JUMP JUMPDEST SWAP1 POP SWAP3 SWAP2 POP POP JUMP JUMPDEST PUSH1 0x0 DUP3 DUP3 MSTORE PUSH1 0x20 DUP3 ADD SWAP1 POP SWAP3 SWAP2 POP POP JUMP JUMPDEST PUSH1 0x0 PUSH2 0x1AAF DUP3 PUSH2 0x14A4 JUMP JUMPDEST PUSH2 0x1AB9 DUP2 DUP6 PUSH2 0x1A93 JUMP JUMPDEST SWAP4 POP PUSH2 0x1AC9 DUP2 DUP6 PUSH1 0x20 DUP7 ADD PUSH2 0x14C0 JUMP JUMPDEST PUSH2 0x1AD2 DUP2 PUSH2 0x14EA JUMP JUMPDEST DUP5 ADD SWAP2 POP POP SWAP3 SWAP2 POP POP JUMP JUMPDEST PUSH1 0x0 PUSH1 0x20 DUP3 ADD SWAP1 POP DUP2 DUP2 SUB PUSH1 0x0 DUP4 ADD MSTORE PUSH2 0x1AF7 DUP2 DUP5 PUSH2 0x1AA4 JUMP JUMPDEST SWAP1 POP SWAP3 SWAP2 POP POP JUMP JUMPDEST PUSH1 0x0 DUP2 MLOAD SWAP1 POP SWAP2 SWAP1 POP JUMP JUMPDEST PUSH1 0x0 DUP3 DUP3 MSTORE PUSH1 0x20 DUP3 ADD SWAP1 POP SWAP3 SWAP2 POP POP JUMP JUMPDEST PUSH1 0x0 DUP2 SWAP1 POP PUSH1 0x20 DUP3 ADD SWAP1 POP SWAP2 SWAP1 POP JUMP JUMPDEST PUSH1 0x0 PUSH1 0x40 DUP4 ADD PUSH1 0x0 DUP4 ADD MLOAD DUP5 DUP3 SUB PUSH1 0x0 DUP7 ADD MSTORE PUSH2 0x1B48 DUP3 DUP3 PUSH2 0x14FB JUMP JUMPDEST SWAP2 POP POP PUSH1 0x20 DUP4 ADD MLOAD DUP5 DUP3 SUB PUSH1 0x20 DUP7 ADD MSTORE PUSH2 0x1B62 DUP3 DUP3 PUSH2 0x15EA JUMP JUMPDEST SWAP2 POP POP DUP1 SWAP2 POP POP SWAP3 SWAP2 POP POP JUMP JUMPDEST PUSH1 0x0 PUSH2 0x1B7B DUP4 DUP4 PUSH2 0x1B2B JUMP JUMPDEST SWAP1 POP SWAP3 SWAP2 POP POP JUMP JUMPDEST PUSH1 0x0 PUSH1 0x20 DUP3 ADD SWAP1 POP SWAP2 SWAP1 POP JUMP JUMPDEST PUSH1 0x0 PUSH2 0x1B9B DUP3 PUSH2 0x1AFF JUMP JUMPDEST PUSH2 0x1BA5 DUP2 DUP6 PUSH2 0x1B0A JUMP JUMPDEST SWAP4 POP DUP4 PUSH1 0x20 DUP3 MUL DUP6 ADD PUSH2 0x1BB7 DUP6 PUSH2 0x1B1B JUMP JUMPDEST DUP1 PUSH1 0x0 JUMPDEST DUP6 DUP2 LT ISZERO PUSH2 0x1BF3 JUMPI DUP5 DUP5 SUB DUP10 MSTORE DUP2 MLOAD PUSH2 0x1BD4 DUP6 DUP3 PUSH2 0x1B6F JUMP JUMPDEST SWAP5 POP PUSH2 0x1BDF DUP4 PUSH2 0x1B83 JUMP JUMPDEST SWAP3 POP PUSH1 0x20 DUP11 ADD SWAP10 POP POP PUSH1 0x1 DUP2 ADD SWAP1 POP PUSH2 0x1BBB JUMP JUMPDEST POP DUP3 SWAP8 POP DUP8 SWAP6 POP POP POP POP POP POP SWAP3 SWAP2 POP POP JUMP JUMPDEST PUSH1 0x0 PUSH1 0x20 DUP3 ADD SWAP1 POP DUP2 DUP2 SUB PUSH1 0x0 DUP4 ADD MSTORE PUSH2 0x1C1F DUP2 DUP5 PUSH2 0x1B90 JUMP JUMPDEST SWAP1 POP SWAP3 SWAP2 POP POP JUMP JUMPDEST PUSH32 0x766F74696E67206E6565647320746F20737461727420746F20766F746520666F PUSH1 0x0 DUP3 ADD MSTORE PUSH32 0x72206F72207365652064617461206F7220746F2073746F700000000000000000 PUSH1 0x20 DUP3 ADD MSTORE POP JUMP JUMPDEST PUSH1 0x0 PUSH2 0x1C83 PUSH1 0x38 DUP4 PUSH2 0x1A93 JUMP JUMPDEST SWAP2 POP PUSH2 0x1C8E DUP3 PUSH2 0x1C27 JUMP JUMPDEST PUSH1 0x40 DUP3 ADD SWAP1 POP SWAP2 SWAP1 POP JUMP JUMPDEST PUSH1 0x0 PUSH1 0x20 DUP3 ADD SWAP1 POP DUP2 DUP2 SUB PUSH1 0x0 DUP4 ADD MSTORE PUSH2 0x1CB2 DUP2 PUSH2 0x1C76 JUMP JUMPDEST SWAP1 POP SWAP2 SWAP1 POP JUMP JUMPDEST PUSH32 0x4E487B7100000000000000000000000000000000000000000000000000000000 PUSH1 0x0 MSTORE PUSH1 0x22 PUSH1 0x4 MSTORE PUSH1 0x24 PUSH1 0x0 REVERT JUMPDEST PUSH1 0x0 PUSH1 0x2 DUP3 DIV SWAP1 POP PUSH1 0x1 DUP3 AND DUP1 PUSH2 0x1D00 JUMPI PUSH1 0x7F DUP3 AND SWAP2 POP JUMPDEST PUSH1 0x20 DUP3 LT DUP2 SUB PUSH2 0x1D13 JUMPI PUSH2 0x1D12 PUSH2 0x1CB9 JUMP JUMPDEST JUMPDEST POP SWAP2 SWAP1 POP JUMP JUMPDEST PUSH32 0x6F6E6C79206F776E6572206861732072696768747320746F20646F2074686973 PUSH1 0x0 DUP3 ADD MSTORE POP JUMP JUMPDEST PUSH1 0x0 PUSH2 0x1D4F PUSH1 0x20 DUP4 PUSH2 0x1A93 JUMP JUMPDEST SWAP2 POP PUSH2 0x1D5A DUP3 PUSH2 0x1D19 JUMP JUMPDEST PUSH1 0x20 DUP3 ADD SWAP1 POP SWAP2 SWAP1 POP JUMP JUMPDEST PUSH1 0x0 PUSH1 0x20 DUP3 ADD SWAP1 POP DUP2 DUP2 SUB PUSH1 0x0 DUP4 ADD MSTORE PUSH2 0x1D7E DUP2 PUSH2 0x1D42 JUMP JUMPDEST SWAP1 POP SWAP2 SWAP1 POP JUMP JUMPDEST PUSH32 0x4E487B7100000000000000000000000000000000000000000000000000000000 PUSH1 0x0 MSTORE PUSH1 0x32 PUSH1 0x4 MSTORE PUSH1 0x24 PUSH1 0x0 REVERT JUMPDEST PUSH32 0x766F74696E67206E6565647320746F2073746F7020746F207365652077696E6E PUSH1 0x0 DUP3 ADD MSTORE PUSH32 0x6572206F7220736574206E657720766F74696E67000000000000000000000000 PUSH1 0x20 DUP3 ADD MSTORE POP JUMP JUMPDEST PUSH1 0x0 PUSH2 0x1E10 PUSH1 0x34 DUP4 PUSH2 0x1A93 JUMP JUMPDEST SWAP2 POP PUSH2 0x1E1B DUP3 PUSH2 0x1DB4 JUMP JUMPDEST PUSH1 0x40 DUP3 ADD SWAP1 POP SWAP2 SWAP1 POP JUMP JUMPDEST PUSH1 0x0 PUSH1 0x20 DUP3 ADD SWAP1 POP DUP2 DUP2 SUB PUSH1 0x0 DUP4 ADD MSTORE PUSH2 0x1E3F DUP2 PUSH2 0x1E03 JUMP JUMPDEST SWAP1 POP SWAP2 SWAP1 POP JUMP JUMPDEST PUSH1 0x0 DUP2 SWAP1 POP DUP2 PUSH1 0x0 MSTORE PUSH1 0x20 PUSH1 0x0 KECCAK256 SWAP1 POP SWAP2 SWAP1 POP JUMP JUMPDEST PUSH1 0x0 PUSH1 0x20 PUSH1 0x1F DUP4 ADD DIV SWAP1 POP SWAP2 SWAP1 POP JUMP JUMPDEST PUSH1 0x0 DUP3 DUP3 SHL SWAP1 POP SWAP3 SWAP2 POP POP JUMP JUMPDEST PUSH1 0x0 PUSH1 0x8 DUP4 MUL PUSH2 0x1EA8 PUSH32 0xFFFFFFFFFFFFFFFFFFFFFFFFFFFFFFFFFFFFFFFFFFFFFFFFFFFFFFFFFFFFFFFF DUP3 PUSH2 0x1E6B JUMP JUMPDEST PUSH2 0x1EB2 DUP7 DUP4 PUSH2 0x1E6B JUMP JUMPDEST SWAP6 POP DUP1 NOT DUP5 AND SWAP4 POP DUP1 DUP7 AND DUP5 OR SWAP3 POP POP POP SWAP4 SWAP3 POP POP POP JUMP JUMPDEST PUSH1 0x0 DUP2 SWAP1 POP SWAP2 SWAP1 POP JUMP JUMPDEST PUSH1 0x0 PUSH2 0x1EEF PUSH2 0x1EEA PUSH2 0x1EE5 DUP5 PUSH2 0x1560 JUMP JUMPDEST PUSH2 0x1ECA JUMP JUMPDEST PUSH2 0x1560 JUMP JUMPDEST SWAP1 POP SWAP2 SWAP1 POP JUMP JUMPDEST PUSH1 0x0 DUP2 SWAP1 POP SWAP2 SWAP1 POP JUMP JUMPDEST PUSH2 0x1F09 DUP4 PUSH2 0x1ED4 JUMP JUMPDEST PUSH2 0x1F1D PUSH2 0x1F15 DUP3 PUSH2 0x1EF6 JUMP JUMPDEST DUP5 DUP5 SLOAD PUSH2 0x1E78 JUMP JUMPDEST DUP3 SSTORE POP POP POP POP JUMP JUMPDEST PUSH1 0x0 SWAP1 JUMP JUMPDEST PUSH2 0x1F32 PUSH2 0x1F25 JUMP JUMPDEST PUSH2 0x1F3D DUP2 DUP5 DUP5 PUSH2 0x1F00 JUMP JUMPDEST POP POP POP JUMP JUMPDEST JUMPDEST DUP2 DUP2 LT ISZERO PUSH2 0x1F61 JUMPI PUSH2 0x1F56 PUSH1 0x0 DUP3 PUSH2 0x1F2A JUMP JUMPDEST PUSH1 0x1 DUP2 ADD SWAP1 POP PUSH2 0x1F43 JUMP JUMPDEST POP POP JUMP JUMPDEST PUSH1 0x1F DUP3 GT ISZERO PUSH2 0x1FA6 JUMPI PUSH2 0x1F77 DUP2 PUSH2 0x1E46 JUMP JUMPDEST PUSH2 0x1F80 DUP5 PUSH2 0x1E5B JUMP JUMPDEST DUP2 ADD PUSH1 0x20 DUP6 LT ISZERO PUSH2 0x1F8F JUMPI DUP2 SWAP1 POP JUMPDEST PUSH2 0x1FA3 PUSH2 0x1F9B DUP6 PUSH2 0x1E5B JUMP JUMPDEST DUP4 ADD DUP3 PUSH2 0x1F42 JUMP JUMPDEST POP POP JUMPDEST POP POP POP JUMP JUMPDEST PUSH1 0x0 DUP3 DUP3 SHR SWAP1 POP SWAP3 SWAP2 POP POP JUMP JUMPDEST PUSH1 0x0 PUSH2 0x1FC9 PUSH1 0x0 NOT DUP5 PUSH1 0x8 MUL PUSH2 0x1FAB JUMP JUMPDEST NOT DUP1 DUP4 AND SWAP2 POP POP SWAP3 SWAP2 POP POP JUMP JUMPDEST PUSH1 0x0 PUSH2 0x1FE2 DUP4 DUP4 PUSH2 0x1FB8 JUMP JUMPDEST SWAP2 POP DUP3 PUSH1 0x2 MUL DUP3 OR SWAP1 POP SWAP3 SWAP2 POP POP JUMP JUMPDEST PUSH2 0x1FFB DUP3 PUSH2 0x14A4 JUMP JUMPDEST PUSH8 0xFFFFFFFFFFFFFFFF DUP2 GT ISZERO PUSH2 0x2014 JUMPI PUSH2 0x2013 PUSH2 0x173C JUMP JUMPDEST JUMPDEST PUSH2 0x201E DUP3 SLOAD PUSH2 0x1CE8 JUMP JUMPDEST PUSH2 0x2029 DUP3 DUP3 DUP6 PUSH2 0x1F65 JUMP JUMPDEST PUSH1 0x0 PUSH1 0x20 SWAP1 POP PUSH1 0x1F DUP4 GT PUSH1 0x1 DUP2 EQ PUSH2 0x205C JUMPI PUSH1 0x0 DUP5 ISZERO PUSH2 0x204A JUMPI DUP3 DUP8 ADD MLOAD SWAP1 POP JUMPDEST PUSH2 0x2054 DUP6 DUP3 PUSH2 0x1FD6 JUMP JUMPDEST DUP7 SSTORE POP PUSH2 0x20BC JUMP JUMPDEST PUSH1 0x1F NOT DUP5 AND PUSH2 0x206A DUP7 PUSH2 0x1E46 JUMP JUMPDEST PUSH1 0x0 JUMPDEST DUP3 DUP2 LT ISZERO PUSH2 0x2092 JUMPI DUP5 DUP10 ADD MLOAD DUP3 SSTORE PUSH1 0x1 DUP3 ADD SWAP2 POP PUSH1 0x20 DUP6 ADD SWAP5 POP PUSH1 0x20 DUP2 ADD SWAP1 POP PUSH2 0x206D JUMP JUMPDEST DUP7 DUP4 LT ISZERO PUSH2 0x20AF JUMPI DUP5 DUP10 ADD MLOAD PUSH2 0x20AB PUSH1 0x1F DUP10 AND DUP3 PUSH2 0x1FB8 JUMP JUMPDEST DUP4 SSTORE POP JUMPDEST PUSH1 0x1 PUSH1 0x2 DUP9 MUL ADD DUP9 SSTORE POP POP POP JUMPDEST POP POP POP POP POP POP JUMP JUMPDEST PUSH32 0x4E487B7100000000000000000000000000000000000000000000000000000000 PUSH1 0x0 MSTORE PUSH1 0x31 PUSH1 0x4 MSTORE PUSH1 0x24 PUSH1 0x0 REVERT JUMPDEST PUSH32 0x4E487B7100000000000000000000000000000000000000000000000000000000 PUSH1 0x0 MSTORE PUSH1 0x11 PUSH1 0x4 MSTORE PUSH1 0x24 PUSH1 0x0 REVERT JUMPDEST PUSH1 0x0 PUSH2 0x212D DUP3 PUSH2 0x1560 JUMP JUMPDEST SWAP2 POP PUSH32 0xFFFFFFFFFFFFFFFFFFFFFFFFFFFFFFFFFFFFFFFFFFFFFFFFFFFFFFFFFFFFFFFF DUP3 SUB PUSH2 0x215F JUMPI PUSH2 0x215E PUSH2 0x20F3 JUMP JUMPDEST JUMPDEST PUSH1 0x1 DUP3 ADD SWAP1 POP SWAP2 SWAP1 POP JUMP JUMPDEST PUSH1 0x0 PUSH2 0x2175 DUP3 PUSH2 0x1560 JUMP JUMPDEST SWAP2 POP PUSH2 0x2180 DUP4 PUSH2 0x1560 JUMP JUMPDEST SWAP3 POP DUP3 DUP3 ADD SWAP1 POP DUP1 DUP3 GT ISZERO PUSH2 0x2198 JUMPI PUSH2 0x2197 PUSH2 0x20F3 JUMP JUMPDEST JUMPDEST SWAP3 SWAP2 POP POP JUMP JUMPDEST PUSH32 0x766F74696E67206D757374206265207374617274656420746F20766F74650000 PUSH1 0x0 DUP3 ADD MSTORE POP JUMP JUMPDEST PUSH1 0x0 PUSH2 0x21D4 PUSH1 0x1E DUP4 PUSH2 0x1A93 JUMP JUMPDEST SWAP2 POP PUSH2 0x21DF DUP3 PUSH2 0x219E JUMP JUMPDEST PUSH1 0x20 DUP3 ADD SWAP1 POP SWAP2 SWAP1 POP JUMP JUMPDEST PUSH1 0x0 PUSH1 0x20 DUP3 ADD SWAP1 POP DUP2 DUP2 SUB PUSH1 0x0 DUP4 ADD MSTORE PUSH2 0x2203 DUP2 PUSH2 0x21C7 JUMP JUMPDEST SWAP1 POP SWAP2 SWAP1 POP JUMP JUMPDEST PUSH32 0x416C726561647920766F7465642E000000000000000000000000000000000000 PUSH1 0x0 DUP3 ADD MSTORE POP JUMP JUMPDEST PUSH1 0x0 PUSH2 0x2240 PUSH1 0xE DUP4 PUSH2 0x1A93 JUMP JUMPDEST SWAP2 POP PUSH2 0x224B DUP3 PUSH2 0x220A JUMP JUMPDEST PUSH1 0x20 DUP3 ADD SWAP1 POP SWAP2 SWAP1 POP JUMP JUMPDEST PUSH1 0x0 PUSH1 0x20 DUP3 ADD SWAP1 POP DUP2 DUP2 SUB PUSH1 0x0 DUP4 ADD MSTORE PUSH2 0x226F DUP2 PUSH2 0x2233 JUMP JUMPDEST SWAP1 POP SWAP2 SWAP1 POP JUMP JUMPDEST PUSH32 0x57726F6E67206E756D6265722100000000000000000000000000000000000000 PUSH1 0x0 DUP3 ADD MSTORE POP JUMP JUMPDEST PUSH1 0x0 PUSH2 0x22AC PUSH1 0xD DUP4 PUSH2 0x1A93 JUMP JUMPDEST SWAP2 POP PUSH2 0x22B7 DUP3 PUSH2 0x2276 JUMP JUMPDEST PUSH1 0x20 DUP3 ADD SWAP1 POP SWAP2 SWAP1 POP JUMP JUMPDEST PUSH1 0x0 PUSH1 0x20 DUP3 ADD SWAP1 POP DUP2 DUP2 SUB PUSH1 0x0 DUP4 ADD MSTORE PUSH2 0x22DB DUP2 PUSH2 0x229F JUMP JUMPDEST SWAP1 POP SWAP2 SWAP1 POP JUMP JUMPDEST PUSH1 0x0 DUP2 SLOAD SWAP1 POP PUSH2 0x22F1 DUP2 PUSH2 0x1CE8 JUMP JUMPDEST SWAP1 POP SWAP2 SWAP1 POP JUMP JUMPDEST PUSH1 0x0 DUP2 SWAP1 POP DUP2 PUSH1 0x0 MSTORE PUSH1 0x20 PUSH1 0x0 KECCAK256 SWAP1 POP SWAP2 SWAP1 POP JUMP JUMPDEST DUP2 DUP2 SUB PUSH2 0x231B JUMPI POP POP PUSH2 0x23F3 JUMP JUMPDEST PUSH2 0x2324 DUP3 PUSH2 0x22E2 JUMP JUMPDEST PUSH8 0xFFFFFFFFFFFFFFFF DUP2 GT ISZERO PUSH2 0x233D JUMPI PUSH2 0x233C PUSH2 0x173C JUMP JUMPDEST JUMPDEST PUSH2 0x2347 DUP3 SLOAD PUSH2 0x1CE8 JUMP JUMPDEST PUSH2 0x2352 DUP3 DUP3 DUP6 PUSH2 0x1F65 JUMP JUMPDEST PUSH1 0x0 PUSH1 0x1F DUP4 GT PUSH1 0x1 DUP2 EQ PUSH2 0x2381 JUMPI PUSH1 0x0 DUP5 ISZERO PUSH2 0x236F JUMPI DUP3 DUP8 ADD SLOAD SWAP1 POP JUMPDEST PUSH2 0x2379 DUP6 DUP3 PUSH2 0x1FD6 JUMP JUMPDEST DUP7 SSTORE POP PUSH2 0x23EC JUMP JUMPDEST PUSH1 0x1F NOT DUP5 AND PUSH2 0x238F DUP8 PUSH2 0x22F8 JUMP JUMPDEST SWAP7 POP PUSH2 0x239A DUP7 PUSH2 0x1E46 JUMP JUMPDEST PUSH1 0x0 JUMPDEST DUP3 DUP2 LT ISZERO PUSH2 0x23C2 JUMPI DUP5 DUP10 ADD SLOAD DUP3 SSTORE PUSH1 0x1 DUP3 ADD SWAP2 POP PUSH1 0x1 DUP6 ADD SWAP5 POP PUSH1 0x20 DUP2 ADD SWAP1 POP PUSH2 0x239D JUMP JUMPDEST DUP7 DUP4 LT ISZERO PUSH2 0x23DF JUMPI DUP5 DUP10 ADD SLOAD PUSH2 0x23DB PUSH1 0x1F DUP10 AND DUP3 PUSH2 0x1FB8 JUMP JUMPDEST DUP4 SSTORE POP JUMPDEST PUSH1 0x1 PUSH1 0x2 DUP9 MUL ADD DUP9 SSTORE POP POP POP JUMPDEST POP POP POP POP POP POP JUMPDEST JUMP JUMPDEST PUSH1 0x0 PUSH2 0x2400 DUP3 PUSH2 0x1560 JUMP JUMPDEST SWAP2 POP PUSH2 0x240B DUP4 PUSH2 0x1560 JUMP JUMPDEST SWAP3 POP DUP3 DUP3 SUB SWAP1 POP DUP2 DUP2 GT ISZERO PUSH2 0x2423 JUMPI PUSH2 0x2422 PUSH2 0x20F3 JUMP JUMPDEST JUMPDEST SWAP3 SWAP2 POP POP JUMP JUMPDEST PUSH1 0x0 DUP2 SLOAD SWAP1 POP PUSH2 0x2438 DUP2 PUSH2 0x1CE8 JUMP JUMPDEST SWAP1 POP SWAP2 SWAP1 POP JUMP JUMPDEST DUP2 DUP2 SUB PUSH2 0x244D JUMPI POP POP PUSH2 0x2525 JUMP JUMPDEST PUSH2 0x2456 DUP3 PUSH2 0x2429 JUMP JUMPDEST PUSH8 0xFFFFFFFFFFFFFFFF DUP2 GT ISZERO PUSH2 0x246F JUMPI PUSH2 0x246E PUSH2 0x173C JUMP JUMPDEST JUMPDEST PUSH2 0x2479 DUP3 SLOAD PUSH2 0x1CE8 JUMP JUMPDEST PUSH2 0x2484 DUP3 DUP3 DUP6 PUSH2 0x1F65 JUMP JUMPDEST PUSH1 0x0 PUSH1 0x1F DUP4 GT PUSH1 0x1 DUP2 EQ PUSH2 0x24B3 JUMPI PUSH1 0x0 DUP5 ISZERO PUSH2 0x24A1 JUMPI DUP3 DUP8 ADD SLOAD SWAP1 POP JUMPDEST PUSH2 0x24AB DUP6 DUP3 PUSH2 0x1FD6 JUMP JUMPDEST DUP7 SSTORE POP PUSH2 0x251E JUMP JUMPDEST PUSH1 0x1F NOT DUP5 AND PUSH2 0x24C1 DUP8 PUSH2 0x1E46 JUMP JUMPDEST SWAP7 POP PUSH2 0x24CC DUP7 PUSH2 0x1E46 JUMP JUMPDEST PUSH1 0x0 JUMPDEST DUP3 DUP2 LT ISZERO PUSH2 0x24F4 JUMPI DUP5 DUP10 ADD SLOAD DUP3 SSTORE PUSH1 0x1 DUP3 ADD SWAP2 POP PUSH1 0x1 DUP6 ADD SWAP5 POP PUSH1 0x20 DUP2 ADD SWAP1 POP PUSH2 0x24CF JUMP JUMPDEST DUP7 DUP4 LT ISZERO PUSH2 0x2511 JUMPI DUP5 DUP10 ADD SLOAD PUSH2 0x250D PUSH1 0x1F DUP10 AND DUP3 PUSH2 0x1FB8 JUMP JUMPDEST DUP4 SSTORE POP JUMPDEST PUSH1 0x1 PUSH1 0x2 DUP9 MUL ADD DUP9 SSTORE POP POP POP JUMPDEST POP POP POP POP POP POP JUMPDEST JUMP JUMPDEST PUSH1 0x0 DUP2 SLOAD PUSH2 0x2534 DUP2 PUSH2 0x1CE8 JUMP JUMPDEST PUSH2 0x253E DUP2 DUP7 PUSH2 0x14AF JUMP JUMPDEST SWAP5 POP PUSH1 0x1 DUP3 AND PUSH1 0x0 DUP2 EQ PUSH2 0x2559 JUMPI PUSH1 0x1 DUP2 EQ PUSH2 0x256F JUMPI PUSH2 0x25A2 JUMP JUMPDEST PUSH1 0xFF NOT DUP4 AND DUP7 MSTORE DUP2 ISZERO ISZERO PUSH1 0x20 MUL DUP7 ADD SWAP4 POP PUSH2 0x25A2 JUMP JUMPDEST PUSH2 0x2578 DUP6 PUSH2 0x1E46 JUMP JUMPDEST PUSH1 0x0 JUMPDEST DUP4 DUP2 LT ISZERO PUSH2 0x259A JUMPI DUP2 SLOAD DUP2 DUP10 ADD MSTORE PUSH1 0x1 DUP3 ADD SWAP2 POP PUSH1 0x20 DUP2 ADD SWAP1 POP PUSH2 0x257B JUMP JUMPDEST DUP1 DUP9 ADD SWAP6 POP POP POP JUMPDEST POP POP POP SWAP3 SWAP2 POP POP JUMP JUMPDEST PUSH1 0x0 DUP2 SLOAD SWAP1 POP SWAP2 SWAP1 POP JUMP JUMPDEST PUSH1 0x0 DUP2 SWAP1 POP DUP2 PUSH1 0x0 MSTORE PUSH1 0x20 PUSH1 0x0 KECCAK256 SWAP1 POP SWAP2 SWAP1 POP JUMP JUMPDEST PUSH1 0x0 DUP2 PUSH1 0x0 SHR SWAP1 POP SWAP2 SWAP1 POP JUMP JUMPDEST PUSH1 0x0 DUP2 SWAP1 POP SWAP2 SWAP1 POP JUMP JUMPDEST PUSH1 0x0 PUSH2 0x25F5 PUSH2 0x25F0 DUP4 PUSH2 0x25CB JUMP JUMPDEST PUSH2 0x25D8 JUMP JUMPDEST SWAP1 POP SWAP2 SWAP1 POP JUMP JUMPDEST PUSH1 0x0 PUSH1 0x60 DUP4 ADD PUSH1 0x0 DUP1 DUP5 ADD SLOAD SWAP1 POP PUSH2 0x2613 DUP2 PUSH2 0x25E2 JUMP JUMPDEST PUSH2 0x2620 PUSH1 0x0 DUP8 ADD DUP3 PUSH2 0x156A JUMP JUMPDEST POP PUSH1 0x1 DUP5 ADD DUP6 DUP4 SUB PUSH1 0x20 DUP8 ADD MSTORE PUSH2 0x2637 DUP4 DUP3 PUSH2 0x2527 JUMP JUMPDEST SWAP3 POP POP PUSH1 0x2 DUP5 ADD SLOAD SWAP1 POP PUSH2 0x264A DUP2 PUSH2 0x25E2 JUMP JUMPDEST PUSH2 0x2657 PUSH1 0x40 DUP8 ADD DUP3 PUSH2 0x156A JUMP JUMPDEST POP DUP2 SWAP3 POP POP POP SWAP3 SWAP2 POP POP JUMP JUMPDEST PUSH1 0x0 PUSH2 0x266F DUP4 DUP4 PUSH2 0x25FC JUMP JUMPDEST SWAP1 POP SWAP3 SWAP2 POP POP JUMP JUMPDEST PUSH1 0x0 PUSH1 0x3 DUP3 ADD SWAP1 POP SWAP2 SWAP1 POP JUMP JUMPDEST PUSH1 0x0 PUSH2 0x268F DUP3 PUSH2 0x25AB JUMP JUMPDEST PUSH2 0x2699 DUP2 DUP6 PUSH2 0x153F JUMP JUMPDEST SWAP4 POP DUP4 PUSH1 0x20 DUP3 MUL DUP6 ADD PUSH2 0x26AB DUP6 PUSH2 0x25B6 JUMP JUMPDEST DUP1 PUSH1 0x0 JUMPDEST DUP6 DUP2 LT ISZERO PUSH2 0x26E6 JUMPI DUP5 DUP5 SUB DUP10 MSTORE DUP2 PUSH2 0x26C7 DUP6 DUP3 PUSH2 0x2663 JUMP JUMPDEST SWAP5 POP PUSH2 0x26D2 DUP4 PUSH2 0x2677 JUMP JUMPDEST SWAP3 POP PUSH1 0x20 DUP11 ADD SWAP10 POP POP PUSH1 0x1 DUP2 ADD SWAP1 POP PUSH2 0x26AF JUMP JUMPDEST POP DUP3 SWAP8 POP DUP8 SWAP6 POP POP POP POP POP POP SWAP3 SWAP2 POP POP JUMP JUMPDEST PUSH1 0x0 PUSH1 0x40 DUP4 ADD PUSH1 0x0 DUP1 DUP5 ADD DUP6 DUP4 SUB PUSH1 0x0 DUP8 ADD MSTORE PUSH2 0x2715 DUP4 DUP3 PUSH2 0x2527 JUMP JUMPDEST SWAP3 POP POP PUSH1 0x1 DUP5 ADD DUP6 DUP4 SUB PUSH1 0x20 DUP8 ADD MSTORE PUSH2 0x272E DUP4 DUP3 PUSH2 0x2684 JUMP JUMPDEST SWAP3 POP POP DUP2 SWAP3 POP POP POP SWAP3 SWAP2 POP POP JUMP JUMPDEST PUSH1 0x0 PUSH1 0x20 DUP3 ADD SWAP1 POP DUP2 DUP2 SUB PUSH1 0x0 DUP4 ADD MSTORE PUSH2 0x2756 DUP2 DUP5 PUSH2 0x26F8 JUMP JUMPDEST SWAP1 POP SWAP3 SWAP2 POP POP JUMP INVALID LOG2 PUSH5 0x6970667358 0x22 SLT KECCAK256 EXTCODEHASH 0xFB EXTCODESIZE LOG2 0xE0 0xAA ORIGIN RETURN 0xBD PUSH21 0x5F18BF7CF156487AA142006986756673A159406F1C MSTORE PUSH5 0x736F6C6343 STOP ADDMOD SLT STOP CALLER "
				},
				"gasEstimates": {
					"creation": {
						"codeDepositCost": "2026400",
						"executionCost": "50732",
						"totalCost": "2077132"
					},
					"external": {
						"currentSession()": "infinite",
						"getAllVoteSessions()": "infinite",
						"getCurrentSession()": "infinite",
						"getVoteSession(uint256)": "infinite",
						"getWinner()": "infinite",
						"owner()": "2511",
						"setVoteSession(string,string[])": "infinite",
						"startVoting()": "26651",
						"stopVoting()": "infinite",
						"voteFor(uint256)": "infinite"
					}
				},
				"methodIdentifiers": {
					"currentSession()": "d4166763",
					"getAllVoteSessions()": "f575e2a7",
					"getCurrentSession()": "1401795f",
					"getVoteSession(uint256)": "778021e4",
					"getWinner()": "8e7ea5b2",
					"owner()": "8da5cb5b",
					"setVoteSession(string,string[])": "7fbb63c9",
					"startVoting()": "1ec6b60a",
					"stopVoting()": "fab2f86b",
					"voteFor(uint256)": "86a50535"
				}
			},
			"storageLayout": {
				"storage": [
					{
						"astId": 3,
						"contract": "contracts/Voting.sol:Voting",
						"label": "owner",
						"offset": 0,
						"slot": "0",
						"type": "t_address"
					},
					{
						"astId": 6,
						"contract": "contracts/Voting.sol:Voting",
						"label": "isStart",
						"offset": 20,
						"slot": "0",
						"type": "t_bool"
					},
					{
						"astId": 16,
						"contract": "contracts/Voting.sol:Voting",
						"label": "voters",
						"offset": 0,
						"slot": "1",
						"type": "t_mapping(t_address,t_struct(Voter)11_storage)"
					},
					{
						"astId": 27,
						"contract": "contracts/Voting.sol:Voting",
						"label": "options",
						"offset": 0,
						"slot": "2",
						"type": "t_array(t_struct(Option)23_storage)dyn_storage"
					},
					{
						"astId": 37,
						"contract": "contracts/Voting.sol:Voting",
						"label": "currentSession",
						"offset": 0,
						"slot": "3",
						"type": "t_struct(VoteSession)34_storage"
					},
					{
						"astId": 41,
						"contract": "contracts/Voting.sol:Voting",
						"label": "voteSessions",
						"offset": 0,
						"slot": "5",
						"type": "t_array(t_struct(VoteSession)34_storage)dyn_storage"
					}
				],
				"types": {
					"t_address": {
						"encoding": "inplace",
						"label": "address",
						"numberOfBytes": "20"
					},
					"t_array(t_struct(Option)23_storage)dyn_storage": {
						"base": "t_struct(Option)23_storage",
						"encoding": "dynamic_array",
						"label": "struct Voting.Option[]",
						"numberOfBytes": "32"
					},
					"t_array(t_struct(VoteSession)34_storage)dyn_storage": {
						"base": "t_struct(VoteSession)34_storage",
						"encoding": "dynamic_array",
						"label": "struct Voting.VoteSession[]",
						"numberOfBytes": "32"
					},
					"t_bool": {
						"encoding": "inplace",
						"label": "bool",
						"numberOfBytes": "1"
					},
					"t_mapping(t_address,t_struct(Voter)11_storage)": {
						"encoding": "mapping",
						"key": "t_address",
						"label": "mapping(address => struct Voting.Voter)",
						"numberOfBytes": "32",
						"value": "t_struct(Voter)11_storage"
					},
					"t_string_storage": {
						"encoding": "bytes",
						"label": "string",
						"numberOfBytes": "32"
					},
					"t_struct(Option)23_storage": {
						"encoding": "inplace",
						"label": "struct Voting.Option",
						"members": [
							{
								"astId": 18,
								"contract": "contracts/Voting.sol:Voting",
								"label": "optionNumber",
								"offset": 0,
								"slot": "0",
								"type": "t_uint256"
							},
							{
								"astId": 20,
								"contract": "contracts/Voting.sol:Voting",
								"label": "voteOption",
								"offset": 0,
								"slot": "1",
								"type": "t_string_storage"
							},
							{
								"astId": 22,
								"contract": "contracts/Voting.sol:Voting",
								"label": "voteCount",
								"offset": 0,
								"slot": "2",
								"type": "t_uint256"
							}
						],
						"numberOfBytes": "96"
					},
					"t_struct(VoteSession)34_storage": {
						"encoding": "inplace",
						"label": "struct Voting.VoteSession",
						"members": [
							{
								"astId": 29,
								"contract": "contracts/Voting.sol:Voting",
								"label": "question",
								"offset": 0,
								"slot": "0",
								"type": "t_string_storage"
							},
							{
								"astId": 33,
								"contract": "contracts/Voting.sol:Voting",
								"label": "options",
								"offset": 0,
								"slot": "1",
								"type": "t_array(t_struct(Option)23_storage)dyn_storage"
							}
						],
						"numberOfBytes": "64"
					},
					"t_struct(Voter)11_storage": {
						"encoding": "inplace",
						"label": "struct Voting.Voter",
						"members": [
							{
								"astId": 8,
								"contract": "contracts/Voting.sol:Voting",
								"label": "lastVoted",
								"offset": 0,
								"slot": "0",
								"type": "t_string_storage"
							},
							{
								"astId": 10,
								"contract": "contracts/Voting.sol:Voting",
								"label": "vote",
								"offset": 0,
								"slot": "1",
								"type": "t_uint256"
							}
						],
						"numberOfBytes": "64"
					},
					"t_uint256": {
						"encoding": "inplace",
						"label": "uint256",
						"numberOfBytes": "32"
					}
				}
			},
			"userdoc": {
				"kind": "user",
				"methods": {},
				"version": 1
			}
		}
	}
}