{
	"contracts/Airdrop.sol": {
		"AirdropToken": {
			"abi": [
				{
					"inputs": [
						{
							"internalType": "contract IFakeToken",
							"name": "_tokenAddress",
							"type": "address"
						},
						{
							"internalType": "address[]",
							"name": "_addressArray",
							"type": "address[]"
						},
						{
							"internalType": "uint256[]",
							"name": "_amountArray",
							"type": "uint256[]"
						}
					],
					"name": "airdropWithTransfer",
					"outputs": [],
					"stateMutability": "nonpayable",
					"type": "function"
				},
				{
					"inputs": [
						{
							"internalType": "contract IFakeToken",
							"name": "_tokenAddress",
							"type": "address"
						},
						{
							"internalType": "address[]",
							"name": "_addressArray",
							"type": "address[]"
						},
						{
							"internalType": "uint256[]",
							"name": "_amountArray",
							"type": "uint256[]"
						}
					],
					"name": "airdropWithTransferFrom",
					"outputs": [],
					"stateMutability": "nonpayable",
					"type": "function"
				}
			],
			"devdoc": {
				"kind": "dev",
				"methods": {},
				"version": 1
			},
			"evm": {
				"assembly": "    /* \"contracts/Airdrop.sol\":233:966  contract AirdropToken{... */\n  mstore(0x40, 0x80)\n  callvalue\n  dup1\n  iszero\n  tag_1\n  jumpi\n  0x00\n  dup1\n  revert\ntag_1:\n  pop\n  dataSize(sub_0)\n  dup1\n  dataOffset(sub_0)\n  0x00\n  codecopy\n  0x00\n  return\nstop\n\nsub_0: assembly {\n        /* \"contracts/Airdrop.sol\":233:966  contract AirdropToken{... */\n      mstore(0x40, 0x80)\n      callvalue\n      dup1\n      iszero\n      tag_1\n      jumpi\n      0x00\n      dup1\n      revert\n    tag_1:\n      pop\n      jumpi(tag_2, lt(calldatasize, 0x04))\n      shr(0xe0, calldataload(0x00))\n      dup1\n      0x92798599\n      eq\n      tag_3\n      jumpi\n      dup1\n      0xf662c7b7\n      eq\n      tag_4\n      jumpi\n    tag_2:\n      0x00\n      dup1\n      revert\n        /* \"contracts/Airdrop.sol\":269:601  function airdropWithTransfer(... */\n    tag_3:\n      tag_5\n      0x04\n      dup1\n      calldatasize\n      sub\n      dup2\n      add\n      swap1\n      tag_6\n      swap2\n      swap1\n      tag_7\n      jump\t// in\n    tag_6:\n      tag_8\n      jump\t// in\n    tag_5:\n      stop\n        /* \"contracts/Airdrop.sol\":611:963  function airdropWithTransferFrom(... */\n    tag_4:\n      tag_9\n      0x04\n      dup1\n      calldatasize\n      sub\n      dup2\n      add\n      swap1\n      tag_10\n      swap2\n      swap1\n      tag_7\n      jump\t// in\n    tag_10:\n      tag_11\n      jump\t// in\n    tag_9:\n      stop\n        /* \"contracts/Airdrop.sol\":269:601  function airdropWithTransfer(... */\n    tag_8:\n        /* \"contracts/Airdrop.sol\":446:453  uint8 i */\n      0x00\n        /* \"contracts/Airdrop.sol\":441:594  for (uint8 i = 0; i<_addressArray.length; i++) ... */\n    tag_13:\n        /* \"contracts/Airdrop.sol\":461:474  _addressArray */\n      dup3\n        /* \"contracts/Airdrop.sol\":461:481  _addressArray.length */\n      mload\n        /* \"contracts/Airdrop.sol\":459:460  i */\n      dup2\n        /* \"contracts/Airdrop.sol\":459:481  i<_addressArray.length */\n      0xff\n      and\n      lt\n        /* \"contracts/Airdrop.sol\":441:594  for (uint8 i = 0; i<_addressArray.length; i++) ... */\n      iszero\n      tag_14\n      jumpi\n        /* \"contracts/Airdrop.sol\":521:534  _tokenAddress */\n      dup4\n        /* \"contracts/Airdrop.sol\":521:543  _tokenAddress.transfer */\n      0xffffffffffffffffffffffffffffffffffffffff\n      and\n      0xa9059cbb\n        /* \"contracts/Airdrop.sol\":544:557  _addressArray */\n      dup5\n        /* \"contracts/Airdrop.sol\":558:559  i */\n      dup4\n        /* \"contracts/Airdrop.sol\":544:560  _addressArray[i] */\n      0xff\n      and\n      dup2\n      mload\n      dup2\n      lt\n      tag_16\n      jumpi\n      tag_17\n      tag_18\n      jump\t// in\n    tag_17:\n    tag_16:\n      0x20\n      mul\n      0x20\n      add\n      add\n      mload\n        /* \"contracts/Airdrop.sol\":562:574  _amountArray */\n      dup5\n        /* \"contracts/Airdrop.sol\":575:576  i */\n      dup5\n        /* \"contracts/Airdrop.sol\":562:577  _amountArray[i] */\n      0xff\n      and\n      dup2\n      mload\n      dup2\n      lt\n      tag_19\n      jumpi\n      tag_20\n      tag_18\n      jump\t// in\n    tag_20:\n    tag_19:\n      0x20\n      mul\n      0x20\n      add\n      add\n      mload\n        /* \"contracts/Airdrop.sol\":521:578  _tokenAddress.transfer(_addressArray[i], _amountArray[i]) */\n      mload(0x40)\n      dup4\n      0xffffffff\n      and\n      0xe0\n      shl\n      dup2\n      mstore\n      0x04\n      add\n      tag_21\n      swap3\n      swap2\n      swap1\n      tag_22\n      jump\t// in\n    tag_21:\n      0x00\n      mload(0x40)\n      dup1\n      dup4\n      sub\n      dup2\n      0x00\n      dup8\n      dup1\n      extcodesize\n      iszero\n      dup1\n      iszero\n      tag_23\n      jumpi\n      0x00\n      dup1\n      revert\n    tag_23:\n      pop\n      gas\n      call\n      iszero\n      dup1\n      iszero\n      tag_25\n      jumpi\n      returndatasize\n      0x00\n      dup1\n      returndatacopy\n      revert(0x00, returndatasize)\n    tag_25:\n      pop\n      pop\n      pop\n      pop\n        /* \"contracts/Airdrop.sol\":483:486  i++ */\n      dup1\n      dup1\n      tag_26\n      swap1\n      tag_27\n      jump\t// in\n    tag_26:\n      swap2\n      pop\n      pop\n        /* \"contracts/Airdrop.sol\":441:594  for (uint8 i = 0; i<_addressArray.length; i++) ... */\n      jump(tag_13)\n    tag_14:\n      pop\n        /* \"contracts/Airdrop.sol\":269:601  function airdropWithTransfer(... */\n      pop\n      pop\n      pop\n      jump\t// out\n        /* \"contracts/Airdrop.sol\":611:963  function airdropWithTransferFrom(... */\n    tag_11:\n        /* \"contracts/Airdrop.sol\":792:799  uint8 i */\n      0x00\n        /* \"contracts/Airdrop.sol\":787:956  for (uint8 i = 0; i<_addressArray.length; i++) ... */\n    tag_29:\n        /* \"contracts/Airdrop.sol\":807:820  _addressArray */\n      dup3\n        /* \"contracts/Airdrop.sol\":807:827  _addressArray.length */\n      mload\n        /* \"contracts/Airdrop.sol\":805:806  i */\n      dup2\n        /* \"contracts/Airdrop.sol\":805:827  i<_addressArray.length */\n      0xff\n      and\n      lt\n        /* \"contracts/Airdrop.sol\":787:956  for (uint8 i = 0; i<_addressArray.length; i++) ... */\n      iszero\n      tag_30\n      jumpi\n        /* \"contracts/Airdrop.sol\":867:880  _tokenAddress */\n      dup4\n        /* \"contracts/Airdrop.sol\":867:893  _tokenAddress.transferFrom */\n      0xffffffffffffffffffffffffffffffffffffffff\n      and\n      0x23b872dd\n        /* \"contracts/Airdrop.sol\":894:904  msg.sender */\n      caller\n        /* \"contracts/Airdrop.sol\":906:919  _addressArray */\n      dup6\n        /* \"contracts/Airdrop.sol\":920:921  i */\n      dup5\n        /* \"contracts/Airdrop.sol\":906:922  _addressArray[i] */\n      0xff\n      and\n      dup2\n      mload\n      dup2\n      lt\n      tag_32\n      jumpi\n      tag_33\n      tag_18\n      jump\t// in\n    tag_33:\n    tag_32:\n      0x20\n      mul\n      0x20\n      add\n      add\n      mload\n        /* \"contracts/Airdrop.sol\":924:936  _amountArray */\n      dup6\n        /* \"contracts/Airdrop.sol\":937:938  i */\n      dup6\n        /* \"contracts/Airdrop.sol\":924:939  _amountArray[i] */\n      0xff\n      and\n      dup2\n      mload\n      dup2\n      lt\n      tag_34\n      jumpi\n      tag_35\n      tag_18\n      jump\t// in\n    tag_35:\n    tag_34:\n      0x20\n      mul\n      0x20\n      add\n      add\n      mload\n        /* \"contracts/Airdrop.sol\":867:940  _tokenAddress.transferFrom(msg.sender, _addressArray[i], _amountArray[i]) */\n      mload(0x40)\n      dup5\n      0xffffffff\n      and\n      0xe0\n      shl\n      dup2\n      mstore\n      0x04\n      add\n      tag_36\n      swap4\n      swap3\n      swap2\n      swap1\n      tag_37\n      jump\t// in\n    tag_36:\n      0x00\n      mload(0x40)\n      dup1\n      dup4\n      sub\n      dup2\n      0x00\n      dup8\n      dup1\n      extcodesize\n      iszero\n      dup1\n      iszero\n      tag_38\n      jumpi\n      0x00\n      dup1\n      revert\n    tag_38:\n      pop\n      gas\n      call\n      iszero\n      dup1\n      iszero\n      tag_40\n      jumpi\n      returndatasize\n      0x00\n      dup1\n      returndatacopy\n      revert(0x00, returndatasize)\n    tag_40:\n      pop\n      pop\n      pop\n      pop\n        /* \"contracts/Airdrop.sol\":829:832  i++ */\n      dup1\n      dup1\n      tag_41\n      swap1\n      tag_27\n      jump\t// in\n    tag_41:\n      swap2\n      pop\n      pop\n        /* \"contracts/Airdrop.sol\":787:956  for (uint8 i = 0; i<_addressArray.length; i++) ... */\n      jump(tag_29)\n    tag_30:\n      pop\n        /* \"contracts/Airdrop.sol\":611:963  function airdropWithTransferFrom(... */\n      pop\n      pop\n      pop\n      jump\t// out\n        /* \"#utility.yul\":7:82   */\n    tag_42:\n        /* \"#utility.yul\":40:46   */\n      0x00\n        /* \"#utility.yul\":73:75   */\n      0x40\n        /* \"#utility.yul\":67:76   */\n      mload\n        /* \"#utility.yul\":57:76   */\n      swap1\n      pop\n        /* \"#utility.yul\":7:82   */\n      swap1\n      jump\t// out\n        /* \"#utility.yul\":88:205   */\n    tag_43:\n        /* \"#utility.yul\":197:198   */\n      0x00\n        /* \"#utility.yul\":194:195   */\n      dup1\n        /* \"#utility.yul\":187:199   */\n      revert\n        /* \"#utility.yul\":211:328   */\n    tag_44:\n        /* \"#utility.yul\":320:321   */\n      0x00\n        /* \"#utility.yul\":317:318   */\n      dup1\n        /* \"#utility.yul\":310:322   */\n      revert\n        /* \"#utility.yul\":334:460   */\n    tag_45:\n        /* \"#utility.yul\":371:378   */\n      0x00\n        /* \"#utility.yul\":411:453   */\n      0xffffffffffffffffffffffffffffffffffffffff\n        /* \"#utility.yul\":404:409   */\n      dup3\n        /* \"#utility.yul\":400:454   */\n      and\n        /* \"#utility.yul\":389:454   */\n      swap1\n      pop\n        /* \"#utility.yul\":334:460   */\n      swap2\n      swap1\n      pop\n      jump\t// out\n        /* \"#utility.yul\":466:562   */\n    tag_46:\n        /* \"#utility.yul\":503:510   */\n      0x00\n        /* \"#utility.yul\":532:556   */\n      tag_77\n        /* \"#utility.yul\":550:555   */\n      dup3\n        /* \"#utility.yul\":532:556   */\n      tag_45\n      jump\t// in\n    tag_77:\n        /* \"#utility.yul\":521:556   */\n      swap1\n      pop\n        /* \"#utility.yul\":466:562   */\n      swap2\n      swap1\n      pop\n      jump\t// out\n        /* \"#utility.yul\":568:681   */\n    tag_47:\n        /* \"#utility.yul\":622:629   */\n      0x00\n        /* \"#utility.yul\":651:675   */\n      tag_79\n        /* \"#utility.yul\":669:674   */\n      dup3\n        /* \"#utility.yul\":651:675   */\n      tag_46\n      jump\t// in\n    tag_79:\n        /* \"#utility.yul\":640:675   */\n      swap1\n      pop\n        /* \"#utility.yul\":568:681   */\n      swap2\n      swap1\n      pop\n      jump\t// out\n        /* \"#utility.yul\":687:843   */\n    tag_48:\n        /* \"#utility.yul\":777:818   */\n      tag_81\n        /* \"#utility.yul\":812:817   */\n      dup2\n        /* \"#utility.yul\":777:818   */\n      tag_47\n      jump\t// in\n    tag_81:\n        /* \"#utility.yul\":770:775   */\n      dup2\n        /* \"#utility.yul\":767:819   */\n      eq\n        /* \"#utility.yul\":757:837   */\n      tag_82\n      jumpi\n        /* \"#utility.yul\":833:834   */\n      0x00\n        /* \"#utility.yul\":830:831   */\n      dup1\n        /* \"#utility.yul\":823:835   */\n      revert\n        /* \"#utility.yul\":757:837   */\n    tag_82:\n        /* \"#utility.yul\":687:843   */\n      pop\n      jump\t// out\n        /* \"#utility.yul\":849:1022   */\n    tag_49:\n        /* \"#utility.yul\":912:917   */\n      0x00\n        /* \"#utility.yul\":950:956   */\n      dup2\n        /* \"#utility.yul\":937:957   */\n      calldataload\n        /* \"#utility.yul\":928:957   */\n      swap1\n      pop\n        /* \"#utility.yul\":966:1016   */\n      tag_84\n        /* \"#utility.yul\":1010:1015   */\n      dup2\n        /* \"#utility.yul\":966:1016   */\n      tag_48\n      jump\t// in\n    tag_84:\n        /* \"#utility.yul\":849:1022   */\n      swap3\n      swap2\n      pop\n      pop\n      jump\t// out\n        /* \"#utility.yul\":1028:1145   */\n    tag_50:\n        /* \"#utility.yul\":1137:1138   */\n      0x00\n        /* \"#utility.yul\":1134:1135   */\n      dup1\n        /* \"#utility.yul\":1127:1139   */\n      revert\n        /* \"#utility.yul\":1151:1253   */\n    tag_51:\n        /* \"#utility.yul\":1192:1198   */\n      0x00\n        /* \"#utility.yul\":1243:1245   */\n      0x1f\n        /* \"#utility.yul\":1239:1246   */\n      not\n        /* \"#utility.yul\":1234:1236   */\n      0x1f\n        /* \"#utility.yul\":1227:1232   */\n      dup4\n        /* \"#utility.yul\":1223:1237   */\n      add\n        /* \"#utility.yul\":1219:1247   */\n      and\n        /* \"#utility.yul\":1209:1247   */\n      swap1\n      pop\n        /* \"#utility.yul\":1151:1253   */\n      swap2\n      swap1\n      pop\n      jump\t// out\n        /* \"#utility.yul\":1259:1439   */\n    tag_52:\n        /* \"#utility.yul\":1307:1384   */\n      0x4e487b7100000000000000000000000000000000000000000000000000000000\n        /* \"#utility.yul\":1304:1305   */\n      0x00\n        /* \"#utility.yul\":1297:1385   */\n      mstore\n        /* \"#utility.yul\":1404:1408   */\n      0x41\n        /* \"#utility.yul\":1401:1402   */\n      0x04\n        /* \"#utility.yul\":1394:1409   */\n      mstore\n        /* \"#utility.yul\":1428:1432   */\n      0x24\n        /* \"#utility.yul\":1425:1426   */\n      0x00\n        /* \"#utility.yul\":1418:1433   */\n      revert\n        /* \"#utility.yul\":1445:1726   */\n    tag_53:\n        /* \"#utility.yul\":1528:1555   */\n      tag_89\n        /* \"#utility.yul\":1550:1554   */\n      dup3\n        /* \"#utility.yul\":1528:1555   */\n      tag_51\n      jump\t// in\n    tag_89:\n        /* \"#utility.yul\":1520:1526   */\n      dup2\n        /* \"#utility.yul\":1516:1556   */\n      add\n        /* \"#utility.yul\":1658:1664   */\n      dup2\n        /* \"#utility.yul\":1646:1656   */\n      dup2\n        /* \"#utility.yul\":1643:1665   */\n      lt\n        /* \"#utility.yul\":1622:1640   */\n      0xffffffffffffffff\n        /* \"#utility.yul\":1610:1620   */\n      dup3\n        /* \"#utility.yul\":1607:1641   */\n      gt\n        /* \"#utility.yul\":1604:1666   */\n      or\n        /* \"#utility.yul\":1601:1689   */\n      iszero\n      tag_90\n      jumpi\n        /* \"#utility.yul\":1669:1687   */\n      tag_91\n      tag_52\n      jump\t// in\n    tag_91:\n        /* \"#utility.yul\":1601:1689   */\n    tag_90:\n        /* \"#utility.yul\":1709:1719   */\n      dup1\n        /* \"#utility.yul\":1705:1707   */\n      0x40\n        /* \"#utility.yul\":1698:1720   */\n      mstore\n        /* \"#utility.yul\":1488:1726   */\n      pop\n        /* \"#utility.yul\":1445:1726   */\n      pop\n      pop\n      jump\t// out\n        /* \"#utility.yul\":1732:1861   */\n    tag_54:\n        /* \"#utility.yul\":1766:1772   */\n      0x00\n        /* \"#utility.yul\":1793:1813   */\n      tag_93\n      tag_42\n      jump\t// in\n    tag_93:\n        /* \"#utility.yul\":1783:1813   */\n      swap1\n      pop\n        /* \"#utility.yul\":1822:1855   */\n      tag_94\n        /* \"#utility.yul\":1850:1854   */\n      dup3\n        /* \"#utility.yul\":1842:1848   */\n      dup3\n        /* \"#utility.yul\":1822:1855   */\n      tag_53\n      jump\t// in\n    tag_94:\n        /* \"#utility.yul\":1732:1861   */\n      swap2\n      swap1\n      pop\n      jump\t// out\n        /* \"#utility.yul\":1867:2178   */\n    tag_55:\n        /* \"#utility.yul\":1944:1948   */\n      0x00\n        /* \"#utility.yul\":2034:2052   */\n      0xffffffffffffffff\n        /* \"#utility.yul\":2026:2032   */\n      dup3\n        /* \"#utility.yul\":2023:2053   */\n      gt\n        /* \"#utility.yul\":2020:2076   */\n      iszero\n      tag_96\n      jumpi\n        /* \"#utility.yul\":2056:2074   */\n      tag_97\n      tag_52\n      jump\t// in\n    tag_97:\n        /* \"#utility.yul\":2020:2076   */\n    tag_96:\n        /* \"#utility.yul\":2106:2110   */\n      0x20\n        /* \"#utility.yul\":2098:2104   */\n      dup3\n        /* \"#utility.yul\":2094:2111   */\n      mul\n        /* \"#utility.yul\":2086:2111   */\n      swap1\n      pop\n        /* \"#utility.yul\":2166:2170   */\n      0x20\n        /* \"#utility.yul\":2160:2164   */\n      dup2\n        /* \"#utility.yul\":2156:2171   */\n      add\n        /* \"#utility.yul\":2148:2171   */\n      swap1\n      pop\n        /* \"#utility.yul\":1867:2178   */\n      swap2\n      swap1\n      pop\n      jump\t// out\n        /* \"#utility.yul\":2184:2301   */\n    tag_56:\n        /* \"#utility.yul\":2293:2294   */\n      0x00\n        /* \"#utility.yul\":2290:2291   */\n      dup1\n        /* \"#utility.yul\":2283:2295   */\n      revert\n        /* \"#utility.yul\":2307:2429   */\n    tag_57:\n        /* \"#utility.yul\":2380:2404   */\n      tag_100\n        /* \"#utility.yul\":2398:2403   */\n      dup2\n        /* \"#utility.yul\":2380:2404   */\n      tag_46\n      jump\t// in\n    tag_100:\n        /* \"#utility.yul\":2373:2378   */\n      dup2\n        /* \"#utility.yul\":2370:2405   */\n      eq\n        /* \"#utility.yul\":2360:2423   */\n      tag_101\n      jumpi\n        /* \"#utility.yul\":2419:2420   */\n      0x00\n        /* \"#utility.yul\":2416:2417   */\n      dup1\n        /* \"#utility.yul\":2409:2421   */\n      revert\n        /* \"#utility.yul\":2360:2423   */\n    tag_101:\n        /* \"#utility.yul\":2307:2429   */\n      pop\n      jump\t// out\n        /* \"#utility.yul\":2435:2574   */\n    tag_58:\n        /* \"#utility.yul\":2481:2486   */\n      0x00\n        /* \"#utility.yul\":2519:2525   */\n      dup2\n        /* \"#utility.yul\":2506:2526   */\n      calldataload\n        /* \"#utility.yul\":2497:2526   */\n      swap1\n      pop\n        /* \"#utility.yul\":2535:2568   */\n      tag_103\n        /* \"#utility.yul\":2562:2567   */\n      dup2\n        /* \"#utility.yul\":2535:2568   */\n      tag_57\n      jump\t// in\n    tag_103:\n        /* \"#utility.yul\":2435:2574   */\n      swap3\n      swap2\n      pop\n      pop\n      jump\t// out\n        /* \"#utility.yul\":2597:3307   */\n    tag_59:\n        /* \"#utility.yul\":2693:2698   */\n      0x00\n        /* \"#utility.yul\":2718:2799   */\n      tag_105\n        /* \"#utility.yul\":2734:2798   */\n      tag_106\n        /* \"#utility.yul\":2791:2797   */\n      dup5\n        /* \"#utility.yul\":2734:2798   */\n      tag_55\n      jump\t// in\n    tag_106:\n        /* \"#utility.yul\":2718:2799   */\n      tag_54\n      jump\t// in\n    tag_105:\n        /* \"#utility.yul\":2709:2799   */\n      swap1\n      pop\n        /* \"#utility.yul\":2819:2824   */\n      dup1\n        /* \"#utility.yul\":2848:2854   */\n      dup4\n        /* \"#utility.yul\":2841:2846   */\n      dup3\n        /* \"#utility.yul\":2834:2855   */\n      mstore\n        /* \"#utility.yul\":2882:2886   */\n      0x20\n        /* \"#utility.yul\":2875:2880   */\n      dup3\n        /* \"#utility.yul\":2871:2887   */\n      add\n        /* \"#utility.yul\":2864:2887   */\n      swap1\n      pop\n        /* \"#utility.yul\":2935:2939   */\n      0x20\n        /* \"#utility.yul\":2927:2933   */\n      dup5\n        /* \"#utility.yul\":2923:2940   */\n      mul\n        /* \"#utility.yul\":2915:2921   */\n      dup4\n        /* \"#utility.yul\":2911:2941   */\n      add\n        /* \"#utility.yul\":2964:2967   */\n      dup6\n        /* \"#utility.yul\":2956:2962   */\n      dup2\n        /* \"#utility.yul\":2953:2968   */\n      gt\n        /* \"#utility.yul\":2950:3072   */\n      iszero\n      tag_107\n      jumpi\n        /* \"#utility.yul\":2983:3062   */\n      tag_108\n      tag_56\n      jump\t// in\n    tag_108:\n        /* \"#utility.yul\":2950:3072   */\n    tag_107:\n        /* \"#utility.yul\":3098:3104   */\n      dup4\n        /* \"#utility.yul\":3081:3301   */\n    tag_109:\n        /* \"#utility.yul\":3115:3121   */\n      dup2\n        /* \"#utility.yul\":3110:3113   */\n      dup2\n        /* \"#utility.yul\":3107:3122   */\n      lt\n        /* \"#utility.yul\":3081:3301   */\n      iszero\n      tag_111\n      jumpi\n        /* \"#utility.yul\":3190:3193   */\n      dup1\n        /* \"#utility.yul\":3219:3256   */\n      tag_112\n        /* \"#utility.yul\":3252:3255   */\n      dup9\n        /* \"#utility.yul\":3240:3250   */\n      dup3\n        /* \"#utility.yul\":3219:3256   */\n      tag_58\n      jump\t// in\n    tag_112:\n        /* \"#utility.yul\":3214:3217   */\n      dup5\n        /* \"#utility.yul\":3207:3257   */\n      mstore\n        /* \"#utility.yul\":3286:3290   */\n      0x20\n        /* \"#utility.yul\":3281:3284   */\n      dup5\n        /* \"#utility.yul\":3277:3291   */\n      add\n        /* \"#utility.yul\":3270:3291   */\n      swap4\n      pop\n        /* \"#utility.yul\":3157:3301   */\n      pop\n        /* \"#utility.yul\":3141:3145   */\n      0x20\n        /* \"#utility.yul\":3136:3139   */\n      dup2\n        /* \"#utility.yul\":3132:3146   */\n      add\n        /* \"#utility.yul\":3125:3146   */\n      swap1\n      pop\n        /* \"#utility.yul\":3081:3301   */\n      jump(tag_109)\n    tag_111:\n        /* \"#utility.yul\":3085:3106   */\n      pop\n        /* \"#utility.yul\":2699:3307   */\n      pop\n      pop\n        /* \"#utility.yul\":2597:3307   */\n      swap4\n      swap3\n      pop\n      pop\n      pop\n      jump\t// out\n        /* \"#utility.yul\":3330:3700   */\n    tag_60:\n        /* \"#utility.yul\":3401:3406   */\n      0x00\n        /* \"#utility.yul\":3450:3453   */\n      dup3\n        /* \"#utility.yul\":3443:3447   */\n      0x1f\n        /* \"#utility.yul\":3435:3441   */\n      dup4\n        /* \"#utility.yul\":3431:3448   */\n      add\n        /* \"#utility.yul\":3427:3454   */\n      slt\n        /* \"#utility.yul\":3417:3539   */\n      tag_114\n      jumpi\n        /* \"#utility.yul\":3458:3537   */\n      tag_115\n      tag_50\n      jump\t// in\n    tag_115:\n        /* \"#utility.yul\":3417:3539   */\n    tag_114:\n        /* \"#utility.yul\":3575:3581   */\n      dup2\n        /* \"#utility.yul\":3562:3582   */\n      calldataload\n        /* \"#utility.yul\":3600:3694   */\n      tag_116\n        /* \"#utility.yul\":3690:3693   */\n      dup5\n        /* \"#utility.yul\":3682:3688   */\n      dup3\n        /* \"#utility.yul\":3675:3679   */\n      0x20\n        /* \"#utility.yul\":3667:3673   */\n      dup7\n        /* \"#utility.yul\":3663:3680   */\n      add\n        /* \"#utility.yul\":3600:3694   */\n      tag_59\n      jump\t// in\n    tag_116:\n        /* \"#utility.yul\":3591:3694   */\n      swap2\n      pop\n        /* \"#utility.yul\":3407:3700   */\n      pop\n        /* \"#utility.yul\":3330:3700   */\n      swap3\n      swap2\n      pop\n      pop\n      jump\t// out\n        /* \"#utility.yul\":3706:4017   */\n    tag_61:\n        /* \"#utility.yul\":3783:3787   */\n      0x00\n        /* \"#utility.yul\":3873:3891   */\n      0xffffffffffffffff\n        /* \"#utility.yul\":3865:3871   */\n      dup3\n        /* \"#utility.yul\":3862:3892   */\n      gt\n        /* \"#utility.yul\":3859:3915   */\n      iszero\n      tag_118\n      jumpi\n        /* \"#utility.yul\":3895:3913   */\n      tag_119\n      tag_52\n      jump\t// in\n    tag_119:\n        /* \"#utility.yul\":3859:3915   */\n    tag_118:\n        /* \"#utility.yul\":3945:3949   */\n      0x20\n        /* \"#utility.yul\":3937:3943   */\n      dup3\n        /* \"#utility.yul\":3933:3950   */\n      mul\n        /* \"#utility.yul\":3925:3950   */\n      swap1\n      pop\n        /* \"#utility.yul\":4005:4009   */\n      0x20\n        /* \"#utility.yul\":3999:4003   */\n      dup2\n        /* \"#utility.yul\":3995:4010   */\n      add\n        /* \"#utility.yul\":3987:4010   */\n      swap1\n      pop\n        /* \"#utility.yul\":3706:4017   */\n      swap2\n      swap1\n      pop\n      jump\t// out\n        /* \"#utility.yul\":4023:4100   */\n    tag_62:\n        /* \"#utility.yul\":4060:4067   */\n      0x00\n        /* \"#utility.yul\":4089:4094   */\n      dup2\n        /* \"#utility.yul\":4078:4094   */\n      swap1\n      pop\n        /* \"#utility.yul\":4023:4100   */\n      swap2\n      swap1\n      pop\n      jump\t// out\n        /* \"#utility.yul\":4106:4228   */\n    tag_63:\n        /* \"#utility.yul\":4179:4203   */\n      tag_122\n        /* \"#utility.yul\":4197:4202   */\n      dup2\n        /* \"#utility.yul\":4179:4203   */\n      tag_62\n      jump\t// in\n    tag_122:\n        /* \"#utility.yul\":4172:4177   */\n      dup2\n        /* \"#utility.yul\":4169:4204   */\n      eq\n        /* \"#utility.yul\":4159:4222   */\n      tag_123\n      jumpi\n        /* \"#utility.yul\":4218:4219   */\n      0x00\n        /* \"#utility.yul\":4215:4216   */\n      dup1\n        /* \"#utility.yul\":4208:4220   */\n      revert\n        /* \"#utility.yul\":4159:4222   */\n    tag_123:\n        /* \"#utility.yul\":4106:4228   */\n      pop\n      jump\t// out\n        /* \"#utility.yul\":4234:4373   */\n    tag_64:\n        /* \"#utility.yul\":4280:4285   */\n      0x00\n        /* \"#utility.yul\":4318:4324   */\n      dup2\n        /* \"#utility.yul\":4305:4325   */\n      calldataload\n        /* \"#utility.yul\":4296:4325   */\n      swap1\n      pop\n        /* \"#utility.yul\":4334:4367   */\n      tag_125\n        /* \"#utility.yul\":4361:4366   */\n      dup2\n        /* \"#utility.yul\":4334:4367   */\n      tag_63\n      jump\t// in\n    tag_125:\n        /* \"#utility.yul\":4234:4373   */\n      swap3\n      swap2\n      pop\n      pop\n      jump\t// out\n        /* \"#utility.yul\":4396:5106   */\n    tag_65:\n        /* \"#utility.yul\":4492:4497   */\n      0x00\n        /* \"#utility.yul\":4517:4598   */\n      tag_127\n        /* \"#utility.yul\":4533:4597   */\n      tag_128\n        /* \"#utility.yul\":4590:4596   */\n      dup5\n        /* \"#utility.yul\":4533:4597   */\n      tag_61\n      jump\t// in\n    tag_128:\n        /* \"#utility.yul\":4517:4598   */\n      tag_54\n      jump\t// in\n    tag_127:\n        /* \"#utility.yul\":4508:4598   */\n      swap1\n      pop\n        /* \"#utility.yul\":4618:4623   */\n      dup1\n        /* \"#utility.yul\":4647:4653   */\n      dup4\n        /* \"#utility.yul\":4640:4645   */\n      dup3\n        /* \"#utility.yul\":4633:4654   */\n      mstore\n        /* \"#utility.yul\":4681:4685   */\n      0x20\n        /* \"#utility.yul\":4674:4679   */\n      dup3\n        /* \"#utility.yul\":4670:4686   */\n      add\n        /* \"#utility.yul\":4663:4686   */\n      swap1\n      pop\n        /* \"#utility.yul\":4734:4738   */\n      0x20\n        /* \"#utility.yul\":4726:4732   */\n      dup5\n        /* \"#utility.yul\":4722:4739   */\n      mul\n        /* \"#utility.yul\":4714:4720   */\n      dup4\n        /* \"#utility.yul\":4710:4740   */\n      add\n        /* \"#utility.yul\":4763:4766   */\n      dup6\n        /* \"#utility.yul\":4755:4761   */\n      dup2\n        /* \"#utility.yul\":4752:4767   */\n      gt\n        /* \"#utility.yul\":4749:4871   */\n      iszero\n      tag_129\n      jumpi\n        /* \"#utility.yul\":4782:4861   */\n      tag_130\n      tag_56\n      jump\t// in\n    tag_130:\n        /* \"#utility.yul\":4749:4871   */\n    tag_129:\n        /* \"#utility.yul\":4897:4903   */\n      dup4\n        /* \"#utility.yul\":4880:5100   */\n    tag_131:\n        /* \"#utility.yul\":4914:4920   */\n      dup2\n        /* \"#utility.yul\":4909:4912   */\n      dup2\n        /* \"#utility.yul\":4906:4921   */\n      lt\n        /* \"#utility.yul\":4880:5100   */\n      iszero\n      tag_133\n      jumpi\n        /* \"#utility.yul\":4989:4992   */\n      dup1\n        /* \"#utility.yul\":5018:5055   */\n      tag_134\n        /* \"#utility.yul\":5051:5054   */\n      dup9\n        /* \"#utility.yul\":5039:5049   */\n      dup3\n        /* \"#utility.yul\":5018:5055   */\n      tag_64\n      jump\t// in\n    tag_134:\n        /* \"#utility.yul\":5013:5016   */\n      dup5\n        /* \"#utility.yul\":5006:5056   */\n      mstore\n        /* \"#utility.yul\":5085:5089   */\n      0x20\n        /* \"#utility.yul\":5080:5083   */\n      dup5\n        /* \"#utility.yul\":5076:5090   */\n      add\n        /* \"#utility.yul\":5069:5090   */\n      swap4\n      pop\n        /* \"#utility.yul\":4956:5100   */\n      pop\n        /* \"#utility.yul\":4940:4944   */\n      0x20\n        /* \"#utility.yul\":4935:4938   */\n      dup2\n        /* \"#utility.yul\":4931:4945   */\n      add\n        /* \"#utility.yul\":4924:4945   */\n      swap1\n      pop\n        /* \"#utility.yul\":4880:5100   */\n      jump(tag_131)\n    tag_133:\n        /* \"#utility.yul\":4884:4905   */\n      pop\n        /* \"#utility.yul\":4498:5106   */\n      pop\n      pop\n        /* \"#utility.yul\":4396:5106   */\n      swap4\n      swap3\n      pop\n      pop\n      pop\n      jump\t// out\n        /* \"#utility.yul\":5129:5499   */\n    tag_66:\n        /* \"#utility.yul\":5200:5205   */\n      0x00\n        /* \"#utility.yul\":5249:5252   */\n      dup3\n        /* \"#utility.yul\":5242:5246   */\n      0x1f\n        /* \"#utility.yul\":5234:5240   */\n      dup4\n        /* \"#utility.yul\":5230:5247   */\n      add\n        /* \"#utility.yul\":5226:5253   */\n      slt\n        /* \"#utility.yul\":5216:5338   */\n      tag_136\n      jumpi\n        /* \"#utility.yul\":5257:5336   */\n      tag_137\n      tag_50\n      jump\t// in\n    tag_137:\n        /* \"#utility.yul\":5216:5338   */\n    tag_136:\n        /* \"#utility.yul\":5374:5380   */\n      dup2\n        /* \"#utility.yul\":5361:5381   */\n      calldataload\n        /* \"#utility.yul\":5399:5493   */\n      tag_138\n        /* \"#utility.yul\":5489:5492   */\n      dup5\n        /* \"#utility.yul\":5481:5487   */\n      dup3\n        /* \"#utility.yul\":5474:5478   */\n      0x20\n        /* \"#utility.yul\":5466:5472   */\n      dup7\n        /* \"#utility.yul\":5462:5479   */\n      add\n        /* \"#utility.yul\":5399:5493   */\n      tag_65\n      jump\t// in\n    tag_138:\n        /* \"#utility.yul\":5390:5493   */\n      swap2\n      pop\n        /* \"#utility.yul\":5206:5499   */\n      pop\n        /* \"#utility.yul\":5129:5499   */\n      swap3\n      swap2\n      pop\n      pop\n      jump\t// out\n        /* \"#utility.yul\":5505:6578   */\n    tag_7:\n        /* \"#utility.yul\":5649:5655   */\n      0x00\n        /* \"#utility.yul\":5657:5663   */\n      dup1\n        /* \"#utility.yul\":5665:5671   */\n      0x00\n        /* \"#utility.yul\":5714:5716   */\n      0x60\n        /* \"#utility.yul\":5702:5711   */\n      dup5\n        /* \"#utility.yul\":5693:5700   */\n      dup7\n        /* \"#utility.yul\":5689:5712   */\n      sub\n        /* \"#utility.yul\":5685:5717   */\n      slt\n        /* \"#utility.yul\":5682:5801   */\n      iszero\n      tag_140\n      jumpi\n        /* \"#utility.yul\":5720:5799   */\n      tag_141\n      tag_43\n      jump\t// in\n    tag_141:\n        /* \"#utility.yul\":5682:5801   */\n    tag_140:\n        /* \"#utility.yul\":5840:5841   */\n      0x00\n        /* \"#utility.yul\":5865:5935   */\n      tag_142\n        /* \"#utility.yul\":5927:5934   */\n      dup7\n        /* \"#utility.yul\":5918:5924   */\n      dup3\n        /* \"#utility.yul\":5907:5916   */\n      dup8\n        /* \"#utility.yul\":5903:5925   */\n      add\n        /* \"#utility.yul\":5865:5935   */\n      tag_49\n      jump\t// in\n    tag_142:\n        /* \"#utility.yul\":5855:5935   */\n      swap4\n      pop\n        /* \"#utility.yul\":5811:5945   */\n      pop\n        /* \"#utility.yul\":6012:6014   */\n      0x20\n        /* \"#utility.yul\":6001:6010   */\n      dup5\n        /* \"#utility.yul\":5997:6015   */\n      add\n        /* \"#utility.yul\":5984:6016   */\n      calldataload\n        /* \"#utility.yul\":6043:6061   */\n      0xffffffffffffffff\n        /* \"#utility.yul\":6035:6041   */\n      dup2\n        /* \"#utility.yul\":6032:6062   */\n      gt\n        /* \"#utility.yul\":6029:6146   */\n      iszero\n      tag_143\n      jumpi\n        /* \"#utility.yul\":6065:6144   */\n      tag_144\n      tag_44\n      jump\t// in\n    tag_144:\n        /* \"#utility.yul\":6029:6146   */\n    tag_143:\n        /* \"#utility.yul\":6170:6248   */\n      tag_145\n        /* \"#utility.yul\":6240:6247   */\n      dup7\n        /* \"#utility.yul\":6231:6237   */\n      dup3\n        /* \"#utility.yul\":6220:6229   */\n      dup8\n        /* \"#utility.yul\":6216:6238   */\n      add\n        /* \"#utility.yul\":6170:6248   */\n      tag_60\n      jump\t// in\n    tag_145:\n        /* \"#utility.yul\":6160:6248   */\n      swap3\n      pop\n        /* \"#utility.yul\":5955:6258   */\n      pop\n        /* \"#utility.yul\":6325:6327   */\n      0x40\n        /* \"#utility.yul\":6314:6323   */\n      dup5\n        /* \"#utility.yul\":6310:6328   */\n      add\n        /* \"#utility.yul\":6297:6329   */\n      calldataload\n        /* \"#utility.yul\":6356:6374   */\n      0xffffffffffffffff\n        /* \"#utility.yul\":6348:6354   */\n      dup2\n        /* \"#utility.yul\":6345:6375   */\n      gt\n        /* \"#utility.yul\":6342:6459   */\n      iszero\n      tag_146\n      jumpi\n        /* \"#utility.yul\":6378:6457   */\n      tag_147\n      tag_44\n      jump\t// in\n    tag_147:\n        /* \"#utility.yul\":6342:6459   */\n    tag_146:\n        /* \"#utility.yul\":6483:6561   */\n      tag_148\n        /* \"#utility.yul\":6553:6560   */\n      dup7\n        /* \"#utility.yul\":6544:6550   */\n      dup3\n        /* \"#utility.yul\":6533:6542   */\n      dup8\n        /* \"#utility.yul\":6529:6551   */\n      add\n        /* \"#utility.yul\":6483:6561   */\n      tag_66\n      jump\t// in\n    tag_148:\n        /* \"#utility.yul\":6473:6561   */\n      swap2\n      pop\n        /* \"#utility.yul\":6268:6571   */\n      pop\n        /* \"#utility.yul\":5505:6578   */\n      swap3\n      pop\n      swap3\n      pop\n      swap3\n      jump\t// out\n        /* \"#utility.yul\":6584:6764   */\n    tag_18:\n        /* \"#utility.yul\":6632:6709   */\n      0x4e487b7100000000000000000000000000000000000000000000000000000000\n        /* \"#utility.yul\":6629:6630   */\n      0x00\n        /* \"#utility.yul\":6622:6710   */\n      mstore\n        /* \"#utility.yul\":6729:6733   */\n      0x32\n        /* \"#utility.yul\":6726:6727   */\n      0x04\n        /* \"#utility.yul\":6719:6734   */\n      mstore\n        /* \"#utility.yul\":6753:6757   */\n      0x24\n        /* \"#utility.yul\":6750:6751   */\n      0x00\n        /* \"#utility.yul\":6743:6758   */\n      revert\n        /* \"#utility.yul\":6770:6888   */\n    tag_67:\n        /* \"#utility.yul\":6857:6881   */\n      tag_151\n        /* \"#utility.yul\":6875:6880   */\n      dup2\n        /* \"#utility.yul\":6857:6881   */\n      tag_46\n      jump\t// in\n    tag_151:\n        /* \"#utility.yul\":6852:6855   */\n      dup3\n        /* \"#utility.yul\":6845:6882   */\n      mstore\n        /* \"#utility.yul\":6770:6888   */\n      pop\n      pop\n      jump\t// out\n        /* \"#utility.yul\":6894:7012   */\n    tag_68:\n        /* \"#utility.yul\":6981:7005   */\n      tag_153\n        /* \"#utility.yul\":6999:7004   */\n      dup2\n        /* \"#utility.yul\":6981:7005   */\n      tag_62\n      jump\t// in\n    tag_153:\n        /* \"#utility.yul\":6976:6979   */\n      dup3\n        /* \"#utility.yul\":6969:7006   */\n      mstore\n        /* \"#utility.yul\":6894:7012   */\n      pop\n      pop\n      jump\t// out\n        /* \"#utility.yul\":7018:7350   */\n    tag_22:\n        /* \"#utility.yul\":7139:7143   */\n      0x00\n        /* \"#utility.yul\":7177:7179   */\n      0x40\n        /* \"#utility.yul\":7166:7175   */\n      dup3\n        /* \"#utility.yul\":7162:7180   */\n      add\n        /* \"#utility.yul\":7154:7180   */\n      swap1\n      pop\n        /* \"#utility.yul\":7190:7261   */\n      tag_155\n        /* \"#utility.yul\":7258:7259   */\n      0x00\n        /* \"#utility.yul\":7247:7256   */\n      dup4\n        /* \"#utility.yul\":7243:7260   */\n      add\n        /* \"#utility.yul\":7234:7240   */\n      dup6\n        /* \"#utility.yul\":7190:7261   */\n      tag_67\n      jump\t// in\n    tag_155:\n        /* \"#utility.yul\":7271:7343   */\n      tag_156\n        /* \"#utility.yul\":7339:7341   */\n      0x20\n        /* \"#utility.yul\":7328:7337   */\n      dup4\n        /* \"#utility.yul\":7324:7342   */\n      add\n        /* \"#utility.yul\":7315:7321   */\n      dup5\n        /* \"#utility.yul\":7271:7343   */\n      tag_68\n      jump\t// in\n    tag_156:\n        /* \"#utility.yul\":7018:7350   */\n      swap4\n      swap3\n      pop\n      pop\n      pop\n      jump\t// out\n        /* \"#utility.yul\":7356:7536   */\n    tag_69:\n        /* \"#utility.yul\":7404:7481   */\n      0x4e487b7100000000000000000000000000000000000000000000000000000000\n        /* \"#utility.yul\":7401:7402   */\n      0x00\n        /* \"#utility.yul\":7394:7482   */\n      mstore\n        /* \"#utility.yul\":7501:7505   */\n      0x11\n        /* \"#utility.yul\":7498:7499   */\n      0x04\n        /* \"#utility.yul\":7491:7506   */\n      mstore\n        /* \"#utility.yul\":7525:7529   */\n      0x24\n        /* \"#utility.yul\":7522:7523   */\n      0x00\n        /* \"#utility.yul\":7515:7530   */\n      revert\n        /* \"#utility.yul\":7542:7628   */\n    tag_70:\n        /* \"#utility.yul\":7577:7584   */\n      0x00\n        /* \"#utility.yul\":7617:7621   */\n      0xff\n        /* \"#utility.yul\":7610:7615   */\n      dup3\n        /* \"#utility.yul\":7606:7622   */\n      and\n        /* \"#utility.yul\":7595:7622   */\n      swap1\n      pop\n        /* \"#utility.yul\":7542:7628   */\n      swap2\n      swap1\n      pop\n      jump\t// out\n        /* \"#utility.yul\":7634:7801   */\n    tag_27:\n        /* \"#utility.yul\":7671:7674   */\n      0x00\n        /* \"#utility.yul\":7694:7716   */\n      tag_160\n        /* \"#utility.yul\":7710:7715   */\n      dup3\n        /* \"#utility.yul\":7694:7716   */\n      tag_70\n      jump\t// in\n    tag_160:\n        /* \"#utility.yul\":7685:7716   */\n      swap2\n      pop\n        /* \"#utility.yul\":7738:7742   */\n      0xff\n        /* \"#utility.yul\":7731:7736   */\n      dup3\n        /* \"#utility.yul\":7728:7743   */\n      sub\n        /* \"#utility.yul\":7725:7766   */\n      tag_161\n      jumpi\n        /* \"#utility.yul\":7746:7764   */\n      tag_162\n      tag_69\n      jump\t// in\n    tag_162:\n        /* \"#utility.yul\":7725:7766   */\n    tag_161:\n        /* \"#utility.yul\":7793:7794   */\n      0x01\n        /* \"#utility.yul\":7786:7791   */\n      dup3\n        /* \"#utility.yul\":7782:7795   */\n      add\n        /* \"#utility.yul\":7775:7795   */\n      swap1\n      pop\n        /* \"#utility.yul\":7634:7801   */\n      swap2\n      swap1\n      pop\n      jump\t// out\n        /* \"#utility.yul\":7807:8249   */\n    tag_37:\n        /* \"#utility.yul\":7956:7960   */\n      0x00\n        /* \"#utility.yul\":7994:7996   */\n      0x60\n        /* \"#utility.yul\":7983:7992   */\n      dup3\n        /* \"#utility.yul\":7979:7997   */\n      add\n        /* \"#utility.yul\":7971:7997   */\n      swap1\n      pop\n        /* \"#utility.yul\":8007:8078   */\n      tag_164\n        /* \"#utility.yul\":8075:8076   */\n      0x00\n        /* \"#utility.yul\":8064:8073   */\n      dup4\n        /* \"#utility.yul\":8060:8077   */\n      add\n        /* \"#utility.yul\":8051:8057   */\n      dup7\n        /* \"#utility.yul\":8007:8078   */\n      tag_67\n      jump\t// in\n    tag_164:\n        /* \"#utility.yul\":8088:8160   */\n      tag_165\n        /* \"#utility.yul\":8156:8158   */\n      0x20\n        /* \"#utility.yul\":8145:8154   */\n      dup4\n        /* \"#utility.yul\":8141:8159   */\n      add\n        /* \"#utility.yul\":8132:8138   */\n      dup6\n        /* \"#utility.yul\":8088:8160   */\n      tag_67\n      jump\t// in\n    tag_165:\n        /* \"#utility.yul\":8170:8242   */\n      tag_166\n        /* \"#utility.yul\":8238:8240   */\n      0x40\n        /* \"#utility.yul\":8227:8236   */\n      dup4\n        /* \"#utility.yul\":8223:8241   */\n      add\n        /* \"#utility.yul\":8214:8220   */\n      dup5\n        /* \"#utility.yul\":8170:8242   */\n      tag_68\n      jump\t// in\n    tag_166:\n        /* \"#utility.yul\":7807:8249   */\n      swap5\n      swap4\n      pop\n      pop\n      pop\n      pop\n      jump\t// out\n\n    auxdata: 0xa2646970667358221220bc6c677846f890da5649c800d52c549fcb1e049bdfdaec120b62a3a9f61b94ad64736f6c63430008120033\n}\n",
				"bytecode": {
					"linkReferences": {},
					"object": "608060405234801561001057600080fd5b506106e8806100206000396000f3fe608060405234801561001057600080fd5b50600436106100365760003560e01c8063927985991461003b578063f662c7b714610057575b600080fd5b61005560048036038101906100509190610515565b610073565b005b610071600480360381019061006c9190610515565b610142565b005b60005b82518160ff16101561013c578373ffffffffffffffffffffffffffffffffffffffff1663a9059cbb848360ff16815181106100b4576100b36105a0565b5b6020026020010151848460ff16815181106100d2576100d16105a0565b5b60200260200101516040518363ffffffff1660e01b81526004016100f79291906105ed565b600060405180830381600087803b15801561011157600080fd5b505af1158015610125573d6000803e3d6000fd5b50505050808061013490610652565b915050610076565b50505050565b60005b82518160ff16101561020d578373ffffffffffffffffffffffffffffffffffffffff166323b872dd33858460ff1681518110610184576101836105a0565b5b6020026020010151858560ff16815181106101a2576101a16105a0565b5b60200260200101516040518463ffffffff1660e01b81526004016101c89392919061067b565b600060405180830381600087803b1580156101e257600080fd5b505af11580156101f6573d6000803e3d6000fd5b50505050808061020590610652565b915050610145565b50505050565b6000604051905090565b600080fd5b600080fd5b600073ffffffffffffffffffffffffffffffffffffffff82169050919050565b600061025282610227565b9050919050565b600061026482610247565b9050919050565b61027481610259565b811461027f57600080fd5b50565b6000813590506102918161026b565b92915050565b600080fd5b6000601f19601f8301169050919050565b7f4e487b7100000000000000000000000000000000000000000000000000000000600052604160045260246000fd5b6102e58261029c565b810181811067ffffffffffffffff82111715610304576103036102ad565b5b80604052505050565b6000610317610213565b905061032382826102dc565b919050565b600067ffffffffffffffff821115610343576103426102ad565b5b602082029050602081019050919050565b600080fd5b61036281610247565b811461036d57600080fd5b50565b60008135905061037f81610359565b92915050565b600061039861039384610328565b61030d565b905080838252602082019050602084028301858111156103bb576103ba610354565b5b835b818110156103e457806103d08882610370565b8452602084019350506020810190506103bd565b5050509392505050565b600082601f83011261040357610402610297565b5b8135610413848260208601610385565b91505092915050565b600067ffffffffffffffff821115610437576104366102ad565b5b602082029050602081019050919050565b6000819050919050565b61045b81610448565b811461046657600080fd5b50565b60008135905061047881610452565b92915050565b600061049161048c8461041c565b61030d565b905080838252602082019050602084028301858111156104b4576104b3610354565b5b835b818110156104dd57806104c98882610469565b8452602084019350506020810190506104b6565b5050509392505050565b600082601f8301126104fc576104fb610297565b5b813561050c84826020860161047e565b91505092915050565b60008060006060848603121561052e5761052d61021d565b5b600061053c86828701610282565b935050602084013567ffffffffffffffff81111561055d5761055c610222565b5b610569868287016103ee565b925050604084013567ffffffffffffffff81111561058a57610589610222565b5b610596868287016104e7565b9150509250925092565b7f4e487b7100000000000000000000000000000000000000000000000000000000600052603260045260246000fd5b6105d881610247565b82525050565b6105e781610448565b82525050565b600060408201905061060260008301856105cf565b61060f60208301846105de565b9392505050565b7f4e487b7100000000000000000000000000000000000000000000000000000000600052601160045260246000fd5b600060ff82169050919050565b600061065d82610645565b915060ff82036106705761066f610616565b5b600182019050919050565b600060608201905061069060008301866105cf565b61069d60208301856105cf565b6106aa60408301846105de565b94935050505056fea2646970667358221220bc6c677846f890da5649c800d52c549fcb1e049bdfdaec120b62a3a9f61b94ad64736f6c63430008120033",
					"opcodes": "PUSH1 0x80 PUSH1 0x40 MSTORE CALLVALUE DUP1 ISZERO PUSH2 0x10 JUMPI PUSH1 0x0 DUP1 REVERT JUMPDEST POP PUSH2 0x6E8 DUP1 PUSH2 0x20 PUSH1 0x0 CODECOPY PUSH1 0x0 RETURN INVALID PUSH1 0x80 PUSH1 0x40 MSTORE CALLVALUE DUP1 ISZERO PUSH2 0x10 JUMPI PUSH1 0x0 DUP1 REVERT JUMPDEST POP PUSH1 0x4 CALLDATASIZE LT PUSH2 0x36 JUMPI PUSH1 0x0 CALLDATALOAD PUSH1 0xE0 SHR DUP1 PUSH4 0x92798599 EQ PUSH2 0x3B JUMPI DUP1 PUSH4 0xF662C7B7 EQ PUSH2 0x57 JUMPI JUMPDEST PUSH1 0x0 DUP1 REVERT JUMPDEST PUSH2 0x55 PUSH1 0x4 DUP1 CALLDATASIZE SUB DUP2 ADD SWAP1 PUSH2 0x50 SWAP2 SWAP1 PUSH2 0x515 JUMP JUMPDEST PUSH2 0x73 JUMP JUMPDEST STOP JUMPDEST PUSH2 0x71 PUSH1 0x4 DUP1 CALLDATASIZE SUB DUP2 ADD SWAP1 PUSH2 0x6C SWAP2 SWAP1 PUSH2 0x515 JUMP JUMPDEST PUSH2 0x142 JUMP JUMPDEST STOP JUMPDEST PUSH1 0x0 JUMPDEST DUP3 MLOAD DUP2 PUSH1 0xFF AND LT ISZERO PUSH2 0x13C JUMPI DUP4 PUSH20 0xFFFFFFFFFFFFFFFFFFFFFFFFFFFFFFFFFFFFFFFF AND PUSH4 0xA9059CBB DUP5 DUP4 PUSH1 0xFF AND DUP2 MLOAD DUP2 LT PUSH2 0xB4 JUMPI PUSH2 0xB3 PUSH2 0x5A0 JUMP JUMPDEST JUMPDEST PUSH1 0x20 MUL PUSH1 0x20 ADD ADD MLOAD DUP5 DUP5 PUSH1 0xFF AND DUP2 MLOAD DUP2 LT PUSH2 0xD2 JUMPI PUSH2 0xD1 PUSH2 0x5A0 JUMP JUMPDEST JUMPDEST PUSH1 0x20 MUL PUSH1 0x20 ADD ADD MLOAD PUSH1 0x40 MLOAD DUP4 PUSH4 0xFFFFFFFF AND PUSH1 0xE0 SHL DUP2 MSTORE PUSH1 0x4 ADD PUSH2 0xF7 SWAP3 SWAP2 SWAP1 PUSH2 0x5ED JUMP JUMPDEST PUSH1 0x0 PUSH1 0x40 MLOAD DUP1 DUP4 SUB DUP2 PUSH1 0x0 DUP8 DUP1 EXTCODESIZE ISZERO DUP1 ISZERO PUSH2 0x111 JUMPI PUSH1 0x0 DUP1 REVERT JUMPDEST POP GAS CALL ISZERO DUP1 ISZERO PUSH2 0x125 JUMPI RETURNDATASIZE PUSH1 0x0 DUP1 RETURNDATACOPY RETURNDATASIZE PUSH1 0x0 REVERT JUMPDEST POP POP POP POP DUP1 DUP1 PUSH2 0x134 SWAP1 PUSH2 0x652 JUMP JUMPDEST SWAP2 POP POP PUSH2 0x76 JUMP JUMPDEST POP POP POP POP JUMP JUMPDEST PUSH1 0x0 JUMPDEST DUP3 MLOAD DUP2 PUSH1 0xFF AND LT ISZERO PUSH2 0x20D JUMPI DUP4 PUSH20 0xFFFFFFFFFFFFFFFFFFFFFFFFFFFFFFFFFFFFFFFF AND PUSH4 0x23B872DD CALLER DUP6 DUP5 PUSH1 0xFF AND DUP2 MLOAD DUP2 LT PUSH2 0x184 JUMPI PUSH2 0x183 PUSH2 0x5A0 JUMP JUMPDEST JUMPDEST PUSH1 0x20 MUL PUSH1 0x20 ADD ADD MLOAD DUP6 DUP6 PUSH1 0xFF AND DUP2 MLOAD DUP2 LT PUSH2 0x1A2 JUMPI PUSH2 0x1A1 PUSH2 0x5A0 JUMP JUMPDEST JUMPDEST PUSH1 0x20 MUL PUSH1 0x20 ADD ADD MLOAD PUSH1 0x40 MLOAD DUP5 PUSH4 0xFFFFFFFF AND PUSH1 0xE0 SHL DUP2 MSTORE PUSH1 0x4 ADD PUSH2 0x1C8 SWAP4 SWAP3 SWAP2 SWAP1 PUSH2 0x67B JUMP JUMPDEST PUSH1 0x0 PUSH1 0x40 MLOAD DUP1 DUP4 SUB DUP2 PUSH1 0x0 DUP8 DUP1 EXTCODESIZE ISZERO DUP1 ISZERO PUSH2 0x1E2 JUMPI PUSH1 0x0 DUP1 REVERT JUMPDEST POP GAS CALL ISZERO DUP1 ISZERO PUSH2 0x1F6 JUMPI RETURNDATASIZE PUSH1 0x0 DUP1 RETURNDATACOPY RETURNDATASIZE PUSH1 0x0 REVERT JUMPDEST POP POP POP POP DUP1 DUP1 PUSH2 0x205 SWAP1 PUSH2 0x652 JUMP JUMPDEST SWAP2 POP POP PUSH2 0x145 JUMP JUMPDEST POP POP POP POP JUMP JUMPDEST PUSH1 0x0 PUSH1 0x40 MLOAD SWAP1 POP SWAP1 JUMP JUMPDEST PUSH1 0x0 DUP1 REVERT JUMPDEST PUSH1 0x0 DUP1 REVERT JUMPDEST PUSH1 0x0 PUSH20 0xFFFFFFFFFFFFFFFFFFFFFFFFFFFFFFFFFFFFFFFF DUP3 AND SWAP1 POP SWAP2 SWAP1 POP JUMP JUMPDEST PUSH1 0x0 PUSH2 0x252 DUP3 PUSH2 0x227 JUMP JUMPDEST SWAP1 POP SWAP2 SWAP1 POP JUMP JUMPDEST PUSH1 0x0 PUSH2 0x264 DUP3 PUSH2 0x247 JUMP JUMPDEST SWAP1 POP SWAP2 SWAP1 POP JUMP JUMPDEST PUSH2 0x274 DUP2 PUSH2 0x259 JUMP JUMPDEST DUP2 EQ PUSH2 0x27F JUMPI PUSH1 0x0 DUP1 REVERT JUMPDEST POP JUMP JUMPDEST PUSH1 0x0 DUP2 CALLDATALOAD SWAP1 POP PUSH2 0x291 DUP2 PUSH2 0x26B JUMP JUMPDEST SWAP3 SWAP2 POP POP JUMP JUMPDEST PUSH1 0x0 DUP1 REVERT JUMPDEST PUSH1 0x0 PUSH1 0x1F NOT PUSH1 0x1F DUP4 ADD AND SWAP1 POP SWAP2 SWAP1 POP JUMP JUMPDEST PUSH32 0x4E487B7100000000000000000000000000000000000000000000000000000000 PUSH1 0x0 MSTORE PUSH1 0x41 PUSH1 0x4 MSTORE PUSH1 0x24 PUSH1 0x0 REVERT JUMPDEST PUSH2 0x2E5 DUP3 PUSH2 0x29C JUMP JUMPDEST DUP2 ADD DUP2 DUP2 LT PUSH8 0xFFFFFFFFFFFFFFFF DUP3 GT OR ISZERO PUSH2 0x304 JUMPI PUSH2 0x303 PUSH2 0x2AD JUMP JUMPDEST JUMPDEST DUP1 PUSH1 0x40 MSTORE POP POP POP JUMP JUMPDEST PUSH1 0x0 PUSH2 0x317 PUSH2 0x213 JUMP JUMPDEST SWAP1 POP PUSH2 0x323 DUP3 DUP3 PUSH2 0x2DC JUMP JUMPDEST SWAP2 SWAP1 POP JUMP JUMPDEST PUSH1 0x0 PUSH8 0xFFFFFFFFFFFFFFFF DUP3 GT ISZERO PUSH2 0x343 JUMPI PUSH2 0x342 PUSH2 0x2AD JUMP JUMPDEST JUMPDEST PUSH1 0x20 DUP3 MUL SWAP1 POP PUSH1 0x20 DUP2 ADD SWAP1 POP SWAP2 SWAP1 POP JUMP JUMPDEST PUSH1 0x0 DUP1 REVERT JUMPDEST PUSH2 0x362 DUP2 PUSH2 0x247 JUMP JUMPDEST DUP2 EQ PUSH2 0x36D JUMPI PUSH1 0x0 DUP1 REVERT JUMPDEST POP JUMP JUMPDEST PUSH1 0x0 DUP2 CALLDATALOAD SWAP1 POP PUSH2 0x37F DUP2 PUSH2 0x359 JUMP JUMPDEST SWAP3 SWAP2 POP POP JUMP JUMPDEST PUSH1 0x0 PUSH2 0x398 PUSH2 0x393 DUP5 PUSH2 0x328 JUMP JUMPDEST PUSH2 0x30D JUMP JUMPDEST SWAP1 POP DUP1 DUP4 DUP3 MSTORE PUSH1 0x20 DUP3 ADD SWAP1 POP PUSH1 0x20 DUP5 MUL DUP4 ADD DUP6 DUP2 GT ISZERO PUSH2 0x3BB JUMPI PUSH2 0x3BA PUSH2 0x354 JUMP JUMPDEST JUMPDEST DUP4 JUMPDEST DUP2 DUP2 LT ISZERO PUSH2 0x3E4 JUMPI DUP1 PUSH2 0x3D0 DUP9 DUP3 PUSH2 0x370 JUMP JUMPDEST DUP5 MSTORE PUSH1 0x20 DUP5 ADD SWAP4 POP POP PUSH1 0x20 DUP2 ADD SWAP1 POP PUSH2 0x3BD JUMP JUMPDEST POP POP POP SWAP4 SWAP3 POP POP POP JUMP JUMPDEST PUSH1 0x0 DUP3 PUSH1 0x1F DUP4 ADD SLT PUSH2 0x403 JUMPI PUSH2 0x402 PUSH2 0x297 JUMP JUMPDEST JUMPDEST DUP2 CALLDATALOAD PUSH2 0x413 DUP5 DUP3 PUSH1 0x20 DUP7 ADD PUSH2 0x385 JUMP JUMPDEST SWAP2 POP POP SWAP3 SWAP2 POP POP JUMP JUMPDEST PUSH1 0x0 PUSH8 0xFFFFFFFFFFFFFFFF DUP3 GT ISZERO PUSH2 0x437 JUMPI PUSH2 0x436 PUSH2 0x2AD JUMP JUMPDEST JUMPDEST PUSH1 0x20 DUP3 MUL SWAP1 POP PUSH1 0x20 DUP2 ADD SWAP1 POP SWAP2 SWAP1 POP JUMP JUMPDEST PUSH1 0x0 DUP2 SWAP1 POP SWAP2 SWAP1 POP JUMP JUMPDEST PUSH2 0x45B DUP2 PUSH2 0x448 JUMP JUMPDEST DUP2 EQ PUSH2 0x466 JUMPI PUSH1 0x0 DUP1 REVERT JUMPDEST POP JUMP JUMPDEST PUSH1 0x0 DUP2 CALLDATALOAD SWAP1 POP PUSH2 0x478 DUP2 PUSH2 0x452 JUMP JUMPDEST SWAP3 SWAP2 POP POP JUMP JUMPDEST PUSH1 0x0 PUSH2 0x491 PUSH2 0x48C DUP5 PUSH2 0x41C JUMP JUMPDEST PUSH2 0x30D JUMP JUMPDEST SWAP1 POP DUP1 DUP4 DUP3 MSTORE PUSH1 0x20 DUP3 ADD SWAP1 POP PUSH1 0x20 DUP5 MUL DUP4 ADD DUP6 DUP2 GT ISZERO PUSH2 0x4B4 JUMPI PUSH2 0x4B3 PUSH2 0x354 JUMP JUMPDEST JUMPDEST DUP4 JUMPDEST DUP2 DUP2 LT ISZERO PUSH2 0x4DD JUMPI DUP1 PUSH2 0x4C9 DUP9 DUP3 PUSH2 0x469 JUMP JUMPDEST DUP5 MSTORE PUSH1 0x20 DUP5 ADD SWAP4 POP POP PUSH1 0x20 DUP2 ADD SWAP1 POP PUSH2 0x4B6 JUMP JUMPDEST POP POP POP SWAP4 SWAP3 POP POP POP JUMP JUMPDEST PUSH1 0x0 DUP3 PUSH1 0x1F DUP4 ADD SLT PUSH2 0x4FC JUMPI PUSH2 0x4FB PUSH2 0x297 JUMP JUMPDEST JUMPDEST DUP2 CALLDATALOAD PUSH2 0x50C DUP5 DUP3 PUSH1 0x20 DUP7 ADD PUSH2 0x47E JUMP JUMPDEST SWAP2 POP POP SWAP3 SWAP2 POP POP JUMP JUMPDEST PUSH1 0x0 DUP1 PUSH1 0x0 PUSH1 0x60 DUP5 DUP7 SUB SLT ISZERO PUSH2 0x52E JUMPI PUSH2 0x52D PUSH2 0x21D JUMP JUMPDEST JUMPDEST PUSH1 0x0 PUSH2 0x53C DUP7 DUP3 DUP8 ADD PUSH2 0x282 JUMP JUMPDEST SWAP4 POP POP PUSH1 0x20 DUP5 ADD CALLDATALOAD PUSH8 0xFFFFFFFFFFFFFFFF DUP2 GT ISZERO PUSH2 0x55D JUMPI PUSH2 0x55C PUSH2 0x222 JUMP JUMPDEST JUMPDEST PUSH2 0x569 DUP7 DUP3 DUP8 ADD PUSH2 0x3EE JUMP JUMPDEST SWAP3 POP POP PUSH1 0x40 DUP5 ADD CALLDATALOAD PUSH8 0xFFFFFFFFFFFFFFFF DUP2 GT ISZERO PUSH2 0x58A JUMPI PUSH2 0x589 PUSH2 0x222 JUMP JUMPDEST JUMPDEST PUSH2 0x596 DUP7 DUP3 DUP8 ADD PUSH2 0x4E7 JUMP JUMPDEST SWAP2 POP POP SWAP3 POP SWAP3 POP SWAP3 JUMP JUMPDEST PUSH32 0x4E487B7100000000000000000000000000000000000000000000000000000000 PUSH1 0x0 MSTORE PUSH1 0x32 PUSH1 0x4 MSTORE PUSH1 0x24 PUSH1 0x0 REVERT JUMPDEST PUSH2 0x5D8 DUP2 PUSH2 0x247 JUMP JUMPDEST DUP3 MSTORE POP POP JUMP JUMPDEST PUSH2 0x5E7 DUP2 PUSH2 0x448 JUMP JUMPDEST DUP3 MSTORE POP POP JUMP JUMPDEST PUSH1 0x0 PUSH1 0x40 DUP3 ADD SWAP1 POP PUSH2 0x602 PUSH1 0x0 DUP4 ADD DUP6 PUSH2 0x5CF JUMP JUMPDEST PUSH2 0x60F PUSH1 0x20 DUP4 ADD DUP5 PUSH2 0x5DE JUMP JUMPDEST SWAP4 SWAP3 POP POP POP JUMP JUMPDEST PUSH32 0x4E487B7100000000000000000000000000000000000000000000000000000000 PUSH1 0x0 MSTORE PUSH1 0x11 PUSH1 0x4 MSTORE PUSH1 0x24 PUSH1 0x0 REVERT JUMPDEST PUSH1 0x0 PUSH1 0xFF DUP3 AND SWAP1 POP SWAP2 SWAP1 POP JUMP JUMPDEST PUSH1 0x0 PUSH2 0x65D DUP3 PUSH2 0x645 JUMP JUMPDEST SWAP2 POP PUSH1 0xFF DUP3 SUB PUSH2 0x670 JUMPI PUSH2 0x66F PUSH2 0x616 JUMP JUMPDEST JUMPDEST PUSH1 0x1 DUP3 ADD SWAP1 POP SWAP2 SWAP1 POP JUMP JUMPDEST PUSH1 0x0 PUSH1 0x60 DUP3 ADD SWAP1 POP PUSH2 0x690 PUSH1 0x0 DUP4 ADD DUP7 PUSH2 0x5CF JUMP JUMPDEST PUSH2 0x69D PUSH1 0x20 DUP4 ADD DUP6 PUSH2 0x5CF JUMP JUMPDEST PUSH2 0x6AA PUSH1 0x40 DUP4 ADD DUP5 PUSH2 0x5DE JUMP JUMPDEST SWAP5 SWAP4 POP POP POP POP JUMP INVALID LOG2 PUSH5 0x6970667358 0x22 SLT KECCAK256 0xBC PUSH13 0x677846F890DA5649C800D52C54 SWAP16 0xCB 0x1E DIV SWAP12 0xDF 0xDA 0xEC SLT SIGNEXTEND PUSH3 0xA3A9F6 SHL SWAP5 0xAD PUSH5 0x736F6C6343 STOP ADDMOD SLT STOP CALLER "
				},
				"gasEstimates": {
					"creation": {
						"codeDepositCost": "353600",
						"executionCost": "393",
						"totalCost": "353993"
					},
					"external": {
						"airdropWithTransfer(address,address[],uint256[])": "infinite",
						"airdropWithTransferFrom(address,address[],uint256[])": "infinite"
					}
				},
				"methodIdentifiers": {
					"airdropWithTransfer(address,address[],uint256[])": "92798599",
					"airdropWithTransferFrom(address,address[],uint256[])": "f662c7b7"
				}
			},
			"storageLayout": {
				"storage": [],
				"types": null
			},
			"userdoc": {
				"kind": "user",
				"methods": {},
				"version": 1
			}
		}
	}
}