{
	"contracts/RockPaperScissors.sol": {
		"CoinFlipper": {
			"abi": [
				{
					"inputs": [],
					"stateMutability": "payable",
					"type": "constructor"
				},
				{
					"anonymous": false,
					"inputs": [
						{
							"indexed": false,
							"internalType": "address",
							"name": "player",
							"type": "address"
						},
						{
							"indexed": false,
							"internalType": "bool",
							"name": "isWinner",
							"type": "bool"
						}
					],
					"name": "GamePlayed",
					"type": "event"
				},
				{
					"inputs": [
						{
							"internalType": "uint8",
							"name": "_option",
							"type": "uint8"
						}
					],
					"name": "playGame",
					"outputs": [
						{
							"internalType": "bool",
							"name": "",
							"type": "bool"
						}
					],
					"stateMutability": "payable",
					"type": "function"
				},
				{
					"stateMutability": "payable",
					"type": "receive"
				}
			],
			"devdoc": {
				"kind": "dev",
				"methods": {},
				"version": 1
			},
			"evm": {
				"assembly": "    /* \"contracts/RockPaperScissors.sol\":60:869  contract CoinFlipper{... */\n  mstore(0x40, 0x80)\n  dataSize(sub_0)\n  dup1\n  dataOffset(sub_0)\n  0x00\n  codecopy\n  0x00\n  return\nstop\n\nsub_0: assembly {\n        /* \"contracts/RockPaperScissors.sol\":60:869  contract CoinFlipper{... */\n      mstore(0x40, 0x80)\n      jumpi(tag_1, lt(calldatasize, 0x04))\n      shr(0xe0, calldataload(0x00))\n      dup1\n      0x985d4ac3\n      eq\n      tag_3\n      jumpi\n      jump(tag_2)\n    tag_1:\n      jumpi(tag_2, calldatasize)\n      stop\n    tag_2:\n      0x00\n      dup1\n      revert\n        /* \"contracts/RockPaperScissors.sol\":265:820  function playGame(uint8 _option) payable public returns(bool){... */\n    tag_3:\n      tag_6\n      0x04\n      dup1\n      calldatasize\n      sub\n      dup2\n      add\n      swap1\n      tag_7\n      swap2\n      swap1\n      tag_8\n      jump\t// in\n    tag_7:\n      tag_9\n      jump\t// in\n    tag_6:\n      mload(0x40)\n      tag_10\n      swap2\n      swap1\n      tag_11\n      jump\t// in\n    tag_10:\n      mload(0x40)\n      dup1\n      swap2\n      sub\n      swap1\n      return\n    tag_9:\n        /* \"contracts/RockPaperScissors.sol\":321:325  bool */\n      0x00\n        /* \"contracts/RockPaperScissors.sol\":355:356  1 */\n      0x01\n        /* \"contracts/RockPaperScissors.sol\":345:352  _option */\n      dup3\n        /* \"contracts/RockPaperScissors.sol\":345:356  _option <=1 */\n      0xff\n      and\n      gt\n      iszero\n        /* \"contracts/RockPaperScissors.sol\":337:401  require(_option <=1, \"You can choose only 0 (head) or 1 (tail)\") */\n      tag_13\n      jumpi\n      mload(0x40)\n      0x08c379a000000000000000000000000000000000000000000000000000000000\n      dup2\n      mstore\n      0x04\n      add\n      tag_14\n      swap1\n      tag_15\n      jump\t// in\n    tag_14:\n      mload(0x40)\n      dup1\n      swap2\n      sub\n      swap1\n      revert\n    tag_13:\n        /* \"contracts/RockPaperScissors.sol\":455:456  2 */\n      0x02\n        /* \"contracts/RockPaperScissors.sol\":445:454  msg.value */\n      callvalue\n        /* \"contracts/RockPaperScissors.sol\":445:456  msg.value*2 */\n      tag_16\n      swap2\n      swap1\n      tag_17\n      jump\t// in\n    tag_16:\n        /* \"contracts/RockPaperScissors.sol\":420:441  address(this).balance */\n      selfbalance\n        /* \"contracts/RockPaperScissors.sol\":420:456  address(this).balance >= msg.value*2 */\n      lt\n      iszero\n        /* \"contracts/RockPaperScissors.sol\":412:492  require(address(this).balance >= msg.value*2, \"Smart-contract run out of funds\") */\n      tag_18\n      jumpi\n      mload(0x40)\n      0x08c379a000000000000000000000000000000000000000000000000000000000\n      dup2\n      mstore\n      0x04\n      add\n      tag_19\n      swap1\n      tag_20\n      jump\t// in\n    tag_19:\n      mload(0x40)\n      dup1\n      swap2\n      sub\n      swap1\n      revert\n    tag_18:\n        /* \"contracts/RockPaperScissors.sol\":505:520  uint256 _output */\n      0x00\n        /* \"contracts/RockPaperScissors.sol\":539:540  3 */\n      0x03\n        /* \"contracts/RockPaperScissors.sol\":523:538  block.timestamp */\n      timestamp\n        /* \"contracts/RockPaperScissors.sol\":523:540  block.timestamp%3 */\n      tag_21\n      swap2\n      swap1\n      tag_22\n      jump\t// in\n    tag_21:\n        /* \"contracts/RockPaperScissors.sol\":505:540  uint256 _output = block.timestamp%3 */\n      swap1\n      pop\n        /* \"contracts/RockPaperScissors.sol\":583:590  _output */\n      dup1\n        /* \"contracts/RockPaperScissors.sol\":572:579  _option */\n      dup4\n        /* \"contracts/RockPaperScissors.sol\":572:590  _option == _output */\n      0xff\n      and\n      sub\n        /* \"contracts/RockPaperScissors.sol\":568:734  if (_option == _output){... */\n      tag_23\n      jumpi\n        /* \"contracts/RockPaperScissors.sol\":614:624  msg.sender */\n      caller\n        /* \"contracts/RockPaperScissors.sol\":606:634  payable(msg.sender).transfer */\n      0xffffffffffffffffffffffffffffffffffffffff\n      and\n        /* \"contracts/RockPaperScissors.sol\":606:647  payable(msg.sender).transfer(msg.value*2) */\n      0x08fc\n        /* \"contracts/RockPaperScissors.sol\":645:646  2 */\n      0x02\n        /* \"contracts/RockPaperScissors.sol\":635:644  msg.value */\n      callvalue\n        /* \"contracts/RockPaperScissors.sol\":635:646  msg.value*2 */\n      tag_24\n      swap2\n      swap1\n      tag_17\n      jump\t// in\n    tag_24:\n        /* \"contracts/RockPaperScissors.sol\":606:647  payable(msg.sender).transfer(msg.value*2) */\n      swap1\n      dup2\n      iszero\n      mul\n      swap1\n      mload(0x40)\n      0x00\n      mload(0x40)\n      dup1\n      dup4\n      sub\n      dup2\n      dup6\n      dup9\n      dup9\n      call\n      swap4\n      pop\n      pop\n      pop\n      pop\n      iszero\n      dup1\n      iszero\n      tag_26\n      jumpi\n      returndatasize\n      0x00\n      dup1\n      returndatacopy\n      revert(0x00, returndatasize)\n    tag_26:\n      pop\n        /* \"contracts/RockPaperScissors.sol\":667:695  GamePlayed(msg.sender, true) */\n      0x053a1c9b07ced45d8c1466e4f12f5b0d2f80ed2396c0461a570f4537b33f9e45\n        /* \"contracts/RockPaperScissors.sol\":678:688  msg.sender */\n      caller\n        /* \"contracts/RockPaperScissors.sol\":690:694  true */\n      0x01\n        /* \"contracts/RockPaperScissors.sol\":667:695  GamePlayed(msg.sender, true) */\n      mload(0x40)\n      tag_27\n      swap3\n      swap2\n      swap1\n      tag_28\n      jump\t// in\n    tag_27:\n      mload(0x40)\n      dup1\n      swap2\n      sub\n      swap1\n      log1\n        /* \"contracts/RockPaperScissors.sol\":717:721  true */\n      0x01\n        /* \"contracts/RockPaperScissors.sol\":710:721  return true */\n      swap2\n      pop\n      pop\n      jump(tag_12)\n        /* \"contracts/RockPaperScissors.sol\":568:734  if (_option == _output){... */\n    tag_23:\n        /* \"contracts/RockPaperScissors.sol\":749:778  GamePlayed(msg.sender, false) */\n      0x053a1c9b07ced45d8c1466e4f12f5b0d2f80ed2396c0461a570f4537b33f9e45\n        /* \"contracts/RockPaperScissors.sol\":760:770  msg.sender */\n      caller\n        /* \"contracts/RockPaperScissors.sol\":772:777  false */\n      0x00\n        /* \"contracts/RockPaperScissors.sol\":749:778  GamePlayed(msg.sender, false) */\n      mload(0x40)\n      tag_29\n      swap3\n      swap2\n      swap1\n      tag_28\n      jump\t// in\n    tag_29:\n      mload(0x40)\n      dup1\n      swap2\n      sub\n      swap1\n      log1\n        /* \"contracts/RockPaperScissors.sol\":797:802  false */\n      0x00\n        /* \"contracts/RockPaperScissors.sol\":790:802  return false */\n      swap2\n      pop\n      pop\n        /* \"contracts/RockPaperScissors.sol\":265:820  function playGame(uint8 _option) payable public returns(bool){... */\n    tag_12:\n      swap2\n      swap1\n      pop\n      jump\t// out\n        /* \"#utility.yul\":88:205   */\n    tag_31:\n        /* \"#utility.yul\":197:198   */\n      0x00\n        /* \"#utility.yul\":194:195   */\n      dup1\n        /* \"#utility.yul\":187:199   */\n      revert\n        /* \"#utility.yul\":334:420   */\n    tag_33:\n        /* \"#utility.yul\":369:376   */\n      0x00\n        /* \"#utility.yul\":409:413   */\n      0xff\n        /* \"#utility.yul\":402:407   */\n      dup3\n        /* \"#utility.yul\":398:414   */\n      and\n        /* \"#utility.yul\":387:414   */\n      swap1\n      pop\n        /* \"#utility.yul\":334:420   */\n      swap2\n      swap1\n      pop\n      jump\t// out\n        /* \"#utility.yul\":426:544   */\n    tag_34:\n        /* \"#utility.yul\":497:519   */\n      tag_55\n        /* \"#utility.yul\":513:518   */\n      dup2\n        /* \"#utility.yul\":497:519   */\n      tag_33\n      jump\t// in\n    tag_55:\n        /* \"#utility.yul\":490:495   */\n      dup2\n        /* \"#utility.yul\":487:520   */\n      eq\n        /* \"#utility.yul\":477:538   */\n      tag_56\n      jumpi\n        /* \"#utility.yul\":534:535   */\n      0x00\n        /* \"#utility.yul\":531:532   */\n      dup1\n        /* \"#utility.yul\":524:536   */\n      revert\n        /* \"#utility.yul\":477:538   */\n    tag_56:\n        /* \"#utility.yul\":426:544   */\n      pop\n      jump\t// out\n        /* \"#utility.yul\":550:685   */\n    tag_35:\n        /* \"#utility.yul\":594:599   */\n      0x00\n        /* \"#utility.yul\":632:638   */\n      dup2\n        /* \"#utility.yul\":619:639   */\n      calldataload\n        /* \"#utility.yul\":610:639   */\n      swap1\n      pop\n        /* \"#utility.yul\":648:679   */\n      tag_58\n        /* \"#utility.yul\":673:678   */\n      dup2\n        /* \"#utility.yul\":648:679   */\n      tag_34\n      jump\t// in\n    tag_58:\n        /* \"#utility.yul\":550:685   */\n      swap3\n      swap2\n      pop\n      pop\n      jump\t// out\n        /* \"#utility.yul\":691:1016   */\n    tag_8:\n        /* \"#utility.yul\":748:754   */\n      0x00\n        /* \"#utility.yul\":797:799   */\n      0x20\n        /* \"#utility.yul\":785:794   */\n      dup3\n        /* \"#utility.yul\":776:783   */\n      dup5\n        /* \"#utility.yul\":772:795   */\n      sub\n        /* \"#utility.yul\":768:800   */\n      slt\n        /* \"#utility.yul\":765:884   */\n      iszero\n      tag_60\n      jumpi\n        /* \"#utility.yul\":803:882   */\n      tag_61\n      tag_31\n      jump\t// in\n    tag_61:\n        /* \"#utility.yul\":765:884   */\n    tag_60:\n        /* \"#utility.yul\":923:924   */\n      0x00\n        /* \"#utility.yul\":948:999   */\n      tag_62\n        /* \"#utility.yul\":991:998   */\n      dup5\n        /* \"#utility.yul\":982:988   */\n      dup3\n        /* \"#utility.yul\":971:980   */\n      dup6\n        /* \"#utility.yul\":967:989   */\n      add\n        /* \"#utility.yul\":948:999   */\n      tag_35\n      jump\t// in\n    tag_62:\n        /* \"#utility.yul\":938:999   */\n      swap2\n      pop\n        /* \"#utility.yul\":894:1009   */\n      pop\n        /* \"#utility.yul\":691:1016   */\n      swap3\n      swap2\n      pop\n      pop\n      jump\t// out\n        /* \"#utility.yul\":1022:1112   */\n    tag_36:\n        /* \"#utility.yul\":1056:1063   */\n      0x00\n        /* \"#utility.yul\":1099:1104   */\n      dup2\n        /* \"#utility.yul\":1092:1105   */\n      iszero\n        /* \"#utility.yul\":1085:1106   */\n      iszero\n        /* \"#utility.yul\":1074:1106   */\n      swap1\n      pop\n        /* \"#utility.yul\":1022:1112   */\n      swap2\n      swap1\n      pop\n      jump\t// out\n        /* \"#utility.yul\":1118:1227   */\n    tag_37:\n        /* \"#utility.yul\":1199:1220   */\n      tag_65\n        /* \"#utility.yul\":1214:1219   */\n      dup2\n        /* \"#utility.yul\":1199:1220   */\n      tag_36\n      jump\t// in\n    tag_65:\n        /* \"#utility.yul\":1194:1197   */\n      dup3\n        /* \"#utility.yul\":1187:1221   */\n      mstore\n        /* \"#utility.yul\":1118:1227   */\n      pop\n      pop\n      jump\t// out\n        /* \"#utility.yul\":1233:1443   */\n    tag_11:\n        /* \"#utility.yul\":1320:1324   */\n      0x00\n        /* \"#utility.yul\":1358:1360   */\n      0x20\n        /* \"#utility.yul\":1347:1356   */\n      dup3\n        /* \"#utility.yul\":1343:1361   */\n      add\n        /* \"#utility.yul\":1335:1361   */\n      swap1\n      pop\n        /* \"#utility.yul\":1371:1436   */\n      tag_67\n        /* \"#utility.yul\":1433:1434   */\n      0x00\n        /* \"#utility.yul\":1422:1431   */\n      dup4\n        /* \"#utility.yul\":1418:1435   */\n      add\n        /* \"#utility.yul\":1409:1415   */\n      dup5\n        /* \"#utility.yul\":1371:1436   */\n      tag_37\n      jump\t// in\n    tag_67:\n        /* \"#utility.yul\":1233:1443   */\n      swap3\n      swap2\n      pop\n      pop\n      jump\t// out\n        /* \"#utility.yul\":1449:1618   */\n    tag_38:\n        /* \"#utility.yul\":1533:1544   */\n      0x00\n        /* \"#utility.yul\":1567:1573   */\n      dup3\n        /* \"#utility.yul\":1562:1565   */\n      dup3\n        /* \"#utility.yul\":1555:1574   */\n      mstore\n        /* \"#utility.yul\":1607:1611   */\n      0x20\n        /* \"#utility.yul\":1602:1605   */\n      dup3\n        /* \"#utility.yul\":1598:1612   */\n      add\n        /* \"#utility.yul\":1583:1612   */\n      swap1\n      pop\n        /* \"#utility.yul\":1449:1618   */\n      swap3\n      swap2\n      pop\n      pop\n      jump\t// out\n        /* \"#utility.yul\":1624:1851   */\n    tag_39:\n        /* \"#utility.yul\":1764:1798   */\n      0x596f752063616e2063686f6f7365206f6e6c79203020286865616429206f7220\n        /* \"#utility.yul\":1760:1761   */\n      0x00\n        /* \"#utility.yul\":1752:1758   */\n      dup3\n        /* \"#utility.yul\":1748:1762   */\n      add\n        /* \"#utility.yul\":1741:1799   */\n      mstore\n        /* \"#utility.yul\":1833:1843   */\n      0x3120287461696c29000000000000000000000000000000000000000000000000\n        /* \"#utility.yul\":1828:1830   */\n      0x20\n        /* \"#utility.yul\":1820:1826   */\n      dup3\n        /* \"#utility.yul\":1816:1831   */\n      add\n        /* \"#utility.yul\":1809:1844   */\n      mstore\n        /* \"#utility.yul\":1624:1851   */\n      pop\n      jump\t// out\n        /* \"#utility.yul\":1857:2223   */\n    tag_40:\n        /* \"#utility.yul\":1999:2002   */\n      0x00\n        /* \"#utility.yul\":2020:2087   */\n      tag_71\n        /* \"#utility.yul\":2084:2086   */\n      0x28\n        /* \"#utility.yul\":2079:2082   */\n      dup4\n        /* \"#utility.yul\":2020:2087   */\n      tag_38\n      jump\t// in\n    tag_71:\n        /* \"#utility.yul\":2013:2087   */\n      swap2\n      pop\n        /* \"#utility.yul\":2096:2189   */\n      tag_72\n        /* \"#utility.yul\":2185:2188   */\n      dup3\n        /* \"#utility.yul\":2096:2189   */\n      tag_39\n      jump\t// in\n    tag_72:\n        /* \"#utility.yul\":2214:2216   */\n      0x40\n        /* \"#utility.yul\":2209:2212   */\n      dup3\n        /* \"#utility.yul\":2205:2217   */\n      add\n        /* \"#utility.yul\":2198:2217   */\n      swap1\n      pop\n        /* \"#utility.yul\":1857:2223   */\n      swap2\n      swap1\n      pop\n      jump\t// out\n        /* \"#utility.yul\":2229:2648   */\n    tag_15:\n        /* \"#utility.yul\":2395:2399   */\n      0x00\n        /* \"#utility.yul\":2433:2435   */\n      0x20\n        /* \"#utility.yul\":2422:2431   */\n      dup3\n        /* \"#utility.yul\":2418:2436   */\n      add\n        /* \"#utility.yul\":2410:2436   */\n      swap1\n      pop\n        /* \"#utility.yul\":2482:2491   */\n      dup2\n        /* \"#utility.yul\":2476:2480   */\n      dup2\n        /* \"#utility.yul\":2472:2492   */\n      sub\n        /* \"#utility.yul\":2468:2469   */\n      0x00\n        /* \"#utility.yul\":2457:2466   */\n      dup4\n        /* \"#utility.yul\":2453:2470   */\n      add\n        /* \"#utility.yul\":2446:2493   */\n      mstore\n        /* \"#utility.yul\":2510:2641   */\n      tag_74\n        /* \"#utility.yul\":2636:2640   */\n      dup2\n        /* \"#utility.yul\":2510:2641   */\n      tag_40\n      jump\t// in\n    tag_74:\n        /* \"#utility.yul\":2502:2641   */\n      swap1\n      pop\n        /* \"#utility.yul\":2229:2648   */\n      swap2\n      swap1\n      pop\n      jump\t// out\n        /* \"#utility.yul\":2654:2731   */\n    tag_41:\n        /* \"#utility.yul\":2691:2698   */\n      0x00\n        /* \"#utility.yul\":2720:2725   */\n      dup2\n        /* \"#utility.yul\":2709:2725   */\n      swap1\n      pop\n        /* \"#utility.yul\":2654:2731   */\n      swap2\n      swap1\n      pop\n      jump\t// out\n        /* \"#utility.yul\":2737:2917   */\n    tag_42:\n        /* \"#utility.yul\":2785:2862   */\n      0x4e487b7100000000000000000000000000000000000000000000000000000000\n        /* \"#utility.yul\":2782:2783   */\n      0x00\n        /* \"#utility.yul\":2775:2863   */\n      mstore\n        /* \"#utility.yul\":2882:2886   */\n      0x11\n        /* \"#utility.yul\":2879:2880   */\n      0x04\n        /* \"#utility.yul\":2872:2887   */\n      mstore\n        /* \"#utility.yul\":2906:2910   */\n      0x24\n        /* \"#utility.yul\":2903:2904   */\n      0x00\n        /* \"#utility.yul\":2896:2911   */\n      revert\n        /* \"#utility.yul\":2923:3333   */\n    tag_17:\n        /* \"#utility.yul\":2963:2970   */\n      0x00\n        /* \"#utility.yul\":2986:3006   */\n      tag_78\n        /* \"#utility.yul\":3004:3005   */\n      dup3\n        /* \"#utility.yul\":2986:3006   */\n      tag_41\n      jump\t// in\n    tag_78:\n        /* \"#utility.yul\":2981:3006   */\n      swap2\n      pop\n        /* \"#utility.yul\":3020:3040   */\n      tag_79\n        /* \"#utility.yul\":3038:3039   */\n      dup4\n        /* \"#utility.yul\":3020:3040   */\n      tag_41\n      jump\t// in\n    tag_79:\n        /* \"#utility.yul\":3015:3040   */\n      swap3\n      pop\n        /* \"#utility.yul\":3075:3076   */\n      dup3\n        /* \"#utility.yul\":3072:3073   */\n      dup3\n        /* \"#utility.yul\":3068:3077   */\n      mul\n        /* \"#utility.yul\":3097:3127   */\n      tag_80\n        /* \"#utility.yul\":3115:3126   */\n      dup2\n        /* \"#utility.yul\":3097:3127   */\n      tag_41\n      jump\t// in\n    tag_80:\n        /* \"#utility.yul\":3086:3127   */\n      swap2\n      pop\n        /* \"#utility.yul\":3276:3277   */\n      dup3\n        /* \"#utility.yul\":3267:3274   */\n      dup3\n        /* \"#utility.yul\":3263:3278   */\n      div\n        /* \"#utility.yul\":3260:3261   */\n      dup5\n        /* \"#utility.yul\":3257:3279   */\n      eq\n        /* \"#utility.yul\":3237:3238   */\n      dup4\n        /* \"#utility.yul\":3230:3239   */\n      iszero\n        /* \"#utility.yul\":3210:3293   */\n      or\n        /* \"#utility.yul\":3187:3326   */\n      tag_81\n      jumpi\n        /* \"#utility.yul\":3306:3324   */\n      tag_82\n      tag_42\n      jump\t// in\n    tag_82:\n        /* \"#utility.yul\":3187:3326   */\n    tag_81:\n        /* \"#utility.yul\":2971:3333   */\n      pop\n        /* \"#utility.yul\":2923:3333   */\n      swap3\n      swap2\n      pop\n      pop\n      jump\t// out\n        /* \"#utility.yul\":3339:3520   */\n    tag_43:\n        /* \"#utility.yul\":3479:3512   */\n      0x536d6172742d636f6e74726163742072756e206f7574206f662066756e647300\n        /* \"#utility.yul\":3475:3476   */\n      0x00\n        /* \"#utility.yul\":3467:3473   */\n      dup3\n        /* \"#utility.yul\":3463:3477   */\n      add\n        /* \"#utility.yul\":3456:3513   */\n      mstore\n        /* \"#utility.yul\":3339:3520   */\n      pop\n      jump\t// out\n        /* \"#utility.yul\":3526:3892   */\n    tag_44:\n        /* \"#utility.yul\":3668:3671   */\n      0x00\n        /* \"#utility.yul\":3689:3756   */\n      tag_85\n        /* \"#utility.yul\":3753:3755   */\n      0x1f\n        /* \"#utility.yul\":3748:3751   */\n      dup4\n        /* \"#utility.yul\":3689:3756   */\n      tag_38\n      jump\t// in\n    tag_85:\n        /* \"#utility.yul\":3682:3756   */\n      swap2\n      pop\n        /* \"#utility.yul\":3765:3858   */\n      tag_86\n        /* \"#utility.yul\":3854:3857   */\n      dup3\n        /* \"#utility.yul\":3765:3858   */\n      tag_43\n      jump\t// in\n    tag_86:\n        /* \"#utility.yul\":3883:3885   */\n      0x20\n        /* \"#utility.yul\":3878:3881   */\n      dup3\n        /* \"#utility.yul\":3874:3886   */\n      add\n        /* \"#utility.yul\":3867:3886   */\n      swap1\n      pop\n        /* \"#utility.yul\":3526:3892   */\n      swap2\n      swap1\n      pop\n      jump\t// out\n        /* \"#utility.yul\":3898:4317   */\n    tag_20:\n        /* \"#utility.yul\":4064:4068   */\n      0x00\n        /* \"#utility.yul\":4102:4104   */\n      0x20\n        /* \"#utility.yul\":4091:4100   */\n      dup3\n        /* \"#utility.yul\":4087:4105   */\n      add\n        /* \"#utility.yul\":4079:4105   */\n      swap1\n      pop\n        /* \"#utility.yul\":4151:4160   */\n      dup2\n        /* \"#utility.yul\":4145:4149   */\n      dup2\n        /* \"#utility.yul\":4141:4161   */\n      sub\n        /* \"#utility.yul\":4137:4138   */\n      0x00\n        /* \"#utility.yul\":4126:4135   */\n      dup4\n        /* \"#utility.yul\":4122:4139   */\n      add\n        /* \"#utility.yul\":4115:4162   */\n      mstore\n        /* \"#utility.yul\":4179:4310   */\n      tag_88\n        /* \"#utility.yul\":4305:4309   */\n      dup2\n        /* \"#utility.yul\":4179:4310   */\n      tag_44\n      jump\t// in\n    tag_88:\n        /* \"#utility.yul\":4171:4310   */\n      swap1\n      pop\n        /* \"#utility.yul\":3898:4317   */\n      swap2\n      swap1\n      pop\n      jump\t// out\n        /* \"#utility.yul\":4323:4503   */\n    tag_45:\n        /* \"#utility.yul\":4371:4448   */\n      0x4e487b7100000000000000000000000000000000000000000000000000000000\n        /* \"#utility.yul\":4368:4369   */\n      0x00\n        /* \"#utility.yul\":4361:4449   */\n      mstore\n        /* \"#utility.yul\":4468:4472   */\n      0x12\n        /* \"#utility.yul\":4465:4466   */\n      0x04\n        /* \"#utility.yul\":4458:4473   */\n      mstore\n        /* \"#utility.yul\":4492:4496   */\n      0x24\n        /* \"#utility.yul\":4489:4490   */\n      0x00\n        /* \"#utility.yul\":4482:4497   */\n      revert\n        /* \"#utility.yul\":4509:4685   */\n    tag_22:\n        /* \"#utility.yul\":4541:4542   */\n      0x00\n        /* \"#utility.yul\":4558:4578   */\n      tag_91\n        /* \"#utility.yul\":4576:4577   */\n      dup3\n        /* \"#utility.yul\":4558:4578   */\n      tag_41\n      jump\t// in\n    tag_91:\n        /* \"#utility.yul\":4553:4578   */\n      swap2\n      pop\n        /* \"#utility.yul\":4592:4612   */\n      tag_92\n        /* \"#utility.yul\":4610:4611   */\n      dup4\n        /* \"#utility.yul\":4592:4612   */\n      tag_41\n      jump\t// in\n    tag_92:\n        /* \"#utility.yul\":4587:4612   */\n      swap3\n      pop\n        /* \"#utility.yul\":4631:4632   */\n      dup3\n        /* \"#utility.yul\":4621:4656   */\n      tag_93\n      jumpi\n        /* \"#utility.yul\":4636:4654   */\n      tag_94\n      tag_45\n      jump\t// in\n    tag_94:\n        /* \"#utility.yul\":4621:4656   */\n    tag_93:\n        /* \"#utility.yul\":4677:4678   */\n      dup3\n        /* \"#utility.yul\":4674:4675   */\n      dup3\n        /* \"#utility.yul\":4670:4679   */\n      mod\n        /* \"#utility.yul\":4665:4679   */\n      swap1\n      pop\n        /* \"#utility.yul\":4509:4685   */\n      swap3\n      swap2\n      pop\n      pop\n      jump\t// out\n        /* \"#utility.yul\":4691:4817   */\n    tag_46:\n        /* \"#utility.yul\":4728:4735   */\n      0x00\n        /* \"#utility.yul\":4768:4810   */\n      0xffffffffffffffffffffffffffffffffffffffff\n        /* \"#utility.yul\":4761:4766   */\n      dup3\n        /* \"#utility.yul\":4757:4811   */\n      and\n        /* \"#utility.yul\":4746:4811   */\n      swap1\n      pop\n        /* \"#utility.yul\":4691:4817   */\n      swap2\n      swap1\n      pop\n      jump\t// out\n        /* \"#utility.yul\":4823:4919   */\n    tag_47:\n        /* \"#utility.yul\":4860:4867   */\n      0x00\n        /* \"#utility.yul\":4889:4913   */\n      tag_97\n        /* \"#utility.yul\":4907:4912   */\n      dup3\n        /* \"#utility.yul\":4889:4913   */\n      tag_46\n      jump\t// in\n    tag_97:\n        /* \"#utility.yul\":4878:4913   */\n      swap1\n      pop\n        /* \"#utility.yul\":4823:4919   */\n      swap2\n      swap1\n      pop\n      jump\t// out\n        /* \"#utility.yul\":4925:5043   */\n    tag_48:\n        /* \"#utility.yul\":5012:5036   */\n      tag_99\n        /* \"#utility.yul\":5030:5035   */\n      dup2\n        /* \"#utility.yul\":5012:5036   */\n      tag_47\n      jump\t// in\n    tag_99:\n        /* \"#utility.yul\":5007:5010   */\n      dup3\n        /* \"#utility.yul\":5000:5037   */\n      mstore\n        /* \"#utility.yul\":4925:5043   */\n      pop\n      pop\n      jump\t// out\n        /* \"#utility.yul\":5049:5369   */\n    tag_28:\n        /* \"#utility.yul\":5164:5168   */\n      0x00\n        /* \"#utility.yul\":5202:5204   */\n      0x40\n        /* \"#utility.yul\":5191:5200   */\n      dup3\n        /* \"#utility.yul\":5187:5205   */\n      add\n        /* \"#utility.yul\":5179:5205   */\n      swap1\n      pop\n        /* \"#utility.yul\":5215:5286   */\n      tag_101\n        /* \"#utility.yul\":5283:5284   */\n      0x00\n        /* \"#utility.yul\":5272:5281   */\n      dup4\n        /* \"#utility.yul\":5268:5285   */\n      add\n        /* \"#utility.yul\":5259:5265   */\n      dup6\n        /* \"#utility.yul\":5215:5286   */\n      tag_48\n      jump\t// in\n    tag_101:\n        /* \"#utility.yul\":5296:5362   */\n      tag_102\n        /* \"#utility.yul\":5358:5360   */\n      0x20\n        /* \"#utility.yul\":5347:5356   */\n      dup4\n        /* \"#utility.yul\":5343:5361   */\n      add\n        /* \"#utility.yul\":5334:5340   */\n      dup5\n        /* \"#utility.yul\":5296:5362   */\n      tag_37\n      jump\t// in\n    tag_102:\n        /* \"#utility.yul\":5049:5369   */\n      swap4\n      swap3\n      pop\n      pop\n      pop\n      jump\t// out\n\n    auxdata: 0xa26469706673582212207a3c183c1972c1cb24604124cb8a51a2e4a7243917221ccdeef4404e7264ce3d64736f6c63430008120033\n}\n",
				"bytecode": {
					"linkReferences": {},
					"object": "6080604052610518806100136000396000f3fe6080604052600436106100225760003560e01c8063985d4ac31461002e57610029565b3661002957005b600080fd5b6100486004803603810190610043919061022b565b61005e565b6040516100559190610273565b60405180910390f35b600060018260ff1611156100a7576040517f08c379a000000000000000000000000000000000000000000000000000000000815260040161009e90610311565b60405180910390fd5b6002346100b4919061036a565b4710156100f6576040517f08c379a00000000000000000000000000000000000000000000000000000000081526004016100ed906103f8565b60405180910390fd5b60006003426101059190610447565b9050808360ff16036101a8573373ffffffffffffffffffffffffffffffffffffffff166108fc600234610138919061036a565b9081150290604051600060405180830381858888f19350505050158015610163573d6000803e3d6000fd5b507f053a1c9b07ced45d8c1466e4f12f5b0d2f80ed2396c0461a570f4537b33f9e453360016040516101969291906104b9565b60405180910390a160019150506101e8565b7f053a1c9b07ced45d8c1466e4f12f5b0d2f80ed2396c0461a570f4537b33f9e453360006040516101da9291906104b9565b60405180910390a160009150505b919050565b600080fd5b600060ff82169050919050565b610208816101f2565b811461021357600080fd5b50565b600081359050610225816101ff565b92915050565b600060208284031215610241576102406101ed565b5b600061024f84828501610216565b91505092915050565b60008115159050919050565b61026d81610258565b82525050565b60006020820190506102886000830184610264565b92915050565b600082825260208201905092915050565b7f596f752063616e2063686f6f7365206f6e6c79203020286865616429206f722060008201527f3120287461696c29000000000000000000000000000000000000000000000000602082015250565b60006102fb60288361028e565b91506103068261029f565b604082019050919050565b6000602082019050818103600083015261032a816102ee565b9050919050565b6000819050919050565b7f4e487b7100000000000000000000000000000000000000000000000000000000600052601160045260246000fd5b600061037582610331565b915061038083610331565b925082820261038e81610331565b915082820484148315176103a5576103a461033b565b5b5092915050565b7f536d6172742d636f6e74726163742072756e206f7574206f662066756e647300600082015250565b60006103e2601f8361028e565b91506103ed826103ac565b602082019050919050565b60006020820190508181036000830152610411816103d5565b9050919050565b7f4e487b7100000000000000000000000000000000000000000000000000000000600052601260045260246000fd5b600061045282610331565b915061045d83610331565b92508261046d5761046c610418565b5b828206905092915050565b600073ffffffffffffffffffffffffffffffffffffffff82169050919050565b60006104a382610478565b9050919050565b6104b381610498565b82525050565b60006040820190506104ce60008301856104aa565b6104db6020830184610264565b939250505056fea26469706673582212207a3c183c1972c1cb24604124cb8a51a2e4a7243917221ccdeef4404e7264ce3d64736f6c63430008120033",
					"opcodes": "PUSH1 0x80 PUSH1 0x40 MSTORE PUSH2 0x518 DUP1 PUSH2 0x13 PUSH1 0x0 CODECOPY PUSH1 0x0 RETURN INVALID PUSH1 0x80 PUSH1 0x40 MSTORE PUSH1 0x4 CALLDATASIZE LT PUSH2 0x22 JUMPI PUSH1 0x0 CALLDATALOAD PUSH1 0xE0 SHR DUP1 PUSH4 0x985D4AC3 EQ PUSH2 0x2E JUMPI PUSH2 0x29 JUMP JUMPDEST CALLDATASIZE PUSH2 0x29 JUMPI STOP JUMPDEST PUSH1 0x0 DUP1 REVERT JUMPDEST PUSH2 0x48 PUSH1 0x4 DUP1 CALLDATASIZE SUB DUP2 ADD SWAP1 PUSH2 0x43 SWAP2 SWAP1 PUSH2 0x22B JUMP JUMPDEST PUSH2 0x5E JUMP JUMPDEST PUSH1 0x40 MLOAD PUSH2 0x55 SWAP2 SWAP1 PUSH2 0x273 JUMP JUMPDEST PUSH1 0x40 MLOAD DUP1 SWAP2 SUB SWAP1 RETURN JUMPDEST PUSH1 0x0 PUSH1 0x1 DUP3 PUSH1 0xFF AND GT ISZERO PUSH2 0xA7 JUMPI PUSH1 0x40 MLOAD PUSH32 0x8C379A000000000000000000000000000000000000000000000000000000000 DUP2 MSTORE PUSH1 0x4 ADD PUSH2 0x9E SWAP1 PUSH2 0x311 JUMP JUMPDEST PUSH1 0x40 MLOAD DUP1 SWAP2 SUB SWAP1 REVERT JUMPDEST PUSH1 0x2 CALLVALUE PUSH2 0xB4 SWAP2 SWAP1 PUSH2 0x36A JUMP JUMPDEST SELFBALANCE LT ISZERO PUSH2 0xF6 JUMPI PUSH1 0x40 MLOAD PUSH32 0x8C379A000000000000000000000000000000000000000000000000000000000 DUP2 MSTORE PUSH1 0x4 ADD PUSH2 0xED SWAP1 PUSH2 0x3F8 JUMP JUMPDEST PUSH1 0x40 MLOAD DUP1 SWAP2 SUB SWAP1 REVERT JUMPDEST PUSH1 0x0 PUSH1 0x3 TIMESTAMP PUSH2 0x105 SWAP2 SWAP1 PUSH2 0x447 JUMP JUMPDEST SWAP1 POP DUP1 DUP4 PUSH1 0xFF AND SUB PUSH2 0x1A8 JUMPI CALLER PUSH20 0xFFFFFFFFFFFFFFFFFFFFFFFFFFFFFFFFFFFFFFFF AND PUSH2 0x8FC PUSH1 0x2 CALLVALUE PUSH2 0x138 SWAP2 SWAP1 PUSH2 0x36A JUMP JUMPDEST SWAP1 DUP2 ISZERO MUL SWAP1 PUSH1 0x40 MLOAD PUSH1 0x0 PUSH1 0x40 MLOAD DUP1 DUP4 SUB DUP2 DUP6 DUP9 DUP9 CALL SWAP4 POP POP POP POP ISZERO DUP1 ISZERO PUSH2 0x163 JUMPI RETURNDATASIZE PUSH1 0x0 DUP1 RETURNDATACOPY RETURNDATASIZE PUSH1 0x0 REVERT JUMPDEST POP PUSH32 0x53A1C9B07CED45D8C1466E4F12F5B0D2F80ED2396C0461A570F4537B33F9E45 CALLER PUSH1 0x1 PUSH1 0x40 MLOAD PUSH2 0x196 SWAP3 SWAP2 SWAP1 PUSH2 0x4B9 JUMP JUMPDEST PUSH1 0x40 MLOAD DUP1 SWAP2 SUB SWAP1 LOG1 PUSH1 0x1 SWAP2 POP POP PUSH2 0x1E8 JUMP JUMPDEST PUSH32 0x53A1C9B07CED45D8C1466E4F12F5B0D2F80ED2396C0461A570F4537B33F9E45 CALLER PUSH1 0x0 PUSH1 0x40 MLOAD PUSH2 0x1DA SWAP3 SWAP2 SWAP1 PUSH2 0x4B9 JUMP JUMPDEST PUSH1 0x40 MLOAD DUP1 SWAP2 SUB SWAP1 LOG1 PUSH1 0x0 SWAP2 POP POP JUMPDEST SWAP2 SWAP1 POP JUMP JUMPDEST PUSH1 0x0 DUP1 REVERT JUMPDEST PUSH1 0x0 PUSH1 0xFF DUP3 AND SWAP1 POP SWAP2 SWAP1 POP JUMP JUMPDEST PUSH2 0x208 DUP2 PUSH2 0x1F2 JUMP JUMPDEST DUP2 EQ PUSH2 0x213 JUMPI PUSH1 0x0 DUP1 REVERT JUMPDEST POP JUMP JUMPDEST PUSH1 0x0 DUP2 CALLDATALOAD SWAP1 POP PUSH2 0x225 DUP2 PUSH2 0x1FF JUMP JUMPDEST SWAP3 SWAP2 POP POP JUMP JUMPDEST PUSH1 0x0 PUSH1 0x20 DUP3 DUP5 SUB SLT ISZERO PUSH2 0x241 JUMPI PUSH2 0x240 PUSH2 0x1ED JUMP JUMPDEST JUMPDEST PUSH1 0x0 PUSH2 0x24F DUP5 DUP3 DUP6 ADD PUSH2 0x216 JUMP JUMPDEST SWAP2 POP POP SWAP3 SWAP2 POP POP JUMP JUMPDEST PUSH1 0x0 DUP2 ISZERO ISZERO SWAP1 POP SWAP2 SWAP1 POP JUMP JUMPDEST PUSH2 0x26D DUP2 PUSH2 0x258 JUMP JUMPDEST DUP3 MSTORE POP POP JUMP JUMPDEST PUSH1 0x0 PUSH1 0x20 DUP3 ADD SWAP1 POP PUSH2 0x288 PUSH1 0x0 DUP4 ADD DUP5 PUSH2 0x264 JUMP JUMPDEST SWAP3 SWAP2 POP POP JUMP JUMPDEST PUSH1 0x0 DUP3 DUP3 MSTORE PUSH1 0x20 DUP3 ADD SWAP1 POP SWAP3 SWAP2 POP POP JUMP JUMPDEST PUSH32 0x596F752063616E2063686F6F7365206F6E6C79203020286865616429206F7220 PUSH1 0x0 DUP3 ADD MSTORE PUSH32 0x3120287461696C29000000000000000000000000000000000000000000000000 PUSH1 0x20 DUP3 ADD MSTORE POP JUMP JUMPDEST PUSH1 0x0 PUSH2 0x2FB PUSH1 0x28 DUP4 PUSH2 0x28E JUMP JUMPDEST SWAP2 POP PUSH2 0x306 DUP3 PUSH2 0x29F JUMP JUMPDEST PUSH1 0x40 DUP3 ADD SWAP1 POP SWAP2 SWAP1 POP JUMP JUMPDEST PUSH1 0x0 PUSH1 0x20 DUP3 ADD SWAP1 POP DUP2 DUP2 SUB PUSH1 0x0 DUP4 ADD MSTORE PUSH2 0x32A DUP2 PUSH2 0x2EE JUMP JUMPDEST SWAP1 POP SWAP2 SWAP1 POP JUMP JUMPDEST PUSH1 0x0 DUP2 SWAP1 POP SWAP2 SWAP1 POP JUMP JUMPDEST PUSH32 0x4E487B7100000000000000000000000000000000000000000000000000000000 PUSH1 0x0 MSTORE PUSH1 0x11 PUSH1 0x4 MSTORE PUSH1 0x24 PUSH1 0x0 REVERT JUMPDEST PUSH1 0x0 PUSH2 0x375 DUP3 PUSH2 0x331 JUMP JUMPDEST SWAP2 POP PUSH2 0x380 DUP4 PUSH2 0x331 JUMP JUMPDEST SWAP3 POP DUP3 DUP3 MUL PUSH2 0x38E DUP2 PUSH2 0x331 JUMP JUMPDEST SWAP2 POP DUP3 DUP3 DIV DUP5 EQ DUP4 ISZERO OR PUSH2 0x3A5 JUMPI PUSH2 0x3A4 PUSH2 0x33B JUMP JUMPDEST JUMPDEST POP SWAP3 SWAP2 POP POP JUMP JUMPDEST PUSH32 0x536D6172742D636F6E74726163742072756E206F7574206F662066756E647300 PUSH1 0x0 DUP3 ADD MSTORE POP JUMP JUMPDEST PUSH1 0x0 PUSH2 0x3E2 PUSH1 0x1F DUP4 PUSH2 0x28E JUMP JUMPDEST SWAP2 POP PUSH2 0x3ED DUP3 PUSH2 0x3AC JUMP JUMPDEST PUSH1 0x20 DUP3 ADD SWAP1 POP SWAP2 SWAP1 POP JUMP JUMPDEST PUSH1 0x0 PUSH1 0x20 DUP3 ADD SWAP1 POP DUP2 DUP2 SUB PUSH1 0x0 DUP4 ADD MSTORE PUSH2 0x411 DUP2 PUSH2 0x3D5 JUMP JUMPDEST SWAP1 POP SWAP2 SWAP1 POP JUMP JUMPDEST PUSH32 0x4E487B7100000000000000000000000000000000000000000000000000000000 PUSH1 0x0 MSTORE PUSH1 0x12 PUSH1 0x4 MSTORE PUSH1 0x24 PUSH1 0x0 REVERT JUMPDEST PUSH1 0x0 PUSH2 0x452 DUP3 PUSH2 0x331 JUMP JUMPDEST SWAP2 POP PUSH2 0x45D DUP4 PUSH2 0x331 JUMP JUMPDEST SWAP3 POP DUP3 PUSH2 0x46D JUMPI PUSH2 0x46C PUSH2 0x418 JUMP JUMPDEST JUMPDEST DUP3 DUP3 MOD SWAP1 POP SWAP3 SWAP2 POP POP JUMP JUMPDEST PUSH1 0x0 PUSH20 0xFFFFFFFFFFFFFFFFFFFFFFFFFFFFFFFFFFFFFFFF DUP3 AND SWAP1 POP SWAP2 SWAP1 POP JUMP JUMPDEST PUSH1 0x0 PUSH2 0x4A3 DUP3 PUSH2 0x478 JUMP JUMPDEST SWAP1 POP SWAP2 SWAP1 POP JUMP JUMPDEST PUSH2 0x4B3 DUP2 PUSH2 0x498 JUMP JUMPDEST DUP3 MSTORE POP POP JUMP JUMPDEST PUSH1 0x0 PUSH1 0x40 DUP3 ADD SWAP1 POP PUSH2 0x4CE PUSH1 0x0 DUP4 ADD DUP6 PUSH2 0x4AA JUMP JUMPDEST PUSH2 0x4DB PUSH1 0x20 DUP4 ADD DUP5 PUSH2 0x264 JUMP JUMPDEST SWAP4 SWAP3 POP POP POP JUMP INVALID LOG2 PUSH5 0x6970667358 0x22 SLT KECCAK256 PUSH27 0x3C183C1972C1CB24604124CB8A51A2E4A7243917221CCDEEF4404E PUSH19 0x64CE3D64736F6C634300081200330000000000 "
				},
				"gasEstimates": {
					"creation": {
						"codeDepositCost": "260800",
						"executionCost": "276",
						"totalCost": "261076"
					},
					"external": {
						"playGame(uint8)": "infinite"
					}
				},
				"methodIdentifiers": {
					"playGame(uint8)": "985d4ac3"
				}
			},
			"storageLayout": {
				"storage": [],
				"types": null
			},
			"userdoc": {
				"kind": "user",
				"methods": {},
				"version": 1
			}
		}
	}
}