{
	"contracts/RPS.sol": {
		"RockPaperScissors": {
			"abi": [
				{
					"inputs": [],
					"stateMutability": "nonpayable",
					"type": "constructor"
				},
				{
					"anonymous": false,
					"inputs": [
						{
							"indexed": true,
							"internalType": "address",
							"name": "player",
							"type": "address"
						},
						{
							"indexed": false,
							"internalType": "uint256",
							"name": "gameId",
							"type": "uint256"
						},
						{
							"indexed": false,
							"internalType": "uint256",
							"name": "betAmount",
							"type": "uint256"
						},
						{
							"indexed": false,
							"internalType": "uint256",
							"name": "payout",
							"type": "uint256"
						}
					],
					"name": "GameResult",
					"type": "event"
				},
				{
					"inputs": [],
					"name": "gameIdCounter",
					"outputs": [
						{
							"internalType": "uint256",
							"name": "",
							"type": "uint256"
						}
					],
					"stateMutability": "view",
					"type": "function"
				},
				{
					"inputs": [
						{
							"internalType": "uint256",
							"name": "",
							"type": "uint256"
						}
					],
					"name": "games",
					"outputs": [
						{
							"internalType": "address",
							"name": "player",
							"type": "address"
						},
						{
							"internalType": "uint256",
							"name": "betAmount",
							"type": "uint256"
						},
						{
							"internalType": "enum RockPaperScissors.Move",
							"name": "playerMove",
							"type": "uint8"
						},
						{
							"internalType": "enum RockPaperScissors.Move",
							"name": "houseMove",
							"type": "uint8"
						}
					],
					"stateMutability": "view",
					"type": "function"
				},
				{
					"inputs": [],
					"name": "getContractBalance",
					"outputs": [
						{
							"internalType": "uint256",
							"name": "",
							"type": "uint256"
						}
					],
					"stateMutability": "view",
					"type": "function"
				},
				{
					"inputs": [],
					"name": "owner",
					"outputs": [
						{
							"internalType": "address",
							"name": "",
							"type": "address"
						}
					],
					"stateMutability": "view",
					"type": "function"
				},
				{
					"inputs": [
						{
							"internalType": "enum RockPaperScissors.Move",
							"name": "playerMove",
							"type": "uint8"
						}
					],
					"name": "play",
					"outputs": [],
					"stateMutability": "payable",
					"type": "function"
				},
				{
					"inputs": [
						{
							"internalType": "uint256",
							"name": "amount",
							"type": "uint256"
						}
					],
					"name": "withdrawBalance",
					"outputs": [],
					"stateMutability": "nonpayable",
					"type": "function"
				}
			],
			"devdoc": {
				"kind": "dev",
				"methods": {},
				"version": 1
			},
			"evm": {
				"assembly": "    /* \"contracts/RPS.sol\":60:2199  contract RockPaperScissors {... */\n  mstore(0x40, 0x80)\n    /* \"contracts/RPS.sol\":558:609  constructor() {... */\n  callvalue\n  dup1\n  iszero\n  tag_1\n  jumpi\n  0x00\n  dup1\n  revert\ntag_1:\n  pop\n    /* \"contracts/RPS.sol\":591:601  msg.sender */\n  caller\n    /* \"contracts/RPS.sol\":583:588  owner */\n  0x00\n  dup1\n    /* \"contracts/RPS.sol\":583:601  owner = msg.sender */\n  0x0100\n  exp\n  dup2\n  sload\n  dup2\n  0xffffffffffffffffffffffffffffffffffffffff\n  mul\n  not\n  and\n  swap1\n  dup4\n  0xffffffffffffffffffffffffffffffffffffffff\n  and\n  mul\n  or\n  swap1\n  sstore\n  pop\n    /* \"contracts/RPS.sol\":60:2199  contract RockPaperScissors {... */\n  dataSize(sub_0)\n  dup1\n  dataOffset(sub_0)\n  0x00\n  codecopy\n  0x00\n  return\nstop\n\nsub_0: assembly {\n        /* \"contracts/RPS.sol\":60:2199  contract RockPaperScissors {... */\n      mstore(0x40, 0x80)\n      jumpi(tag_1, lt(calldatasize, 0x04))\n      shr(0xe0, calldataload(0x00))\n      dup1\n      0x117a5b90\n      eq\n      tag_2\n      jumpi\n      dup1\n      0x1bb412d6\n      eq\n      tag_3\n      jumpi\n      dup1\n      0x53a04b05\n      eq\n      tag_4\n      jumpi\n      dup1\n      0x6f9fb98a\n      eq\n      tag_5\n      jumpi\n      dup1\n      0x8da5cb5b\n      eq\n      tag_6\n      jumpi\n      dup1\n      0xda76d5cd\n      eq\n      tag_7\n      jumpi\n    tag_1:\n      0x00\n      dup1\n      revert\n        /* \"contracts/RPS.sol\":296:333  mapping(uint256 => Game) public games */\n    tag_2:\n      callvalue\n      dup1\n      iszero\n      tag_8\n      jumpi\n      0x00\n      dup1\n      revert\n    tag_8:\n      pop\n      tag_9\n      0x04\n      dup1\n      calldatasize\n      sub\n      dup2\n      add\n      swap1\n      tag_10\n      swap2\n      swap1\n      tag_11\n      jump\t// in\n    tag_10:\n      tag_12\n      jump\t// in\n    tag_9:\n      mload(0x40)\n      tag_13\n      swap5\n      swap4\n      swap3\n      swap2\n      swap1\n      tag_14\n      jump\t// in\n    tag_13:\n      mload(0x40)\n      dup1\n      swap2\n      sub\n      swap1\n      return\n        /* \"contracts/RPS.sol\":340:368  uint256 public gameIdCounter */\n    tag_3:\n      callvalue\n      dup1\n      iszero\n      tag_15\n      jumpi\n      0x00\n      dup1\n      revert\n    tag_15:\n      pop\n      tag_16\n      tag_17\n      jump\t// in\n    tag_16:\n      mload(0x40)\n      tag_18\n      swap2\n      swap1\n      tag_19\n      jump\t// in\n    tag_18:\n      mload(0x40)\n      dup1\n      swap2\n      sub\n      swap1\n      return\n        /* \"contracts/RPS.sol\":745:1650  function play(Move playerMove) external payable {... */\n    tag_4:\n      tag_20\n      0x04\n      dup1\n      calldatasize\n      sub\n      dup2\n      add\n      swap1\n      tag_21\n      swap2\n      swap1\n      tag_22\n      jump\t// in\n    tag_21:\n      tag_23\n      jump\t// in\n    tag_20:\n      stop\n        /* \"contracts/RPS.sol\":2087:2196  function getContractBalance() external view returns (uint256) {... */\n    tag_5:\n      callvalue\n      dup1\n      iszero\n      tag_24\n      jumpi\n      0x00\n      dup1\n      revert\n    tag_24:\n      pop\n      tag_25\n      tag_26\n      jump\t// in\n    tag_25:\n      mload(0x40)\n      tag_27\n      swap2\n      swap1\n      tag_19\n      jump\t// in\n    tag_27:\n      mload(0x40)\n      dup1\n      swap2\n      sub\n      swap1\n      return\n        /* \"contracts/RPS.sol\":269:289  address public owner */\n    tag_6:\n      callvalue\n      dup1\n      iszero\n      tag_28\n      jumpi\n      0x00\n      dup1\n      revert\n    tag_28:\n      pop\n      tag_29\n      tag_30\n      jump\t// in\n    tag_29:\n      mload(0x40)\n      tag_31\n      swap2\n      swap1\n      tag_32\n      jump\t// in\n    tag_31:\n      mload(0x40)\n      dup1\n      swap2\n      sub\n      swap1\n      return\n        /* \"contracts/RPS.sol\":1883:2079  function withdrawBalance(uint256 amount) external onlyOwner {... */\n    tag_7:\n      callvalue\n      dup1\n      iszero\n      tag_33\n      jumpi\n      0x00\n      dup1\n      revert\n    tag_33:\n      pop\n      tag_34\n      0x04\n      dup1\n      calldatasize\n      sub\n      dup2\n      add\n      swap1\n      tag_35\n      swap2\n      swap1\n      tag_11\n      jump\t// in\n    tag_35:\n      tag_36\n      jump\t// in\n    tag_34:\n      stop\n        /* \"contracts/RPS.sol\":296:333  mapping(uint256 => Game) public games */\n    tag_12:\n      mstore(0x20, 0x01)\n      dup1\n      0x00\n      mstore\n      keccak256(0x00, 0x40)\n      0x00\n      swap2\n      pop\n      swap1\n      pop\n      dup1\n      0x00\n      add\n      0x00\n      swap1\n      sload\n      swap1\n      0x0100\n      exp\n      swap1\n      div\n      0xffffffffffffffffffffffffffffffffffffffff\n      and\n      swap1\n      dup1\n      0x01\n      add\n      sload\n      swap1\n      dup1\n      0x02\n      add\n      0x00\n      swap1\n      sload\n      swap1\n      0x0100\n      exp\n      swap1\n      div\n      0xff\n      and\n      swap1\n      dup1\n      0x02\n      add\n      0x01\n      swap1\n      sload\n      swap1\n      0x0100\n      exp\n      swap1\n      div\n      0xff\n      and\n      swap1\n      pop\n      dup5\n      jump\t// out\n        /* \"contracts/RPS.sol\":340:368  uint256 public gameIdCounter */\n    tag_17:\n      sload(0x02)\n      dup2\n      jump\t// out\n        /* \"contracts/RPS.sol\":745:1650  function play(Move playerMove) external payable {... */\n    tag_23:\n        /* \"contracts/RPS.sol\":412:427  100000000000000 */\n      0x5af3107a4000\n        /* \"contracts/RPS.sol\":812:821  msg.value */\n      callvalue\n        /* \"contracts/RPS.sol\":812:832  msg.value >= MIN_BET */\n      lt\n      iszero\n        /* \"contracts/RPS.sol\":804:877  require(msg.value >= MIN_BET, \"Bet amount must be at least 0.0001 tBNB.\") */\n      tag_38\n      jumpi\n      mload(0x40)\n      0x08c379a000000000000000000000000000000000000000000000000000000000\n      dup2\n      mstore\n      0x04\n      add\n      tag_39\n      swap1\n      tag_40\n      jump\t// in\n    tag_39:\n      mload(0x40)\n      dup1\n      swap2\n      sub\n      swap1\n      revert\n    tag_38:\n        /* \"contracts/RPS.sol\":898:912  Move houseMove */\n      0x00\n        /* \"contracts/RPS.sol\":915:935  generateRandomMove() */\n      tag_41\n        /* \"contracts/RPS.sol\":915:933  generateRandomMove */\n      tag_42\n        /* \"contracts/RPS.sol\":915:935  generateRandomMove() */\n      jump\t// in\n    tag_41:\n        /* \"contracts/RPS.sol\":898:935  Move houseMove = generateRandomMove() */\n      swap1\n      pop\n        /* \"contracts/RPS.sol\":946:960  uint256 payout */\n      0x00\n        /* \"contracts/RPS.sol\":1007:1008  1 */\n      0x01\n        /* \"contracts/RPS.sol\":991:1004  gameIdCounter */\n      sload(0x02)\n        /* \"contracts/RPS.sol\":991:1008  gameIdCounter + 1 */\n      tag_43\n      swap2\n      swap1\n      tag_44\n      jump\t// in\n    tag_43:\n        /* \"contracts/RPS.sol\":975:988  gameIdCounter */\n      0x02\n        /* \"contracts/RPS.sol\":975:1008  gameIdCounter = gameIdCounter + 1 */\n      dup2\n      swap1\n      sstore\n      pop\n        /* \"contracts/RPS.sol\":1029:1048  Game memory newGame */\n      0x00\n        /* \"contracts/RPS.sol\":1051:1208  Game({... */\n      mload(0x40)\n      dup1\n      0x80\n      add\n      0x40\n      mstore\n      dup1\n        /* \"contracts/RPS.sol\":1079:1089  msg.sender */\n      caller\n        /* \"contracts/RPS.sol\":1051:1208  Game({... */\n      0xffffffffffffffffffffffffffffffffffffffff\n      and\n      dup2\n      mstore\n      0x20\n      add\n        /* \"contracts/RPS.sol\":1115:1124  msg.value */\n      callvalue\n        /* \"contracts/RPS.sol\":1051:1208  Game({... */\n      dup2\n      mstore\n      0x20\n      add\n        /* \"contracts/RPS.sol\":1151:1161  playerMove */\n      dup6\n        /* \"contracts/RPS.sol\":1051:1208  Game({... */\n      0x02\n      dup2\n      gt\n      iszero\n      tag_45\n      jumpi\n      tag_46\n      tag_47\n      jump\t// in\n    tag_46:\n    tag_45:\n      dup2\n      mstore\n      0x20\n      add\n        /* \"contracts/RPS.sol\":1187:1196  houseMove */\n      dup5\n        /* \"contracts/RPS.sol\":1051:1208  Game({... */\n      0x02\n      dup2\n      gt\n      iszero\n      tag_48\n      jumpi\n      tag_49\n      tag_47\n      jump\t// in\n    tag_49:\n    tag_48:\n      dup2\n      mstore\n      pop\n        /* \"contracts/RPS.sol\":1029:1208  Game memory newGame = Game({... */\n      swap1\n      pop\n        /* \"contracts/RPS.sol\":1244:1251  newGame */\n      dup1\n        /* \"contracts/RPS.sol\":1221:1226  games */\n      0x01\n        /* \"contracts/RPS.sol\":1221:1241  games[gameIdCounter] */\n      0x00\n        /* \"contracts/RPS.sol\":1227:1240  gameIdCounter */\n      sload(0x02)\n        /* \"contracts/RPS.sol\":1221:1241  games[gameIdCounter] */\n      dup2\n      mstore\n      0x20\n      add\n      swap1\n      dup2\n      mstore\n      0x20\n      add\n      0x00\n      keccak256\n        /* \"contracts/RPS.sol\":1221:1251  games[gameIdCounter] = newGame */\n      0x00\n      dup3\n      add\n      mload\n      dup2\n      0x00\n      add\n      exp(0x0100, 0x00)\n      dup2\n      sload\n      dup2\n      0xffffffffffffffffffffffffffffffffffffffff\n      mul\n      not\n      and\n      swap1\n      dup4\n      0xffffffffffffffffffffffffffffffffffffffff\n      and\n      mul\n      or\n      swap1\n      sstore\n      pop\n      0x20\n      dup3\n      add\n      mload\n      dup2\n      0x01\n      add\n      sstore\n      0x40\n      dup3\n      add\n      mload\n      dup2\n      0x02\n      add\n      exp(0x0100, 0x00)\n      dup2\n      sload\n      dup2\n      0xff\n      mul\n      not\n      and\n      swap1\n      dup4\n      0x02\n      dup2\n      gt\n      iszero\n      tag_50\n      jumpi\n      tag_51\n      tag_47\n      jump\t// in\n    tag_51:\n    tag_50:\n      mul\n      or\n      swap1\n      sstore\n      pop\n      0x60\n      dup3\n      add\n      mload\n      dup2\n      0x02\n      add\n      exp(0x0100, 0x01)\n      dup2\n      sload\n      dup2\n      0xff\n      mul\n      not\n      and\n      swap1\n      dup4\n      0x02\n      dup2\n      gt\n      iszero\n      tag_52\n      jumpi\n      tag_53\n      tag_47\n      jump\t// in\n    tag_53:\n    tag_52:\n      mul\n      or\n      swap1\n      sstore\n      pop\n      swap1\n      pop\n      pop\n        /* \"contracts/RPS.sol\":1283:1292  Move.ROCK */\n      0x00\n        /* \"contracts/RPS.sol\":1269:1292  playerMove == Move.ROCK */\n      0x02\n      dup2\n      gt\n      iszero\n      tag_54\n      jumpi\n      tag_55\n      tag_47\n      jump\t// in\n    tag_55:\n    tag_54:\n        /* \"contracts/RPS.sol\":1269:1279  playerMove */\n      dup5\n        /* \"contracts/RPS.sol\":1269:1292  playerMove == Move.ROCK */\n      0x02\n      dup2\n      gt\n      iszero\n      tag_56\n      jumpi\n      tag_57\n      tag_47\n      jump\t// in\n    tag_57:\n    tag_56:\n      eq\n        /* \"contracts/RPS.sol\":1269:1322  playerMove == Move.ROCK && houseMove == Move.SCISSORS */\n      dup1\n      iszero\n      tag_58\n      jumpi\n      pop\n        /* \"contracts/RPS.sol\":1309:1322  Move.SCISSORS */\n      0x02\n        /* \"contracts/RPS.sol\":1296:1322  houseMove == Move.SCISSORS */\n      dup1\n      dup2\n      gt\n      iszero\n      tag_59\n      jumpi\n      tag_60\n      tag_47\n      jump\t// in\n    tag_60:\n    tag_59:\n        /* \"contracts/RPS.sol\":1296:1305  houseMove */\n      dup4\n        /* \"contracts/RPS.sol\":1296:1322  houseMove == Move.SCISSORS */\n      0x02\n      dup2\n      gt\n      iszero\n      tag_61\n      jumpi\n      tag_62\n      tag_47\n      jump\t// in\n    tag_62:\n    tag_61:\n      eq\n        /* \"contracts/RPS.sol\":1269:1322  playerMove == Move.ROCK && houseMove == Move.SCISSORS */\n    tag_58:\n        /* \"contracts/RPS.sol\":1268:1393  (playerMove == Move.ROCK && houseMove == Move.SCISSORS) || ... */\n      dup1\n      tag_63\n      jumpi\n      pop\n        /* \"contracts/RPS.sol\":1356:1366  Move.PAPER */\n      0x01\n        /* \"contracts/RPS.sol\":1342:1366  playerMove == Move.PAPER */\n      0x02\n      dup2\n      gt\n      iszero\n      tag_64\n      jumpi\n      tag_65\n      tag_47\n      jump\t// in\n    tag_65:\n    tag_64:\n        /* \"contracts/RPS.sol\":1342:1352  playerMove */\n      dup5\n        /* \"contracts/RPS.sol\":1342:1366  playerMove == Move.PAPER */\n      0x02\n      dup2\n      gt\n      iszero\n      tag_66\n      jumpi\n      tag_67\n      tag_47\n      jump\t// in\n    tag_67:\n    tag_66:\n      eq\n        /* \"contracts/RPS.sol\":1342:1392  playerMove == Move.PAPER && houseMove == Move.ROCK */\n      dup1\n      iszero\n      tag_68\n      jumpi\n      pop\n        /* \"contracts/RPS.sol\":1383:1392  Move.ROCK */\n      0x00\n        /* \"contracts/RPS.sol\":1370:1392  houseMove == Move.ROCK */\n      0x02\n      dup2\n      gt\n      iszero\n      tag_69\n      jumpi\n      tag_70\n      tag_47\n      jump\t// in\n    tag_70:\n    tag_69:\n        /* \"contracts/RPS.sol\":1370:1379  houseMove */\n      dup4\n        /* \"contracts/RPS.sol\":1370:1392  houseMove == Move.ROCK */\n      0x02\n      dup2\n      gt\n      iszero\n      tag_71\n      jumpi\n      tag_72\n      tag_47\n      jump\t// in\n    tag_72:\n    tag_71:\n      eq\n        /* \"contracts/RPS.sol\":1342:1392  playerMove == Move.PAPER && houseMove == Move.ROCK */\n    tag_68:\n        /* \"contracts/RPS.sol\":1268:1393  (playerMove == Move.ROCK && houseMove == Move.SCISSORS) || ... */\n    tag_63:\n        /* \"contracts/RPS.sol\":1268:1467  (playerMove == Move.ROCK && houseMove == Move.SCISSORS) || ... */\n      dup1\n      tag_73\n      jumpi\n      pop\n        /* \"contracts/RPS.sol\":1426:1439  Move.SCISSORS */\n      0x02\n        /* \"contracts/RPS.sol\":1412:1439  playerMove == Move.SCISSORS */\n      dup1\n      dup2\n      gt\n      iszero\n      tag_74\n      jumpi\n      tag_75\n      tag_47\n      jump\t// in\n    tag_75:\n    tag_74:\n        /* \"contracts/RPS.sol\":1412:1422  playerMove */\n      dup5\n        /* \"contracts/RPS.sol\":1412:1439  playerMove == Move.SCISSORS */\n      0x02\n      dup2\n      gt\n      iszero\n      tag_76\n      jumpi\n      tag_77\n      tag_47\n      jump\t// in\n    tag_77:\n    tag_76:\n      eq\n        /* \"contracts/RPS.sol\":1412:1466  playerMove == Move.SCISSORS && houseMove == Move.PAPER */\n      dup1\n      iszero\n      tag_78\n      jumpi\n      pop\n        /* \"contracts/RPS.sol\":1456:1466  Move.PAPER */\n      0x01\n        /* \"contracts/RPS.sol\":1443:1466  houseMove == Move.PAPER */\n      0x02\n      dup2\n      gt\n      iszero\n      tag_79\n      jumpi\n      tag_80\n      tag_47\n      jump\t// in\n    tag_80:\n    tag_79:\n        /* \"contracts/RPS.sol\":1443:1452  houseMove */\n      dup4\n        /* \"contracts/RPS.sol\":1443:1466  houseMove == Move.PAPER */\n      0x02\n      dup2\n      gt\n      iszero\n      tag_81\n      jumpi\n      tag_82\n      tag_47\n      jump\t// in\n    tag_82:\n    tag_81:\n      eq\n        /* \"contracts/RPS.sol\":1412:1466  playerMove == Move.SCISSORS && houseMove == Move.PAPER */\n    tag_78:\n        /* \"contracts/RPS.sol\":1268:1467  (playerMove == Move.ROCK && houseMove == Move.SCISSORS) || ... */\n    tag_73:\n        /* \"contracts/RPS.sol\":1264:1569  if ((playerMove == Move.ROCK && houseMove == Move.SCISSORS) || ... */\n      iszero\n      tag_83\n      jumpi\n        /* \"contracts/RPS.sol\":1505:1506  2 */\n      0x02\n        /* \"contracts/RPS.sol\":1493:1502  msg.value */\n      callvalue\n        /* \"contracts/RPS.sol\":1493:1506  msg.value * 2 */\n      tag_84\n      swap2\n      swap1\n      tag_85\n      jump\t// in\n    tag_84:\n        /* \"contracts/RPS.sol\":1484:1506  payout = msg.value * 2 */\n      swap2\n      pop\n        /* \"contracts/RPS.sol\":1529:1539  msg.sender */\n      caller\n        /* \"contracts/RPS.sol\":1521:1549  payable(msg.sender).transfer */\n      0xffffffffffffffffffffffffffffffffffffffff\n      and\n        /* \"contracts/RPS.sol\":1521:1557  payable(msg.sender).transfer(payout) */\n      0x08fc\n        /* \"contracts/RPS.sol\":1550:1556  payout */\n      dup4\n        /* \"contracts/RPS.sol\":1521:1557  payable(msg.sender).transfer(payout) */\n      swap1\n      dup2\n      iszero\n      mul\n      swap1\n      mload(0x40)\n      0x00\n      mload(0x40)\n      dup1\n      dup4\n      sub\n      dup2\n      dup6\n      dup9\n      dup9\n      call\n      swap4\n      pop\n      pop\n      pop\n      pop\n      iszero\n      dup1\n      iszero\n      tag_87\n      jumpi\n      returndatasize\n      0x00\n      dup1\n      returndatacopy\n      revert(0x00, returndatasize)\n    tag_87:\n      pop\n        /* \"contracts/RPS.sol\":1264:1569  if ((playerMove == Move.ROCK && houseMove == Move.SCISSORS) || ... */\n    tag_83:\n        /* \"contracts/RPS.sol\":1597:1607  msg.sender */\n      caller\n        /* \"contracts/RPS.sol\":1586:1642  GameResult(msg.sender, gameIdCounter, msg.value, payout) */\n      0xffffffffffffffffffffffffffffffffffffffff\n      and\n      0xb23ab49b4ba9602e729f07366027f225f26e664a9cfec60a5ed4cbf87a81fb04\n        /* \"contracts/RPS.sol\":1609:1622  gameIdCounter */\n      sload(0x02)\n        /* \"contracts/RPS.sol\":1624:1633  msg.value */\n      callvalue\n        /* \"contracts/RPS.sol\":1635:1641  payout */\n      dup6\n        /* \"contracts/RPS.sol\":1586:1642  GameResult(msg.sender, gameIdCounter, msg.value, payout) */\n      mload(0x40)\n      tag_88\n      swap4\n      swap3\n      swap2\n      swap1\n      tag_89\n      jump\t// in\n    tag_88:\n      mload(0x40)\n      dup1\n      swap2\n      sub\n      swap1\n      log2\n        /* \"contracts/RPS.sol\":793:1650  {... */\n      pop\n      pop\n      pop\n        /* \"contracts/RPS.sol\":745:1650  function play(Move playerMove) external payable {... */\n      pop\n      jump\t// out\n        /* \"contracts/RPS.sol\":2087:2196  function getContractBalance() external view returns (uint256) {... */\n    tag_26:\n        /* \"contracts/RPS.sol\":2140:2147  uint256 */\n      0x00\n        /* \"contracts/RPS.sol\":2167:2188  address(this).balance */\n      selfbalance\n        /* \"contracts/RPS.sol\":2160:2188  return address(this).balance */\n      swap1\n      pop\n        /* \"contracts/RPS.sol\":2087:2196  function getContractBalance() external view returns (uint256) {... */\n      swap1\n      jump\t// out\n        /* \"contracts/RPS.sol\":269:289  address public owner */\n    tag_30:\n      0x00\n      dup1\n      sload\n      swap1\n      0x0100\n      exp\n      swap1\n      div\n      0xffffffffffffffffffffffffffffffffffffffff\n      and\n      dup2\n      jump\t// out\n        /* \"contracts/RPS.sol\":1883:2079  function withdrawBalance(uint256 amount) external onlyOwner {... */\n    tag_36:\n        /* \"contracts/RPS.sol\":669:674  owner */\n      0x00\n      dup1\n      sload\n      swap1\n      0x0100\n      exp\n      swap1\n      div\n      0xffffffffffffffffffffffffffffffffffffffff\n      and\n        /* \"contracts/RPS.sol\":655:674  msg.sender == owner */\n      0xffffffffffffffffffffffffffffffffffffffff\n      and\n        /* \"contracts/RPS.sol\":655:665  msg.sender */\n      caller\n        /* \"contracts/RPS.sol\":655:674  msg.sender == owner */\n      0xffffffffffffffffffffffffffffffffffffffff\n      and\n      eq\n        /* \"contracts/RPS.sol\":647:717  require(msg.sender == owner, \"Only the owner can call this function.\") */\n      tag_92\n      jumpi\n      mload(0x40)\n      0x08c379a000000000000000000000000000000000000000000000000000000000\n      dup2\n      mstore\n      0x04\n      add\n      tag_93\n      swap1\n      tag_94\n      jump\t// in\n    tag_93:\n      mload(0x40)\n      dup1\n      swap2\n      sub\n      swap1\n      revert\n    tag_92:\n        /* \"contracts/RPS.sol\":1987:1993  amount */\n      dup1\n        /* \"contracts/RPS.sol\":1962:1983  address(this).balance */\n      selfbalance\n        /* \"contracts/RPS.sol\":1962:1993  address(this).balance >= amount */\n      lt\n      iszero\n        /* \"contracts/RPS.sol\":1954:2029  require(address(this).balance >= amount, \"Not enough balance to withdraw.\") */\n      tag_96\n      jumpi\n      mload(0x40)\n      0x08c379a000000000000000000000000000000000000000000000000000000000\n      dup2\n      mstore\n      0x04\n      add\n      tag_97\n      swap1\n      tag_98\n      jump\t// in\n    tag_97:\n      mload(0x40)\n      dup1\n      swap2\n      sub\n      swap1\n      revert\n    tag_96:\n        /* \"contracts/RPS.sol\":2048:2053  owner */\n      0x00\n      dup1\n      sload\n      swap1\n      0x0100\n      exp\n      swap1\n      div\n      0xffffffffffffffffffffffffffffffffffffffff\n      and\n        /* \"contracts/RPS.sol\":2040:2063  payable(owner).transfer */\n      0xffffffffffffffffffffffffffffffffffffffff\n      and\n        /* \"contracts/RPS.sol\":2040:2071  payable(owner).transfer(amount) */\n      0x08fc\n        /* \"contracts/RPS.sol\":2064:2070  amount */\n      dup3\n        /* \"contracts/RPS.sol\":2040:2071  payable(owner).transfer(amount) */\n      swap1\n      dup2\n      iszero\n      mul\n      swap1\n      mload(0x40)\n      0x00\n      mload(0x40)\n      dup1\n      dup4\n      sub\n      dup2\n      dup6\n      dup9\n      dup9\n      call\n      swap4\n      pop\n      pop\n      pop\n      pop\n      iszero\n      dup1\n      iszero\n      tag_100\n      jumpi\n      returndatasize\n      0x00\n      dup1\n      returndatacopy\n      revert(0x00, returndatasize)\n    tag_100:\n      pop\n        /* \"contracts/RPS.sol\":1883:2079  function withdrawBalance(uint256 amount) external onlyOwner {... */\n      pop\n      jump\t// out\n        /* \"contracts/RPS.sol\":1658:1875  function generateRandomMove() private view returns (Move) {... */\n    tag_42:\n        /* \"contracts/RPS.sol\":1710:1714  Move */\n      0x00\n        /* \"contracts/RPS.sol\":1727:1744  uint256 randomNum */\n      dup1\n        /* \"contracts/RPS.sol\":1833:1834  3 */\n      0x03\n        /* \"contracts/RPS.sol\":1782:1797  block.timestamp */\n      timestamp\n        /* \"contracts/RPS.sol\":1799:1815  block.difficulty */\n      prevrandao\n        /* \"contracts/RPS.sol\":1817:1827  msg.sender */\n      caller\n        /* \"contracts/RPS.sol\":1765:1828  abi.encodePacked(block.timestamp, block.difficulty, msg.sender) */\n      add(0x20, mload(0x40))\n      tag_102\n      swap4\n      swap3\n      swap2\n      swap1\n      tag_103\n      jump\t// in\n    tag_102:\n      mload(0x40)\n      0x20\n      dup2\n      dup4\n      sub\n      sub\n      dup2\n      mstore\n      swap1\n      0x40\n      mstore\n        /* \"contracts/RPS.sol\":1755:1829  keccak256(abi.encodePacked(block.timestamp, block.difficulty, msg.sender)) */\n      dup1\n      mload\n      swap1\n      0x20\n      add\n      keccak256\n        /* \"contracts/RPS.sol\":1747:1830  uint256(keccak256(abi.encodePacked(block.timestamp, block.difficulty, msg.sender))) */\n      0x00\n      shr\n        /* \"contracts/RPS.sol\":1747:1834  uint256(keccak256(abi.encodePacked(block.timestamp, block.difficulty, msg.sender))) % 3 */\n      tag_104\n      swap2\n      swap1\n      tag_105\n      jump\t// in\n    tag_104:\n        /* \"contracts/RPS.sol\":1727:1834  uint256 randomNum = uint256(keccak256(abi.encodePacked(block.timestamp, block.difficulty, msg.sender))) % 3 */\n      swap1\n      pop\n        /* \"contracts/RPS.sol\":1857:1866  randomNum */\n      dup1\n        /* \"contracts/RPS.sol\":1852:1867  Move(randomNum) */\n      0x02\n      dup2\n      gt\n      iszero\n      tag_106\n      jumpi\n      tag_107\n      tag_47\n      jump\t// in\n    tag_107:\n    tag_106:\n        /* \"contracts/RPS.sol\":1845:1867  return Move(randomNum) */\n      swap2\n      pop\n      pop\n        /* \"contracts/RPS.sol\":1658:1875  function generateRandomMove() private view returns (Move) {... */\n      swap1\n      jump\t// out\n        /* \"#utility.yul\":88:205   */\n    tag_109:\n        /* \"#utility.yul\":197:198   */\n      0x00\n        /* \"#utility.yul\":194:195   */\n      dup1\n        /* \"#utility.yul\":187:199   */\n      revert\n        /* \"#utility.yul\":334:411   */\n    tag_111:\n        /* \"#utility.yul\":371:378   */\n      0x00\n        /* \"#utility.yul\":400:405   */\n      dup2\n        /* \"#utility.yul\":389:405   */\n      swap1\n      pop\n        /* \"#utility.yul\":334:411   */\n      swap2\n      swap1\n      pop\n      jump\t// out\n        /* \"#utility.yul\":417:539   */\n    tag_112:\n        /* \"#utility.yul\":490:514   */\n      tag_145\n        /* \"#utility.yul\":508:513   */\n      dup2\n        /* \"#utility.yul\":490:514   */\n      tag_111\n      jump\t// in\n    tag_145:\n        /* \"#utility.yul\":483:488   */\n      dup2\n        /* \"#utility.yul\":480:515   */\n      eq\n        /* \"#utility.yul\":470:533   */\n      tag_146\n      jumpi\n        /* \"#utility.yul\":529:530   */\n      0x00\n        /* \"#utility.yul\":526:527   */\n      dup1\n        /* \"#utility.yul\":519:531   */\n      revert\n        /* \"#utility.yul\":470:533   */\n    tag_146:\n        /* \"#utility.yul\":417:539   */\n      pop\n      jump\t// out\n        /* \"#utility.yul\":545:684   */\n    tag_113:\n        /* \"#utility.yul\":591:596   */\n      0x00\n        /* \"#utility.yul\":629:635   */\n      dup2\n        /* \"#utility.yul\":616:636   */\n      calldataload\n        /* \"#utility.yul\":607:636   */\n      swap1\n      pop\n        /* \"#utility.yul\":645:678   */\n      tag_148\n        /* \"#utility.yul\":672:677   */\n      dup2\n        /* \"#utility.yul\":645:678   */\n      tag_112\n      jump\t// in\n    tag_148:\n        /* \"#utility.yul\":545:684   */\n      swap3\n      swap2\n      pop\n      pop\n      jump\t// out\n        /* \"#utility.yul\":690:1019   */\n    tag_11:\n        /* \"#utility.yul\":749:755   */\n      0x00\n        /* \"#utility.yul\":798:800   */\n      0x20\n        /* \"#utility.yul\":786:795   */\n      dup3\n        /* \"#utility.yul\":777:784   */\n      dup5\n        /* \"#utility.yul\":773:796   */\n      sub\n        /* \"#utility.yul\":769:801   */\n      slt\n        /* \"#utility.yul\":766:885   */\n      iszero\n      tag_150\n      jumpi\n        /* \"#utility.yul\":804:883   */\n      tag_151\n      tag_109\n      jump\t// in\n    tag_151:\n        /* \"#utility.yul\":766:885   */\n    tag_150:\n        /* \"#utility.yul\":924:925   */\n      0x00\n        /* \"#utility.yul\":949:1002   */\n      tag_152\n        /* \"#utility.yul\":994:1001   */\n      dup5\n        /* \"#utility.yul\":985:991   */\n      dup3\n        /* \"#utility.yul\":974:983   */\n      dup6\n        /* \"#utility.yul\":970:992   */\n      add\n        /* \"#utility.yul\":949:1002   */\n      tag_113\n      jump\t// in\n    tag_152:\n        /* \"#utility.yul\":939:1002   */\n      swap2\n      pop\n        /* \"#utility.yul\":895:1012   */\n      pop\n        /* \"#utility.yul\":690:1019   */\n      swap3\n      swap2\n      pop\n      pop\n      jump\t// out\n        /* \"#utility.yul\":1025:1151   */\n    tag_114:\n        /* \"#utility.yul\":1062:1069   */\n      0x00\n        /* \"#utility.yul\":1102:1144   */\n      0xffffffffffffffffffffffffffffffffffffffff\n        /* \"#utility.yul\":1095:1100   */\n      dup3\n        /* \"#utility.yul\":1091:1145   */\n      and\n        /* \"#utility.yul\":1080:1145   */\n      swap1\n      pop\n        /* \"#utility.yul\":1025:1151   */\n      swap2\n      swap1\n      pop\n      jump\t// out\n        /* \"#utility.yul\":1157:1253   */\n    tag_115:\n        /* \"#utility.yul\":1194:1201   */\n      0x00\n        /* \"#utility.yul\":1223:1247   */\n      tag_155\n        /* \"#utility.yul\":1241:1246   */\n      dup3\n        /* \"#utility.yul\":1223:1247   */\n      tag_114\n      jump\t// in\n    tag_155:\n        /* \"#utility.yul\":1212:1247   */\n      swap1\n      pop\n        /* \"#utility.yul\":1157:1253   */\n      swap2\n      swap1\n      pop\n      jump\t// out\n        /* \"#utility.yul\":1259:1377   */\n    tag_116:\n        /* \"#utility.yul\":1346:1370   */\n      tag_157\n        /* \"#utility.yul\":1364:1369   */\n      dup2\n        /* \"#utility.yul\":1346:1370   */\n      tag_115\n      jump\t// in\n    tag_157:\n        /* \"#utility.yul\":1341:1344   */\n      dup3\n        /* \"#utility.yul\":1334:1371   */\n      mstore\n        /* \"#utility.yul\":1259:1377   */\n      pop\n      pop\n      jump\t// out\n        /* \"#utility.yul\":1383:1501   */\n    tag_117:\n        /* \"#utility.yul\":1470:1494   */\n      tag_159\n        /* \"#utility.yul\":1488:1493   */\n      dup2\n        /* \"#utility.yul\":1470:1494   */\n      tag_111\n      jump\t// in\n    tag_159:\n        /* \"#utility.yul\":1465:1468   */\n      dup3\n        /* \"#utility.yul\":1458:1495   */\n      mstore\n        /* \"#utility.yul\":1383:1501   */\n      pop\n      pop\n      jump\t// out\n        /* \"#utility.yul\":1507:1687   */\n    tag_47:\n        /* \"#utility.yul\":1555:1632   */\n      0x4e487b7100000000000000000000000000000000000000000000000000000000\n        /* \"#utility.yul\":1552:1553   */\n      0x00\n        /* \"#utility.yul\":1545:1633   */\n      mstore\n        /* \"#utility.yul\":1652:1656   */\n      0x21\n        /* \"#utility.yul\":1649:1650   */\n      0x04\n        /* \"#utility.yul\":1642:1657   */\n      mstore\n        /* \"#utility.yul\":1676:1680   */\n      0x24\n        /* \"#utility.yul\":1673:1674   */\n      0x00\n        /* \"#utility.yul\":1666:1681   */\n      revert\n        /* \"#utility.yul\":1693:1804   */\n    tag_118:\n        /* \"#utility.yul\":1772:1773   */\n      0x03\n        /* \"#utility.yul\":1765:1770   */\n      dup2\n        /* \"#utility.yul\":1762:1774   */\n      lt\n        /* \"#utility.yul\":1752:1798   */\n      tag_162\n      jumpi\n        /* \"#utility.yul\":1778:1796   */\n      tag_163\n      tag_47\n      jump\t// in\n    tag_163:\n        /* \"#utility.yul\":1752:1798   */\n    tag_162:\n        /* \"#utility.yul\":1693:1804   */\n      pop\n      jump\t// out\n        /* \"#utility.yul\":1810:1933   */\n    tag_119:\n        /* \"#utility.yul\":1853:1860   */\n      0x00\n        /* \"#utility.yul\":1882:1887   */\n      dup2\n        /* \"#utility.yul\":1871:1887   */\n      swap1\n      pop\n        /* \"#utility.yul\":1888:1927   */\n      tag_165\n        /* \"#utility.yul\":1921:1926   */\n      dup3\n        /* \"#utility.yul\":1888:1927   */\n      tag_118\n      jump\t// in\n    tag_165:\n        /* \"#utility.yul\":1810:1933   */\n      swap2\n      swap1\n      pop\n      jump\t// out\n        /* \"#utility.yul\":1939:2062   */\n    tag_120:\n        /* \"#utility.yul\":1993:2002   */\n      0x00\n        /* \"#utility.yul\":2026:2056   */\n      tag_167\n        /* \"#utility.yul\":2050:2055   */\n      dup3\n        /* \"#utility.yul\":2026:2056   */\n      tag_119\n      jump\t// in\n    tag_167:\n        /* \"#utility.yul\":2013:2056   */\n      swap1\n      pop\n        /* \"#utility.yul\":1939:2062   */\n      swap2\n      swap1\n      pop\n      jump\t// out\n        /* \"#utility.yul\":2068:2207   */\n    tag_121:\n        /* \"#utility.yul\":2159:2200   */\n      tag_169\n        /* \"#utility.yul\":2194:2199   */\n      dup2\n        /* \"#utility.yul\":2159:2200   */\n      tag_120\n      jump\t// in\n    tag_169:\n        /* \"#utility.yul\":2154:2157   */\n      dup3\n        /* \"#utility.yul\":2147:2201   */\n      mstore\n        /* \"#utility.yul\":2068:2207   */\n      pop\n      pop\n      jump\t// out\n        /* \"#utility.yul\":2213:2782   */\n    tag_14:\n        /* \"#utility.yul\":2398:2402   */\n      0x00\n        /* \"#utility.yul\":2436:2439   */\n      0x80\n        /* \"#utility.yul\":2425:2434   */\n      dup3\n        /* \"#utility.yul\":2421:2440   */\n      add\n        /* \"#utility.yul\":2413:2440   */\n      swap1\n      pop\n        /* \"#utility.yul\":2450:2521   */\n      tag_171\n        /* \"#utility.yul\":2518:2519   */\n      0x00\n        /* \"#utility.yul\":2507:2516   */\n      dup4\n        /* \"#utility.yul\":2503:2520   */\n      add\n        /* \"#utility.yul\":2494:2500   */\n      dup8\n        /* \"#utility.yul\":2450:2521   */\n      tag_116\n      jump\t// in\n    tag_171:\n        /* \"#utility.yul\":2531:2603   */\n      tag_172\n        /* \"#utility.yul\":2599:2601   */\n      0x20\n        /* \"#utility.yul\":2588:2597   */\n      dup4\n        /* \"#utility.yul\":2584:2602   */\n      add\n        /* \"#utility.yul\":2575:2581   */\n      dup7\n        /* \"#utility.yul\":2531:2603   */\n      tag_117\n      jump\t// in\n    tag_172:\n        /* \"#utility.yul\":2613:2689   */\n      tag_173\n        /* \"#utility.yul\":2685:2687   */\n      0x40\n        /* \"#utility.yul\":2674:2683   */\n      dup4\n        /* \"#utility.yul\":2670:2688   */\n      add\n        /* \"#utility.yul\":2661:2667   */\n      dup6\n        /* \"#utility.yul\":2613:2689   */\n      tag_121\n      jump\t// in\n    tag_173:\n        /* \"#utility.yul\":2699:2775   */\n      tag_174\n        /* \"#utility.yul\":2771:2773   */\n      0x60\n        /* \"#utility.yul\":2760:2769   */\n      dup4\n        /* \"#utility.yul\":2756:2774   */\n      add\n        /* \"#utility.yul\":2747:2753   */\n      dup5\n        /* \"#utility.yul\":2699:2775   */\n      tag_121\n      jump\t// in\n    tag_174:\n        /* \"#utility.yul\":2213:2782   */\n      swap6\n      swap5\n      pop\n      pop\n      pop\n      pop\n      pop\n      jump\t// out\n        /* \"#utility.yul\":2788:3010   */\n    tag_19:\n        /* \"#utility.yul\":2881:2885   */\n      0x00\n        /* \"#utility.yul\":2919:2921   */\n      0x20\n        /* \"#utility.yul\":2908:2917   */\n      dup3\n        /* \"#utility.yul\":2904:2922   */\n      add\n        /* \"#utility.yul\":2896:2922   */\n      swap1\n      pop\n        /* \"#utility.yul\":2932:3003   */\n      tag_176\n        /* \"#utility.yul\":3000:3001   */\n      0x00\n        /* \"#utility.yul\":2989:2998   */\n      dup4\n        /* \"#utility.yul\":2985:3002   */\n      add\n        /* \"#utility.yul\":2976:2982   */\n      dup5\n        /* \"#utility.yul\":2932:3003   */\n      tag_117\n      jump\t// in\n    tag_176:\n        /* \"#utility.yul\":2788:3010   */\n      swap3\n      swap2\n      pop\n      pop\n      jump\t// out\n        /* \"#utility.yul\":3016:3121   */\n    tag_122:\n        /* \"#utility.yul\":3095:3096   */\n      0x03\n        /* \"#utility.yul\":3088:3093   */\n      dup2\n        /* \"#utility.yul\":3085:3097   */\n      lt\n        /* \"#utility.yul\":3075:3115   */\n      tag_178\n      jumpi\n        /* \"#utility.yul\":3111:3112   */\n      0x00\n        /* \"#utility.yul\":3108:3109   */\n      dup1\n        /* \"#utility.yul\":3101:3113   */\n      revert\n        /* \"#utility.yul\":3075:3115   */\n    tag_178:\n        /* \"#utility.yul\":3016:3121   */\n      pop\n      jump\t// out\n        /* \"#utility.yul\":3127:3278   */\n    tag_123:\n        /* \"#utility.yul\":3179:3184   */\n      0x00\n        /* \"#utility.yul\":3217:3223   */\n      dup2\n        /* \"#utility.yul\":3204:3224   */\n      calldataload\n        /* \"#utility.yul\":3195:3224   */\n      swap1\n      pop\n        /* \"#utility.yul\":3233:3272   */\n      tag_180\n        /* \"#utility.yul\":3266:3271   */\n      dup2\n        /* \"#utility.yul\":3233:3272   */\n      tag_122\n      jump\t// in\n    tag_180:\n        /* \"#utility.yul\":3127:3278   */\n      swap3\n      swap2\n      pop\n      pop\n      jump\t// out\n        /* \"#utility.yul\":3284:3625   */\n    tag_22:\n        /* \"#utility.yul\":3349:3355   */\n      0x00\n        /* \"#utility.yul\":3398:3400   */\n      0x20\n        /* \"#utility.yul\":3386:3395   */\n      dup3\n        /* \"#utility.yul\":3377:3384   */\n      dup5\n        /* \"#utility.yul\":3373:3396   */\n      sub\n        /* \"#utility.yul\":3369:3401   */\n      slt\n        /* \"#utility.yul\":3366:3485   */\n      iszero\n      tag_182\n      jumpi\n        /* \"#utility.yul\":3404:3483   */\n      tag_183\n      tag_109\n      jump\t// in\n    tag_183:\n        /* \"#utility.yul\":3366:3485   */\n    tag_182:\n        /* \"#utility.yul\":3524:3525   */\n      0x00\n        /* \"#utility.yul\":3549:3608   */\n      tag_184\n        /* \"#utility.yul\":3600:3607   */\n      dup5\n        /* \"#utility.yul\":3591:3597   */\n      dup3\n        /* \"#utility.yul\":3580:3589   */\n      dup6\n        /* \"#utility.yul\":3576:3598   */\n      add\n        /* \"#utility.yul\":3549:3608   */\n      tag_123\n      jump\t// in\n    tag_184:\n        /* \"#utility.yul\":3539:3608   */\n      swap2\n      pop\n        /* \"#utility.yul\":3495:3618   */\n      pop\n        /* \"#utility.yul\":3284:3625   */\n      swap3\n      swap2\n      pop\n      pop\n      jump\t// out\n        /* \"#utility.yul\":3631:3853   */\n    tag_32:\n        /* \"#utility.yul\":3724:3728   */\n      0x00\n        /* \"#utility.yul\":3762:3764   */\n      0x20\n        /* \"#utility.yul\":3751:3760   */\n      dup3\n        /* \"#utility.yul\":3747:3765   */\n      add\n        /* \"#utility.yul\":3739:3765   */\n      swap1\n      pop\n        /* \"#utility.yul\":3775:3846   */\n      tag_186\n        /* \"#utility.yul\":3843:3844   */\n      0x00\n        /* \"#utility.yul\":3832:3841   */\n      dup4\n        /* \"#utility.yul\":3828:3845   */\n      add\n        /* \"#utility.yul\":3819:3825   */\n      dup5\n        /* \"#utility.yul\":3775:3846   */\n      tag_116\n      jump\t// in\n    tag_186:\n        /* \"#utility.yul\":3631:3853   */\n      swap3\n      swap2\n      pop\n      pop\n      jump\t// out\n        /* \"#utility.yul\":3859:4028   */\n    tag_124:\n        /* \"#utility.yul\":3943:3954   */\n      0x00\n        /* \"#utility.yul\":3977:3983   */\n      dup3\n        /* \"#utility.yul\":3972:3975   */\n      dup3\n        /* \"#utility.yul\":3965:3984   */\n      mstore\n        /* \"#utility.yul\":4017:4021   */\n      0x20\n        /* \"#utility.yul\":4012:4015   */\n      dup3\n        /* \"#utility.yul\":4008:4022   */\n      add\n        /* \"#utility.yul\":3993:4022   */\n      swap1\n      pop\n        /* \"#utility.yul\":3859:4028   */\n      swap3\n      swap2\n      pop\n      pop\n      jump\t// out\n        /* \"#utility.yul\":4034:4261   */\n    tag_125:\n        /* \"#utility.yul\":4174:4208   */\n      0x42657420616d6f756e74206d757374206265206174206c6561737420302e3030\n        /* \"#utility.yul\":4170:4171   */\n      0x00\n        /* \"#utility.yul\":4162:4168   */\n      dup3\n        /* \"#utility.yul\":4158:4172   */\n      add\n        /* \"#utility.yul\":4151:4209   */\n      mstore\n        /* \"#utility.yul\":4243:4253   */\n      0x30312074424e422e000000000000000000000000000000000000000000000000\n        /* \"#utility.yul\":4238:4240   */\n      0x20\n        /* \"#utility.yul\":4230:4236   */\n      dup3\n        /* \"#utility.yul\":4226:4241   */\n      add\n        /* \"#utility.yul\":4219:4254   */\n      mstore\n        /* \"#utility.yul\":4034:4261   */\n      pop\n      jump\t// out\n        /* \"#utility.yul\":4267:4633   */\n    tag_126:\n        /* \"#utility.yul\":4409:4412   */\n      0x00\n        /* \"#utility.yul\":4430:4497   */\n      tag_190\n        /* \"#utility.yul\":4494:4496   */\n      0x28\n        /* \"#utility.yul\":4489:4492   */\n      dup4\n        /* \"#utility.yul\":4430:4497   */\n      tag_124\n      jump\t// in\n    tag_190:\n        /* \"#utility.yul\":4423:4497   */\n      swap2\n      pop\n        /* \"#utility.yul\":4506:4599   */\n      tag_191\n        /* \"#utility.yul\":4595:4598   */\n      dup3\n        /* \"#utility.yul\":4506:4599   */\n      tag_125\n      jump\t// in\n    tag_191:\n        /* \"#utility.yul\":4624:4626   */\n      0x40\n        /* \"#utility.yul\":4619:4622   */\n      dup3\n        /* \"#utility.yul\":4615:4627   */\n      add\n        /* \"#utility.yul\":4608:4627   */\n      swap1\n      pop\n        /* \"#utility.yul\":4267:4633   */\n      swap2\n      swap1\n      pop\n      jump\t// out\n        /* \"#utility.yul\":4639:5058   */\n    tag_40:\n        /* \"#utility.yul\":4805:4809   */\n      0x00\n        /* \"#utility.yul\":4843:4845   */\n      0x20\n        /* \"#utility.yul\":4832:4841   */\n      dup3\n        /* \"#utility.yul\":4828:4846   */\n      add\n        /* \"#utility.yul\":4820:4846   */\n      swap1\n      pop\n        /* \"#utility.yul\":4892:4901   */\n      dup2\n        /* \"#utility.yul\":4886:4890   */\n      dup2\n        /* \"#utility.yul\":4882:4902   */\n      sub\n        /* \"#utility.yul\":4878:4879   */\n      0x00\n        /* \"#utility.yul\":4867:4876   */\n      dup4\n        /* \"#utility.yul\":4863:4880   */\n      add\n        /* \"#utility.yul\":4856:4903   */\n      mstore\n        /* \"#utility.yul\":4920:5051   */\n      tag_193\n        /* \"#utility.yul\":5046:5050   */\n      dup2\n        /* \"#utility.yul\":4920:5051   */\n      tag_126\n      jump\t// in\n    tag_193:\n        /* \"#utility.yul\":4912:5051   */\n      swap1\n      pop\n        /* \"#utility.yul\":4639:5058   */\n      swap2\n      swap1\n      pop\n      jump\t// out\n        /* \"#utility.yul\":5064:5244   */\n    tag_127:\n        /* \"#utility.yul\":5112:5189   */\n      0x4e487b7100000000000000000000000000000000000000000000000000000000\n        /* \"#utility.yul\":5109:5110   */\n      0x00\n        /* \"#utility.yul\":5102:5190   */\n      mstore\n        /* \"#utility.yul\":5209:5213   */\n      0x11\n        /* \"#utility.yul\":5206:5207   */\n      0x04\n        /* \"#utility.yul\":5199:5214   */\n      mstore\n        /* \"#utility.yul\":5233:5237   */\n      0x24\n        /* \"#utility.yul\":5230:5231   */\n      0x00\n        /* \"#utility.yul\":5223:5238   */\n      revert\n        /* \"#utility.yul\":5250:5441   */\n    tag_44:\n        /* \"#utility.yul\":5290:5293   */\n      0x00\n        /* \"#utility.yul\":5309:5329   */\n      tag_196\n        /* \"#utility.yul\":5327:5328   */\n      dup3\n        /* \"#utility.yul\":5309:5329   */\n      tag_111\n      jump\t// in\n    tag_196:\n        /* \"#utility.yul\":5304:5329   */\n      swap2\n      pop\n        /* \"#utility.yul\":5343:5363   */\n      tag_197\n        /* \"#utility.yul\":5361:5362   */\n      dup4\n        /* \"#utility.yul\":5343:5363   */\n      tag_111\n      jump\t// in\n    tag_197:\n        /* \"#utility.yul\":5338:5363   */\n      swap3\n      pop\n        /* \"#utility.yul\":5386:5387   */\n      dup3\n        /* \"#utility.yul\":5383:5384   */\n      dup3\n        /* \"#utility.yul\":5379:5388   */\n      add\n        /* \"#utility.yul\":5372:5388   */\n      swap1\n      pop\n        /* \"#utility.yul\":5407:5410   */\n      dup1\n        /* \"#utility.yul\":5404:5405   */\n      dup3\n        /* \"#utility.yul\":5401:5411   */\n      gt\n        /* \"#utility.yul\":5398:5434   */\n      iszero\n      tag_198\n      jumpi\n        /* \"#utility.yul\":5414:5432   */\n      tag_199\n      tag_127\n      jump\t// in\n    tag_199:\n        /* \"#utility.yul\":5398:5434   */\n    tag_198:\n        /* \"#utility.yul\":5250:5441   */\n      swap3\n      swap2\n      pop\n      pop\n      jump\t// out\n        /* \"#utility.yul\":5447:5857   */\n    tag_85:\n        /* \"#utility.yul\":5487:5494   */\n      0x00\n        /* \"#utility.yul\":5510:5530   */\n      tag_201\n        /* \"#utility.yul\":5528:5529   */\n      dup3\n        /* \"#utility.yul\":5510:5530   */\n      tag_111\n      jump\t// in\n    tag_201:\n        /* \"#utility.yul\":5505:5530   */\n      swap2\n      pop\n        /* \"#utility.yul\":5544:5564   */\n      tag_202\n        /* \"#utility.yul\":5562:5563   */\n      dup4\n        /* \"#utility.yul\":5544:5564   */\n      tag_111\n      jump\t// in\n    tag_202:\n        /* \"#utility.yul\":5539:5564   */\n      swap3\n      pop\n        /* \"#utility.yul\":5599:5600   */\n      dup3\n        /* \"#utility.yul\":5596:5597   */\n      dup3\n        /* \"#utility.yul\":5592:5601   */\n      mul\n        /* \"#utility.yul\":5621:5651   */\n      tag_203\n        /* \"#utility.yul\":5639:5650   */\n      dup2\n        /* \"#utility.yul\":5621:5651   */\n      tag_111\n      jump\t// in\n    tag_203:\n        /* \"#utility.yul\":5610:5651   */\n      swap2\n      pop\n        /* \"#utility.yul\":5800:5801   */\n      dup3\n        /* \"#utility.yul\":5791:5798   */\n      dup3\n        /* \"#utility.yul\":5787:5802   */\n      div\n        /* \"#utility.yul\":5784:5785   */\n      dup5\n        /* \"#utility.yul\":5781:5803   */\n      eq\n        /* \"#utility.yul\":5761:5762   */\n      dup4\n        /* \"#utility.yul\":5754:5763   */\n      iszero\n        /* \"#utility.yul\":5734:5817   */\n      or\n        /* \"#utility.yul\":5711:5850   */\n      tag_204\n      jumpi\n        /* \"#utility.yul\":5830:5848   */\n      tag_205\n      tag_127\n      jump\t// in\n    tag_205:\n        /* \"#utility.yul\":5711:5850   */\n    tag_204:\n        /* \"#utility.yul\":5495:5857   */\n      pop\n        /* \"#utility.yul\":5447:5857   */\n      swap3\n      swap2\n      pop\n      pop\n      jump\t// out\n        /* \"#utility.yul\":5863:6305   */\n    tag_89:\n        /* \"#utility.yul\":6012:6016   */\n      0x00\n        /* \"#utility.yul\":6050:6052   */\n      0x60\n        /* \"#utility.yul\":6039:6048   */\n      dup3\n        /* \"#utility.yul\":6035:6053   */\n      add\n        /* \"#utility.yul\":6027:6053   */\n      swap1\n      pop\n        /* \"#utility.yul\":6063:6134   */\n      tag_207\n        /* \"#utility.yul\":6131:6132   */\n      0x00\n        /* \"#utility.yul\":6120:6129   */\n      dup4\n        /* \"#utility.yul\":6116:6133   */\n      add\n        /* \"#utility.yul\":6107:6113   */\n      dup7\n        /* \"#utility.yul\":6063:6134   */\n      tag_117\n      jump\t// in\n    tag_207:\n        /* \"#utility.yul\":6144:6216   */\n      tag_208\n        /* \"#utility.yul\":6212:6214   */\n      0x20\n        /* \"#utility.yul\":6201:6210   */\n      dup4\n        /* \"#utility.yul\":6197:6215   */\n      add\n        /* \"#utility.yul\":6188:6194   */\n      dup6\n        /* \"#utility.yul\":6144:6216   */\n      tag_117\n      jump\t// in\n    tag_208:\n        /* \"#utility.yul\":6226:6298   */\n      tag_209\n        /* \"#utility.yul\":6294:6296   */\n      0x40\n        /* \"#utility.yul\":6283:6292   */\n      dup4\n        /* \"#utility.yul\":6279:6297   */\n      add\n        /* \"#utility.yul\":6270:6276   */\n      dup5\n        /* \"#utility.yul\":6226:6298   */\n      tag_117\n      jump\t// in\n    tag_209:\n        /* \"#utility.yul\":5863:6305   */\n      swap5\n      swap4\n      pop\n      pop\n      pop\n      pop\n      jump\t// out\n        /* \"#utility.yul\":6311:6536   */\n    tag_128:\n        /* \"#utility.yul\":6451:6485   */\n      0x4f6e6c7920746865206f776e65722063616e2063616c6c20746869732066756e\n        /* \"#utility.yul\":6447:6448   */\n      0x00\n        /* \"#utility.yul\":6439:6445   */\n      dup3\n        /* \"#utility.yul\":6435:6449   */\n      add\n        /* \"#utility.yul\":6428:6486   */\n      mstore\n        /* \"#utility.yul\":6520:6528   */\n      0x6374696f6e2e0000000000000000000000000000000000000000000000000000\n        /* \"#utility.yul\":6515:6517   */\n      0x20\n        /* \"#utility.yul\":6507:6513   */\n      dup3\n        /* \"#utility.yul\":6503:6518   */\n      add\n        /* \"#utility.yul\":6496:6529   */\n      mstore\n        /* \"#utility.yul\":6311:6536   */\n      pop\n      jump\t// out\n        /* \"#utility.yul\":6542:6908   */\n    tag_129:\n        /* \"#utility.yul\":6684:6687   */\n      0x00\n        /* \"#utility.yul\":6705:6772   */\n      tag_212\n        /* \"#utility.yul\":6769:6771   */\n      0x26\n        /* \"#utility.yul\":6764:6767   */\n      dup4\n        /* \"#utility.yul\":6705:6772   */\n      tag_124\n      jump\t// in\n    tag_212:\n        /* \"#utility.yul\":6698:6772   */\n      swap2\n      pop\n        /* \"#utility.yul\":6781:6874   */\n      tag_213\n        /* \"#utility.yul\":6870:6873   */\n      dup3\n        /* \"#utility.yul\":6781:6874   */\n      tag_128\n      jump\t// in\n    tag_213:\n        /* \"#utility.yul\":6899:6901   */\n      0x40\n        /* \"#utility.yul\":6894:6897   */\n      dup3\n        /* \"#utility.yul\":6890:6902   */\n      add\n        /* \"#utility.yul\":6883:6902   */\n      swap1\n      pop\n        /* \"#utility.yul\":6542:6908   */\n      swap2\n      swap1\n      pop\n      jump\t// out\n        /* \"#utility.yul\":6914:7333   */\n    tag_94:\n        /* \"#utility.yul\":7080:7084   */\n      0x00\n        /* \"#utility.yul\":7118:7120   */\n      0x20\n        /* \"#utility.yul\":7107:7116   */\n      dup3\n        /* \"#utility.yul\":7103:7121   */\n      add\n        /* \"#utility.yul\":7095:7121   */\n      swap1\n      pop\n        /* \"#utility.yul\":7167:7176   */\n      dup2\n        /* \"#utility.yul\":7161:7165   */\n      dup2\n        /* \"#utility.yul\":7157:7177   */\n      sub\n        /* \"#utility.yul\":7153:7154   */\n      0x00\n        /* \"#utility.yul\":7142:7151   */\n      dup4\n        /* \"#utility.yul\":7138:7155   */\n      add\n        /* \"#utility.yul\":7131:7178   */\n      mstore\n        /* \"#utility.yul\":7195:7326   */\n      tag_215\n        /* \"#utility.yul\":7321:7325   */\n      dup2\n        /* \"#utility.yul\":7195:7326   */\n      tag_129\n      jump\t// in\n    tag_215:\n        /* \"#utility.yul\":7187:7326   */\n      swap1\n      pop\n        /* \"#utility.yul\":6914:7333   */\n      swap2\n      swap1\n      pop\n      jump\t// out\n        /* \"#utility.yul\":7339:7520   */\n    tag_130:\n        /* \"#utility.yul\":7479:7512   */\n      0x4e6f7420656e6f7567682062616c616e636520746f2077697468647261772e00\n        /* \"#utility.yul\":7475:7476   */\n      0x00\n        /* \"#utility.yul\":7467:7473   */\n      dup3\n        /* \"#utility.yul\":7463:7477   */\n      add\n        /* \"#utility.yul\":7456:7513   */\n      mstore\n        /* \"#utility.yul\":7339:7520   */\n      pop\n      jump\t// out\n        /* \"#utility.yul\":7526:7892   */\n    tag_131:\n        /* \"#utility.yul\":7668:7671   */\n      0x00\n        /* \"#utility.yul\":7689:7756   */\n      tag_218\n        /* \"#utility.yul\":7753:7755   */\n      0x1f\n        /* \"#utility.yul\":7748:7751   */\n      dup4\n        /* \"#utility.yul\":7689:7756   */\n      tag_124\n      jump\t// in\n    tag_218:\n        /* \"#utility.yul\":7682:7756   */\n      swap2\n      pop\n        /* \"#utility.yul\":7765:7858   */\n      tag_219\n        /* \"#utility.yul\":7854:7857   */\n      dup3\n        /* \"#utility.yul\":7765:7858   */\n      tag_130\n      jump\t// in\n    tag_219:\n        /* \"#utility.yul\":7883:7885   */\n      0x20\n        /* \"#utility.yul\":7878:7881   */\n      dup3\n        /* \"#utility.yul\":7874:7886   */\n      add\n        /* \"#utility.yul\":7867:7886   */\n      swap1\n      pop\n        /* \"#utility.yul\":7526:7892   */\n      swap2\n      swap1\n      pop\n      jump\t// out\n        /* \"#utility.yul\":7898:8317   */\n    tag_98:\n        /* \"#utility.yul\":8064:8068   */\n      0x00\n        /* \"#utility.yul\":8102:8104   */\n      0x20\n        /* \"#utility.yul\":8091:8100   */\n      dup3\n        /* \"#utility.yul\":8087:8105   */\n      add\n        /* \"#utility.yul\":8079:8105   */\n      swap1\n      pop\n        /* \"#utility.yul\":8151:8160   */\n      dup2\n        /* \"#utility.yul\":8145:8149   */\n      dup2\n        /* \"#utility.yul\":8141:8161   */\n      sub\n        /* \"#utility.yul\":8137:8138   */\n      0x00\n        /* \"#utility.yul\":8126:8135   */\n      dup4\n        /* \"#utility.yul\":8122:8139   */\n      add\n        /* \"#utility.yul\":8115:8162   */\n      mstore\n        /* \"#utility.yul\":8179:8310   */\n      tag_221\n        /* \"#utility.yul\":8305:8309   */\n      dup2\n        /* \"#utility.yul\":8179:8310   */\n      tag_131\n      jump\t// in\n    tag_221:\n        /* \"#utility.yul\":8171:8310   */\n      swap1\n      pop\n        /* \"#utility.yul\":7898:8317   */\n      swap2\n      swap1\n      pop\n      jump\t// out\n        /* \"#utility.yul\":8323:8402   */\n    tag_132:\n        /* \"#utility.yul\":8362:8369   */\n      0x00\n        /* \"#utility.yul\":8391:8396   */\n      dup2\n        /* \"#utility.yul\":8380:8396   */\n      swap1\n      pop\n        /* \"#utility.yul\":8323:8402   */\n      swap2\n      swap1\n      pop\n      jump\t// out\n        /* \"#utility.yul\":8408:8565   */\n    tag_133:\n        /* \"#utility.yul\":8513:8558   */\n      tag_224\n        /* \"#utility.yul\":8533:8557   */\n      tag_225\n        /* \"#utility.yul\":8551:8556   */\n      dup3\n        /* \"#utility.yul\":8533:8557   */\n      tag_111\n      jump\t// in\n    tag_225:\n        /* \"#utility.yul\":8513:8558   */\n      tag_132\n      jump\t// in\n    tag_224:\n        /* \"#utility.yul\":8508:8511   */\n      dup3\n        /* \"#utility.yul\":8501:8559   */\n      mstore\n        /* \"#utility.yul\":8408:8565   */\n      pop\n      pop\n      jump\t// out\n        /* \"#utility.yul\":8571:8665   */\n    tag_134:\n        /* \"#utility.yul\":8604:8612   */\n      0x00\n        /* \"#utility.yul\":8652:8657   */\n      dup2\n        /* \"#utility.yul\":8648:8650   */\n      0x60\n        /* \"#utility.yul\":8644:8658   */\n      shl\n        /* \"#utility.yul\":8623:8658   */\n      swap1\n      pop\n        /* \"#utility.yul\":8571:8665   */\n      swap2\n      swap1\n      pop\n      jump\t// out\n        /* \"#utility.yul\":8671:8765   */\n    tag_135:\n        /* \"#utility.yul\":8710:8717   */\n      0x00\n        /* \"#utility.yul\":8739:8759   */\n      tag_228\n        /* \"#utility.yul\":8753:8758   */\n      dup3\n        /* \"#utility.yul\":8739:8759   */\n      tag_134\n      jump\t// in\n    tag_228:\n        /* \"#utility.yul\":8728:8759   */\n      swap1\n      pop\n        /* \"#utility.yul\":8671:8765   */\n      swap2\n      swap1\n      pop\n      jump\t// out\n        /* \"#utility.yul\":8771:8871   */\n    tag_136:\n        /* \"#utility.yul\":8810:8817   */\n      0x00\n        /* \"#utility.yul\":8839:8865   */\n      tag_230\n        /* \"#utility.yul\":8859:8864   */\n      dup3\n        /* \"#utility.yul\":8839:8865   */\n      tag_135\n      jump\t// in\n    tag_230:\n        /* \"#utility.yul\":8828:8865   */\n      swap1\n      pop\n        /* \"#utility.yul\":8771:8871   */\n      swap2\n      swap1\n      pop\n      jump\t// out\n        /* \"#utility.yul\":8877:9034   */\n    tag_137:\n        /* \"#utility.yul\":8982:9027   */\n      tag_232\n        /* \"#utility.yul\":9002:9026   */\n      tag_233\n        /* \"#utility.yul\":9020:9025   */\n      dup3\n        /* \"#utility.yul\":9002:9026   */\n      tag_115\n      jump\t// in\n    tag_233:\n        /* \"#utility.yul\":8982:9027   */\n      tag_136\n      jump\t// in\n    tag_232:\n        /* \"#utility.yul\":8977:8980   */\n      dup3\n        /* \"#utility.yul\":8970:9028   */\n      mstore\n        /* \"#utility.yul\":8877:9034   */\n      pop\n      pop\n      jump\t// out\n        /* \"#utility.yul\":9040:9578   */\n    tag_103:\n        /* \"#utility.yul\":9208:9211   */\n      0x00\n        /* \"#utility.yul\":9223:9298   */\n      tag_235\n        /* \"#utility.yul\":9294:9297   */\n      dup3\n        /* \"#utility.yul\":9285:9291   */\n      dup7\n        /* \"#utility.yul\":9223:9298   */\n      tag_133\n      jump\t// in\n    tag_235:\n        /* \"#utility.yul\":9323:9325   */\n      0x20\n        /* \"#utility.yul\":9318:9321   */\n      dup3\n        /* \"#utility.yul\":9314:9326   */\n      add\n        /* \"#utility.yul\":9307:9326   */\n      swap2\n      pop\n        /* \"#utility.yul\":9336:9411   */\n      tag_236\n        /* \"#utility.yul\":9407:9410   */\n      dup3\n        /* \"#utility.yul\":9398:9404   */\n      dup6\n        /* \"#utility.yul\":9336:9411   */\n      tag_133\n      jump\t// in\n    tag_236:\n        /* \"#utility.yul\":9436:9438   */\n      0x20\n        /* \"#utility.yul\":9431:9434   */\n      dup3\n        /* \"#utility.yul\":9427:9439   */\n      add\n        /* \"#utility.yul\":9420:9439   */\n      swap2\n      pop\n        /* \"#utility.yul\":9449:9524   */\n      tag_237\n        /* \"#utility.yul\":9520:9523   */\n      dup3\n        /* \"#utility.yul\":9511:9517   */\n      dup5\n        /* \"#utility.yul\":9449:9524   */\n      tag_137\n      jump\t// in\n    tag_237:\n        /* \"#utility.yul\":9549:9551   */\n      0x14\n        /* \"#utility.yul\":9544:9547   */\n      dup3\n        /* \"#utility.yul\":9540:9552   */\n      add\n        /* \"#utility.yul\":9533:9552   */\n      swap2\n      pop\n        /* \"#utility.yul\":9569:9572   */\n      dup2\n        /* \"#utility.yul\":9562:9572   */\n      swap1\n      pop\n        /* \"#utility.yul\":9040:9578   */\n      swap5\n      swap4\n      pop\n      pop\n      pop\n      pop\n      jump\t// out\n        /* \"#utility.yul\":9584:9764   */\n    tag_138:\n        /* \"#utility.yul\":9632:9709   */\n      0x4e487b7100000000000000000000000000000000000000000000000000000000\n        /* \"#utility.yul\":9629:9630   */\n      0x00\n        /* \"#utility.yul\":9622:9710   */\n      mstore\n        /* \"#utility.yul\":9729:9733   */\n      0x12\n        /* \"#utility.yul\":9726:9727   */\n      0x04\n        /* \"#utility.yul\":9719:9734   */\n      mstore\n        /* \"#utility.yul\":9753:9757   */\n      0x24\n        /* \"#utility.yul\":9750:9751   */\n      0x00\n        /* \"#utility.yul\":9743:9758   */\n      revert\n        /* \"#utility.yul\":9770:9946   */\n    tag_105:\n        /* \"#utility.yul\":9802:9803   */\n      0x00\n        /* \"#utility.yul\":9819:9839   */\n      tag_240\n        /* \"#utility.yul\":9837:9838   */\n      dup3\n        /* \"#utility.yul\":9819:9839   */\n      tag_111\n      jump\t// in\n    tag_240:\n        /* \"#utility.yul\":9814:9839   */\n      swap2\n      pop\n        /* \"#utility.yul\":9853:9873   */\n      tag_241\n        /* \"#utility.yul\":9871:9872   */\n      dup4\n        /* \"#utility.yul\":9853:9873   */\n      tag_111\n      jump\t// in\n    tag_241:\n        /* \"#utility.yul\":9848:9873   */\n      swap3\n      pop\n        /* \"#utility.yul\":9892:9893   */\n      dup3\n        /* \"#utility.yul\":9882:9917   */\n      tag_242\n      jumpi\n        /* \"#utility.yul\":9897:9915   */\n      tag_243\n      tag_138\n      jump\t// in\n    tag_243:\n        /* \"#utility.yul\":9882:9917   */\n    tag_242:\n        /* \"#utility.yul\":9938:9939   */\n      dup3\n        /* \"#utility.yul\":9935:9936   */\n      dup3\n        /* \"#utility.yul\":9931:9940   */\n      mod\n        /* \"#utility.yul\":9926:9940   */\n      swap1\n      pop\n        /* \"#utility.yul\":9770:9946   */\n      swap3\n      swap2\n      pop\n      pop\n      jump\t// out\n\n    auxdata: 0xa26469706673582212209b73281bce4ed42c70ed7005119ad51bc94df2303110da540c92dd245c3086ee64736f6c63430008120033\n}\n",
				"bytecode": {
					"linkReferences": {},
					"object": "608060405234801561001057600080fd5b50336000806101000a81548173ffffffffffffffffffffffffffffffffffffffff021916908373ffffffffffffffffffffffffffffffffffffffff160217905550610ca3806100606000396000f3fe6080604052600436106100555760003560e01c8063117a5b901461005a5780631bb412d61461009a57806353a04b05146100c55780636f9fb98a146100e15780638da5cb5b1461010c578063da76d5cd14610137575b600080fd5b34801561006657600080fd5b50610081600480360381019061007c9190610729565b610160565b604051610091949392919061081d565b60405180910390f35b3480156100a657600080fd5b506100af6101ca565b6040516100bc9190610862565b60405180910390f35b6100df60048036038101906100da91906108a2565b6101d0565b005b3480156100ed57600080fd5b506100f661052f565b6040516101039190610862565b60405180910390f35b34801561011857600080fd5b50610121610537565b60405161012e91906108cf565b60405180910390f35b34801561014357600080fd5b5061015e60048036038101906101599190610729565b61055b565b005b60016020528060005260406000206000915090508060000160009054906101000a900473ffffffffffffffffffffffffffffffffffffffff16908060010154908060020160009054906101000a900460ff16908060020160019054906101000a900460ff16905084565b60025481565b655af3107a4000341015610219576040517f08c379a00000000000000000000000000000000000000000000000000000000081526004016102109061096d565b60405180910390fd5b6000610223610696565b90506000600160025461023691906109bc565b600281905550600060405180608001604052803373ffffffffffffffffffffffffffffffffffffffff16815260200134815260200185600281111561027e5761027d6107a6565b5b8152602001846002811115610296576102956107a6565b5b81525090508060016000600254815260200190815260200160002060008201518160000160006101000a81548173ffffffffffffffffffffffffffffffffffffffff021916908373ffffffffffffffffffffffffffffffffffffffff1602179055506020820151816001015560408201518160020160006101000a81548160ff0219169083600281111561032d5761032c6107a6565b5b021790555060608201518160020160016101000a81548160ff0219169083600281111561035d5761035c6107a6565b5b021790555090505060006002811115610379576103786107a6565b5b84600281111561038c5761038b6107a6565b5b1480156103bc57506002808111156103a7576103a66107a6565b5b8360028111156103ba576103b96107a6565b5b145b8061041b5750600160028111156103d6576103d56107a6565b5b8460028111156103e9576103e86107a6565b5b14801561041a575060006002811115610405576104046107a6565b5b836002811115610418576104176107a6565b5b145b5b806104795750600280811115610434576104336107a6565b5b846002811115610447576104466107a6565b5b148015610478575060016002811115610463576104626107a6565b5b836002811115610476576104756107a6565b5b145b5b156104d55760023461048b91906109f0565b91503373ffffffffffffffffffffffffffffffffffffffff166108fc839081150290604051600060405180830381858888f193505050501580156104d3573d6000803e3d6000fd5b505b3373ffffffffffffffffffffffffffffffffffffffff167fb23ab49b4ba9602e729f07366027f225f26e664a9cfec60a5ed4cbf87a81fb04600254348560405161052193929190610a32565b60405180910390a250505050565b600047905090565b60008054906101000a900473ffffffffffffffffffffffffffffffffffffffff1681565b60008054906101000a900473ffffffffffffffffffffffffffffffffffffffff1673ffffffffffffffffffffffffffffffffffffffff163373ffffffffffffffffffffffffffffffffffffffff16146105e9576040517f08c379a00000000000000000000000000000000000000000000000000000000081526004016105e090610adb565b60405180910390fd5b8047101561062c576040517f08c379a000000000000000000000000000000000000000000000000000000000815260040161062390610b47565b60405180910390fd5b60008054906101000a900473ffffffffffffffffffffffffffffffffffffffff1673ffffffffffffffffffffffffffffffffffffffff166108fc829081150290604051600060405180830381858888f19350505050158015610692573d6000803e3d6000fd5b5050565b60008060034244336040516020016106b093929190610bd0565b6040516020818303038152906040528051906020012060001c6106d39190610c3c565b90508060028111156106e8576106e76107a6565b5b91505090565b600080fd5b6000819050919050565b610706816106f3565b811461071157600080fd5b50565b600081359050610723816106fd565b92915050565b60006020828403121561073f5761073e6106ee565b5b600061074d84828501610714565b91505092915050565b600073ffffffffffffffffffffffffffffffffffffffff82169050919050565b600061078182610756565b9050919050565b61079181610776565b82525050565b6107a0816106f3565b82525050565b7f4e487b7100000000000000000000000000000000000000000000000000000000600052602160045260246000fd5b600381106107e6576107e56107a6565b5b50565b60008190506107f7826107d5565b919050565b6000610807826107e9565b9050919050565b610817816107fc565b82525050565b60006080820190506108326000830187610788565b61083f6020830186610797565b61084c604083018561080e565b610859606083018461080e565b95945050505050565b60006020820190506108776000830184610797565b92915050565b6003811061088a57600080fd5b50565b60008135905061089c8161087d565b92915050565b6000602082840312156108b8576108b76106ee565b5b60006108c68482850161088d565b91505092915050565b60006020820190506108e46000830184610788565b92915050565b600082825260208201905092915050565b7f42657420616d6f756e74206d757374206265206174206c6561737420302e303060008201527f30312074424e422e000000000000000000000000000000000000000000000000602082015250565b60006109576028836108ea565b9150610962826108fb565b604082019050919050565b600060208201905081810360008301526109868161094a565b9050919050565b7f4e487b7100000000000000000000000000000000000000000000000000000000600052601160045260246000fd5b60006109c7826106f3565b91506109d2836106f3565b92508282019050808211156109ea576109e961098d565b5b92915050565b60006109fb826106f3565b9150610a06836106f3565b9250828202610a14816106f3565b91508282048414831517610a2b57610a2a61098d565b5b5092915050565b6000606082019050610a476000830186610797565b610a546020830185610797565b610a616040830184610797565b949350505050565b7f4f6e6c7920746865206f776e65722063616e2063616c6c20746869732066756e60008201527f6374696f6e2e0000000000000000000000000000000000000000000000000000602082015250565b6000610ac56026836108ea565b9150610ad082610a69565b604082019050919050565b60006020820190508181036000830152610af481610ab8565b9050919050565b7f4e6f7420656e6f7567682062616c616e636520746f2077697468647261772e00600082015250565b6000610b31601f836108ea565b9150610b3c82610afb565b602082019050919050565b60006020820190508181036000830152610b6081610b24565b9050919050565b6000819050919050565b610b82610b7d826106f3565b610b67565b82525050565b60008160601b9050919050565b6000610ba082610b88565b9050919050565b6000610bb282610b95565b9050919050565b610bca610bc582610776565b610ba7565b82525050565b6000610bdc8286610b71565b602082019150610bec8285610b71565b602082019150610bfc8284610bb9565b601482019150819050949350505050565b7f4e487b7100000000000000000000000000000000000000000000000000000000600052601260045260246000fd5b6000610c47826106f3565b9150610c52836106f3565b925082610c6257610c61610c0d565b5b82820690509291505056fea26469706673582212209b73281bce4ed42c70ed7005119ad51bc94df2303110da540c92dd245c3086ee64736f6c63430008120033",
					"opcodes": "PUSH1 0x80 PUSH1 0x40 MSTORE CALLVALUE DUP1 ISZERO PUSH2 0x10 JUMPI PUSH1 0x0 DUP1 REVERT JUMPDEST POP CALLER PUSH1 0x0 DUP1 PUSH2 0x100 EXP DUP2 SLOAD DUP2 PUSH20 0xFFFFFFFFFFFFFFFFFFFFFFFFFFFFFFFFFFFFFFFF MUL NOT AND SWAP1 DUP4 PUSH20 0xFFFFFFFFFFFFFFFFFFFFFFFFFFFFFFFFFFFFFFFF AND MUL OR SWAP1 SSTORE POP PUSH2 0xCA3 DUP1 PUSH2 0x60 PUSH1 0x0 CODECOPY PUSH1 0x0 RETURN INVALID PUSH1 0x80 PUSH1 0x40 MSTORE PUSH1 0x4 CALLDATASIZE LT PUSH2 0x55 JUMPI PUSH1 0x0 CALLDATALOAD PUSH1 0xE0 SHR DUP1 PUSH4 0x117A5B90 EQ PUSH2 0x5A JUMPI DUP1 PUSH4 0x1BB412D6 EQ PUSH2 0x9A JUMPI DUP1 PUSH4 0x53A04B05 EQ PUSH2 0xC5 JUMPI DUP1 PUSH4 0x6F9FB98A EQ PUSH2 0xE1 JUMPI DUP1 PUSH4 0x8DA5CB5B EQ PUSH2 0x10C JUMPI DUP1 PUSH4 0xDA76D5CD EQ PUSH2 0x137 JUMPI JUMPDEST PUSH1 0x0 DUP1 REVERT JUMPDEST CALLVALUE DUP1 ISZERO PUSH2 0x66 JUMPI PUSH1 0x0 DUP1 REVERT JUMPDEST POP PUSH2 0x81 PUSH1 0x4 DUP1 CALLDATASIZE SUB DUP2 ADD SWAP1 PUSH2 0x7C SWAP2 SWAP1 PUSH2 0x729 JUMP JUMPDEST PUSH2 0x160 JUMP JUMPDEST PUSH1 0x40 MLOAD PUSH2 0x91 SWAP5 SWAP4 SWAP3 SWAP2 SWAP1 PUSH2 0x81D JUMP JUMPDEST PUSH1 0x40 MLOAD DUP1 SWAP2 SUB SWAP1 RETURN JUMPDEST CALLVALUE DUP1 ISZERO PUSH2 0xA6 JUMPI PUSH1 0x0 DUP1 REVERT JUMPDEST POP PUSH2 0xAF PUSH2 0x1CA JUMP JUMPDEST PUSH1 0x40 MLOAD PUSH2 0xBC SWAP2 SWAP1 PUSH2 0x862 JUMP JUMPDEST PUSH1 0x40 MLOAD DUP1 SWAP2 SUB SWAP1 RETURN JUMPDEST PUSH2 0xDF PUSH1 0x4 DUP1 CALLDATASIZE SUB DUP2 ADD SWAP1 PUSH2 0xDA SWAP2 SWAP1 PUSH2 0x8A2 JUMP JUMPDEST PUSH2 0x1D0 JUMP JUMPDEST STOP JUMPDEST CALLVALUE DUP1 ISZERO PUSH2 0xED JUMPI PUSH1 0x0 DUP1 REVERT JUMPDEST POP PUSH2 0xF6 PUSH2 0x52F JUMP JUMPDEST PUSH1 0x40 MLOAD PUSH2 0x103 SWAP2 SWAP1 PUSH2 0x862 JUMP JUMPDEST PUSH1 0x40 MLOAD DUP1 SWAP2 SUB SWAP1 RETURN JUMPDEST CALLVALUE DUP1 ISZERO PUSH2 0x118 JUMPI PUSH1 0x0 DUP1 REVERT JUMPDEST POP PUSH2 0x121 PUSH2 0x537 JUMP JUMPDEST PUSH1 0x40 MLOAD PUSH2 0x12E SWAP2 SWAP1 PUSH2 0x8CF JUMP JUMPDEST PUSH1 0x40 MLOAD DUP1 SWAP2 SUB SWAP1 RETURN JUMPDEST CALLVALUE DUP1 ISZERO PUSH2 0x143 JUMPI PUSH1 0x0 DUP1 REVERT JUMPDEST POP PUSH2 0x15E PUSH1 0x4 DUP1 CALLDATASIZE SUB DUP2 ADD SWAP1 PUSH2 0x159 SWAP2 SWAP1 PUSH2 0x729 JUMP JUMPDEST PUSH2 0x55B JUMP JUMPDEST STOP JUMPDEST PUSH1 0x1 PUSH1 0x20 MSTORE DUP1 PUSH1 0x0 MSTORE PUSH1 0x40 PUSH1 0x0 KECCAK256 PUSH1 0x0 SWAP2 POP SWAP1 POP DUP1 PUSH1 0x0 ADD PUSH1 0x0 SWAP1 SLOAD SWAP1 PUSH2 0x100 EXP SWAP1 DIV PUSH20 0xFFFFFFFFFFFFFFFFFFFFFFFFFFFFFFFFFFFFFFFF AND SWAP1 DUP1 PUSH1 0x1 ADD SLOAD SWAP1 DUP1 PUSH1 0x2 ADD PUSH1 0x0 SWAP1 SLOAD SWAP1 PUSH2 0x100 EXP SWAP1 DIV PUSH1 0xFF AND SWAP1 DUP1 PUSH1 0x2 ADD PUSH1 0x1 SWAP1 SLOAD SWAP1 PUSH2 0x100 EXP SWAP1 DIV PUSH1 0xFF AND SWAP1 POP DUP5 JUMP JUMPDEST PUSH1 0x2 SLOAD DUP2 JUMP JUMPDEST PUSH6 0x5AF3107A4000 CALLVALUE LT ISZERO PUSH2 0x219 JUMPI PUSH1 0x40 MLOAD PUSH32 0x8C379A000000000000000000000000000000000000000000000000000000000 DUP2 MSTORE PUSH1 0x4 ADD PUSH2 0x210 SWAP1 PUSH2 0x96D JUMP JUMPDEST PUSH1 0x40 MLOAD DUP1 SWAP2 SUB SWAP1 REVERT JUMPDEST PUSH1 0x0 PUSH2 0x223 PUSH2 0x696 JUMP JUMPDEST SWAP1 POP PUSH1 0x0 PUSH1 0x1 PUSH1 0x2 SLOAD PUSH2 0x236 SWAP2 SWAP1 PUSH2 0x9BC JUMP JUMPDEST PUSH1 0x2 DUP2 SWAP1 SSTORE POP PUSH1 0x0 PUSH1 0x40 MLOAD DUP1 PUSH1 0x80 ADD PUSH1 0x40 MSTORE DUP1 CALLER PUSH20 0xFFFFFFFFFFFFFFFFFFFFFFFFFFFFFFFFFFFFFFFF AND DUP2 MSTORE PUSH1 0x20 ADD CALLVALUE DUP2 MSTORE PUSH1 0x20 ADD DUP6 PUSH1 0x2 DUP2 GT ISZERO PUSH2 0x27E JUMPI PUSH2 0x27D PUSH2 0x7A6 JUMP JUMPDEST JUMPDEST DUP2 MSTORE PUSH1 0x20 ADD DUP5 PUSH1 0x2 DUP2 GT ISZERO PUSH2 0x296 JUMPI PUSH2 0x295 PUSH2 0x7A6 JUMP JUMPDEST JUMPDEST DUP2 MSTORE POP SWAP1 POP DUP1 PUSH1 0x1 PUSH1 0x0 PUSH1 0x2 SLOAD DUP2 MSTORE PUSH1 0x20 ADD SWAP1 DUP2 MSTORE PUSH1 0x20 ADD PUSH1 0x0 KECCAK256 PUSH1 0x0 DUP3 ADD MLOAD DUP2 PUSH1 0x0 ADD PUSH1 0x0 PUSH2 0x100 EXP DUP2 SLOAD DUP2 PUSH20 0xFFFFFFFFFFFFFFFFFFFFFFFFFFFFFFFFFFFFFFFF MUL NOT AND SWAP1 DUP4 PUSH20 0xFFFFFFFFFFFFFFFFFFFFFFFFFFFFFFFFFFFFFFFF AND MUL OR SWAP1 SSTORE POP PUSH1 0x20 DUP3 ADD MLOAD DUP2 PUSH1 0x1 ADD SSTORE PUSH1 0x40 DUP3 ADD MLOAD DUP2 PUSH1 0x2 ADD PUSH1 0x0 PUSH2 0x100 EXP DUP2 SLOAD DUP2 PUSH1 0xFF MUL NOT AND SWAP1 DUP4 PUSH1 0x2 DUP2 GT ISZERO PUSH2 0x32D JUMPI PUSH2 0x32C PUSH2 0x7A6 JUMP JUMPDEST JUMPDEST MUL OR SWAP1 SSTORE POP PUSH1 0x60 DUP3 ADD MLOAD DUP2 PUSH1 0x2 ADD PUSH1 0x1 PUSH2 0x100 EXP DUP2 SLOAD DUP2 PUSH1 0xFF MUL NOT AND SWAP1 DUP4 PUSH1 0x2 DUP2 GT ISZERO PUSH2 0x35D JUMPI PUSH2 0x35C PUSH2 0x7A6 JUMP JUMPDEST JUMPDEST MUL OR SWAP1 SSTORE POP SWAP1 POP POP PUSH1 0x0 PUSH1 0x2 DUP2 GT ISZERO PUSH2 0x379 JUMPI PUSH2 0x378 PUSH2 0x7A6 JUMP JUMPDEST JUMPDEST DUP5 PUSH1 0x2 DUP2 GT ISZERO PUSH2 0x38C JUMPI PUSH2 0x38B PUSH2 0x7A6 JUMP JUMPDEST JUMPDEST EQ DUP1 ISZERO PUSH2 0x3BC JUMPI POP PUSH1 0x2 DUP1 DUP2 GT ISZERO PUSH2 0x3A7 JUMPI PUSH2 0x3A6 PUSH2 0x7A6 JUMP JUMPDEST JUMPDEST DUP4 PUSH1 0x2 DUP2 GT ISZERO PUSH2 0x3BA JUMPI PUSH2 0x3B9 PUSH2 0x7A6 JUMP JUMPDEST JUMPDEST EQ JUMPDEST DUP1 PUSH2 0x41B JUMPI POP PUSH1 0x1 PUSH1 0x2 DUP2 GT ISZERO PUSH2 0x3D6 JUMPI PUSH2 0x3D5 PUSH2 0x7A6 JUMP JUMPDEST JUMPDEST DUP5 PUSH1 0x2 DUP2 GT ISZERO PUSH2 0x3E9 JUMPI PUSH2 0x3E8 PUSH2 0x7A6 JUMP JUMPDEST JUMPDEST EQ DUP1 ISZERO PUSH2 0x41A JUMPI POP PUSH1 0x0 PUSH1 0x2 DUP2 GT ISZERO PUSH2 0x405 JUMPI PUSH2 0x404 PUSH2 0x7A6 JUMP JUMPDEST JUMPDEST DUP4 PUSH1 0x2 DUP2 GT ISZERO PUSH2 0x418 JUMPI PUSH2 0x417 PUSH2 0x7A6 JUMP JUMPDEST JUMPDEST EQ JUMPDEST JUMPDEST DUP1 PUSH2 0x479 JUMPI POP PUSH1 0x2 DUP1 DUP2 GT ISZERO PUSH2 0x434 JUMPI PUSH2 0x433 PUSH2 0x7A6 JUMP JUMPDEST JUMPDEST DUP5 PUSH1 0x2 DUP2 GT ISZERO PUSH2 0x447 JUMPI PUSH2 0x446 PUSH2 0x7A6 JUMP JUMPDEST JUMPDEST EQ DUP1 ISZERO PUSH2 0x478 JUMPI POP PUSH1 0x1 PUSH1 0x2 DUP2 GT ISZERO PUSH2 0x463 JUMPI PUSH2 0x462 PUSH2 0x7A6 JUMP JUMPDEST JUMPDEST DUP4 PUSH1 0x2 DUP2 GT ISZERO PUSH2 0x476 JUMPI PUSH2 0x475 PUSH2 0x7A6 JUMP JUMPDEST JUMPDEST EQ JUMPDEST JUMPDEST ISZERO PUSH2 0x4D5 JUMPI PUSH1 0x2 CALLVALUE PUSH2 0x48B SWAP2 SWAP1 PUSH2 0x9F0 JUMP JUMPDEST SWAP2 POP CALLER PUSH20 0xFFFFFFFFFFFFFFFFFFFFFFFFFFFFFFFFFFFFFFFF AND PUSH2 0x8FC DUP4 SWAP1 DUP2 ISZERO MUL SWAP1 PUSH1 0x40 MLOAD PUSH1 0x0 PUSH1 0x40 MLOAD DUP1 DUP4 SUB DUP2 DUP6 DUP9 DUP9 CALL SWAP4 POP POP POP POP ISZERO DUP1 ISZERO PUSH2 0x4D3 JUMPI RETURNDATASIZE PUSH1 0x0 DUP1 RETURNDATACOPY RETURNDATASIZE PUSH1 0x0 REVERT JUMPDEST POP JUMPDEST CALLER PUSH20 0xFFFFFFFFFFFFFFFFFFFFFFFFFFFFFFFFFFFFFFFF AND PUSH32 0xB23AB49B4BA9602E729F07366027F225F26E664A9CFEC60A5ED4CBF87A81FB04 PUSH1 0x2 SLOAD CALLVALUE DUP6 PUSH1 0x40 MLOAD PUSH2 0x521 SWAP4 SWAP3 SWAP2 SWAP1 PUSH2 0xA32 JUMP JUMPDEST PUSH1 0x40 MLOAD DUP1 SWAP2 SUB SWAP1 LOG2 POP POP POP POP JUMP JUMPDEST PUSH1 0x0 SELFBALANCE SWAP1 POP SWAP1 JUMP JUMPDEST PUSH1 0x0 DUP1 SLOAD SWAP1 PUSH2 0x100 EXP SWAP1 DIV PUSH20 0xFFFFFFFFFFFFFFFFFFFFFFFFFFFFFFFFFFFFFFFF AND DUP2 JUMP JUMPDEST PUSH1 0x0 DUP1 SLOAD SWAP1 PUSH2 0x100 EXP SWAP1 DIV PUSH20 0xFFFFFFFFFFFFFFFFFFFFFFFFFFFFFFFFFFFFFFFF AND PUSH20 0xFFFFFFFFFFFFFFFFFFFFFFFFFFFFFFFFFFFFFFFF AND CALLER PUSH20 0xFFFFFFFFFFFFFFFFFFFFFFFFFFFFFFFFFFFFFFFF AND EQ PUSH2 0x5E9 JUMPI PUSH1 0x40 MLOAD PUSH32 0x8C379A000000000000000000000000000000000000000000000000000000000 DUP2 MSTORE PUSH1 0x4 ADD PUSH2 0x5E0 SWAP1 PUSH2 0xADB JUMP JUMPDEST PUSH1 0x40 MLOAD DUP1 SWAP2 SUB SWAP1 REVERT JUMPDEST DUP1 SELFBALANCE LT ISZERO PUSH2 0x62C JUMPI PUSH1 0x40 MLOAD PUSH32 0x8C379A000000000000000000000000000000000000000000000000000000000 DUP2 MSTORE PUSH1 0x4 ADD PUSH2 0x623 SWAP1 PUSH2 0xB47 JUMP JUMPDEST PUSH1 0x40 MLOAD DUP1 SWAP2 SUB SWAP1 REVERT JUMPDEST PUSH1 0x0 DUP1 SLOAD SWAP1 PUSH2 0x100 EXP SWAP1 DIV PUSH20 0xFFFFFFFFFFFFFFFFFFFFFFFFFFFFFFFFFFFFFFFF AND PUSH20 0xFFFFFFFFFFFFFFFFFFFFFFFFFFFFFFFFFFFFFFFF AND PUSH2 0x8FC DUP3 SWAP1 DUP2 ISZERO MUL SWAP1 PUSH1 0x40 MLOAD PUSH1 0x0 PUSH1 0x40 MLOAD DUP1 DUP4 SUB DUP2 DUP6 DUP9 DUP9 CALL SWAP4 POP POP POP POP ISZERO DUP1 ISZERO PUSH2 0x692 JUMPI RETURNDATASIZE PUSH1 0x0 DUP1 RETURNDATACOPY RETURNDATASIZE PUSH1 0x0 REVERT JUMPDEST POP POP JUMP JUMPDEST PUSH1 0x0 DUP1 PUSH1 0x3 TIMESTAMP PREVRANDAO CALLER PUSH1 0x40 MLOAD PUSH1 0x20 ADD PUSH2 0x6B0 SWAP4 SWAP3 SWAP2 SWAP1 PUSH2 0xBD0 JUMP JUMPDEST PUSH1 0x40 MLOAD PUSH1 0x20 DUP2 DUP4 SUB SUB DUP2 MSTORE SWAP1 PUSH1 0x40 MSTORE DUP1 MLOAD SWAP1 PUSH1 0x20 ADD KECCAK256 PUSH1 0x0 SHR PUSH2 0x6D3 SWAP2 SWAP1 PUSH2 0xC3C JUMP JUMPDEST SWAP1 POP DUP1 PUSH1 0x2 DUP2 GT ISZERO PUSH2 0x6E8 JUMPI PUSH2 0x6E7 PUSH2 0x7A6 JUMP JUMPDEST JUMPDEST SWAP2 POP POP SWAP1 JUMP JUMPDEST PUSH1 0x0 DUP1 REVERT JUMPDEST PUSH1 0x0 DUP2 SWAP1 POP SWAP2 SWAP1 POP JUMP JUMPDEST PUSH2 0x706 DUP2 PUSH2 0x6F3 JUMP JUMPDEST DUP2 EQ PUSH2 0x711 JUMPI PUSH1 0x0 DUP1 REVERT JUMPDEST POP JUMP JUMPDEST PUSH1 0x0 DUP2 CALLDATALOAD SWAP1 POP PUSH2 0x723 DUP2 PUSH2 0x6FD JUMP JUMPDEST SWAP3 SWAP2 POP POP JUMP JUMPDEST PUSH1 0x0 PUSH1 0x20 DUP3 DUP5 SUB SLT ISZERO PUSH2 0x73F JUMPI PUSH2 0x73E PUSH2 0x6EE JUMP JUMPDEST JUMPDEST PUSH1 0x0 PUSH2 0x74D DUP5 DUP3 DUP6 ADD PUSH2 0x714 JUMP JUMPDEST SWAP2 POP POP SWAP3 SWAP2 POP POP JUMP JUMPDEST PUSH1 0x0 PUSH20 0xFFFFFFFFFFFFFFFFFFFFFFFFFFFFFFFFFFFFFFFF DUP3 AND SWAP1 POP SWAP2 SWAP1 POP JUMP JUMPDEST PUSH1 0x0 PUSH2 0x781 DUP3 PUSH2 0x756 JUMP JUMPDEST SWAP1 POP SWAP2 SWAP1 POP JUMP JUMPDEST PUSH2 0x791 DUP2 PUSH2 0x776 JUMP JUMPDEST DUP3 MSTORE POP POP JUMP JUMPDEST PUSH2 0x7A0 DUP2 PUSH2 0x6F3 JUMP JUMPDEST DUP3 MSTORE POP POP JUMP JUMPDEST PUSH32 0x4E487B7100000000000000000000000000000000000000000000000000000000 PUSH1 0x0 MSTORE PUSH1 0x21 PUSH1 0x4 MSTORE PUSH1 0x24 PUSH1 0x0 REVERT JUMPDEST PUSH1 0x3 DUP2 LT PUSH2 0x7E6 JUMPI PUSH2 0x7E5 PUSH2 0x7A6 JUMP JUMPDEST JUMPDEST POP JUMP JUMPDEST PUSH1 0x0 DUP2 SWAP1 POP PUSH2 0x7F7 DUP3 PUSH2 0x7D5 JUMP JUMPDEST SWAP2 SWAP1 POP JUMP JUMPDEST PUSH1 0x0 PUSH2 0x807 DUP3 PUSH2 0x7E9 JUMP JUMPDEST SWAP1 POP SWAP2 SWAP1 POP JUMP JUMPDEST PUSH2 0x817 DUP2 PUSH2 0x7FC JUMP JUMPDEST DUP3 MSTORE POP POP JUMP JUMPDEST PUSH1 0x0 PUSH1 0x80 DUP3 ADD SWAP1 POP PUSH2 0x832 PUSH1 0x0 DUP4 ADD DUP8 PUSH2 0x788 JUMP JUMPDEST PUSH2 0x83F PUSH1 0x20 DUP4 ADD DUP7 PUSH2 0x797 JUMP JUMPDEST PUSH2 0x84C PUSH1 0x40 DUP4 ADD DUP6 PUSH2 0x80E JUMP JUMPDEST PUSH2 0x859 PUSH1 0x60 DUP4 ADD DUP5 PUSH2 0x80E JUMP JUMPDEST SWAP6 SWAP5 POP POP POP POP POP JUMP JUMPDEST PUSH1 0x0 PUSH1 0x20 DUP3 ADD SWAP1 POP PUSH2 0x877 PUSH1 0x0 DUP4 ADD DUP5 PUSH2 0x797 JUMP JUMPDEST SWAP3 SWAP2 POP POP JUMP JUMPDEST PUSH1 0x3 DUP2 LT PUSH2 0x88A JUMPI PUSH1 0x0 DUP1 REVERT JUMPDEST POP JUMP JUMPDEST PUSH1 0x0 DUP2 CALLDATALOAD SWAP1 POP PUSH2 0x89C DUP2 PUSH2 0x87D JUMP JUMPDEST SWAP3 SWAP2 POP POP JUMP JUMPDEST PUSH1 0x0 PUSH1 0x20 DUP3 DUP5 SUB SLT ISZERO PUSH2 0x8B8 JUMPI PUSH2 0x8B7 PUSH2 0x6EE JUMP JUMPDEST JUMPDEST PUSH1 0x0 PUSH2 0x8C6 DUP5 DUP3 DUP6 ADD PUSH2 0x88D JUMP JUMPDEST SWAP2 POP POP SWAP3 SWAP2 POP POP JUMP JUMPDEST PUSH1 0x0 PUSH1 0x20 DUP3 ADD SWAP1 POP PUSH2 0x8E4 PUSH1 0x0 DUP4 ADD DUP5 PUSH2 0x788 JUMP JUMPDEST SWAP3 SWAP2 POP POP JUMP JUMPDEST PUSH1 0x0 DUP3 DUP3 MSTORE PUSH1 0x20 DUP3 ADD SWAP1 POP SWAP3 SWAP2 POP POP JUMP JUMPDEST PUSH32 0x42657420616D6F756E74206D757374206265206174206C6561737420302E3030 PUSH1 0x0 DUP3 ADD MSTORE PUSH32 0x30312074424E422E000000000000000000000000000000000000000000000000 PUSH1 0x20 DUP3 ADD MSTORE POP JUMP JUMPDEST PUSH1 0x0 PUSH2 0x957 PUSH1 0x28 DUP4 PUSH2 0x8EA JUMP JUMPDEST SWAP2 POP PUSH2 0x962 DUP3 PUSH2 0x8FB JUMP JUMPDEST PUSH1 0x40 DUP3 ADD SWAP1 POP SWAP2 SWAP1 POP JUMP JUMPDEST PUSH1 0x0 PUSH1 0x20 DUP3 ADD SWAP1 POP DUP2 DUP2 SUB PUSH1 0x0 DUP4 ADD MSTORE PUSH2 0x986 DUP2 PUSH2 0x94A JUMP JUMPDEST SWAP1 POP SWAP2 SWAP1 POP JUMP JUMPDEST PUSH32 0x4E487B7100000000000000000000000000000000000000000000000000000000 PUSH1 0x0 MSTORE PUSH1 0x11 PUSH1 0x4 MSTORE PUSH1 0x24 PUSH1 0x0 REVERT JUMPDEST PUSH1 0x0 PUSH2 0x9C7 DUP3 PUSH2 0x6F3 JUMP JUMPDEST SWAP2 POP PUSH2 0x9D2 DUP4 PUSH2 0x6F3 JUMP JUMPDEST SWAP3 POP DUP3 DUP3 ADD SWAP1 POP DUP1 DUP3 GT ISZERO PUSH2 0x9EA JUMPI PUSH2 0x9E9 PUSH2 0x98D JUMP JUMPDEST JUMPDEST SWAP3 SWAP2 POP POP JUMP JUMPDEST PUSH1 0x0 PUSH2 0x9FB DUP3 PUSH2 0x6F3 JUMP JUMPDEST SWAP2 POP PUSH2 0xA06 DUP4 PUSH2 0x6F3 JUMP JUMPDEST SWAP3 POP DUP3 DUP3 MUL PUSH2 0xA14 DUP2 PUSH2 0x6F3 JUMP JUMPDEST SWAP2 POP DUP3 DUP3 DIV DUP5 EQ DUP4 ISZERO OR PUSH2 0xA2B JUMPI PUSH2 0xA2A PUSH2 0x98D JUMP JUMPDEST JUMPDEST POP SWAP3 SWAP2 POP POP JUMP JUMPDEST PUSH1 0x0 PUSH1 0x60 DUP3 ADD SWAP1 POP PUSH2 0xA47 PUSH1 0x0 DUP4 ADD DUP7 PUSH2 0x797 JUMP JUMPDEST PUSH2 0xA54 PUSH1 0x20 DUP4 ADD DUP6 PUSH2 0x797 JUMP JUMPDEST PUSH2 0xA61 PUSH1 0x40 DUP4 ADD DUP5 PUSH2 0x797 JUMP JUMPDEST SWAP5 SWAP4 POP POP POP POP JUMP JUMPDEST PUSH32 0x4F6E6C7920746865206F776E65722063616E2063616C6C20746869732066756E PUSH1 0x0 DUP3 ADD MSTORE PUSH32 0x6374696F6E2E0000000000000000000000000000000000000000000000000000 PUSH1 0x20 DUP3 ADD MSTORE POP JUMP JUMPDEST PUSH1 0x0 PUSH2 0xAC5 PUSH1 0x26 DUP4 PUSH2 0x8EA JUMP JUMPDEST SWAP2 POP PUSH2 0xAD0 DUP3 PUSH2 0xA69 JUMP JUMPDEST PUSH1 0x40 DUP3 ADD SWAP1 POP SWAP2 SWAP1 POP JUMP JUMPDEST PUSH1 0x0 PUSH1 0x20 DUP3 ADD SWAP1 POP DUP2 DUP2 SUB PUSH1 0x0 DUP4 ADD MSTORE PUSH2 0xAF4 DUP2 PUSH2 0xAB8 JUMP JUMPDEST SWAP1 POP SWAP2 SWAP1 POP JUMP JUMPDEST PUSH32 0x4E6F7420656E6F7567682062616C616E636520746F2077697468647261772E00 PUSH1 0x0 DUP3 ADD MSTORE POP JUMP JUMPDEST PUSH1 0x0 PUSH2 0xB31 PUSH1 0x1F DUP4 PUSH2 0x8EA JUMP JUMPDEST SWAP2 POP PUSH2 0xB3C DUP3 PUSH2 0xAFB JUMP JUMPDEST PUSH1 0x20 DUP3 ADD SWAP1 POP SWAP2 SWAP1 POP JUMP JUMPDEST PUSH1 0x0 PUSH1 0x20 DUP3 ADD SWAP1 POP DUP2 DUP2 SUB PUSH1 0x0 DUP4 ADD MSTORE PUSH2 0xB60 DUP2 PUSH2 0xB24 JUMP JUMPDEST SWAP1 POP SWAP2 SWAP1 POP JUMP JUMPDEST PUSH1 0x0 DUP2 SWAP1 POP SWAP2 SWAP1 POP JUMP JUMPDEST PUSH2 0xB82 PUSH2 0xB7D DUP3 PUSH2 0x6F3 JUMP JUMPDEST PUSH2 0xB67 JUMP JUMPDEST DUP3 MSTORE POP POP JUMP JUMPDEST PUSH1 0x0 DUP2 PUSH1 0x60 SHL SWAP1 POP SWAP2 SWAP1 POP JUMP JUMPDEST PUSH1 0x0 PUSH2 0xBA0 DUP3 PUSH2 0xB88 JUMP JUMPDEST SWAP1 POP SWAP2 SWAP1 POP JUMP JUMPDEST PUSH1 0x0 PUSH2 0xBB2 DUP3 PUSH2 0xB95 JUMP JUMPDEST SWAP1 POP SWAP2 SWAP1 POP JUMP JUMPDEST PUSH2 0xBCA PUSH2 0xBC5 DUP3 PUSH2 0x776 JUMP JUMPDEST PUSH2 0xBA7 JUMP JUMPDEST DUP3 MSTORE POP POP JUMP JUMPDEST PUSH1 0x0 PUSH2 0xBDC DUP3 DUP7 PUSH2 0xB71 JUMP JUMPDEST PUSH1 0x20 DUP3 ADD SWAP2 POP PUSH2 0xBEC DUP3 DUP6 PUSH2 0xB71 JUMP JUMPDEST PUSH1 0x20 DUP3 ADD SWAP2 POP PUSH2 0xBFC DUP3 DUP5 PUSH2 0xBB9 JUMP JUMPDEST PUSH1 0x14 DUP3 ADD SWAP2 POP DUP2 SWAP1 POP SWAP5 SWAP4 POP POP POP POP JUMP JUMPDEST PUSH32 0x4E487B7100000000000000000000000000000000000000000000000000000000 PUSH1 0x0 MSTORE PUSH1 0x12 PUSH1 0x4 MSTORE PUSH1 0x24 PUSH1 0x0 REVERT JUMPDEST PUSH1 0x0 PUSH2 0xC47 DUP3 PUSH2 0x6F3 JUMP JUMPDEST SWAP2 POP PUSH2 0xC52 DUP4 PUSH2 0x6F3 JUMP JUMPDEST SWAP3 POP DUP3 PUSH2 0xC62 JUMPI PUSH2 0xC61 PUSH2 0xC0D JUMP JUMPDEST JUMPDEST DUP3 DUP3 MOD SWAP1 POP SWAP3 SWAP2 POP POP JUMP INVALID LOG2 PUSH5 0x6970667358 0x22 SLT KECCAK256 SWAP12 PUSH20 0x281BCE4ED42C70ED7005119AD51BC94DF2303110 0xDA SLOAD 0xC SWAP3 0xDD 0x24 0x5C ADDRESS DUP7 0xEE PUSH5 0x736F6C6343 STOP ADDMOD SLT STOP CALLER "
				},
				"gasEstimates": {
					"creation": {
						"codeDepositCost": "647000",
						"executionCost": "24949",
						"totalCost": "671949"
					},
					"external": {
						"gameIdCounter()": "2429",
						"games(uint256)": "infinite",
						"getContractBalance()": "383",
						"owner()": "2577",
						"play(uint8)": "infinite",
						"withdrawBalance(uint256)": "infinite"
					},
					"internal": {
						"generateRandomMove()": "infinite"
					}
				},
				"methodIdentifiers": {
					"gameIdCounter()": "1bb412d6",
					"games(uint256)": "117a5b90",
					"getContractBalance()": "6f9fb98a",
					"owner()": "8da5cb5b",
					"play(uint8)": "53a04b05",
					"withdrawBalance(uint256)": "da76d5cd"
				}
			},
			"storageLayout": {
				"storage": [
					{
						"astId": 18,
						"contract": "contracts/RPS.sol:RockPaperScissors",
						"label": "owner",
						"offset": 0,
						"slot": "0",
						"type": "t_address"
					},
					{
						"astId": 23,
						"contract": "contracts/RPS.sol:RockPaperScissors",
						"label": "games",
						"offset": 0,
						"slot": "1",
						"type": "t_mapping(t_uint256,t_struct(Game)16_storage)"
					},
					{
						"astId": 25,
						"contract": "contracts/RPS.sol:RockPaperScissors",
						"label": "gameIdCounter",
						"offset": 0,
						"slot": "2",
						"type": "t_uint256"
					}
				],
				"types": {
					"t_address": {
						"encoding": "inplace",
						"label": "address",
						"numberOfBytes": "20"
					},
					"t_enum(Move)5": {
						"encoding": "inplace",
						"label": "enum RockPaperScissors.Move",
						"numberOfBytes": "1"
					},
					"t_mapping(t_uint256,t_struct(Game)16_storage)": {
						"encoding": "mapping",
						"key": "t_uint256",
						"label": "mapping(uint256 => struct RockPaperScissors.Game)",
						"numberOfBytes": "32",
						"value": "t_struct(Game)16_storage"
					},
					"t_struct(Game)16_storage": {
						"encoding": "inplace",
						"label": "struct RockPaperScissors.Game",
						"members": [
							{
								"astId": 7,
								"contract": "contracts/RPS.sol:RockPaperScissors",
								"label": "player",
								"offset": 0,
								"slot": "0",
								"type": "t_address"
							},
							{
								"astId": 9,
								"contract": "contracts/RPS.sol:RockPaperScissors",
								"label": "betAmount",
								"offset": 0,
								"slot": "1",
								"type": "t_uint256"
							},
							{
								"astId": 12,
								"contract": "contracts/RPS.sol:RockPaperScissors",
								"label": "playerMove",
								"offset": 0,
								"slot": "2",
								"type": "t_enum(Move)5"
							},
							{
								"astId": 15,
								"contract": "contracts/RPS.sol:RockPaperScissors",
								"label": "houseMove",
								"offset": 1,
								"slot": "2",
								"type": "t_enum(Move)5"
							}
						],
						"numberOfBytes": "96"
					},
					"t_uint256": {
						"encoding": "inplace",
						"label": "uint256",
						"numberOfBytes": "32"
					}
				}
			},
			"userdoc": {
				"kind": "user",
				"methods": {},
				"version": 1
			}
		}
	}
}