{
	"contracts/Note3.sol": {
		"Note3": {
			"abi": [
				{
					"anonymous": false,
					"inputs": [
						{
							"indexed": false,
							"internalType": "address",
							"name": "noteSender",
							"type": "address"
						},
						{
							"indexed": false,
							"internalType": "string",
							"name": "addedNote",
							"type": "string"
						}
					],
					"name": "NoteAdded",
					"type": "event"
				},
				{
					"inputs": [],
					"name": "getNoteWithArray",
					"outputs": [
						{
							"internalType": "string",
							"name": "",
							"type": "string"
						}
					],
					"stateMutability": "view",
					"type": "function"
				},
				{
					"inputs": [
						{
							"internalType": "string",
							"name": "_note",
							"type": "string"
						}
					],
					"name": "setNoteWithArray",
					"outputs": [],
					"stateMutability": "nonpayable",
					"type": "function"
				}
			],
			"devdoc": {
				"kind": "dev",
				"methods": {},
				"version": 1
			},
			"evm": {
				"assembly": "    /* \"contracts/Note3.sol\":60:1272  contract Note3 {... */\n  mstore(0x40, 0x80)\n  callvalue\n  dup1\n  iszero\n  tag_1\n  jumpi\n  0x00\n  dup1\n  revert\ntag_1:\n  pop\n  dataSize(sub_0)\n  dup1\n  dataOffset(sub_0)\n  0x00\n  codecopy\n  0x00\n  return\nstop\n\nsub_0: assembly {\n        /* \"contracts/Note3.sol\":60:1272  contract Note3 {... */\n      mstore(0x40, 0x80)\n      callvalue\n      dup1\n      iszero\n      tag_1\n      jumpi\n      0x00\n      dup1\n      revert\n    tag_1:\n      pop\n      jumpi(tag_2, lt(calldatasize, 0x04))\n      shr(0xe0, calldataload(0x00))\n      dup1\n      0x16bbe175\n      eq\n      tag_3\n      jumpi\n      dup1\n      0x647dc45c\n      eq\n      tag_4\n      jumpi\n    tag_2:\n      0x00\n      dup1\n      revert\n        /* \"contracts/Note3.sol\":549:848  function getNoteWithArray() public view returns (string memory){... */\n    tag_3:\n      tag_5\n      tag_6\n      jump\t// in\n    tag_5:\n      mload(0x40)\n      tag_7\n      swap2\n      swap1\n      tag_8\n      jump\t// in\n    tag_7:\n      mload(0x40)\n      dup1\n      swap2\n      sub\n      swap1\n      return\n        /* \"contracts/Note3.sol\":421:541  function setNoteWithArray(string memory _note) public {... */\n    tag_4:\n      tag_9\n      0x04\n      dup1\n      calldatasize\n      sub\n      dup2\n      add\n      swap1\n      tag_10\n      swap2\n      swap1\n      tag_11\n      jump\t// in\n    tag_10:\n      tag_12\n      jump\t// in\n    tag_9:\n      stop\n        /* \"contracts/Note3.sol\":549:848  function getNoteWithArray() public view returns (string memory){... */\n    tag_6:\n        /* \"contracts/Note3.sol\":598:611  string memory */\n      0x60\n        /* \"contracts/Note3.sol\":638:647  uint256 i */\n      0x00\n        /* \"contracts/Note3.sol\":633:814  for (uint256 i = 0; i<notesArray.length; i++) {... */\n    tag_14:\n        /* \"contracts/Note3.sol\":655:665  notesArray */\n      0x02\n        /* \"contracts/Note3.sol\":655:672  notesArray.length */\n      dup1\n      sload\n      swap1\n      pop\n        /* \"contracts/Note3.sol\":653:654  i */\n      dup2\n        /* \"contracts/Note3.sol\":653:672  i<notesArray.length */\n      lt\n        /* \"contracts/Note3.sol\":633:814  for (uint256 i = 0; i<notesArray.length; i++) {... */\n      iszero\n      tag_15\n      jumpi\n        /* \"contracts/Note3.sol\":726:736  msg.sender */\n      caller\n        /* \"contracts/Note3.sol\":697:736  notesArray[i].userAddress == msg.sender */\n      0xffffffffffffffffffffffffffffffffffffffff\n      and\n        /* \"contracts/Note3.sol\":697:707  notesArray */\n      0x02\n        /* \"contracts/Note3.sol\":708:709  i */\n      dup3\n        /* \"contracts/Note3.sol\":697:710  notesArray[i] */\n      dup2\n      sload\n      dup2\n      lt\n      tag_17\n      jumpi\n      tag_18\n      tag_19\n      jump\t// in\n    tag_18:\n    tag_17:\n      swap1\n      0x00\n      mstore\n      keccak256(0x00, 0x20)\n      swap1\n      0x02\n      mul\n      add\n        /* \"contracts/Note3.sol\":697:722  notesArray[i].userAddress */\n      0x00\n      add\n      0x00\n      swap1\n      sload\n      swap1\n      0x0100\n      exp\n      swap1\n      div\n      0xffffffffffffffffffffffffffffffffffffffff\n      and\n        /* \"contracts/Note3.sol\":697:736  notesArray[i].userAddress == msg.sender */\n      0xffffffffffffffffffffffffffffffffffffffff\n      and\n      sub\n        /* \"contracts/Note3.sol\":694:801  if(notesArray[i].userAddress == msg.sender){... */\n      tag_21\n      jumpi\n        /* \"contracts/Note3.sol\":763:773  notesArray */\n      0x02\n        /* \"contracts/Note3.sol\":774:775  i */\n      dup2\n        /* \"contracts/Note3.sol\":763:776  notesArray[i] */\n      dup2\n      sload\n      dup2\n      lt\n      tag_22\n      jumpi\n      tag_23\n      tag_19\n      jump\t// in\n    tag_23:\n    tag_22:\n      swap1\n      0x00\n      mstore\n      keccak256(0x00, 0x20)\n      swap1\n      0x02\n      mul\n      add\n        /* \"contracts/Note3.sol\":763:785  notesArray[i].userNote */\n      0x01\n      add\n        /* \"contracts/Note3.sol\":756:785  return notesArray[i].userNote */\n      dup1\n      sload\n      tag_25\n      swap1\n      tag_26\n      jump\t// in\n    tag_25:\n      dup1\n      0x1f\n      add\n      0x20\n      dup1\n      swap2\n      div\n      mul\n      0x20\n      add\n      mload(0x40)\n      swap1\n      dup2\n      add\n      0x40\n      mstore\n      dup1\n      swap3\n      swap2\n      swap1\n      dup2\n      dup2\n      mstore\n      0x20\n      add\n      dup3\n      dup1\n      sload\n      tag_27\n      swap1\n      tag_26\n      jump\t// in\n    tag_27:\n      dup1\n      iszero\n      tag_28\n      jumpi\n      dup1\n      0x1f\n      lt\n      tag_29\n      jumpi\n      0x0100\n      dup1\n      dup4\n      sload\n      div\n      mul\n      dup4\n      mstore\n      swap2\n      0x20\n      add\n      swap2\n      jump(tag_28)\n    tag_29:\n      dup3\n      add\n      swap2\n      swap1\n      0x00\n      mstore\n      keccak256(0x00, 0x20)\n      swap1\n    tag_30:\n      dup2\n      sload\n      dup2\n      mstore\n      swap1\n      0x01\n      add\n      swap1\n      0x20\n      add\n      dup1\n      dup4\n      gt\n      tag_30\n      jumpi\n      dup3\n      swap1\n      sub\n      0x1f\n      and\n      dup3\n      add\n      swap2\n    tag_28:\n      pop\n      pop\n      pop\n      pop\n      pop\n      swap2\n      pop\n      pop\n      jump(tag_13)\n        /* \"contracts/Note3.sol\":694:801  if(notesArray[i].userAddress == msg.sender){... */\n    tag_21:\n        /* \"contracts/Note3.sol\":674:677  i++ */\n      dup1\n      dup1\n      tag_31\n      swap1\n      tag_32\n      jump\t// in\n    tag_31:\n      swap2\n      pop\n      pop\n        /* \"contracts/Note3.sol\":633:814  for (uint256 i = 0; i<notesArray.length; i++) {... */\n      jump(tag_14)\n    tag_15:\n      pop\n        /* \"contracts/Note3.sol\":831:840  return \"\" */\n      mload(0x40)\n      dup1\n      0x20\n      add\n      0x40\n      mstore\n      dup1\n      0x00\n      dup2\n      mstore\n      pop\n      swap1\n      pop\n        /* \"contracts/Note3.sol\":549:848  function getNoteWithArray() public view returns (string memory){... */\n    tag_13:\n      swap1\n      jump\t// out\n        /* \"contracts/Note3.sol\":421:541  function setNoteWithArray(string memory _note) public {... */\n    tag_12:\n        /* \"contracts/Note3.sol\":486:496  notesArray */\n      0x02\n        /* \"contracts/Note3.sol\":502:532  notesStruct(msg.sender, _note) */\n      mload(0x40)\n      dup1\n      0x40\n      add\n      0x40\n      mstore\n      dup1\n        /* \"contracts/Note3.sol\":514:524  msg.sender */\n      caller\n        /* \"contracts/Note3.sol\":502:532  notesStruct(msg.sender, _note) */\n      0xffffffffffffffffffffffffffffffffffffffff\n      and\n      dup2\n      mstore\n      0x20\n      add\n        /* \"contracts/Note3.sol\":526:531  _note */\n      dup4\n        /* \"contracts/Note3.sol\":502:532  notesStruct(msg.sender, _note) */\n      dup2\n      mstore\n      pop\n        /* \"contracts/Note3.sol\":486:533  notesArray.push(notesStruct(msg.sender, _note)) */\n      swap1\n      dup1\n      0x01\n      dup2\n      sload\n      add\n      dup1\n      dup3\n      sstore\n      dup1\n      swap2\n      pop\n      pop\n      0x01\n      swap1\n      sub\n      swap1\n      0x00\n      mstore\n      keccak256(0x00, 0x20)\n      swap1\n      0x02\n      mul\n      add\n      0x00\n      swap1\n      swap2\n      swap1\n      swap2\n      swap1\n      swap2\n      pop\n      0x00\n      dup3\n      add\n      mload\n      dup2\n      0x00\n      add\n      exp(0x0100, 0x00)\n      dup2\n      sload\n      dup2\n      0xffffffffffffffffffffffffffffffffffffffff\n      mul\n      not\n      and\n      swap1\n      dup4\n      0xffffffffffffffffffffffffffffffffffffffff\n      and\n      mul\n      or\n      swap1\n      sstore\n      pop\n      0x20\n      dup3\n      add\n      mload\n      dup2\n      0x01\n      add\n      swap1\n      dup2\n      tag_35\n      swap2\n      swap1\n      tag_36\n      jump\t// in\n    tag_35:\n      pop\n      pop\n      pop\n        /* \"contracts/Note3.sol\":421:541  function setNoteWithArray(string memory _note) public {... */\n      pop\n      jump\t// out\n        /* \"#utility.yul\":7:106   */\n    tag_37:\n        /* \"#utility.yul\":59:65   */\n      0x00\n        /* \"#utility.yul\":93:98   */\n      dup2\n        /* \"#utility.yul\":87:99   */\n      mload\n        /* \"#utility.yul\":77:99   */\n      swap1\n      pop\n        /* \"#utility.yul\":7:106   */\n      swap2\n      swap1\n      pop\n      jump\t// out\n        /* \"#utility.yul\":112:281   */\n    tag_38:\n        /* \"#utility.yul\":196:207   */\n      0x00\n        /* \"#utility.yul\":230:236   */\n      dup3\n        /* \"#utility.yul\":225:228   */\n      dup3\n        /* \"#utility.yul\":218:237   */\n      mstore\n        /* \"#utility.yul\":270:274   */\n      0x20\n        /* \"#utility.yul\":265:268   */\n      dup3\n        /* \"#utility.yul\":261:275   */\n      add\n        /* \"#utility.yul\":246:275   */\n      swap1\n      pop\n        /* \"#utility.yul\":112:281   */\n      swap3\n      swap2\n      pop\n      pop\n      jump\t// out\n        /* \"#utility.yul\":287:533   */\n    tag_39:\n        /* \"#utility.yul\":368:369   */\n      0x00\n        /* \"#utility.yul\":378:491   */\n    tag_76:\n        /* \"#utility.yul\":392:398   */\n      dup4\n        /* \"#utility.yul\":389:390   */\n      dup2\n        /* \"#utility.yul\":386:399   */\n      lt\n        /* \"#utility.yul\":378:491   */\n      iszero\n      tag_78\n      jumpi\n        /* \"#utility.yul\":477:478   */\n      dup1\n        /* \"#utility.yul\":472:475   */\n      dup3\n        /* \"#utility.yul\":468:479   */\n      add\n        /* \"#utility.yul\":462:480   */\n      mload\n        /* \"#utility.yul\":458:459   */\n      dup2\n        /* \"#utility.yul\":453:456   */\n      dup5\n        /* \"#utility.yul\":449:460   */\n      add\n        /* \"#utility.yul\":442:481   */\n      mstore\n        /* \"#utility.yul\":414:416   */\n      0x20\n        /* \"#utility.yul\":411:412   */\n      dup2\n        /* \"#utility.yul\":407:417   */\n      add\n        /* \"#utility.yul\":402:417   */\n      swap1\n      pop\n        /* \"#utility.yul\":378:491   */\n      jump(tag_76)\n    tag_78:\n        /* \"#utility.yul\":525:526   */\n      0x00\n        /* \"#utility.yul\":516:522   */\n      dup5\n        /* \"#utility.yul\":511:514   */\n      dup5\n        /* \"#utility.yul\":507:523   */\n      add\n        /* \"#utility.yul\":500:527   */\n      mstore\n        /* \"#utility.yul\":349:533   */\n      pop\n        /* \"#utility.yul\":287:533   */\n      pop\n      pop\n      pop\n      jump\t// out\n        /* \"#utility.yul\":539:641   */\n    tag_40:\n        /* \"#utility.yul\":580:586   */\n      0x00\n        /* \"#utility.yul\":631:633   */\n      0x1f\n        /* \"#utility.yul\":627:634   */\n      not\n        /* \"#utility.yul\":622:624   */\n      0x1f\n        /* \"#utility.yul\":615:620   */\n      dup4\n        /* \"#utility.yul\":611:625   */\n      add\n        /* \"#utility.yul\":607:635   */\n      and\n        /* \"#utility.yul\":597:635   */\n      swap1\n      pop\n        /* \"#utility.yul\":539:641   */\n      swap2\n      swap1\n      pop\n      jump\t// out\n        /* \"#utility.yul\":647:1024   */\n    tag_41:\n        /* \"#utility.yul\":735:738   */\n      0x00\n        /* \"#utility.yul\":763:802   */\n      tag_81\n        /* \"#utility.yul\":796:801   */\n      dup3\n        /* \"#utility.yul\":763:802   */\n      tag_37\n      jump\t// in\n    tag_81:\n        /* \"#utility.yul\":818:889   */\n      tag_82\n        /* \"#utility.yul\":882:888   */\n      dup2\n        /* \"#utility.yul\":877:880   */\n      dup6\n        /* \"#utility.yul\":818:889   */\n      tag_38\n      jump\t// in\n    tag_82:\n        /* \"#utility.yul\":811:889   */\n      swap4\n      pop\n        /* \"#utility.yul\":898:963   */\n      tag_83\n        /* \"#utility.yul\":956:962   */\n      dup2\n        /* \"#utility.yul\":951:954   */\n      dup6\n        /* \"#utility.yul\":944:948   */\n      0x20\n        /* \"#utility.yul\":937:942   */\n      dup7\n        /* \"#utility.yul\":933:949   */\n      add\n        /* \"#utility.yul\":898:963   */\n      tag_39\n      jump\t// in\n    tag_83:\n        /* \"#utility.yul\":988:1017   */\n      tag_84\n        /* \"#utility.yul\":1010:1016   */\n      dup2\n        /* \"#utility.yul\":988:1017   */\n      tag_40\n      jump\t// in\n    tag_84:\n        /* \"#utility.yul\":983:986   */\n      dup5\n        /* \"#utility.yul\":979:1018   */\n      add\n        /* \"#utility.yul\":972:1018   */\n      swap2\n      pop\n        /* \"#utility.yul\":739:1024   */\n      pop\n        /* \"#utility.yul\":647:1024   */\n      swap3\n      swap2\n      pop\n      pop\n      jump\t// out\n        /* \"#utility.yul\":1030:1343   */\n    tag_8:\n        /* \"#utility.yul\":1143:1147   */\n      0x00\n        /* \"#utility.yul\":1181:1183   */\n      0x20\n        /* \"#utility.yul\":1170:1179   */\n      dup3\n        /* \"#utility.yul\":1166:1184   */\n      add\n        /* \"#utility.yul\":1158:1184   */\n      swap1\n      pop\n        /* \"#utility.yul\":1230:1239   */\n      dup2\n        /* \"#utility.yul\":1224:1228   */\n      dup2\n        /* \"#utility.yul\":1220:1240   */\n      sub\n        /* \"#utility.yul\":1216:1217   */\n      0x00\n        /* \"#utility.yul\":1205:1214   */\n      dup4\n        /* \"#utility.yul\":1201:1218   */\n      add\n        /* \"#utility.yul\":1194:1241   */\n      mstore\n        /* \"#utility.yul\":1258:1336   */\n      tag_86\n        /* \"#utility.yul\":1331:1335   */\n      dup2\n        /* \"#utility.yul\":1322:1328   */\n      dup5\n        /* \"#utility.yul\":1258:1336   */\n      tag_41\n      jump\t// in\n    tag_86:\n        /* \"#utility.yul\":1250:1336   */\n      swap1\n      pop\n        /* \"#utility.yul\":1030:1343   */\n      swap3\n      swap2\n      pop\n      pop\n      jump\t// out\n        /* \"#utility.yul\":1349:1424   */\n    tag_42:\n        /* \"#utility.yul\":1382:1388   */\n      0x00\n        /* \"#utility.yul\":1415:1417   */\n      0x40\n        /* \"#utility.yul\":1409:1418   */\n      mload\n        /* \"#utility.yul\":1399:1418   */\n      swap1\n      pop\n        /* \"#utility.yul\":1349:1424   */\n      swap1\n      jump\t// out\n        /* \"#utility.yul\":1430:1547   */\n    tag_43:\n        /* \"#utility.yul\":1539:1540   */\n      0x00\n        /* \"#utility.yul\":1536:1537   */\n      dup1\n        /* \"#utility.yul\":1529:1541   */\n      revert\n        /* \"#utility.yul\":1553:1670   */\n    tag_44:\n        /* \"#utility.yul\":1662:1663   */\n      0x00\n        /* \"#utility.yul\":1659:1660   */\n      dup1\n        /* \"#utility.yul\":1652:1664   */\n      revert\n        /* \"#utility.yul\":1676:1793   */\n    tag_45:\n        /* \"#utility.yul\":1785:1786   */\n      0x00\n        /* \"#utility.yul\":1782:1783   */\n      dup1\n        /* \"#utility.yul\":1775:1787   */\n      revert\n        /* \"#utility.yul\":1799:1916   */\n    tag_46:\n        /* \"#utility.yul\":1908:1909   */\n      0x00\n        /* \"#utility.yul\":1905:1906   */\n      dup1\n        /* \"#utility.yul\":1898:1910   */\n      revert\n        /* \"#utility.yul\":1922:2102   */\n    tag_47:\n        /* \"#utility.yul\":1970:2047   */\n      0x4e487b7100000000000000000000000000000000000000000000000000000000\n        /* \"#utility.yul\":1967:1968   */\n      0x00\n        /* \"#utility.yul\":1960:2048   */\n      mstore\n        /* \"#utility.yul\":2067:2071   */\n      0x41\n        /* \"#utility.yul\":2064:2065   */\n      0x04\n        /* \"#utility.yul\":2057:2072   */\n      mstore\n        /* \"#utility.yul\":2091:2095   */\n      0x24\n        /* \"#utility.yul\":2088:2089   */\n      0x00\n        /* \"#utility.yul\":2081:2096   */\n      revert\n        /* \"#utility.yul\":2108:2389   */\n    tag_48:\n        /* \"#utility.yul\":2191:2218   */\n      tag_94\n        /* \"#utility.yul\":2213:2217   */\n      dup3\n        /* \"#utility.yul\":2191:2218   */\n      tag_40\n      jump\t// in\n    tag_94:\n        /* \"#utility.yul\":2183:2189   */\n      dup2\n        /* \"#utility.yul\":2179:2219   */\n      add\n        /* \"#utility.yul\":2321:2327   */\n      dup2\n        /* \"#utility.yul\":2309:2319   */\n      dup2\n        /* \"#utility.yul\":2306:2328   */\n      lt\n        /* \"#utility.yul\":2285:2303   */\n      0xffffffffffffffff\n        /* \"#utility.yul\":2273:2283   */\n      dup3\n        /* \"#utility.yul\":2270:2304   */\n      gt\n        /* \"#utility.yul\":2267:2329   */\n      or\n        /* \"#utility.yul\":2264:2352   */\n      iszero\n      tag_95\n      jumpi\n        /* \"#utility.yul\":2332:2350   */\n      tag_96\n      tag_47\n      jump\t// in\n    tag_96:\n        /* \"#utility.yul\":2264:2352   */\n    tag_95:\n        /* \"#utility.yul\":2372:2382   */\n      dup1\n        /* \"#utility.yul\":2368:2370   */\n      0x40\n        /* \"#utility.yul\":2361:2383   */\n      mstore\n        /* \"#utility.yul\":2151:2389   */\n      pop\n        /* \"#utility.yul\":2108:2389   */\n      pop\n      pop\n      jump\t// out\n        /* \"#utility.yul\":2395:2524   */\n    tag_49:\n        /* \"#utility.yul\":2429:2435   */\n      0x00\n        /* \"#utility.yul\":2456:2476   */\n      tag_98\n      tag_42\n      jump\t// in\n    tag_98:\n        /* \"#utility.yul\":2446:2476   */\n      swap1\n      pop\n        /* \"#utility.yul\":2485:2518   */\n      tag_99\n        /* \"#utility.yul\":2513:2517   */\n      dup3\n        /* \"#utility.yul\":2505:2511   */\n      dup3\n        /* \"#utility.yul\":2485:2518   */\n      tag_48\n      jump\t// in\n    tag_99:\n        /* \"#utility.yul\":2395:2524   */\n      swap2\n      swap1\n      pop\n      jump\t// out\n        /* \"#utility.yul\":2530:2838   */\n    tag_50:\n        /* \"#utility.yul\":2592:2596   */\n      0x00\n        /* \"#utility.yul\":2682:2700   */\n      0xffffffffffffffff\n        /* \"#utility.yul\":2674:2680   */\n      dup3\n        /* \"#utility.yul\":2671:2701   */\n      gt\n        /* \"#utility.yul\":2668:2724   */\n      iszero\n      tag_101\n      jumpi\n        /* \"#utility.yul\":2704:2722   */\n      tag_102\n      tag_47\n      jump\t// in\n    tag_102:\n        /* \"#utility.yul\":2668:2724   */\n    tag_101:\n        /* \"#utility.yul\":2742:2771   */\n      tag_103\n        /* \"#utility.yul\":2764:2770   */\n      dup3\n        /* \"#utility.yul\":2742:2771   */\n      tag_40\n      jump\t// in\n    tag_103:\n        /* \"#utility.yul\":2734:2771   */\n      swap1\n      pop\n        /* \"#utility.yul\":2826:2830   */\n      0x20\n        /* \"#utility.yul\":2820:2824   */\n      dup2\n        /* \"#utility.yul\":2816:2831   */\n      add\n        /* \"#utility.yul\":2808:2831   */\n      swap1\n      pop\n        /* \"#utility.yul\":2530:2838   */\n      swap2\n      swap1\n      pop\n      jump\t// out\n        /* \"#utility.yul\":2844:2990   */\n    tag_51:\n        /* \"#utility.yul\":2941:2947   */\n      dup3\n        /* \"#utility.yul\":2936:2939   */\n      dup2\n        /* \"#utility.yul\":2931:2934   */\n      dup4\n        /* \"#utility.yul\":2918:2948   */\n      calldatacopy\n        /* \"#utility.yul\":2982:2983   */\n      0x00\n        /* \"#utility.yul\":2973:2979   */\n      dup4\n        /* \"#utility.yul\":2968:2971   */\n      dup4\n        /* \"#utility.yul\":2964:2980   */\n      add\n        /* \"#utility.yul\":2957:2984   */\n      mstore\n        /* \"#utility.yul\":2844:2990   */\n      pop\n      pop\n      pop\n      jump\t// out\n        /* \"#utility.yul\":2996:3421   */\n    tag_52:\n        /* \"#utility.yul\":3074:3079   */\n      0x00\n        /* \"#utility.yul\":3099:3165   */\n      tag_106\n        /* \"#utility.yul\":3115:3164   */\n      tag_107\n        /* \"#utility.yul\":3157:3163   */\n      dup5\n        /* \"#utility.yul\":3115:3164   */\n      tag_50\n      jump\t// in\n    tag_107:\n        /* \"#utility.yul\":3099:3165   */\n      tag_49\n      jump\t// in\n    tag_106:\n        /* \"#utility.yul\":3090:3165   */\n      swap1\n      pop\n        /* \"#utility.yul\":3188:3194   */\n      dup3\n        /* \"#utility.yul\":3181:3186   */\n      dup2\n        /* \"#utility.yul\":3174:3195   */\n      mstore\n        /* \"#utility.yul\":3226:3230   */\n      0x20\n        /* \"#utility.yul\":3219:3224   */\n      dup2\n        /* \"#utility.yul\":3215:3231   */\n      add\n        /* \"#utility.yul\":3264:3267   */\n      dup5\n        /* \"#utility.yul\":3255:3261   */\n      dup5\n        /* \"#utility.yul\":3250:3253   */\n      dup5\n        /* \"#utility.yul\":3246:3262   */\n      add\n        /* \"#utility.yul\":3243:3268   */\n      gt\n        /* \"#utility.yul\":3240:3352   */\n      iszero\n      tag_108\n      jumpi\n        /* \"#utility.yul\":3271:3350   */\n      tag_109\n      tag_46\n      jump\t// in\n    tag_109:\n        /* \"#utility.yul\":3240:3352   */\n    tag_108:\n        /* \"#utility.yul\":3361:3415   */\n      tag_110\n        /* \"#utility.yul\":3408:3414   */\n      dup5\n        /* \"#utility.yul\":3403:3406   */\n      dup3\n        /* \"#utility.yul\":3398:3401   */\n      dup6\n        /* \"#utility.yul\":3361:3415   */\n      tag_51\n      jump\t// in\n    tag_110:\n        /* \"#utility.yul\":3080:3421   */\n      pop\n        /* \"#utility.yul\":2996:3421   */\n      swap4\n      swap3\n      pop\n      pop\n      pop\n      jump\t// out\n        /* \"#utility.yul\":3441:3781   */\n    tag_53:\n        /* \"#utility.yul\":3497:3502   */\n      0x00\n        /* \"#utility.yul\":3546:3549   */\n      dup3\n        /* \"#utility.yul\":3539:3543   */\n      0x1f\n        /* \"#utility.yul\":3531:3537   */\n      dup4\n        /* \"#utility.yul\":3527:3544   */\n      add\n        /* \"#utility.yul\":3523:3550   */\n      slt\n        /* \"#utility.yul\":3513:3635   */\n      tag_112\n      jumpi\n        /* \"#utility.yul\":3554:3633   */\n      tag_113\n      tag_45\n      jump\t// in\n    tag_113:\n        /* \"#utility.yul\":3513:3635   */\n    tag_112:\n        /* \"#utility.yul\":3671:3677   */\n      dup2\n        /* \"#utility.yul\":3658:3678   */\n      calldataload\n        /* \"#utility.yul\":3696:3775   */\n      tag_114\n        /* \"#utility.yul\":3771:3774   */\n      dup5\n        /* \"#utility.yul\":3763:3769   */\n      dup3\n        /* \"#utility.yul\":3756:3760   */\n      0x20\n        /* \"#utility.yul\":3748:3754   */\n      dup7\n        /* \"#utility.yul\":3744:3761   */\n      add\n        /* \"#utility.yul\":3696:3775   */\n      tag_52\n      jump\t// in\n    tag_114:\n        /* \"#utility.yul\":3687:3775   */\n      swap2\n      pop\n        /* \"#utility.yul\":3503:3781   */\n      pop\n        /* \"#utility.yul\":3441:3781   */\n      swap3\n      swap2\n      pop\n      pop\n      jump\t// out\n        /* \"#utility.yul\":3787:4296   */\n    tag_11:\n        /* \"#utility.yul\":3856:3862   */\n      0x00\n        /* \"#utility.yul\":3905:3907   */\n      0x20\n        /* \"#utility.yul\":3893:3902   */\n      dup3\n        /* \"#utility.yul\":3884:3891   */\n      dup5\n        /* \"#utility.yul\":3880:3903   */\n      sub\n        /* \"#utility.yul\":3876:3908   */\n      slt\n        /* \"#utility.yul\":3873:3992   */\n      iszero\n      tag_116\n      jumpi\n        /* \"#utility.yul\":3911:3990   */\n      tag_117\n      tag_43\n      jump\t// in\n    tag_117:\n        /* \"#utility.yul\":3873:3992   */\n    tag_116:\n        /* \"#utility.yul\":4059:4060   */\n      0x00\n        /* \"#utility.yul\":4048:4057   */\n      dup3\n        /* \"#utility.yul\":4044:4061   */\n      add\n        /* \"#utility.yul\":4031:4062   */\n      calldataload\n        /* \"#utility.yul\":4089:4107   */\n      0xffffffffffffffff\n        /* \"#utility.yul\":4081:4087   */\n      dup2\n        /* \"#utility.yul\":4078:4108   */\n      gt\n        /* \"#utility.yul\":4075:4192   */\n      iszero\n      tag_118\n      jumpi\n        /* \"#utility.yul\":4111:4190   */\n      tag_119\n      tag_44\n      jump\t// in\n    tag_119:\n        /* \"#utility.yul\":4075:4192   */\n    tag_118:\n        /* \"#utility.yul\":4216:4279   */\n      tag_120\n        /* \"#utility.yul\":4271:4278   */\n      dup5\n        /* \"#utility.yul\":4262:4268   */\n      dup3\n        /* \"#utility.yul\":4251:4260   */\n      dup6\n        /* \"#utility.yul\":4247:4269   */\n      add\n        /* \"#utility.yul\":4216:4279   */\n      tag_53\n      jump\t// in\n    tag_120:\n        /* \"#utility.yul\":4206:4279   */\n      swap2\n      pop\n        /* \"#utility.yul\":4002:4289   */\n      pop\n        /* \"#utility.yul\":3787:4296   */\n      swap3\n      swap2\n      pop\n      pop\n      jump\t// out\n        /* \"#utility.yul\":4302:4482   */\n    tag_19:\n        /* \"#utility.yul\":4350:4427   */\n      0x4e487b7100000000000000000000000000000000000000000000000000000000\n        /* \"#utility.yul\":4347:4348   */\n      0x00\n        /* \"#utility.yul\":4340:4428   */\n      mstore\n        /* \"#utility.yul\":4447:4451   */\n      0x32\n        /* \"#utility.yul\":4444:4445   */\n      0x04\n        /* \"#utility.yul\":4437:4452   */\n      mstore\n        /* \"#utility.yul\":4471:4475   */\n      0x24\n        /* \"#utility.yul\":4468:4469   */\n      0x00\n        /* \"#utility.yul\":4461:4476   */\n      revert\n        /* \"#utility.yul\":4488:4668   */\n    tag_54:\n        /* \"#utility.yul\":4536:4613   */\n      0x4e487b7100000000000000000000000000000000000000000000000000000000\n        /* \"#utility.yul\":4533:4534   */\n      0x00\n        /* \"#utility.yul\":4526:4614   */\n      mstore\n        /* \"#utility.yul\":4633:4637   */\n      0x22\n        /* \"#utility.yul\":4630:4631   */\n      0x04\n        /* \"#utility.yul\":4623:4638   */\n      mstore\n        /* \"#utility.yul\":4657:4661   */\n      0x24\n        /* \"#utility.yul\":4654:4655   */\n      0x00\n        /* \"#utility.yul\":4647:4662   */\n      revert\n        /* \"#utility.yul\":4674:4994   */\n    tag_26:\n        /* \"#utility.yul\":4718:4724   */\n      0x00\n        /* \"#utility.yul\":4755:4756   */\n      0x02\n        /* \"#utility.yul\":4749:4753   */\n      dup3\n        /* \"#utility.yul\":4745:4757   */\n      div\n        /* \"#utility.yul\":4735:4757   */\n      swap1\n      pop\n        /* \"#utility.yul\":4802:4803   */\n      0x01\n        /* \"#utility.yul\":4796:4800   */\n      dup3\n        /* \"#utility.yul\":4792:4804   */\n      and\n        /* \"#utility.yul\":4823:4841   */\n      dup1\n        /* \"#utility.yul\":4813:4894   */\n      tag_124\n      jumpi\n        /* \"#utility.yul\":4879:4883   */\n      0x7f\n        /* \"#utility.yul\":4871:4877   */\n      dup3\n        /* \"#utility.yul\":4867:4884   */\n      and\n        /* \"#utility.yul\":4857:4884   */\n      swap2\n      pop\n        /* \"#utility.yul\":4813:4894   */\n    tag_124:\n        /* \"#utility.yul\":4941:4943   */\n      0x20\n        /* \"#utility.yul\":4933:4939   */\n      dup3\n        /* \"#utility.yul\":4930:4944   */\n      lt\n        /* \"#utility.yul\":4910:4928   */\n      dup2\n        /* \"#utility.yul\":4907:4945   */\n      sub\n        /* \"#utility.yul\":4904:4988   */\n      tag_125\n      jumpi\n        /* \"#utility.yul\":4960:4978   */\n      tag_126\n      tag_54\n      jump\t// in\n    tag_126:\n        /* \"#utility.yul\":4904:4988   */\n    tag_125:\n        /* \"#utility.yul\":4725:4994   */\n      pop\n        /* \"#utility.yul\":4674:4994   */\n      swap2\n      swap1\n      pop\n      jump\t// out\n        /* \"#utility.yul\":5000:5180   */\n    tag_55:\n        /* \"#utility.yul\":5048:5125   */\n      0x4e487b7100000000000000000000000000000000000000000000000000000000\n        /* \"#utility.yul\":5045:5046   */\n      0x00\n        /* \"#utility.yul\":5038:5126   */\n      mstore\n        /* \"#utility.yul\":5145:5149   */\n      0x11\n        /* \"#utility.yul\":5142:5143   */\n      0x04\n        /* \"#utility.yul\":5135:5150   */\n      mstore\n        /* \"#utility.yul\":5169:5173   */\n      0x24\n        /* \"#utility.yul\":5166:5167   */\n      0x00\n        /* \"#utility.yul\":5159:5174   */\n      revert\n        /* \"#utility.yul\":5186:5263   */\n    tag_56:\n        /* \"#utility.yul\":5223:5230   */\n      0x00\n        /* \"#utility.yul\":5252:5257   */\n      dup2\n        /* \"#utility.yul\":5241:5257   */\n      swap1\n      pop\n        /* \"#utility.yul\":5186:5263   */\n      swap2\n      swap1\n      pop\n      jump\t// out\n        /* \"#utility.yul\":5269:5502   */\n    tag_32:\n        /* \"#utility.yul\":5308:5311   */\n      0x00\n        /* \"#utility.yul\":5331:5355   */\n      tag_130\n        /* \"#utility.yul\":5349:5354   */\n      dup3\n        /* \"#utility.yul\":5331:5355   */\n      tag_56\n      jump\t// in\n    tag_130:\n        /* \"#utility.yul\":5322:5355   */\n      swap2\n      pop\n        /* \"#utility.yul\":5377:5443   */\n      0xffffffffffffffffffffffffffffffffffffffffffffffffffffffffffffffff\n        /* \"#utility.yul\":5370:5375   */\n      dup3\n        /* \"#utility.yul\":5367:5444   */\n      sub\n        /* \"#utility.yul\":5364:5467   */\n      tag_131\n      jumpi\n        /* \"#utility.yul\":5447:5465   */\n      tag_132\n      tag_55\n      jump\t// in\n    tag_132:\n        /* \"#utility.yul\":5364:5467   */\n    tag_131:\n        /* \"#utility.yul\":5494:5495   */\n      0x01\n        /* \"#utility.yul\":5487:5492   */\n      dup3\n        /* \"#utility.yul\":5483:5496   */\n      add\n        /* \"#utility.yul\":5476:5496   */\n      swap1\n      pop\n        /* \"#utility.yul\":5269:5502   */\n      swap2\n      swap1\n      pop\n      jump\t// out\n        /* \"#utility.yul\":5508:5649   */\n    tag_57:\n        /* \"#utility.yul\":5557:5561   */\n      0x00\n        /* \"#utility.yul\":5580:5583   */\n      dup2\n        /* \"#utility.yul\":5572:5583   */\n      swap1\n      pop\n        /* \"#utility.yul\":5603:5606   */\n      dup2\n        /* \"#utility.yul\":5600:5601   */\n      0x00\n        /* \"#utility.yul\":5593:5607   */\n      mstore\n        /* \"#utility.yul\":5637:5641   */\n      0x20\n        /* \"#utility.yul\":5634:5635   */\n      0x00\n        /* \"#utility.yul\":5624:5642   */\n      keccak256\n        /* \"#utility.yul\":5616:5642   */\n      swap1\n      pop\n        /* \"#utility.yul\":5508:5649   */\n      swap2\n      swap1\n      pop\n      jump\t// out\n        /* \"#utility.yul\":5655:5748   */\n    tag_58:\n        /* \"#utility.yul\":5692:5698   */\n      0x00\n        /* \"#utility.yul\":5739:5741   */\n      0x20\n        /* \"#utility.yul\":5734:5736   */\n      0x1f\n        /* \"#utility.yul\":5727:5732   */\n      dup4\n        /* \"#utility.yul\":5723:5737   */\n      add\n        /* \"#utility.yul\":5719:5742   */\n      div\n        /* \"#utility.yul\":5709:5742   */\n      swap1\n      pop\n        /* \"#utility.yul\":5655:5748   */\n      swap2\n      swap1\n      pop\n      jump\t// out\n        /* \"#utility.yul\":5754:5861   */\n    tag_59:\n        /* \"#utility.yul\":5798:5806   */\n      0x00\n        /* \"#utility.yul\":5848:5853   */\n      dup3\n        /* \"#utility.yul\":5842:5846   */\n      dup3\n        /* \"#utility.yul\":5838:5854   */\n      shl\n        /* \"#utility.yul\":5817:5854   */\n      swap1\n      pop\n        /* \"#utility.yul\":5754:5861   */\n      swap3\n      swap2\n      pop\n      pop\n      jump\t// out\n        /* \"#utility.yul\":5867:6260   */\n    tag_60:\n        /* \"#utility.yul\":5936:5942   */\n      0x00\n        /* \"#utility.yul\":5986:5987   */\n      0x08\n        /* \"#utility.yul\":5974:5984   */\n      dup4\n        /* \"#utility.yul\":5970:5988   */\n      mul\n        /* \"#utility.yul\":6009:6106   */\n      tag_137\n        /* \"#utility.yul\":6039:6105   */\n      0xffffffffffffffffffffffffffffffffffffffffffffffffffffffffffffffff\n        /* \"#utility.yul\":6028:6037   */\n      dup3\n        /* \"#utility.yul\":6009:6106   */\n      tag_59\n      jump\t// in\n    tag_137:\n        /* \"#utility.yul\":6127:6166   */\n      tag_138\n        /* \"#utility.yul\":6157:6165   */\n      dup7\n        /* \"#utility.yul\":6146:6155   */\n      dup4\n        /* \"#utility.yul\":6127:6166   */\n      tag_59\n      jump\t// in\n    tag_138:\n        /* \"#utility.yul\":6115:6166   */\n      swap6\n      pop\n        /* \"#utility.yul\":6199:6203   */\n      dup1\n        /* \"#utility.yul\":6195:6204   */\n      not\n        /* \"#utility.yul\":6188:6193   */\n      dup5\n        /* \"#utility.yul\":6184:6205   */\n      and\n        /* \"#utility.yul\":6175:6205   */\n      swap4\n      pop\n        /* \"#utility.yul\":6248:6252   */\n      dup1\n        /* \"#utility.yul\":6238:6246   */\n      dup7\n        /* \"#utility.yul\":6234:6253   */\n      and\n        /* \"#utility.yul\":6227:6232   */\n      dup5\n        /* \"#utility.yul\":6224:6254   */\n      or\n        /* \"#utility.yul\":6214:6254   */\n      swap3\n      pop\n        /* \"#utility.yul\":5943:6260   */\n      pop\n      pop\n        /* \"#utility.yul\":5867:6260   */\n      swap4\n      swap3\n      pop\n      pop\n      pop\n      jump\t// out\n        /* \"#utility.yul\":6266:6326   */\n    tag_61:\n        /* \"#utility.yul\":6294:6297   */\n      0x00\n        /* \"#utility.yul\":6315:6320   */\n      dup2\n        /* \"#utility.yul\":6308:6320   */\n      swap1\n      pop\n        /* \"#utility.yul\":6266:6326   */\n      swap2\n      swap1\n      pop\n      jump\t// out\n        /* \"#utility.yul\":6332:6474   */\n    tag_62:\n        /* \"#utility.yul\":6382:6391   */\n      0x00\n        /* \"#utility.yul\":6415:6468   */\n      tag_141\n        /* \"#utility.yul\":6433:6467   */\n      tag_142\n        /* \"#utility.yul\":6442:6466   */\n      tag_143\n        /* \"#utility.yul\":6460:6465   */\n      dup5\n        /* \"#utility.yul\":6442:6466   */\n      tag_56\n      jump\t// in\n    tag_143:\n        /* \"#utility.yul\":6433:6467   */\n      tag_61\n      jump\t// in\n    tag_142:\n        /* \"#utility.yul\":6415:6468   */\n      tag_56\n      jump\t// in\n    tag_141:\n        /* \"#utility.yul\":6402:6468   */\n      swap1\n      pop\n        /* \"#utility.yul\":6332:6474   */\n      swap2\n      swap1\n      pop\n      jump\t// out\n        /* \"#utility.yul\":6480:6555   */\n    tag_63:\n        /* \"#utility.yul\":6523:6526   */\n      0x00\n        /* \"#utility.yul\":6544:6549   */\n      dup2\n        /* \"#utility.yul\":6537:6549   */\n      swap1\n      pop\n        /* \"#utility.yul\":6480:6555   */\n      swap2\n      swap1\n      pop\n      jump\t// out\n        /* \"#utility.yul\":6561:6830   */\n    tag_64:\n        /* \"#utility.yul\":6671:6710   */\n      tag_146\n        /* \"#utility.yul\":6702:6709   */\n      dup4\n        /* \"#utility.yul\":6671:6710   */\n      tag_62\n      jump\t// in\n    tag_146:\n        /* \"#utility.yul\":6732:6823   */\n      tag_147\n        /* \"#utility.yul\":6781:6822   */\n      tag_148\n        /* \"#utility.yul\":6805:6821   */\n      dup3\n        /* \"#utility.yul\":6781:6822   */\n      tag_63\n      jump\t// in\n    tag_148:\n        /* \"#utility.yul\":6773:6779   */\n      dup5\n        /* \"#utility.yul\":6766:6770   */\n      dup5\n        /* \"#utility.yul\":6760:6771   */\n      sload\n        /* \"#utility.yul\":6732:6823   */\n      tag_60\n      jump\t// in\n    tag_147:\n        /* \"#utility.yul\":6726:6730   */\n      dup3\n        /* \"#utility.yul\":6719:6824   */\n      sstore\n        /* \"#utility.yul\":6637:6830   */\n      pop\n        /* \"#utility.yul\":6561:6830   */\n      pop\n      pop\n      pop\n      jump\t// out\n        /* \"#utility.yul\":6836:6909   */\n    tag_65:\n        /* \"#utility.yul\":6881:6884   */\n      0x00\n        /* \"#utility.yul\":6836:6909   */\n      swap1\n      jump\t// out\n        /* \"#utility.yul\":6915:7104   */\n    tag_66:\n        /* \"#utility.yul\":6992:7024   */\n      tag_151\n      tag_65\n      jump\t// in\n    tag_151:\n        /* \"#utility.yul\":7033:7098   */\n      tag_152\n        /* \"#utility.yul\":7091:7097   */\n      dup2\n        /* \"#utility.yul\":7083:7089   */\n      dup5\n        /* \"#utility.yul\":7077:7081   */\n      dup5\n        /* \"#utility.yul\":7033:7098   */\n      tag_64\n      jump\t// in\n    tag_152:\n        /* \"#utility.yul\":6968:7104   */\n      pop\n        /* \"#utility.yul\":6915:7104   */\n      pop\n      pop\n      jump\t// out\n        /* \"#utility.yul\":7110:7296   */\n    tag_67:\n        /* \"#utility.yul\":7170:7290   */\n    tag_154:\n        /* \"#utility.yul\":7187:7190   */\n      dup2\n        /* \"#utility.yul\":7180:7185   */\n      dup2\n        /* \"#utility.yul\":7177:7191   */\n      lt\n        /* \"#utility.yul\":7170:7290   */\n      iszero\n      tag_156\n      jumpi\n        /* \"#utility.yul\":7241:7280   */\n      tag_157\n        /* \"#utility.yul\":7278:7279   */\n      0x00\n        /* \"#utility.yul\":7271:7276   */\n      dup3\n        /* \"#utility.yul\":7241:7280   */\n      tag_66\n      jump\t// in\n    tag_157:\n        /* \"#utility.yul\":7214:7215   */\n      0x01\n        /* \"#utility.yul\":7207:7212   */\n      dup2\n        /* \"#utility.yul\":7203:7216   */\n      add\n        /* \"#utility.yul\":7194:7216   */\n      swap1\n      pop\n        /* \"#utility.yul\":7170:7290   */\n      jump(tag_154)\n    tag_156:\n        /* \"#utility.yul\":7110:7296   */\n      pop\n      pop\n      jump\t// out\n        /* \"#utility.yul\":7302:7845   */\n    tag_68:\n        /* \"#utility.yul\":7403:7405   */\n      0x1f\n        /* \"#utility.yul\":7398:7401   */\n      dup3\n        /* \"#utility.yul\":7395:7406   */\n      gt\n        /* \"#utility.yul\":7392:7838   */\n      iszero\n      tag_159\n      jumpi\n        /* \"#utility.yul\":7437:7475   */\n      tag_160\n        /* \"#utility.yul\":7469:7474   */\n      dup2\n        /* \"#utility.yul\":7437:7475   */\n      tag_57\n      jump\t// in\n    tag_160:\n        /* \"#utility.yul\":7521:7550   */\n      tag_161\n        /* \"#utility.yul\":7539:7549   */\n      dup5\n        /* \"#utility.yul\":7521:7550   */\n      tag_58\n      jump\t// in\n    tag_161:\n        /* \"#utility.yul\":7511:7519   */\n      dup2\n        /* \"#utility.yul\":7507:7551   */\n      add\n        /* \"#utility.yul\":7704:7706   */\n      0x20\n        /* \"#utility.yul\":7692:7702   */\n      dup6\n        /* \"#utility.yul\":7689:7707   */\n      lt\n        /* \"#utility.yul\":7686:7735   */\n      iszero\n      tag_162\n      jumpi\n        /* \"#utility.yul\":7725:7733   */\n      dup2\n        /* \"#utility.yul\":7710:7733   */\n      swap1\n      pop\n        /* \"#utility.yul\":7686:7735   */\n    tag_162:\n        /* \"#utility.yul\":7748:7828   */\n      tag_163\n        /* \"#utility.yul\":7804:7826   */\n      tag_164\n        /* \"#utility.yul\":7822:7825   */\n      dup6\n        /* \"#utility.yul\":7804:7826   */\n      tag_58\n      jump\t// in\n    tag_164:\n        /* \"#utility.yul\":7794:7802   */\n      dup4\n        /* \"#utility.yul\":7790:7827   */\n      add\n        /* \"#utility.yul\":7777:7788   */\n      dup3\n        /* \"#utility.yul\":7748:7828   */\n      tag_67\n      jump\t// in\n    tag_163:\n        /* \"#utility.yul\":7407:7838   */\n      pop\n      pop\n        /* \"#utility.yul\":7392:7838   */\n    tag_159:\n        /* \"#utility.yul\":7302:7845   */\n      pop\n      pop\n      pop\n      jump\t// out\n        /* \"#utility.yul\":7851:7968   */\n    tag_69:\n        /* \"#utility.yul\":7905:7913   */\n      0x00\n        /* \"#utility.yul\":7955:7960   */\n      dup3\n        /* \"#utility.yul\":7949:7953   */\n      dup3\n        /* \"#utility.yul\":7945:7961   */\n      shr\n        /* \"#utility.yul\":7924:7961   */\n      swap1\n      pop\n        /* \"#utility.yul\":7851:7968   */\n      swap3\n      swap2\n      pop\n      pop\n      jump\t// out\n        /* \"#utility.yul\":7974:8143   */\n    tag_70:\n        /* \"#utility.yul\":8018:8024   */\n      0x00\n        /* \"#utility.yul\":8051:8102   */\n      tag_167\n        /* \"#utility.yul\":8099:8100   */\n      0x00\n        /* \"#utility.yul\":8095:8101   */\n      not\n        /* \"#utility.yul\":8087:8092   */\n      dup5\n        /* \"#utility.yul\":8084:8085   */\n      0x08\n        /* \"#utility.yul\":8080:8093   */\n      mul\n        /* \"#utility.yul\":8051:8102   */\n      tag_69\n      jump\t// in\n    tag_167:\n        /* \"#utility.yul\":8047:8103   */\n      not\n        /* \"#utility.yul\":8132:8136   */\n      dup1\n        /* \"#utility.yul\":8126:8130   */\n      dup4\n        /* \"#utility.yul\":8122:8137   */\n      and\n        /* \"#utility.yul\":8112:8137   */\n      swap2\n      pop\n        /* \"#utility.yul\":8025:8143   */\n      pop\n        /* \"#utility.yul\":7974:8143   */\n      swap3\n      swap2\n      pop\n      pop\n      jump\t// out\n        /* \"#utility.yul\":8148:8443   */\n    tag_71:\n        /* \"#utility.yul\":8224:8228   */\n      0x00\n        /* \"#utility.yul\":8370:8399   */\n      tag_169\n        /* \"#utility.yul\":8395:8398   */\n      dup4\n        /* \"#utility.yul\":8389:8393   */\n      dup4\n        /* \"#utility.yul\":8370:8399   */\n      tag_70\n      jump\t// in\n    tag_169:\n        /* \"#utility.yul\":8362:8399   */\n      swap2\n      pop\n        /* \"#utility.yul\":8432:8435   */\n      dup3\n        /* \"#utility.yul\":8429:8430   */\n      0x02\n        /* \"#utility.yul\":8425:8436   */\n      mul\n        /* \"#utility.yul\":8419:8423   */\n      dup3\n        /* \"#utility.yul\":8416:8437   */\n      or\n        /* \"#utility.yul\":8408:8437   */\n      swap1\n      pop\n        /* \"#utility.yul\":8148:8443   */\n      swap3\n      swap2\n      pop\n      pop\n      jump\t// out\n        /* \"#utility.yul\":8448:9843   */\n    tag_36:\n        /* \"#utility.yul\":8565:8602   */\n      tag_171\n        /* \"#utility.yul\":8598:8601   */\n      dup3\n        /* \"#utility.yul\":8565:8602   */\n      tag_37\n      jump\t// in\n    tag_171:\n        /* \"#utility.yul\":8667:8685   */\n      0xffffffffffffffff\n        /* \"#utility.yul\":8659:8665   */\n      dup2\n        /* \"#utility.yul\":8656:8686   */\n      gt\n        /* \"#utility.yul\":8653:8709   */\n      iszero\n      tag_172\n      jumpi\n        /* \"#utility.yul\":8689:8707   */\n      tag_173\n      tag_47\n      jump\t// in\n    tag_173:\n        /* \"#utility.yul\":8653:8709   */\n    tag_172:\n        /* \"#utility.yul\":8733:8771   */\n      tag_174\n        /* \"#utility.yul\":8765:8769   */\n      dup3\n        /* \"#utility.yul\":8759:8770   */\n      sload\n        /* \"#utility.yul\":8733:8771   */\n      tag_26\n      jump\t// in\n    tag_174:\n        /* \"#utility.yul\":8818:8885   */\n      tag_175\n        /* \"#utility.yul\":8878:8884   */\n      dup3\n        /* \"#utility.yul\":8870:8876   */\n      dup3\n        /* \"#utility.yul\":8864:8868   */\n      dup6\n        /* \"#utility.yul\":8818:8885   */\n      tag_68\n      jump\t// in\n    tag_175:\n        /* \"#utility.yul\":8912:8913   */\n      0x00\n        /* \"#utility.yul\":8936:8940   */\n      0x20\n        /* \"#utility.yul\":8923:8940   */\n      swap1\n      pop\n        /* \"#utility.yul\":8968:8970   */\n      0x1f\n        /* \"#utility.yul\":8960:8966   */\n      dup4\n        /* \"#utility.yul\":8957:8971   */\n      gt\n        /* \"#utility.yul\":8985:8986   */\n      0x01\n        /* \"#utility.yul\":8980:9598   */\n      dup2\n      eq\n      tag_177\n      jumpi\n        /* \"#utility.yul\":9642:9643   */\n      0x00\n        /* \"#utility.yul\":9659:9665   */\n      dup5\n        /* \"#utility.yul\":9656:9733   */\n      iszero\n      tag_178\n      jumpi\n        /* \"#utility.yul\":9708:9717   */\n      dup3\n        /* \"#utility.yul\":9703:9706   */\n      dup8\n        /* \"#utility.yul\":9699:9718   */\n      add\n        /* \"#utility.yul\":9693:9719   */\n      mload\n        /* \"#utility.yul\":9684:9719   */\n      swap1\n      pop\n        /* \"#utility.yul\":9656:9733   */\n    tag_178:\n        /* \"#utility.yul\":9759:9826   */\n      tag_179\n        /* \"#utility.yul\":9819:9825   */\n      dup6\n        /* \"#utility.yul\":9812:9817   */\n      dup3\n        /* \"#utility.yul\":9759:9826   */\n      tag_71\n      jump\t// in\n    tag_179:\n        /* \"#utility.yul\":9753:9757   */\n      dup7\n        /* \"#utility.yul\":9746:9827   */\n      sstore\n        /* \"#utility.yul\":9615:9837   */\n      pop\n        /* \"#utility.yul\":8950:9837   */\n      jump(tag_176)\n        /* \"#utility.yul\":8980:9598   */\n    tag_177:\n        /* \"#utility.yul\":9032:9036   */\n      0x1f\n        /* \"#utility.yul\":9028:9037   */\n      not\n        /* \"#utility.yul\":9020:9026   */\n      dup5\n        /* \"#utility.yul\":9016:9038   */\n      and\n        /* \"#utility.yul\":9066:9103   */\n      tag_180\n        /* \"#utility.yul\":9098:9102   */\n      dup7\n        /* \"#utility.yul\":9066:9103   */\n      tag_57\n      jump\t// in\n    tag_180:\n        /* \"#utility.yul\":9125:9126   */\n      0x00\n        /* \"#utility.yul\":9139:9347   */\n    tag_181:\n        /* \"#utility.yul\":9153:9160   */\n      dup3\n        /* \"#utility.yul\":9150:9151   */\n      dup2\n        /* \"#utility.yul\":9147:9161   */\n      lt\n        /* \"#utility.yul\":9139:9347   */\n      iszero\n      tag_183\n      jumpi\n        /* \"#utility.yul\":9232:9241   */\n      dup5\n        /* \"#utility.yul\":9227:9230   */\n      dup10\n        /* \"#utility.yul\":9223:9242   */\n      add\n        /* \"#utility.yul\":9217:9243   */\n      mload\n        /* \"#utility.yul\":9209:9215   */\n      dup3\n        /* \"#utility.yul\":9202:9244   */\n      sstore\n        /* \"#utility.yul\":9283:9284   */\n      0x01\n        /* \"#utility.yul\":9275:9281   */\n      dup3\n        /* \"#utility.yul\":9271:9285   */\n      add\n        /* \"#utility.yul\":9261:9285   */\n      swap2\n      pop\n        /* \"#utility.yul\":9330:9332   */\n      0x20\n        /* \"#utility.yul\":9319:9328   */\n      dup6\n        /* \"#utility.yul\":9315:9333   */\n      add\n        /* \"#utility.yul\":9302:9333   */\n      swap5\n      pop\n        /* \"#utility.yul\":9176:9180   */\n      0x20\n        /* \"#utility.yul\":9173:9174   */\n      dup2\n        /* \"#utility.yul\":9169:9181   */\n      add\n        /* \"#utility.yul\":9164:9181   */\n      swap1\n      pop\n        /* \"#utility.yul\":9139:9347   */\n      jump(tag_181)\n    tag_183:\n        /* \"#utility.yul\":9375:9381   */\n      dup7\n        /* \"#utility.yul\":9366:9373   */\n      dup4\n        /* \"#utility.yul\":9363:9382   */\n      lt\n        /* \"#utility.yul\":9360:9539   */\n      iszero\n      tag_184\n      jumpi\n        /* \"#utility.yul\":9433:9442   */\n      dup5\n        /* \"#utility.yul\":9428:9431   */\n      dup10\n        /* \"#utility.yul\":9424:9443   */\n      add\n        /* \"#utility.yul\":9418:9444   */\n      mload\n        /* \"#utility.yul\":9476:9524   */\n      tag_185\n        /* \"#utility.yul\":9518:9522   */\n      0x1f\n        /* \"#utility.yul\":9510:9516   */\n      dup10\n        /* \"#utility.yul\":9506:9523   */\n      and\n        /* \"#utility.yul\":9495:9504   */\n      dup3\n        /* \"#utility.yul\":9476:9524   */\n      tag_70\n      jump\t// in\n    tag_185:\n        /* \"#utility.yul\":9468:9474   */\n      dup4\n        /* \"#utility.yul\":9461:9525   */\n      sstore\n        /* \"#utility.yul\":9383:9539   */\n      pop\n        /* \"#utility.yul\":9360:9539   */\n    tag_184:\n        /* \"#utility.yul\":9585:9586   */\n      0x01\n        /* \"#utility.yul\":9581:9582   */\n      0x02\n        /* \"#utility.yul\":9573:9579   */\n      dup9\n        /* \"#utility.yul\":9569:9583   */\n      mul\n        /* \"#utility.yul\":9565:9587   */\n      add\n        /* \"#utility.yul\":9559:9563   */\n      dup9\n        /* \"#utility.yul\":9552:9588   */\n      sstore\n        /* \"#utility.yul\":8987:9598   */\n      pop\n      pop\n      pop\n        /* \"#utility.yul\":8950:9837   */\n    tag_176:\n      pop\n        /* \"#utility.yul\":8540:9843   */\n      pop\n      pop\n      pop\n        /* \"#utility.yul\":8448:9843   */\n      pop\n      pop\n      jump\t// out\n\n    auxdata: 0xa26469706673582212207ff5c4cb46fa4f0706ec83bb810a027831b303d7c00a2fc36799c8bd02707bf864736f6c63430008120033\n}\n",
				"bytecode": {
					"linkReferences": {},
					"object": "608060405234801561001057600080fd5b5061089f806100206000396000f3fe608060405234801561001057600080fd5b50600436106100365760003560e01c806316bbe1751461003b578063647dc45c14610059575b600080fd5b610043610075565b6040516100509190610327565b60405180910390f35b610073600480360381019061006e9190610492565b6101df565b005b606060005b6002805490508110156101c8573373ffffffffffffffffffffffffffffffffffffffff16600282815481106100b2576100b16104db565b5b906000526020600020906002020160000160009054906101000a900473ffffffffffffffffffffffffffffffffffffffff1673ffffffffffffffffffffffffffffffffffffffff16036101b55760028181548110610113576101126104db565b5b9060005260206000209060020201600101805461012f90610539565b80601f016020809104026020016040519081016040528092919081815260200182805461015b90610539565b80156101a85780601f1061017d576101008083540402835291602001916101a8565b820191906000526020600020905b81548152906001019060200180831161018b57829003601f168201915b50505050509150506101dc565b80806101c0906105a3565b91505061007a565b506040518060200160405280600081525090505b90565b600260405180604001604052803373ffffffffffffffffffffffffffffffffffffffff16815260200183815250908060018154018082558091505060019003906000526020600020906002020160009091909190915060008201518160000160006101000a81548173ffffffffffffffffffffffffffffffffffffffff021916908373ffffffffffffffffffffffffffffffffffffffff16021790555060208201518160010190816102919190610797565b50505050565b600081519050919050565b600082825260208201905092915050565b60005b838110156102d15780820151818401526020810190506102b6565b60008484015250505050565b6000601f19601f8301169050919050565b60006102f982610297565b61030381856102a2565b93506103138185602086016102b3565b61031c816102dd565b840191505092915050565b6000602082019050818103600083015261034181846102ee565b905092915050565b6000604051905090565b600080fd5b600080fd5b600080fd5b600080fd5b7f4e487b7100000000000000000000000000000000000000000000000000000000600052604160045260246000fd5b61039f826102dd565b810181811067ffffffffffffffff821117156103be576103bd610367565b5b80604052505050565b60006103d1610349565b90506103dd8282610396565b919050565b600067ffffffffffffffff8211156103fd576103fc610367565b5b610406826102dd565b9050602081019050919050565b82818337600083830152505050565b6000610435610430846103e2565b6103c7565b90508281526020810184848401111561045157610450610362565b5b61045c848285610413565b509392505050565b600082601f8301126104795761047861035d565b5b8135610489848260208601610422565b91505092915050565b6000602082840312156104a8576104a7610353565b5b600082013567ffffffffffffffff8111156104c6576104c5610358565b5b6104d284828501610464565b91505092915050565b7f4e487b7100000000000000000000000000000000000000000000000000000000600052603260045260246000fd5b7f4e487b7100000000000000000000000000000000000000000000000000000000600052602260045260246000fd5b6000600282049050600182168061055157607f821691505b6020821081036105645761056361050a565b5b50919050565b7f4e487b7100000000000000000000000000000000000000000000000000000000600052601160045260246000fd5b6000819050919050565b60006105ae82610599565b91507fffffffffffffffffffffffffffffffffffffffffffffffffffffffffffffffff82036105e0576105df61056a565b5b600182019050919050565b60008190508160005260206000209050919050565b60006020601f8301049050919050565b600082821b905092915050565b60006008830261064d7fffffffffffffffffffffffffffffffffffffffffffffffffffffffffffffffff82610610565b6106578683610610565b95508019841693508086168417925050509392505050565b6000819050919050565b600061069461068f61068a84610599565b61066f565b610599565b9050919050565b6000819050919050565b6106ae83610679565b6106c26106ba8261069b565b84845461061d565b825550505050565b600090565b6106d76106ca565b6106e28184846106a5565b505050565b5b81811015610706576106fb6000826106cf565b6001810190506106e8565b5050565b601f82111561074b5761071c816105eb565b61072584610600565b81016020851015610734578190505b61074861074085610600565b8301826106e7565b50505b505050565b600082821c905092915050565b600061076e60001984600802610750565b1980831691505092915050565b6000610787838361075d565b9150826002028217905092915050565b6107a082610297565b67ffffffffffffffff8111156107b9576107b8610367565b5b6107c38254610539565b6107ce82828561070a565b600060209050601f83116001811461080157600084156107ef578287015190505b6107f9858261077b565b865550610861565b601f19841661080f866105eb565b60005b8281101561083757848901518255600182019150602085019450602081019050610812565b868310156108545784890151610850601f89168261075d565b8355505b6001600288020188555050505b50505050505056fea26469706673582212207ff5c4cb46fa4f0706ec83bb810a027831b303d7c00a2fc36799c8bd02707bf864736f6c63430008120033",
					"opcodes": "PUSH1 0x80 PUSH1 0x40 MSTORE CALLVALUE DUP1 ISZERO PUSH2 0x10 JUMPI PUSH1 0x0 DUP1 REVERT JUMPDEST POP PUSH2 0x89F DUP1 PUSH2 0x20 PUSH1 0x0 CODECOPY PUSH1 0x0 RETURN INVALID PUSH1 0x80 PUSH1 0x40 MSTORE CALLVALUE DUP1 ISZERO PUSH2 0x10 JUMPI PUSH1 0x0 DUP1 REVERT JUMPDEST POP PUSH1 0x4 CALLDATASIZE LT PUSH2 0x36 JUMPI PUSH1 0x0 CALLDATALOAD PUSH1 0xE0 SHR DUP1 PUSH4 0x16BBE175 EQ PUSH2 0x3B JUMPI DUP1 PUSH4 0x647DC45C EQ PUSH2 0x59 JUMPI JUMPDEST PUSH1 0x0 DUP1 REVERT JUMPDEST PUSH2 0x43 PUSH2 0x75 JUMP JUMPDEST PUSH1 0x40 MLOAD PUSH2 0x50 SWAP2 SWAP1 PUSH2 0x327 JUMP JUMPDEST PUSH1 0x40 MLOAD DUP1 SWAP2 SUB SWAP1 RETURN JUMPDEST PUSH2 0x73 PUSH1 0x4 DUP1 CALLDATASIZE SUB DUP2 ADD SWAP1 PUSH2 0x6E SWAP2 SWAP1 PUSH2 0x492 JUMP JUMPDEST PUSH2 0x1DF JUMP JUMPDEST STOP JUMPDEST PUSH1 0x60 PUSH1 0x0 JUMPDEST PUSH1 0x2 DUP1 SLOAD SWAP1 POP DUP2 LT ISZERO PUSH2 0x1C8 JUMPI CALLER PUSH20 0xFFFFFFFFFFFFFFFFFFFFFFFFFFFFFFFFFFFFFFFF AND PUSH1 0x2 DUP3 DUP2 SLOAD DUP2 LT PUSH2 0xB2 JUMPI PUSH2 0xB1 PUSH2 0x4DB JUMP JUMPDEST JUMPDEST SWAP1 PUSH1 0x0 MSTORE PUSH1 0x20 PUSH1 0x0 KECCAK256 SWAP1 PUSH1 0x2 MUL ADD PUSH1 0x0 ADD PUSH1 0x0 SWAP1 SLOAD SWAP1 PUSH2 0x100 EXP SWAP1 DIV PUSH20 0xFFFFFFFFFFFFFFFFFFFFFFFFFFFFFFFFFFFFFFFF AND PUSH20 0xFFFFFFFFFFFFFFFFFFFFFFFFFFFFFFFFFFFFFFFF AND SUB PUSH2 0x1B5 JUMPI PUSH1 0x2 DUP2 DUP2 SLOAD DUP2 LT PUSH2 0x113 JUMPI PUSH2 0x112 PUSH2 0x4DB JUMP JUMPDEST JUMPDEST SWAP1 PUSH1 0x0 MSTORE PUSH1 0x20 PUSH1 0x0 KECCAK256 SWAP1 PUSH1 0x2 MUL ADD PUSH1 0x1 ADD DUP1 SLOAD PUSH2 0x12F SWAP1 PUSH2 0x539 JUMP JUMPDEST DUP1 PUSH1 0x1F ADD PUSH1 0x20 DUP1 SWAP2 DIV MUL PUSH1 0x20 ADD PUSH1 0x40 MLOAD SWAP1 DUP2 ADD PUSH1 0x40 MSTORE DUP1 SWAP3 SWAP2 SWAP1 DUP2 DUP2 MSTORE PUSH1 0x20 ADD DUP3 DUP1 SLOAD PUSH2 0x15B SWAP1 PUSH2 0x539 JUMP JUMPDEST DUP1 ISZERO PUSH2 0x1A8 JUMPI DUP1 PUSH1 0x1F LT PUSH2 0x17D JUMPI PUSH2 0x100 DUP1 DUP4 SLOAD DIV MUL DUP4 MSTORE SWAP2 PUSH1 0x20 ADD SWAP2 PUSH2 0x1A8 JUMP JUMPDEST DUP3 ADD SWAP2 SWAP1 PUSH1 0x0 MSTORE PUSH1 0x20 PUSH1 0x0 KECCAK256 SWAP1 JUMPDEST DUP2 SLOAD DUP2 MSTORE SWAP1 PUSH1 0x1 ADD SWAP1 PUSH1 0x20 ADD DUP1 DUP4 GT PUSH2 0x18B JUMPI DUP3 SWAP1 SUB PUSH1 0x1F AND DUP3 ADD SWAP2 JUMPDEST POP POP POP POP POP SWAP2 POP POP PUSH2 0x1DC JUMP JUMPDEST DUP1 DUP1 PUSH2 0x1C0 SWAP1 PUSH2 0x5A3 JUMP JUMPDEST SWAP2 POP POP PUSH2 0x7A JUMP JUMPDEST POP PUSH1 0x40 MLOAD DUP1 PUSH1 0x20 ADD PUSH1 0x40 MSTORE DUP1 PUSH1 0x0 DUP2 MSTORE POP SWAP1 POP JUMPDEST SWAP1 JUMP JUMPDEST PUSH1 0x2 PUSH1 0x40 MLOAD DUP1 PUSH1 0x40 ADD PUSH1 0x40 MSTORE DUP1 CALLER PUSH20 0xFFFFFFFFFFFFFFFFFFFFFFFFFFFFFFFFFFFFFFFF AND DUP2 MSTORE PUSH1 0x20 ADD DUP4 DUP2 MSTORE POP SWAP1 DUP1 PUSH1 0x1 DUP2 SLOAD ADD DUP1 DUP3 SSTORE DUP1 SWAP2 POP POP PUSH1 0x1 SWAP1 SUB SWAP1 PUSH1 0x0 MSTORE PUSH1 0x20 PUSH1 0x0 KECCAK256 SWAP1 PUSH1 0x2 MUL ADD PUSH1 0x0 SWAP1 SWAP2 SWAP1 SWAP2 SWAP1 SWAP2 POP PUSH1 0x0 DUP3 ADD MLOAD DUP2 PUSH1 0x0 ADD PUSH1 0x0 PUSH2 0x100 EXP DUP2 SLOAD DUP2 PUSH20 0xFFFFFFFFFFFFFFFFFFFFFFFFFFFFFFFFFFFFFFFF MUL NOT AND SWAP1 DUP4 PUSH20 0xFFFFFFFFFFFFFFFFFFFFFFFFFFFFFFFFFFFFFFFF AND MUL OR SWAP1 SSTORE POP PUSH1 0x20 DUP3 ADD MLOAD DUP2 PUSH1 0x1 ADD SWAP1 DUP2 PUSH2 0x291 SWAP2 SWAP1 PUSH2 0x797 JUMP JUMPDEST POP POP POP POP JUMP JUMPDEST PUSH1 0x0 DUP2 MLOAD SWAP1 POP SWAP2 SWAP1 POP JUMP JUMPDEST PUSH1 0x0 DUP3 DUP3 MSTORE PUSH1 0x20 DUP3 ADD SWAP1 POP SWAP3 SWAP2 POP POP JUMP JUMPDEST PUSH1 0x0 JUMPDEST DUP4 DUP2 LT ISZERO PUSH2 0x2D1 JUMPI DUP1 DUP3 ADD MLOAD DUP2 DUP5 ADD MSTORE PUSH1 0x20 DUP2 ADD SWAP1 POP PUSH2 0x2B6 JUMP JUMPDEST PUSH1 0x0 DUP5 DUP5 ADD MSTORE POP POP POP POP JUMP JUMPDEST PUSH1 0x0 PUSH1 0x1F NOT PUSH1 0x1F DUP4 ADD AND SWAP1 POP SWAP2 SWAP1 POP JUMP JUMPDEST PUSH1 0x0 PUSH2 0x2F9 DUP3 PUSH2 0x297 JUMP JUMPDEST PUSH2 0x303 DUP2 DUP6 PUSH2 0x2A2 JUMP JUMPDEST SWAP4 POP PUSH2 0x313 DUP2 DUP6 PUSH1 0x20 DUP7 ADD PUSH2 0x2B3 JUMP JUMPDEST PUSH2 0x31C DUP2 PUSH2 0x2DD JUMP JUMPDEST DUP5 ADD SWAP2 POP POP SWAP3 SWAP2 POP POP JUMP JUMPDEST PUSH1 0x0 PUSH1 0x20 DUP3 ADD SWAP1 POP DUP2 DUP2 SUB PUSH1 0x0 DUP4 ADD MSTORE PUSH2 0x341 DUP2 DUP5 PUSH2 0x2EE JUMP JUMPDEST SWAP1 POP SWAP3 SWAP2 POP POP JUMP JUMPDEST PUSH1 0x0 PUSH1 0x40 MLOAD SWAP1 POP SWAP1 JUMP JUMPDEST PUSH1 0x0 DUP1 REVERT JUMPDEST PUSH1 0x0 DUP1 REVERT JUMPDEST PUSH1 0x0 DUP1 REVERT JUMPDEST PUSH1 0x0 DUP1 REVERT JUMPDEST PUSH32 0x4E487B7100000000000000000000000000000000000000000000000000000000 PUSH1 0x0 MSTORE PUSH1 0x41 PUSH1 0x4 MSTORE PUSH1 0x24 PUSH1 0x0 REVERT JUMPDEST PUSH2 0x39F DUP3 PUSH2 0x2DD JUMP JUMPDEST DUP2 ADD DUP2 DUP2 LT PUSH8 0xFFFFFFFFFFFFFFFF DUP3 GT OR ISZERO PUSH2 0x3BE JUMPI PUSH2 0x3BD PUSH2 0x367 JUMP JUMPDEST JUMPDEST DUP1 PUSH1 0x40 MSTORE POP POP POP JUMP JUMPDEST PUSH1 0x0 PUSH2 0x3D1 PUSH2 0x349 JUMP JUMPDEST SWAP1 POP PUSH2 0x3DD DUP3 DUP3 PUSH2 0x396 JUMP JUMPDEST SWAP2 SWAP1 POP JUMP JUMPDEST PUSH1 0x0 PUSH8 0xFFFFFFFFFFFFFFFF DUP3 GT ISZERO PUSH2 0x3FD JUMPI PUSH2 0x3FC PUSH2 0x367 JUMP JUMPDEST JUMPDEST PUSH2 0x406 DUP3 PUSH2 0x2DD JUMP JUMPDEST SWAP1 POP PUSH1 0x20 DUP2 ADD SWAP1 POP SWAP2 SWAP1 POP JUMP JUMPDEST DUP3 DUP2 DUP4 CALLDATACOPY PUSH1 0x0 DUP4 DUP4 ADD MSTORE POP POP POP JUMP JUMPDEST PUSH1 0x0 PUSH2 0x435 PUSH2 0x430 DUP5 PUSH2 0x3E2 JUMP JUMPDEST PUSH2 0x3C7 JUMP JUMPDEST SWAP1 POP DUP3 DUP2 MSTORE PUSH1 0x20 DUP2 ADD DUP5 DUP5 DUP5 ADD GT ISZERO PUSH2 0x451 JUMPI PUSH2 0x450 PUSH2 0x362 JUMP JUMPDEST JUMPDEST PUSH2 0x45C DUP5 DUP3 DUP6 PUSH2 0x413 JUMP JUMPDEST POP SWAP4 SWAP3 POP POP POP JUMP JUMPDEST PUSH1 0x0 DUP3 PUSH1 0x1F DUP4 ADD SLT PUSH2 0x479 JUMPI PUSH2 0x478 PUSH2 0x35D JUMP JUMPDEST JUMPDEST DUP2 CALLDATALOAD PUSH2 0x489 DUP5 DUP3 PUSH1 0x20 DUP7 ADD PUSH2 0x422 JUMP JUMPDEST SWAP2 POP POP SWAP3 SWAP2 POP POP JUMP JUMPDEST PUSH1 0x0 PUSH1 0x20 DUP3 DUP5 SUB SLT ISZERO PUSH2 0x4A8 JUMPI PUSH2 0x4A7 PUSH2 0x353 JUMP JUMPDEST JUMPDEST PUSH1 0x0 DUP3 ADD CALLDATALOAD PUSH8 0xFFFFFFFFFFFFFFFF DUP2 GT ISZERO PUSH2 0x4C6 JUMPI PUSH2 0x4C5 PUSH2 0x358 JUMP JUMPDEST JUMPDEST PUSH2 0x4D2 DUP5 DUP3 DUP6 ADD PUSH2 0x464 JUMP JUMPDEST SWAP2 POP POP SWAP3 SWAP2 POP POP JUMP JUMPDEST PUSH32 0x4E487B7100000000000000000000000000000000000000000000000000000000 PUSH1 0x0 MSTORE PUSH1 0x32 PUSH1 0x4 MSTORE PUSH1 0x24 PUSH1 0x0 REVERT JUMPDEST PUSH32 0x4E487B7100000000000000000000000000000000000000000000000000000000 PUSH1 0x0 MSTORE PUSH1 0x22 PUSH1 0x4 MSTORE PUSH1 0x24 PUSH1 0x0 REVERT JUMPDEST PUSH1 0x0 PUSH1 0x2 DUP3 DIV SWAP1 POP PUSH1 0x1 DUP3 AND DUP1 PUSH2 0x551 JUMPI PUSH1 0x7F DUP3 AND SWAP2 POP JUMPDEST PUSH1 0x20 DUP3 LT DUP2 SUB PUSH2 0x564 JUMPI PUSH2 0x563 PUSH2 0x50A JUMP JUMPDEST JUMPDEST POP SWAP2 SWAP1 POP JUMP JUMPDEST PUSH32 0x4E487B7100000000000000000000000000000000000000000000000000000000 PUSH1 0x0 MSTORE PUSH1 0x11 PUSH1 0x4 MSTORE PUSH1 0x24 PUSH1 0x0 REVERT JUMPDEST PUSH1 0x0 DUP2 SWAP1 POP SWAP2 SWAP1 POP JUMP JUMPDEST PUSH1 0x0 PUSH2 0x5AE DUP3 PUSH2 0x599 JUMP JUMPDEST SWAP2 POP PUSH32 0xFFFFFFFFFFFFFFFFFFFFFFFFFFFFFFFFFFFFFFFFFFFFFFFFFFFFFFFFFFFFFFFF DUP3 SUB PUSH2 0x5E0 JUMPI PUSH2 0x5DF PUSH2 0x56A JUMP JUMPDEST JUMPDEST PUSH1 0x1 DUP3 ADD SWAP1 POP SWAP2 SWAP1 POP JUMP JUMPDEST PUSH1 0x0 DUP2 SWAP1 POP DUP2 PUSH1 0x0 MSTORE PUSH1 0x20 PUSH1 0x0 KECCAK256 SWAP1 POP SWAP2 SWAP1 POP JUMP JUMPDEST PUSH1 0x0 PUSH1 0x20 PUSH1 0x1F DUP4 ADD DIV SWAP1 POP SWAP2 SWAP1 POP JUMP JUMPDEST PUSH1 0x0 DUP3 DUP3 SHL SWAP1 POP SWAP3 SWAP2 POP POP JUMP JUMPDEST PUSH1 0x0 PUSH1 0x8 DUP4 MUL PUSH2 0x64D PUSH32 0xFFFFFFFFFFFFFFFFFFFFFFFFFFFFFFFFFFFFFFFFFFFFFFFFFFFFFFFFFFFFFFFF DUP3 PUSH2 0x610 JUMP JUMPDEST PUSH2 0x657 DUP7 DUP4 PUSH2 0x610 JUMP JUMPDEST SWAP6 POP DUP1 NOT DUP5 AND SWAP4 POP DUP1 DUP7 AND DUP5 OR SWAP3 POP POP POP SWAP4 SWAP3 POP POP POP JUMP JUMPDEST PUSH1 0x0 DUP2 SWAP1 POP SWAP2 SWAP1 POP JUMP JUMPDEST PUSH1 0x0 PUSH2 0x694 PUSH2 0x68F PUSH2 0x68A DUP5 PUSH2 0x599 JUMP JUMPDEST PUSH2 0x66F JUMP JUMPDEST PUSH2 0x599 JUMP JUMPDEST SWAP1 POP SWAP2 SWAP1 POP JUMP JUMPDEST PUSH1 0x0 DUP2 SWAP1 POP SWAP2 SWAP1 POP JUMP JUMPDEST PUSH2 0x6AE DUP4 PUSH2 0x679 JUMP JUMPDEST PUSH2 0x6C2 PUSH2 0x6BA DUP3 PUSH2 0x69B JUMP JUMPDEST DUP5 DUP5 SLOAD PUSH2 0x61D JUMP JUMPDEST DUP3 SSTORE POP POP POP POP JUMP JUMPDEST PUSH1 0x0 SWAP1 JUMP JUMPDEST PUSH2 0x6D7 PUSH2 0x6CA JUMP JUMPDEST PUSH2 0x6E2 DUP2 DUP5 DUP5 PUSH2 0x6A5 JUMP JUMPDEST POP POP POP JUMP JUMPDEST JUMPDEST DUP2 DUP2 LT ISZERO PUSH2 0x706 JUMPI PUSH2 0x6FB PUSH1 0x0 DUP3 PUSH2 0x6CF JUMP JUMPDEST PUSH1 0x1 DUP2 ADD SWAP1 POP PUSH2 0x6E8 JUMP JUMPDEST POP POP JUMP JUMPDEST PUSH1 0x1F DUP3 GT ISZERO PUSH2 0x74B JUMPI PUSH2 0x71C DUP2 PUSH2 0x5EB JUMP JUMPDEST PUSH2 0x725 DUP5 PUSH2 0x600 JUMP JUMPDEST DUP2 ADD PUSH1 0x20 DUP6 LT ISZERO PUSH2 0x734 JUMPI DUP2 SWAP1 POP JUMPDEST PUSH2 0x748 PUSH2 0x740 DUP6 PUSH2 0x600 JUMP JUMPDEST DUP4 ADD DUP3 PUSH2 0x6E7 JUMP JUMPDEST POP POP JUMPDEST POP POP POP JUMP JUMPDEST PUSH1 0x0 DUP3 DUP3 SHR SWAP1 POP SWAP3 SWAP2 POP POP JUMP JUMPDEST PUSH1 0x0 PUSH2 0x76E PUSH1 0x0 NOT DUP5 PUSH1 0x8 MUL PUSH2 0x750 JUMP JUMPDEST NOT DUP1 DUP4 AND SWAP2 POP POP SWAP3 SWAP2 POP POP JUMP JUMPDEST PUSH1 0x0 PUSH2 0x787 DUP4 DUP4 PUSH2 0x75D JUMP JUMPDEST SWAP2 POP DUP3 PUSH1 0x2 MUL DUP3 OR SWAP1 POP SWAP3 SWAP2 POP POP JUMP JUMPDEST PUSH2 0x7A0 DUP3 PUSH2 0x297 JUMP JUMPDEST PUSH8 0xFFFFFFFFFFFFFFFF DUP2 GT ISZERO PUSH2 0x7B9 JUMPI PUSH2 0x7B8 PUSH2 0x367 JUMP JUMPDEST JUMPDEST PUSH2 0x7C3 DUP3 SLOAD PUSH2 0x539 JUMP JUMPDEST PUSH2 0x7CE DUP3 DUP3 DUP6 PUSH2 0x70A JUMP JUMPDEST PUSH1 0x0 PUSH1 0x20 SWAP1 POP PUSH1 0x1F DUP4 GT PUSH1 0x1 DUP2 EQ PUSH2 0x801 JUMPI PUSH1 0x0 DUP5 ISZERO PUSH2 0x7EF JUMPI DUP3 DUP8 ADD MLOAD SWAP1 POP JUMPDEST PUSH2 0x7F9 DUP6 DUP3 PUSH2 0x77B JUMP JUMPDEST DUP7 SSTORE POP PUSH2 0x861 JUMP JUMPDEST PUSH1 0x1F NOT DUP5 AND PUSH2 0x80F DUP7 PUSH2 0x5EB JUMP JUMPDEST PUSH1 0x0 JUMPDEST DUP3 DUP2 LT ISZERO PUSH2 0x837 JUMPI DUP5 DUP10 ADD MLOAD DUP3 SSTORE PUSH1 0x1 DUP3 ADD SWAP2 POP PUSH1 0x20 DUP6 ADD SWAP5 POP PUSH1 0x20 DUP2 ADD SWAP1 POP PUSH2 0x812 JUMP JUMPDEST DUP7 DUP4 LT ISZERO PUSH2 0x854 JUMPI DUP5 DUP10 ADD MLOAD PUSH2 0x850 PUSH1 0x1F DUP10 AND DUP3 PUSH2 0x75D JUMP JUMPDEST DUP4 SSTORE POP JUMPDEST PUSH1 0x1 PUSH1 0x2 DUP9 MUL ADD DUP9 SSTORE POP POP POP JUMPDEST POP POP POP POP POP POP JUMP INVALID LOG2 PUSH5 0x6970667358 0x22 SLT KECCAK256 PUSH32 0xF5C4CB46FA4F0706EC83BB810A027831B303D7C00A2FC36799C8BD02707BF864 PUSH20 0x6F6C634300081200330000000000000000000000 "
				},
				"gasEstimates": {
					"creation": {
						"codeDepositCost": "441400",
						"executionCost": "474",
						"totalCost": "441874"
					},
					"external": {
						"getNoteWithArray()": "infinite",
						"setNoteWithArray(string)": "infinite"
					}
				},
				"methodIdentifiers": {
					"getNoteWithArray()": "16bbe175",
					"setNoteWithArray(string)": "647dc45c"
				}
			},
			"storageLayout": {
				"storage": [
					{
						"astId": 3,
						"contract": "contracts/Note3.sol:Note3",
						"label": "note",
						"offset": 0,
						"slot": "0",
						"type": "t_string_storage"
					},
					{
						"astId": 7,
						"contract": "contracts/Note3.sol:Note3",
						"label": "notesMapping",
						"offset": 0,
						"slot": "1",
						"type": "t_mapping(t_address,t_string_storage)"
					},
					{
						"astId": 16,
						"contract": "contracts/Note3.sol:Note3",
						"label": "notesArray",
						"offset": 0,
						"slot": "2",
						"type": "t_array(t_struct(notesStruct)12_storage)dyn_storage"
					}
				],
				"types": {
					"t_address": {
						"encoding": "inplace",
						"label": "address",
						"numberOfBytes": "20"
					},
					"t_array(t_struct(notesStruct)12_storage)dyn_storage": {
						"base": "t_struct(notesStruct)12_storage",
						"encoding": "dynamic_array",
						"label": "struct Note3.notesStruct[]",
						"numberOfBytes": "32"
					},
					"t_mapping(t_address,t_string_storage)": {
						"encoding": "mapping",
						"key": "t_address",
						"label": "mapping(address => string)",
						"numberOfBytes": "32",
						"value": "t_string_storage"
					},
					"t_string_storage": {
						"encoding": "bytes",
						"label": "string",
						"numberOfBytes": "32"
					},
					"t_struct(notesStruct)12_storage": {
						"encoding": "inplace",
						"label": "struct Note3.notesStruct",
						"members": [
							{
								"astId": 9,
								"contract": "contracts/Note3.sol:Note3",
								"label": "userAddress",
								"offset": 0,
								"slot": "0",
								"type": "t_address"
							},
							{
								"astId": 11,
								"contract": "contracts/Note3.sol:Note3",
								"label": "userNote",
								"offset": 0,
								"slot": "1",
								"type": "t_string_storage"
							}
						],
						"numberOfBytes": "64"
					}
				}
			},
			"userdoc": {
				"kind": "user",
				"methods": {},
				"version": 1
			}
		}
	}
}