{
	"contracts/artifacts/Kazah.sol": {
		"Token": {
			"abi": [
				{
					"inputs": [],
					"stateMutability": "nonpayable",
					"type": "constructor"
				},
				{
					"anonymous": false,
					"inputs": [
						{
							"indexed": true,
							"internalType": "address",
							"name": "owner",
							"type": "address"
						},
						{
							"indexed": true,
							"internalType": "address",
							"name": "spender",
							"type": "address"
						},
						{
							"indexed": false,
							"internalType": "uint256",
							"name": "amount",
							"type": "uint256"
						}
					],
					"name": "Approve",
					"type": "event"
				},
				{
					"anonymous": false,
					"inputs": [
						{
							"indexed": true,
							"internalType": "address",
							"name": "from",
							"type": "address"
						},
						{
							"indexed": true,
							"internalType": "address",
							"name": "to",
							"type": "address"
						},
						{
							"indexed": false,
							"internalType": "uint256",
							"name": "amount",
							"type": "uint256"
						}
					],
					"name": "Transfer",
					"type": "event"
				},
				{
					"inputs": [
						{
							"internalType": "address",
							"name": "owner",
							"type": "address"
						},
						{
							"internalType": "address",
							"name": "spender",
							"type": "address"
						}
					],
					"name": "allowanc",
					"outputs": [
						{
							"internalType": "uint256",
							"name": "",
							"type": "uint256"
						}
					],
					"stateMutability": "view",
					"type": "function"
				},
				{
					"inputs": [
						{
							"internalType": "address",
							"name": "",
							"type": "address"
						},
						{
							"internalType": "address",
							"name": "",
							"type": "address"
						}
					],
					"name": "allowance",
					"outputs": [
						{
							"internalType": "uint256",
							"name": "",
							"type": "uint256"
						}
					],
					"stateMutability": "view",
					"type": "function"
				},
				{
					"inputs": [
						{
							"internalType": "address",
							"name": "spender",
							"type": "address"
						},
						{
							"internalType": "uint256",
							"name": "amount",
							"type": "uint256"
						}
					],
					"name": "approve",
					"outputs": [
						{
							"internalType": "bool",
							"name": "",
							"type": "bool"
						}
					],
					"stateMutability": "nonpayable",
					"type": "function"
				},
				{
					"inputs": [
						{
							"internalType": "address",
							"name": "",
							"type": "address"
						}
					],
					"name": "balancOF",
					"outputs": [
						{
							"internalType": "uint256",
							"name": "",
							"type": "uint256"
						}
					],
					"stateMutability": "view",
					"type": "function"
				},
				{
					"inputs": [
						{
							"internalType": "address",
							"name": "account",
							"type": "address"
						}
					],
					"name": "balanceOF",
					"outputs": [
						{
							"internalType": "uint256",
							"name": "",
							"type": "uint256"
						}
					],
					"stateMutability": "view",
					"type": "function"
				},
				{
					"inputs": [
						{
							"internalType": "address",
							"name": "",
							"type": "address"
						}
					],
					"name": "blackList",
					"outputs": [
						{
							"internalType": "bool",
							"name": "",
							"type": "bool"
						}
					],
					"stateMutability": "view",
					"type": "function"
				},
				{
					"inputs": [],
					"name": "decimal",
					"outputs": [
						{
							"internalType": "uint256",
							"name": "",
							"type": "uint256"
						}
					],
					"stateMutability": "view",
					"type": "function"
				},
				{
					"inputs": [
						{
							"internalType": "address",
							"name": "blackl",
							"type": "address"
						}
					],
					"name": "fromBlackList",
					"outputs": [
						{
							"internalType": "bool",
							"name": "",
							"type": "bool"
						}
					],
					"stateMutability": "nonpayable",
					"type": "function"
				},
				{
					"inputs": [],
					"name": "mint",
					"outputs": [],
					"stateMutability": "nonpayable",
					"type": "function"
				},
				{
					"inputs": [],
					"name": "name",
					"outputs": [
						{
							"internalType": "string",
							"name": "",
							"type": "string"
						}
					],
					"stateMutability": "view",
					"type": "function"
				},
				{
					"inputs": [],
					"name": "owner1",
					"outputs": [
						{
							"internalType": "address",
							"name": "",
							"type": "address"
						}
					],
					"stateMutability": "view",
					"type": "function"
				},
				{
					"inputs": [
						{
							"internalType": "string",
							"name": "newName",
							"type": "string"
						}
					],
					"name": "setName",
					"outputs": [],
					"stateMutability": "nonpayable",
					"type": "function"
				},
				{
					"inputs": [],
					"name": "symbol",
					"outputs": [
						{
							"internalType": "string",
							"name": "",
							"type": "string"
						}
					],
					"stateMutability": "view",
					"type": "function"
				},
				{
					"inputs": [
						{
							"internalType": "address",
							"name": "blackl",
							"type": "address"
						}
					],
					"name": "toBlackList",
					"outputs": [
						{
							"internalType": "bool",
							"name": "",
							"type": "bool"
						}
					],
					"stateMutability": "nonpayable",
					"type": "function"
				},
				{
					"inputs": [],
					"name": "totalSuppl",
					"outputs": [
						{
							"internalType": "uint256",
							"name": "",
							"type": "uint256"
						}
					],
					"stateMutability": "view",
					"type": "function"
				},
				{
					"inputs": [],
					"name": "totalSupply",
					"outputs": [
						{
							"internalType": "uint256",
							"name": "",
							"type": "uint256"
						}
					],
					"stateMutability": "view",
					"type": "function"
				},
				{
					"inputs": [
						{
							"internalType": "address",
							"name": "recipient",
							"type": "address"
						},
						{
							"internalType": "uint256",
							"name": "amount",
							"type": "uint256"
						}
					],
					"name": "transfer",
					"outputs": [
						{
							"internalType": "bool",
							"name": "",
							"type": "bool"
						}
					],
					"stateMutability": "nonpayable",
					"type": "function"
				},
				{
					"inputs": [
						{
							"internalType": "address",
							"name": "sender",
							"type": "address"
						},
						{
							"internalType": "address",
							"name": "recipient",
							"type": "address"
						},
						{
							"internalType": "uint256",
							"name": "amount",
							"type": "uint256"
						}
					],
					"name": "transferFrom",
					"outputs": [
						{
							"internalType": "bool",
							"name": "",
							"type": "bool"
						}
					],
					"stateMutability": "nonpayable",
					"type": "function"
				}
			],
			"devdoc": {
				"kind": "dev",
				"methods": {},
				"version": 1
			},
			"evm": {
				"assembly": "    /* \"contracts/artifacts/Kazah.sol\":62:2525  contract Token {\r... */\n  mstore(0x40, 0x80)\n    /* \"contracts/artifacts/Kazah.sol\":109:119  1000000e18 */\n  0xd3c21bcecceda1000000\n    /* \"contracts/artifacts/Kazah.sol\":84:119  uint public totalSuppl = 1000000e18 */\n  0x00\n  sstore\n    /* \"contracts/artifacts/Kazah.sol\":344:372  string public name = \"Kazah\" */\n  mload(0x40)\n  dup1\n  0x40\n  add\n  0x40\n  mstore\n  dup1\n  0x05\n  dup2\n  mstore\n  0x20\n  add\n  0x4b617a6168000000000000000000000000000000000000000000000000000000\n  dup2\n  mstore\n  pop\n  0x05\n  swap1\n  dup1\n  mload\n  swap1\n  0x20\n  add\n  swap1\n  tag_1\n  swap3\n  swap2\n  swap1\n  tag_2\n  jump\t// in\ntag_1:\n  pop\n    /* \"contracts/artifacts/Kazah.sol\":379:406  string public symbol = \"KZ\" */\n  mload(0x40)\n  dup1\n  0x40\n  add\n  0x40\n  mstore\n  dup1\n  0x02\n  dup2\n  mstore\n  0x20\n  add\n  0x4b5a000000000000000000000000000000000000000000000000000000000000\n  dup2\n  mstore\n  pop\n  0x06\n  swap1\n  dup1\n  mload\n  swap1\n  0x20\n  add\n  swap1\n  tag_3\n  swap3\n  swap2\n  swap1\n  tag_2\n  jump\t// in\ntag_3:\n  pop\n    /* \"contracts/artifacts/Kazah.sol\":435:437  18 */\n  0x12\n    /* \"contracts/artifacts/Kazah.sol\":413:437  uint public decimal = 18 */\n  0x07\n  sstore\n    /* \"contracts/artifacts/Kazah.sol\":446:498  constructor() {\r... */\n  callvalue\n  dup1\n  iszero\n  tag_4\n  jumpi\n  0x00\n  dup1\n  revert\ntag_4:\n  pop\n    /* \"contracts/artifacts/Kazah.sol\":480:490  msg.sender */\n  caller\n    /* \"contracts/artifacts/Kazah.sol\":471:477  owner1 */\n  0x04\n  0x00\n    /* \"contracts/artifacts/Kazah.sol\":471:490  owner1 = msg.sender */\n  0x0100\n  exp\n  dup2\n  sload\n  dup2\n  0xffffffffffffffffffffffffffffffffffffffff\n  mul\n  not\n  and\n  swap1\n  dup4\n  0xffffffffffffffffffffffffffffffffffffffff\n  and\n  mul\n  or\n  swap1\n  sstore\n  pop\n    /* \"contracts/artifacts/Kazah.sol\":62:2525  contract Token {\r... */\n  jump(tag_7)\ntag_2:\n  dup3\n  dup1\n  sload\n  tag_8\n  swap1\n  tag_9\n  jump\t// in\ntag_8:\n  swap1\n  0x00\n  mstore\n  keccak256(0x00, 0x20)\n  swap1\n  0x1f\n  add\n  0x20\n  swap1\n  div\n  dup2\n  add\n  swap3\n  dup3\n  tag_11\n  jumpi\n  0x00\n  dup6\n  sstore\n  jump(tag_10)\ntag_11:\n  dup3\n  0x1f\n  lt\n  tag_12\n  jumpi\n  dup1\n  mload\n  not(0xff)\n  and\n  dup4\n  dup1\n  add\n  or\n  dup6\n  sstore\n  jump(tag_10)\ntag_12:\n  dup3\n  dup1\n  add\n  0x01\n  add\n  dup6\n  sstore\n  dup3\n  iszero\n  tag_10\n  jumpi\n  swap2\n  dup3\n  add\ntag_13:\n  dup3\n  dup2\n  gt\n  iszero\n  tag_14\n  jumpi\n  dup3\n  mload\n  dup3\n  sstore\n  swap2\n  0x20\n  add\n  swap2\n  swap1\n  0x01\n  add\n  swap1\n  jump(tag_13)\ntag_14:\ntag_10:\n  pop\n  swap1\n  pop\n  tag_15\n  swap2\n  swap1\n  tag_16\n  jump\t// in\ntag_15:\n  pop\n  swap1\n  jump\t// out\ntag_16:\ntag_17:\n  dup1\n  dup3\n  gt\n  iszero\n  tag_18\n  jumpi\n  0x00\n  dup2\n  0x00\n  swap1\n  sstore\n  pop\n  0x01\n  add\n  jump(tag_17)\ntag_18:\n  pop\n  swap1\n  jump\t// out\n    /* \"#utility.yul\":7:327   */\ntag_9:\n    /* \"#utility.yul\":51:57   */\n  0x00\n    /* \"#utility.yul\":88:89   */\n  0x02\n    /* \"#utility.yul\":82:86   */\n  dup3\n    /* \"#utility.yul\":78:90   */\n  div\n    /* \"#utility.yul\":68:90   */\n  swap1\n  pop\n    /* \"#utility.yul\":135:136   */\n  0x01\n    /* \"#utility.yul\":129:133   */\n  dup3\n    /* \"#utility.yul\":125:137   */\n  and\n    /* \"#utility.yul\":156:174   */\n  dup1\n    /* \"#utility.yul\":146:227   */\n  tag_21\n  jumpi\n    /* \"#utility.yul\":212:216   */\n  0x7f\n    /* \"#utility.yul\":204:210   */\n  dup3\n    /* \"#utility.yul\":200:217   */\n  and\n    /* \"#utility.yul\":190:217   */\n  swap2\n  pop\n    /* \"#utility.yul\":146:227   */\ntag_21:\n    /* \"#utility.yul\":274:276   */\n  0x20\n    /* \"#utility.yul\":266:272   */\n  dup3\n    /* \"#utility.yul\":263:277   */\n  lt\n    /* \"#utility.yul\":243:261   */\n  dup2\n    /* \"#utility.yul\":240:278   */\n  eq\n    /* \"#utility.yul\":237:321   */\n  iszero\n  tag_22\n  jumpi\n    /* \"#utility.yul\":293:311   */\n  tag_23\n  tag_24\n  jump\t// in\ntag_23:\n    /* \"#utility.yul\":237:321   */\ntag_22:\n    /* \"#utility.yul\":58:327   */\n  pop\n    /* \"#utility.yul\":7:327   */\n  swap2\n  swap1\n  pop\n  jump\t// out\n    /* \"#utility.yul\":333:513   */\ntag_24:\n    /* \"#utility.yul\":381:458   */\n  0x4e487b7100000000000000000000000000000000000000000000000000000000\n    /* \"#utility.yul\":378:379   */\n  0x00\n    /* \"#utility.yul\":371:459   */\n  mstore\n    /* \"#utility.yul\":478:482   */\n  0x22\n    /* \"#utility.yul\":475:476   */\n  0x04\n    /* \"#utility.yul\":468:483   */\n  mstore\n    /* \"#utility.yul\":502:506   */\n  0x24\n    /* \"#utility.yul\":499:500   */\n  0x00\n    /* \"#utility.yul\":492:507   */\n  revert\n    /* \"contracts/artifacts/Kazah.sol\":62:2525  contract Token {\r... */\ntag_7:\n  dataSize(sub_0)\n  dup1\n  dataOffset(sub_0)\n  0x00\n  codecopy\n  0x00\n  return\nstop\n\nsub_0: assembly {\n        /* \"contracts/artifacts/Kazah.sol\":62:2525  contract Token {\r... */\n      mstore(0x40, 0x80)\n      callvalue\n      dup1\n      iszero\n      tag_1\n      jumpi\n      0x00\n      dup1\n      revert\n    tag_1:\n      pop\n      jumpi(tag_2, lt(calldatasize, 0x04))\n      shr(0xe0, calldataload(0x00))\n      dup1\n      0x4838d165\n      gt\n      tag_21\n      jumpi\n      dup1\n      0x95d89b41\n      gt\n      tag_22\n      jumpi\n      dup1\n      0x95d89b41\n      eq\n      tag_16\n      jumpi\n      dup1\n      0xa9059cbb\n      eq\n      tag_17\n      jumpi\n      dup1\n      0xc47f0027\n      eq\n      tag_18\n      jumpi\n      dup1\n      0xdbad491a\n      eq\n      tag_19\n      jumpi\n      dup1\n      0xdd62ed3e\n      eq\n      tag_20\n      jumpi\n      jump(tag_2)\n    tag_22:\n      dup1\n      0x4838d165\n      eq\n      tag_12\n      jumpi\n      dup1\n      0x4b133e77\n      eq\n      tag_13\n      jumpi\n      dup1\n      0x73688914\n      eq\n      tag_14\n      jumpi\n      dup1\n      0x76809ce3\n      eq\n      tag_15\n      jumpi\n      jump(tag_2)\n    tag_21:\n      dup1\n      0x20188d72\n      gt\n      tag_23\n      jumpi\n      dup1\n      0x20188d72\n      eq\n      tag_7\n      jumpi\n      dup1\n      0x217cb89a\n      eq\n      tag_8\n      jumpi\n      dup1\n      0x23b872dd\n      eq\n      tag_9\n      jumpi\n      dup1\n      0x244e0c87\n      eq\n      tag_10\n      jumpi\n      dup1\n      0x32e2d367\n      eq\n      tag_11\n      jumpi\n      jump(tag_2)\n    tag_23:\n      dup1\n      0x06fdde03\n      eq\n      tag_3\n      jumpi\n      dup1\n      0x095ea7b3\n      eq\n      tag_4\n      jumpi\n      dup1\n      0x1249c58b\n      eq\n      tag_5\n      jumpi\n      dup1\n      0x18160ddd\n      eq\n      tag_6\n      jumpi\n    tag_2:\n      0x00\n      dup1\n      revert\n        /* \"contracts/artifacts/Kazah.sol\":344:372  string public name = \"Kazah\" */\n    tag_3:\n      tag_24\n      tag_25\n      jump\t// in\n    tag_24:\n      mload(0x40)\n      tag_26\n      swap2\n      swap1\n      tag_27\n      jump\t// in\n    tag_26:\n      mload(0x40)\n      dup1\n      swap2\n      sub\n      swap1\n      return\n        /* \"contracts/artifacts/Kazah.sol\":1778:1979  function approve(address spender, uint amount) external returns(bool){\r... */\n    tag_4:\n      tag_28\n      0x04\n      dup1\n      calldatasize\n      sub\n      dup2\n      add\n      swap1\n      tag_29\n      swap2\n      swap1\n      tag_30\n      jump\t// in\n    tag_29:\n      tag_31\n      jump\t// in\n    tag_28:\n      mload(0x40)\n      tag_32\n      swap2\n      swap1\n      tag_33\n      jump\t// in\n    tag_32:\n      mload(0x40)\n      dup1\n      swap2\n      sub\n      swap1\n      return\n        /* \"contracts/artifacts/Kazah.sol\":1694:1765  function mint() public {\r... */\n    tag_5:\n      tag_34\n      tag_35\n      jump\t// in\n    tag_34:\n      stop\n        /* \"contracts/artifacts/Kazah.sol\":1104:1190  function totalSupply() external view returns(uint){\r... */\n    tag_6:\n      tag_36\n      tag_37\n      jump\t// in\n    tag_36:\n      mload(0x40)\n      tag_38\n      swap2\n      swap1\n      tag_39\n      jump\t// in\n    tag_38:\n      mload(0x40)\n      dup1\n      swap2\n      sub\n      swap1\n      return\n        /* \"contracts/artifacts/Kazah.sol\":802:1094  function fromBlackList(address blackl) external returns (bool){\r... */\n    tag_7:\n      tag_40\n      0x04\n      dup1\n      calldatasize\n      sub\n      dup2\n      add\n      swap1\n      tag_41\n      swap2\n      swap1\n      tag_42\n      jump\t// in\n    tag_41:\n      tag_43\n      jump\t// in\n    tag_40:\n      mload(0x40)\n      tag_44\n      swap2\n      swap1\n      tag_33\n      jump\t// in\n    tag_44:\n      mload(0x40)\n      dup1\n      swap2\n      sub\n      swap1\n      return\n        /* \"contracts/artifacts/Kazah.sol\":84:119  uint public totalSuppl = 1000000e18 */\n    tag_8:\n      tag_45\n      tag_46\n      jump\t// in\n    tag_45:\n      mload(0x40)\n      tag_47\n      swap2\n      swap1\n      tag_39\n      jump\t// in\n    tag_47:\n      mload(0x40)\n      dup1\n      swap2\n      sub\n      swap1\n      return\n        /* \"contracts/artifacts/Kazah.sol\":1991:2290  function transferFrom(address sender, address recipient, uint amount) external returns(bool){\r... */\n    tag_9:\n      tag_48\n      0x04\n      dup1\n      calldatasize\n      sub\n      dup2\n      add\n      swap1\n      tag_49\n      swap2\n      swap1\n      tag_50\n      jump\t// in\n    tag_49:\n      tag_51\n      jump\t// in\n    tag_48:\n      mload(0x40)\n      tag_52\n      swap2\n      swap1\n      tag_33\n      jump\t// in\n    tag_52:\n      mload(0x40)\n      dup1\n      swap2\n      sub\n      swap1\n      return\n        /* \"contracts/artifacts/Kazah.sol\":1198:1304  function balanceOF(address account) external view returns(uint){\r... */\n    tag_10:\n      tag_53\n      0x04\n      dup1\n      calldatasize\n      sub\n      dup2\n      add\n      swap1\n      tag_54\n      swap2\n      swap1\n      tag_42\n      jump\t// in\n    tag_54:\n      tag_55\n      jump\t// in\n    tag_53:\n      mload(0x40)\n      tag_56\n      swap2\n      swap1\n      tag_39\n      jump\t// in\n    tag_56:\n      mload(0x40)\n      dup1\n      swap2\n      sub\n      swap1\n      return\n        /* \"contracts/artifacts/Kazah.sol\":150:190  mapping(address => uint) public balancOF */\n    tag_11:\n      tag_57\n      0x04\n      dup1\n      calldatasize\n      sub\n      dup2\n      add\n      swap1\n      tag_58\n      swap2\n      swap1\n      tag_42\n      jump\t// in\n    tag_58:\n      tag_59\n      jump\t// in\n    tag_57:\n      mload(0x40)\n      tag_60\n      swap2\n      swap1\n      tag_39\n      jump\t// in\n    tag_60:\n      mload(0x40)\n      dup1\n      swap2\n      sub\n      swap1\n      return\n        /* \"contracts/artifacts/Kazah.sol\":265:307  mapping (address => bool) public blackList */\n    tag_12:\n      tag_61\n      0x04\n      dup1\n      calldatasize\n      sub\n      dup2\n      add\n      swap1\n      tag_62\n      swap2\n      swap1\n      tag_42\n      jump\t// in\n    tag_62:\n      tag_63\n      jump\t// in\n    tag_61:\n      mload(0x40)\n      tag_64\n      swap2\n      swap1\n      tag_33\n      jump\t// in\n    tag_64:\n      mload(0x40)\n      dup1\n      swap2\n      sub\n      swap1\n      return\n        /* \"contracts/artifacts/Kazah.sol\":1558:1686  function allowanc(address owner, address spender) external view returns(uint){\r... */\n    tag_13:\n      tag_65\n      0x04\n      dup1\n      calldatasize\n      sub\n      dup2\n      add\n      swap1\n      tag_66\n      swap2\n      swap1\n      tag_67\n      jump\t// in\n    tag_66:\n      tag_68\n      jump\t// in\n    tag_65:\n      mload(0x40)\n      tag_69\n      swap2\n      swap1\n      tag_39\n      jump\t// in\n    tag_69:\n      mload(0x40)\n      dup1\n      swap2\n      sub\n      swap1\n      return\n        /* \"contracts/artifacts/Kazah.sol\":316:337  address public owner1 */\n    tag_14:\n      tag_70\n      tag_71\n      jump\t// in\n    tag_70:\n      mload(0x40)\n      tag_72\n      swap2\n      swap1\n      tag_73\n      jump\t// in\n    tag_72:\n      mload(0x40)\n      dup1\n      swap2\n      sub\n      swap1\n      return\n        /* \"contracts/artifacts/Kazah.sol\":413:437  uint public decimal = 18 */\n    tag_15:\n      tag_74\n      tag_75\n      jump\t// in\n    tag_74:\n      mload(0x40)\n      tag_76\n      swap2\n      swap1\n      tag_39\n      jump\t// in\n    tag_76:\n      mload(0x40)\n      dup1\n      swap2\n      sub\n      swap1\n      return\n        /* \"contracts/artifacts/Kazah.sol\":379:406  string public symbol = \"KZ\" */\n    tag_16:\n      tag_77\n      tag_78\n      jump\t// in\n    tag_77:\n      mload(0x40)\n      tag_79\n      swap2\n      swap1\n      tag_27\n      jump\t// in\n    tag_79:\n      mload(0x40)\n      dup1\n      swap2\n      sub\n      swap1\n      return\n        /* \"contracts/artifacts/Kazah.sol\":1312:1550  function transfer(address recipient, uint amount) external returns(bool){\r... */\n    tag_17:\n      tag_80\n      0x04\n      dup1\n      calldatasize\n      sub\n      dup2\n      add\n      swap1\n      tag_81\n      swap2\n      swap1\n      tag_30\n      jump\t// in\n    tag_81:\n      tag_82\n      jump\t// in\n    tag_80:\n      mload(0x40)\n      tag_83\n      swap2\n      swap1\n      tag_33\n      jump\t// in\n    tag_83:\n      mload(0x40)\n      dup1\n      swap2\n      sub\n      swap1\n      return\n        /* \"contracts/artifacts/Kazah.sol\":2461:2518  function setName(string memory newName) public {\r... */\n    tag_18:\n      tag_84\n      0x04\n      dup1\n      calldatasize\n      sub\n      dup2\n      add\n      swap1\n      tag_85\n      swap2\n      swap1\n      tag_86\n      jump\t// in\n    tag_85:\n      tag_87\n      jump\t// in\n    tag_84:\n      stop\n        /* \"contracts/artifacts/Kazah.sol\":506:790  function toBlackList(address blackl) external returns (bool){\r... */\n    tag_19:\n      tag_88\n      0x04\n      dup1\n      calldatasize\n      sub\n      dup2\n      add\n      swap1\n      tag_89\n      swap2\n      swap1\n      tag_42\n      jump\t// in\n    tag_89:\n      tag_90\n      jump\t// in\n    tag_88:\n      mload(0x40)\n      tag_91\n      swap2\n      swap1\n      tag_33\n      jump\t// in\n    tag_91:\n      mload(0x40)\n      dup1\n      swap2\n      sub\n      swap1\n      return\n        /* \"contracts/artifacts/Kazah.sol\":197:258  mapping(address => mapping(address => uint)) public allowance */\n    tag_20:\n      tag_92\n      0x04\n      dup1\n      calldatasize\n      sub\n      dup2\n      add\n      swap1\n      tag_93\n      swap2\n      swap1\n      tag_67\n      jump\t// in\n    tag_93:\n      tag_94\n      jump\t// in\n    tag_92:\n      mload(0x40)\n      tag_95\n      swap2\n      swap1\n      tag_39\n      jump\t// in\n    tag_95:\n      mload(0x40)\n      dup1\n      swap2\n      sub\n      swap1\n      return\n        /* \"contracts/artifacts/Kazah.sol\":344:372  string public name = \"Kazah\" */\n    tag_25:\n      0x05\n      dup1\n      sload\n      tag_96\n      swap1\n      tag_97\n      jump\t// in\n    tag_96:\n      dup1\n      0x1f\n      add\n      0x20\n      dup1\n      swap2\n      div\n      mul\n      0x20\n      add\n      mload(0x40)\n      swap1\n      dup2\n      add\n      0x40\n      mstore\n      dup1\n      swap3\n      swap2\n      swap1\n      dup2\n      dup2\n      mstore\n      0x20\n      add\n      dup3\n      dup1\n      sload\n      tag_98\n      swap1\n      tag_97\n      jump\t// in\n    tag_98:\n      dup1\n      iszero\n      tag_99\n      jumpi\n      dup1\n      0x1f\n      lt\n      tag_100\n      jumpi\n      0x0100\n      dup1\n      dup4\n      sload\n      div\n      mul\n      dup4\n      mstore\n      swap2\n      0x20\n      add\n      swap2\n      jump(tag_99)\n    tag_100:\n      dup3\n      add\n      swap2\n      swap1\n      0x00\n      mstore\n      keccak256(0x00, 0x20)\n      swap1\n    tag_101:\n      dup2\n      sload\n      dup2\n      mstore\n      swap1\n      0x01\n      add\n      swap1\n      0x20\n      add\n      dup1\n      dup4\n      gt\n      tag_101\n      jumpi\n      dup3\n      swap1\n      sub\n      0x1f\n      and\n      dup3\n      add\n      swap2\n    tag_99:\n      pop\n      pop\n      pop\n      pop\n      pop\n      dup2\n      jump\t// out\n        /* \"contracts/artifacts/Kazah.sol\":1778:1979  function approve(address spender, uint amount) external returns(bool){\r... */\n    tag_31:\n        /* \"contracts/artifacts/Kazah.sol\":1842:1846  bool */\n      0x00\n        /* \"contracts/artifacts/Kazah.sol\":1891:1897  amount */\n      dup2\n        /* \"contracts/artifacts/Kazah.sol\":1858:1867  allowance */\n      0x02\n        /* \"contracts/artifacts/Kazah.sol\":1858:1879  allowance[msg.sender] */\n      0x00\n        /* \"contracts/artifacts/Kazah.sol\":1868:1878  msg.sender */\n      caller\n        /* \"contracts/artifacts/Kazah.sol\":1858:1879  allowance[msg.sender] */\n      0xffffffffffffffffffffffffffffffffffffffff\n      and\n      0xffffffffffffffffffffffffffffffffffffffff\n      and\n      dup2\n      mstore\n      0x20\n      add\n      swap1\n      dup2\n      mstore\n      0x20\n      add\n      0x00\n      keccak256\n        /* \"contracts/artifacts/Kazah.sol\":1858:1888  allowance[msg.sender][spender] */\n      0x00\n        /* \"contracts/artifacts/Kazah.sol\":1880:1887  spender */\n      dup6\n        /* \"contracts/artifacts/Kazah.sol\":1858:1888  allowance[msg.sender][spender] */\n      0xffffffffffffffffffffffffffffffffffffffff\n      and\n      0xffffffffffffffffffffffffffffffffffffffff\n      and\n      dup2\n      mstore\n      0x20\n      add\n      swap1\n      dup2\n      mstore\n      0x20\n      add\n      0x00\n      keccak256\n        /* \"contracts/artifacts/Kazah.sol\":1858:1897  allowance[msg.sender][spender] = amount */\n      dup2\n      swap1\n      sstore\n      pop\n        /* \"contracts/artifacts/Kazah.sol\":1933:1940  spender */\n      dup3\n        /* \"contracts/artifacts/Kazah.sol\":1913:1949  Approve(msg.sender, spender, amount) */\n      0xffffffffffffffffffffffffffffffffffffffff\n      and\n        /* \"contracts/artifacts/Kazah.sol\":1921:1931  msg.sender */\n      caller\n        /* \"contracts/artifacts/Kazah.sol\":1913:1949  Approve(msg.sender, spender, amount) */\n      0xffffffffffffffffffffffffffffffffffffffff\n      and\n      0x6e11fb1b7f119e3f2fa29896ef5fdf8b8a2d0d4df6fe90ba8668e7d8b2ffa25e\n        /* \"contracts/artifacts/Kazah.sol\":1942:1948  amount */\n      dup5\n        /* \"contracts/artifacts/Kazah.sol\":1913:1949  Approve(msg.sender, spender, amount) */\n      mload(0x40)\n      tag_103\n      swap2\n      swap1\n      tag_39\n      jump\t// in\n    tag_103:\n      mload(0x40)\n      dup1\n      swap2\n      sub\n      swap1\n      log3\n        /* \"contracts/artifacts/Kazah.sol\":1967:1971  true */\n      0x01\n        /* \"contracts/artifacts/Kazah.sol\":1960:1971  return true */\n      swap1\n      pop\n        /* \"contracts/artifacts/Kazah.sol\":1778:1979  function approve(address spender, uint amount) external returns(bool){\r... */\n      swap3\n      swap2\n      pop\n      pop\n      jump\t// out\n        /* \"contracts/artifacts/Kazah.sol\":1694:1765  function mint() public {\r... */\n    tag_35:\n        /* \"contracts/artifacts/Kazah.sol\":1751:1757  500e18 */\n      0x1b1ae4d6e2ef500000\n        /* \"contracts/artifacts/Kazah.sol\":1728:1736  balancOF */\n      0x01\n        /* \"contracts/artifacts/Kazah.sol\":1728:1748  balancOF[msg.sender] */\n      0x00\n        /* \"contracts/artifacts/Kazah.sol\":1737:1747  msg.sender */\n      caller\n        /* \"contracts/artifacts/Kazah.sol\":1728:1748  balancOF[msg.sender] */\n      0xffffffffffffffffffffffffffffffffffffffff\n      and\n      0xffffffffffffffffffffffffffffffffffffffff\n      and\n      dup2\n      mstore\n      0x20\n      add\n      swap1\n      dup2\n      mstore\n      0x20\n      add\n      0x00\n      keccak256\n        /* \"contracts/artifacts/Kazah.sol\":1728:1757  balancOF[msg.sender] = 500e18 */\n      dup2\n      swap1\n      sstore\n      pop\n        /* \"contracts/artifacts/Kazah.sol\":1694:1765  function mint() public {\r... */\n      jump\t// out\n        /* \"contracts/artifacts/Kazah.sol\":1104:1190  function totalSupply() external view returns(uint){\r... */\n    tag_37:\n        /* \"contracts/artifacts/Kazah.sol\":1149:1153  uint */\n      0x00\n        /* \"contracts/artifacts/Kazah.sol\":1172:1182  totalSuppl */\n      dup1\n      sload\n        /* \"contracts/artifacts/Kazah.sol\":1165:1182  return totalSuppl */\n      swap1\n      pop\n        /* \"contracts/artifacts/Kazah.sol\":1104:1190  function totalSupply() external view returns(uint){\r... */\n      swap1\n      jump\t// out\n        /* \"contracts/artifacts/Kazah.sol\":802:1094  function fromBlackList(address blackl) external returns (bool){\r... */\n    tag_43:\n        /* \"contracts/artifacts/Kazah.sol\":859:863  bool */\n      0x00\n        /* \"contracts/artifacts/Kazah.sol\":893:903  msg.sender */\n      caller\n        /* \"contracts/artifacts/Kazah.sol\":883:903  owner1 == msg.sender */\n      0xffffffffffffffffffffffffffffffffffffffff\n      and\n        /* \"contracts/artifacts/Kazah.sol\":883:889  owner1 */\n      0x04\n      0x00\n      swap1\n      sload\n      swap1\n      0x0100\n      exp\n      swap1\n      div\n      0xffffffffffffffffffffffffffffffffffffffff\n      and\n        /* \"contracts/artifacts/Kazah.sol\":883:903  owner1 == msg.sender */\n      0xffffffffffffffffffffffffffffffffffffffff\n      and\n      eq\n        /* \"contracts/artifacts/Kazah.sol\":875:952  require(owner1 == msg.sender, \"Only the owner can remove from the blacklist\") */\n      tag_107\n      jumpi\n      mload(0x40)\n      0x08c379a000000000000000000000000000000000000000000000000000000000\n      dup2\n      mstore\n      0x04\n      add\n      tag_108\n      swap1\n      tag_109\n      jump\t// in\n    tag_108:\n      mload(0x40)\n      dup1\n      swap2\n      sub\n      swap1\n      revert\n    tag_107:\n        /* \"contracts/artifacts/Kazah.sol\":971:980  blackList */\n      0x03\n        /* \"contracts/artifacts/Kazah.sol\":971:988  blackList[blackl] */\n      0x00\n        /* \"contracts/artifacts/Kazah.sol\":981:987  blackl */\n      dup4\n        /* \"contracts/artifacts/Kazah.sol\":971:988  blackList[blackl] */\n      0xffffffffffffffffffffffffffffffffffffffff\n      and\n      0xffffffffffffffffffffffffffffffffffffffff\n      and\n      dup2\n      mstore\n      0x20\n      add\n      swap1\n      dup2\n      mstore\n      0x20\n      add\n      0x00\n      keccak256\n      0x00\n      swap1\n      sload\n      swap1\n      0x0100\n      exp\n      swap1\n      div\n      0xff\n      and\n        /* \"contracts/artifacts/Kazah.sol\":963:1028  require(blackList[blackl], \"The address is not in the blacklist\") */\n      tag_110\n      jumpi\n      mload(0x40)\n      0x08c379a000000000000000000000000000000000000000000000000000000000\n      dup2\n      mstore\n      0x04\n      add\n      tag_111\n      swap1\n      tag_112\n      jump\t// in\n    tag_111:\n      mload(0x40)\n      dup1\n      swap2\n      sub\n      swap1\n      revert\n    tag_110:\n        /* \"contracts/artifacts/Kazah.sol\":1059:1064  false */\n      0x00\n        /* \"contracts/artifacts/Kazah.sol\":1039:1048  blackList */\n      0x03\n        /* \"contracts/artifacts/Kazah.sol\":1039:1056  blackList[blackl] */\n      0x00\n        /* \"contracts/artifacts/Kazah.sol\":1049:1055  blackl */\n      dup5\n        /* \"contracts/artifacts/Kazah.sol\":1039:1056  blackList[blackl] */\n      0xffffffffffffffffffffffffffffffffffffffff\n      and\n      0xffffffffffffffffffffffffffffffffffffffff\n      and\n      dup2\n      mstore\n      0x20\n      add\n      swap1\n      dup2\n      mstore\n      0x20\n      add\n      0x00\n      keccak256\n      0x00\n        /* \"contracts/artifacts/Kazah.sol\":1039:1064  blackList[blackl] = false */\n      0x0100\n      exp\n      dup2\n      sload\n      dup2\n      0xff\n      mul\n      not\n      and\n      swap1\n      dup4\n      iszero\n      iszero\n      mul\n      or\n      swap1\n      sstore\n      pop\n        /* \"contracts/artifacts/Kazah.sol\":1082:1086  true */\n      0x01\n        /* \"contracts/artifacts/Kazah.sol\":1075:1086  return true */\n      swap1\n      pop\n        /* \"contracts/artifacts/Kazah.sol\":802:1094  function fromBlackList(address blackl) external returns (bool){\r... */\n      swap2\n      swap1\n      pop\n      jump\t// out\n        /* \"contracts/artifacts/Kazah.sol\":84:119  uint public totalSuppl = 1000000e18 */\n    tag_46:\n      sload(0x00)\n      dup2\n      jump\t// out\n        /* \"contracts/artifacts/Kazah.sol\":1991:2290  function transferFrom(address sender, address recipient, uint amount) external returns(bool){\r... */\n    tag_51:\n        /* \"contracts/artifacts/Kazah.sol\":2078:2082  bool */\n      0x00\n        /* \"contracts/artifacts/Kazah.sol\":2126:2132  amount */\n      dup2\n        /* \"contracts/artifacts/Kazah.sol\":2094:2103  allowance */\n      0x02\n        /* \"contracts/artifacts/Kazah.sol\":2094:2111  allowance[sender] */\n      0x00\n        /* \"contracts/artifacts/Kazah.sol\":2104:2110  sender */\n      dup7\n        /* \"contracts/artifacts/Kazah.sol\":2094:2111  allowance[sender] */\n      0xffffffffffffffffffffffffffffffffffffffff\n      and\n      0xffffffffffffffffffffffffffffffffffffffff\n      and\n      dup2\n      mstore\n      0x20\n      add\n      swap1\n      dup2\n      mstore\n      0x20\n      add\n      0x00\n      keccak256\n        /* \"contracts/artifacts/Kazah.sol\":2094:2122  allowance[sender][recipient] */\n      0x00\n        /* \"contracts/artifacts/Kazah.sol\":2112:2121  recipient */\n      dup6\n        /* \"contracts/artifacts/Kazah.sol\":2094:2122  allowance[sender][recipient] */\n      0xffffffffffffffffffffffffffffffffffffffff\n      and\n      0xffffffffffffffffffffffffffffffffffffffff\n      and\n      dup2\n      mstore\n      0x20\n      add\n      swap1\n      dup2\n      mstore\n      0x20\n      add\n      0x00\n      keccak256\n      0x00\n        /* \"contracts/artifacts/Kazah.sol\":2094:2132  allowance[sender][recipient] -= amount */\n      dup3\n      dup3\n      sload\n      tag_114\n      swap2\n      swap1\n      tag_115\n      jump\t// in\n    tag_114:\n      swap3\n      pop\n      pop\n      dup2\n      swap1\n      sstore\n      pop\n        /* \"contracts/artifacts/Kazah.sol\":2163:2169  amount */\n      dup2\n        /* \"contracts/artifacts/Kazah.sol\":2143:2151  balancOF */\n      0x01\n        /* \"contracts/artifacts/Kazah.sol\":2143:2159  balancOF[sender] */\n      0x00\n        /* \"contracts/artifacts/Kazah.sol\":2152:2158  sender */\n      dup7\n        /* \"contracts/artifacts/Kazah.sol\":2143:2159  balancOF[sender] */\n      0xffffffffffffffffffffffffffffffffffffffff\n      and\n      0xffffffffffffffffffffffffffffffffffffffff\n      and\n      dup2\n      mstore\n      0x20\n      add\n      swap1\n      dup2\n      mstore\n      0x20\n      add\n      0x00\n      keccak256\n      0x00\n        /* \"contracts/artifacts/Kazah.sol\":2143:2169  balancOF[sender] -= amount */\n      dup3\n      dup3\n      sload\n      tag_116\n      swap2\n      swap1\n      tag_115\n      jump\t// in\n    tag_116:\n      swap3\n      pop\n      pop\n      dup2\n      swap1\n      sstore\n      pop\n        /* \"contracts/artifacts/Kazah.sol\":2203:2209  amount */\n      dup2\n        /* \"contracts/artifacts/Kazah.sol\":2180:2188  balancOF */\n      0x01\n        /* \"contracts/artifacts/Kazah.sol\":2180:2199  balancOF[recipient] */\n      0x00\n        /* \"contracts/artifacts/Kazah.sol\":2189:2198  recipient */\n      dup6\n        /* \"contracts/artifacts/Kazah.sol\":2180:2199  balancOF[recipient] */\n      0xffffffffffffffffffffffffffffffffffffffff\n      and\n      0xffffffffffffffffffffffffffffffffffffffff\n      and\n      dup2\n      mstore\n      0x20\n      add\n      swap1\n      dup2\n      mstore\n      0x20\n      add\n      0x00\n      keccak256\n      0x00\n        /* \"contracts/artifacts/Kazah.sol\":2180:2209  balancOF[recipient] += amount */\n      dup3\n      dup3\n      sload\n      tag_117\n      swap2\n      swap1\n      tag_118\n      jump\t// in\n    tag_117:\n      swap3\n      pop\n      pop\n      dup2\n      swap1\n      sstore\n      pop\n        /* \"contracts/artifacts/Kazah.sol\":2242:2251  recipient */\n      dup3\n        /* \"contracts/artifacts/Kazah.sol\":2225:2260  Transfer(sender, recipient, amount) */\n      0xffffffffffffffffffffffffffffffffffffffff\n      and\n        /* \"contracts/artifacts/Kazah.sol\":2234:2240  sender */\n      dup5\n        /* \"contracts/artifacts/Kazah.sol\":2225:2260  Transfer(sender, recipient, amount) */\n      0xffffffffffffffffffffffffffffffffffffffff\n      and\n      0xddf252ad1be2c89b69c2b068fc378daa952ba7f163c4a11628f55a4df523b3ef\n        /* \"contracts/artifacts/Kazah.sol\":2253:2259  amount */\n      dup5\n        /* \"contracts/artifacts/Kazah.sol\":2225:2260  Transfer(sender, recipient, amount) */\n      mload(0x40)\n      tag_119\n      swap2\n      swap1\n      tag_39\n      jump\t// in\n    tag_119:\n      mload(0x40)\n      dup1\n      swap2\n      sub\n      swap1\n      log3\n        /* \"contracts/artifacts/Kazah.sol\":2278:2282  true */\n      0x01\n        /* \"contracts/artifacts/Kazah.sol\":2271:2282  return true */\n      swap1\n      pop\n        /* \"contracts/artifacts/Kazah.sol\":1991:2290  function transferFrom(address sender, address recipient, uint amount) external returns(bool){\r... */\n      swap4\n      swap3\n      pop\n      pop\n      pop\n      jump\t// out\n        /* \"contracts/artifacts/Kazah.sol\":1198:1304  function balanceOF(address account) external view returns(uint){\r... */\n    tag_55:\n        /* \"contracts/artifacts/Kazah.sol\":1256:1260  uint */\n      0x00\n        /* \"contracts/artifacts/Kazah.sol\":1279:1287  balancOF */\n      0x01\n        /* \"contracts/artifacts/Kazah.sol\":1279:1296  balancOF[account] */\n      0x00\n        /* \"contracts/artifacts/Kazah.sol\":1288:1295  account */\n      dup4\n        /* \"contracts/artifacts/Kazah.sol\":1279:1296  balancOF[account] */\n      0xffffffffffffffffffffffffffffffffffffffff\n      and\n      0xffffffffffffffffffffffffffffffffffffffff\n      and\n      dup2\n      mstore\n      0x20\n      add\n      swap1\n      dup2\n      mstore\n      0x20\n      add\n      0x00\n      keccak256\n      sload\n        /* \"contracts/artifacts/Kazah.sol\":1272:1296  return balancOF[account] */\n      swap1\n      pop\n        /* \"contracts/artifacts/Kazah.sol\":1198:1304  function balanceOF(address account) external view returns(uint){\r... */\n      swap2\n      swap1\n      pop\n      jump\t// out\n        /* \"contracts/artifacts/Kazah.sol\":150:190  mapping(address => uint) public balancOF */\n    tag_59:\n      mstore(0x20, 0x01)\n      dup1\n      0x00\n      mstore\n      keccak256(0x00, 0x40)\n      0x00\n      swap2\n      pop\n      swap1\n      pop\n      sload\n      dup2\n      jump\t// out\n        /* \"contracts/artifacts/Kazah.sol\":265:307  mapping (address => bool) public blackList */\n    tag_63:\n      mstore(0x20, 0x03)\n      dup1\n      0x00\n      mstore\n      keccak256(0x00, 0x40)\n      0x00\n      swap2\n      pop\n      sload\n      swap1\n      0x0100\n      exp\n      swap1\n      div\n      0xff\n      and\n      dup2\n      jump\t// out\n        /* \"contracts/artifacts/Kazah.sol\":1558:1686  function allowanc(address owner, address spender) external view returns(uint){\r... */\n    tag_68:\n        /* \"contracts/artifacts/Kazah.sol\":1630:1634  uint */\n      0x00\n        /* \"contracts/artifacts/Kazah.sol\":1653:1662  allowance */\n      0x02\n        /* \"contracts/artifacts/Kazah.sol\":1653:1669  allowance[owner] */\n      0x00\n        /* \"contracts/artifacts/Kazah.sol\":1663:1668  owner */\n      dup5\n        /* \"contracts/artifacts/Kazah.sol\":1653:1669  allowance[owner] */\n      0xffffffffffffffffffffffffffffffffffffffff\n      and\n      0xffffffffffffffffffffffffffffffffffffffff\n      and\n      dup2\n      mstore\n      0x20\n      add\n      swap1\n      dup2\n      mstore\n      0x20\n      add\n      0x00\n      keccak256\n        /* \"contracts/artifacts/Kazah.sol\":1653:1678  allowance[owner][spender] */\n      0x00\n        /* \"contracts/artifacts/Kazah.sol\":1670:1677  spender */\n      dup4\n        /* \"contracts/artifacts/Kazah.sol\":1653:1678  allowance[owner][spender] */\n      0xffffffffffffffffffffffffffffffffffffffff\n      and\n      0xffffffffffffffffffffffffffffffffffffffff\n      and\n      dup2\n      mstore\n      0x20\n      add\n      swap1\n      dup2\n      mstore\n      0x20\n      add\n      0x00\n      keccak256\n      sload\n        /* \"contracts/artifacts/Kazah.sol\":1646:1678  return allowance[owner][spender] */\n      swap1\n      pop\n        /* \"contracts/artifacts/Kazah.sol\":1558:1686  function allowanc(address owner, address spender) external view returns(uint){\r... */\n      swap3\n      swap2\n      pop\n      pop\n      jump\t// out\n        /* \"contracts/artifacts/Kazah.sol\":316:337  address public owner1 */\n    tag_71:\n      0x04\n      0x00\n      swap1\n      sload\n      swap1\n      0x0100\n      exp\n      swap1\n      div\n      0xffffffffffffffffffffffffffffffffffffffff\n      and\n      dup2\n      jump\t// out\n        /* \"contracts/artifacts/Kazah.sol\":413:437  uint public decimal = 18 */\n    tag_75:\n      sload(0x07)\n      dup2\n      jump\t// out\n        /* \"contracts/artifacts/Kazah.sol\":379:406  string public symbol = \"KZ\" */\n    tag_78:\n      0x06\n      dup1\n      sload\n      tag_122\n      swap1\n      tag_97\n      jump\t// in\n    tag_122:\n      dup1\n      0x1f\n      add\n      0x20\n      dup1\n      swap2\n      div\n      mul\n      0x20\n      add\n      mload(0x40)\n      swap1\n      dup2\n      add\n      0x40\n      mstore\n      dup1\n      swap3\n      swap2\n      swap1\n      dup2\n      dup2\n      mstore\n      0x20\n      add\n      dup3\n      dup1\n      sload\n      tag_123\n      swap1\n      tag_97\n      jump\t// in\n    tag_123:\n      dup1\n      iszero\n      tag_124\n      jumpi\n      dup1\n      0x1f\n      lt\n      tag_125\n      jumpi\n      0x0100\n      dup1\n      dup4\n      sload\n      div\n      mul\n      dup4\n      mstore\n      swap2\n      0x20\n      add\n      swap2\n      jump(tag_124)\n    tag_125:\n      dup3\n      add\n      swap2\n      swap1\n      0x00\n      mstore\n      keccak256(0x00, 0x20)\n      swap1\n    tag_126:\n      dup2\n      sload\n      dup2\n      mstore\n      swap1\n      0x01\n      add\n      swap1\n      0x20\n      add\n      dup1\n      dup4\n      gt\n      tag_126\n      jumpi\n      dup3\n      swap1\n      sub\n      0x1f\n      and\n      dup3\n      add\n      swap2\n    tag_124:\n      pop\n      pop\n      pop\n      pop\n      pop\n      dup2\n      jump\t// out\n        /* \"contracts/artifacts/Kazah.sol\":1312:1550  function transfer(address recipient, uint amount) external returns(bool){\r... */\n    tag_82:\n        /* \"contracts/artifacts/Kazah.sol\":1379:1383  bool */\n      0x00\n        /* \"contracts/artifacts/Kazah.sol\":1419:1425  amount */\n      dup2\n        /* \"contracts/artifacts/Kazah.sol\":1395:1403  balancOF */\n      0x01\n        /* \"contracts/artifacts/Kazah.sol\":1395:1415  balancOF[msg.sender] */\n      0x00\n        /* \"contracts/artifacts/Kazah.sol\":1404:1414  msg.sender */\n      caller\n        /* \"contracts/artifacts/Kazah.sol\":1395:1415  balancOF[msg.sender] */\n      0xffffffffffffffffffffffffffffffffffffffff\n      and\n      0xffffffffffffffffffffffffffffffffffffffff\n      and\n      dup2\n      mstore\n      0x20\n      add\n      swap1\n      dup2\n      mstore\n      0x20\n      add\n      0x00\n      keccak256\n      0x00\n        /* \"contracts/artifacts/Kazah.sol\":1395:1425  balancOF[msg.sender] -= amount */\n      dup3\n      dup3\n      sload\n      tag_128\n      swap2\n      swap1\n      tag_115\n      jump\t// in\n    tag_128:\n      swap3\n      pop\n      pop\n      dup2\n      swap1\n      sstore\n      pop\n        /* \"contracts/artifacts/Kazah.sol\":1459:1465  amount */\n      dup2\n        /* \"contracts/artifacts/Kazah.sol\":1436:1444  balancOF */\n      0x01\n        /* \"contracts/artifacts/Kazah.sol\":1436:1455  balancOF[recipient] */\n      0x00\n        /* \"contracts/artifacts/Kazah.sol\":1445:1454  recipient */\n      dup6\n        /* \"contracts/artifacts/Kazah.sol\":1436:1455  balancOF[recipient] */\n      0xffffffffffffffffffffffffffffffffffffffff\n      and\n      0xffffffffffffffffffffffffffffffffffffffff\n      and\n      dup2\n      mstore\n      0x20\n      add\n      swap1\n      dup2\n      mstore\n      0x20\n      add\n      0x00\n      keccak256\n      0x00\n        /* \"contracts/artifacts/Kazah.sol\":1436:1465  balancOF[recipient] += amount */\n      dup3\n      dup3\n      sload\n      tag_129\n      swap2\n      swap1\n      tag_118\n      jump\t// in\n    tag_129:\n      swap3\n      pop\n      pop\n      dup2\n      swap1\n      sstore\n      pop\n        /* \"contracts/artifacts/Kazah.sol\":1502:1511  recipient */\n      dup3\n        /* \"contracts/artifacts/Kazah.sol\":1481:1520  Transfer(msg.sender, recipient, amount) */\n      0xffffffffffffffffffffffffffffffffffffffff\n      and\n        /* \"contracts/artifacts/Kazah.sol\":1490:1500  msg.sender */\n      caller\n        /* \"contracts/artifacts/Kazah.sol\":1481:1520  Transfer(msg.sender, recipient, amount) */\n      0xffffffffffffffffffffffffffffffffffffffff\n      and\n      0xddf252ad1be2c89b69c2b068fc378daa952ba7f163c4a11628f55a4df523b3ef\n        /* \"contracts/artifacts/Kazah.sol\":1513:1519  amount */\n      dup5\n        /* \"contracts/artifacts/Kazah.sol\":1481:1520  Transfer(msg.sender, recipient, amount) */\n      mload(0x40)\n      tag_130\n      swap2\n      swap1\n      tag_39\n      jump\t// in\n    tag_130:\n      mload(0x40)\n      dup1\n      swap2\n      sub\n      swap1\n      log3\n        /* \"contracts/artifacts/Kazah.sol\":1538:1542  true */\n      0x01\n        /* \"contracts/artifacts/Kazah.sol\":1531:1542  return true */\n      swap1\n      pop\n        /* \"contracts/artifacts/Kazah.sol\":1312:1550  function transfer(address recipient, uint amount) external returns(bool){\r... */\n      swap3\n      swap2\n      pop\n      pop\n      jump\t// out\n        /* \"contracts/artifacts/Kazah.sol\":2461:2518  function setName(string memory newName) public {\r... */\n    tag_87:\n      pop\n      jump\t// out\n        /* \"contracts/artifacts/Kazah.sol\":506:790  function toBlackList(address blackl) external returns (bool){\r... */\n    tag_90:\n        /* \"contracts/artifacts/Kazah.sol\":561:565  bool */\n      0x00\n        /* \"contracts/artifacts/Kazah.sol\":595:605  msg.sender */\n      caller\n        /* \"contracts/artifacts/Kazah.sol\":585:605  owner1 == msg.sender */\n      0xffffffffffffffffffffffffffffffffffffffff\n      and\n        /* \"contracts/artifacts/Kazah.sol\":585:591  owner1 */\n      0x04\n      0x00\n      swap1\n      sload\n      swap1\n      0x0100\n      exp\n      swap1\n      div\n      0xffffffffffffffffffffffffffffffffffffffff\n      and\n        /* \"contracts/artifacts/Kazah.sol\":585:605  owner1 == msg.sender */\n      0xffffffffffffffffffffffffffffffffffffffff\n      and\n      eq\n        /* \"contracts/artifacts/Kazah.sol\":577:649  require(owner1 == msg.sender, \"Only the owner can add to the blacklist\") */\n      tag_133\n      jumpi\n      mload(0x40)\n      0x08c379a000000000000000000000000000000000000000000000000000000000\n      dup2\n      mstore\n      0x04\n      add\n      tag_134\n      swap1\n      tag_135\n      jump\t// in\n    tag_134:\n      mload(0x40)\n      dup1\n      swap2\n      sub\n      swap1\n      revert\n    tag_133:\n        /* \"contracts/artifacts/Kazah.sol\":669:678  blackList */\n      0x03\n        /* \"contracts/artifacts/Kazah.sol\":669:686  blackList[blackl] */\n      0x00\n        /* \"contracts/artifacts/Kazah.sol\":679:685  blackl */\n      dup4\n        /* \"contracts/artifacts/Kazah.sol\":669:686  blackList[blackl] */\n      0xffffffffffffffffffffffffffffffffffffffff\n      and\n      0xffffffffffffffffffffffffffffffffffffffff\n      and\n      dup2\n      mstore\n      0x20\n      add\n      swap1\n      dup2\n      mstore\n      0x20\n      add\n      0x00\n      keccak256\n      0x00\n      swap1\n      sload\n      swap1\n      0x0100\n      exp\n      swap1\n      div\n      0xff\n      and\n        /* \"contracts/artifacts/Kazah.sol\":668:686  !blackList[blackl] */\n      iszero\n        /* \"contracts/artifacts/Kazah.sol\":660:725  require(!blackList[blackl], \"The address is already blacklisted\") */\n      tag_136\n      jumpi\n      mload(0x40)\n      0x08c379a000000000000000000000000000000000000000000000000000000000\n      dup2\n      mstore\n      0x04\n      add\n      tag_137\n      swap1\n      tag_138\n      jump\t// in\n    tag_137:\n      mload(0x40)\n      dup1\n      swap2\n      sub\n      swap1\n      revert\n    tag_136:\n        /* \"contracts/artifacts/Kazah.sol\":756:760  true */\n      0x01\n        /* \"contracts/artifacts/Kazah.sol\":736:745  blackList */\n      0x03\n        /* \"contracts/artifacts/Kazah.sol\":736:753  blackList[blackl] */\n      0x00\n        /* \"contracts/artifacts/Kazah.sol\":746:752  blackl */\n      dup5\n        /* \"contracts/artifacts/Kazah.sol\":736:753  blackList[blackl] */\n      0xffffffffffffffffffffffffffffffffffffffff\n      and\n      0xffffffffffffffffffffffffffffffffffffffff\n      and\n      dup2\n      mstore\n      0x20\n      add\n      swap1\n      dup2\n      mstore\n      0x20\n      add\n      0x00\n      keccak256\n      0x00\n        /* \"contracts/artifacts/Kazah.sol\":736:760  blackList[blackl] = true */\n      0x0100\n      exp\n      dup2\n      sload\n      dup2\n      0xff\n      mul\n      not\n      and\n      swap1\n      dup4\n      iszero\n      iszero\n      mul\n      or\n      swap1\n      sstore\n      pop\n        /* \"contracts/artifacts/Kazah.sol\":778:782  true */\n      0x01\n        /* \"contracts/artifacts/Kazah.sol\":771:782  return true */\n      swap1\n      pop\n        /* \"contracts/artifacts/Kazah.sol\":506:790  function toBlackList(address blackl) external returns (bool){\r... */\n      swap2\n      swap1\n      pop\n      jump\t// out\n        /* \"contracts/artifacts/Kazah.sol\":197:258  mapping(address => mapping(address => uint)) public allowance */\n    tag_94:\n      mstore(0x20, 0x02)\n      dup2\n      0x00\n      mstore\n      mstore(0x20, keccak256(0x00, 0x40))\n      dup1\n      0x00\n      mstore\n      keccak256(0x00, 0x40)\n      0x00\n      swap2\n      pop\n      swap2\n      pop\n      pop\n      sload\n      dup2\n      jump\t// out\n        /* \"#utility.yul\":7:419   */\n    tag_140:\n        /* \"#utility.yul\":85:90   */\n      0x00\n        /* \"#utility.yul\":110:176   */\n      tag_142\n        /* \"#utility.yul\":126:175   */\n      tag_143\n        /* \"#utility.yul\":168:174   */\n      dup5\n        /* \"#utility.yul\":126:175   */\n      tag_144\n      jump\t// in\n    tag_143:\n        /* \"#utility.yul\":110:176   */\n      tag_145\n      jump\t// in\n    tag_142:\n        /* \"#utility.yul\":101:176   */\n      swap1\n      pop\n        /* \"#utility.yul\":199:205   */\n      dup3\n        /* \"#utility.yul\":192:197   */\n      dup2\n        /* \"#utility.yul\":185:206   */\n      mstore\n        /* \"#utility.yul\":237:241   */\n      0x20\n        /* \"#utility.yul\":230:235   */\n      dup2\n        /* \"#utility.yul\":226:242   */\n      add\n        /* \"#utility.yul\":275:278   */\n      dup5\n        /* \"#utility.yul\":266:272   */\n      dup5\n        /* \"#utility.yul\":261:264   */\n      dup5\n        /* \"#utility.yul\":257:273   */\n      add\n        /* \"#utility.yul\":254:279   */\n      gt\n        /* \"#utility.yul\":251:363   */\n      iszero\n      tag_146\n      jumpi\n        /* \"#utility.yul\":282:361   */\n      tag_147\n      tag_148\n      jump\t// in\n    tag_147:\n        /* \"#utility.yul\":251:363   */\n    tag_146:\n        /* \"#utility.yul\":372:413   */\n      tag_149\n        /* \"#utility.yul\":406:412   */\n      dup5\n        /* \"#utility.yul\":401:404   */\n      dup3\n        /* \"#utility.yul\":396:399   */\n      dup6\n        /* \"#utility.yul\":372:413   */\n      tag_150\n      jump\t// in\n    tag_149:\n        /* \"#utility.yul\":91:419   */\n      pop\n        /* \"#utility.yul\":7:419   */\n      swap4\n      swap3\n      pop\n      pop\n      pop\n      jump\t// out\n        /* \"#utility.yul\":425:564   */\n    tag_151:\n        /* \"#utility.yul\":471:476   */\n      0x00\n        /* \"#utility.yul\":509:515   */\n      dup2\n        /* \"#utility.yul\":496:516   */\n      calldataload\n        /* \"#utility.yul\":487:516   */\n      swap1\n      pop\n        /* \"#utility.yul\":525:558   */\n      tag_153\n        /* \"#utility.yul\":552:557   */\n      dup2\n        /* \"#utility.yul\":525:558   */\n      tag_154\n      jump\t// in\n    tag_153:\n        /* \"#utility.yul\":425:564   */\n      swap3\n      swap2\n      pop\n      pop\n      jump\t// out\n        /* \"#utility.yul\":584:924   */\n    tag_155:\n        /* \"#utility.yul\":640:645   */\n      0x00\n        /* \"#utility.yul\":689:692   */\n      dup3\n        /* \"#utility.yul\":682:686   */\n      0x1f\n        /* \"#utility.yul\":674:680   */\n      dup4\n        /* \"#utility.yul\":670:687   */\n      add\n        /* \"#utility.yul\":666:693   */\n      slt\n        /* \"#utility.yul\":656:778   */\n      tag_157\n      jumpi\n        /* \"#utility.yul\":697:776   */\n      tag_158\n      tag_159\n      jump\t// in\n    tag_158:\n        /* \"#utility.yul\":656:778   */\n    tag_157:\n        /* \"#utility.yul\":814:820   */\n      dup2\n        /* \"#utility.yul\":801:821   */\n      calldataload\n        /* \"#utility.yul\":839:918   */\n      tag_160\n        /* \"#utility.yul\":914:917   */\n      dup5\n        /* \"#utility.yul\":906:912   */\n      dup3\n        /* \"#utility.yul\":899:903   */\n      0x20\n        /* \"#utility.yul\":891:897   */\n      dup7\n        /* \"#utility.yul\":887:904   */\n      add\n        /* \"#utility.yul\":839:918   */\n      tag_140\n      jump\t// in\n    tag_160:\n        /* \"#utility.yul\":830:918   */\n      swap2\n      pop\n        /* \"#utility.yul\":646:924   */\n      pop\n        /* \"#utility.yul\":584:924   */\n      swap3\n      swap2\n      pop\n      pop\n      jump\t// out\n        /* \"#utility.yul\":930:1069   */\n    tag_161:\n        /* \"#utility.yul\":976:981   */\n      0x00\n        /* \"#utility.yul\":1014:1020   */\n      dup2\n        /* \"#utility.yul\":1001:1021   */\n      calldataload\n        /* \"#utility.yul\":992:1021   */\n      swap1\n      pop\n        /* \"#utility.yul\":1030:1063   */\n      tag_163\n        /* \"#utility.yul\":1057:1062   */\n      dup2\n        /* \"#utility.yul\":1030:1063   */\n      tag_164\n      jump\t// in\n    tag_163:\n        /* \"#utility.yul\":930:1069   */\n      swap3\n      swap2\n      pop\n      pop\n      jump\t// out\n        /* \"#utility.yul\":1075:1404   */\n    tag_42:\n        /* \"#utility.yul\":1134:1140   */\n      0x00\n        /* \"#utility.yul\":1183:1185   */\n      0x20\n        /* \"#utility.yul\":1171:1180   */\n      dup3\n        /* \"#utility.yul\":1162:1169   */\n      dup5\n        /* \"#utility.yul\":1158:1181   */\n      sub\n        /* \"#utility.yul\":1154:1186   */\n      slt\n        /* \"#utility.yul\":1151:1270   */\n      iszero\n      tag_166\n      jumpi\n        /* \"#utility.yul\":1189:1268   */\n      tag_167\n      tag_168\n      jump\t// in\n    tag_167:\n        /* \"#utility.yul\":1151:1270   */\n    tag_166:\n        /* \"#utility.yul\":1309:1310   */\n      0x00\n        /* \"#utility.yul\":1334:1387   */\n      tag_169\n        /* \"#utility.yul\":1379:1386   */\n      dup5\n        /* \"#utility.yul\":1370:1376   */\n      dup3\n        /* \"#utility.yul\":1359:1368   */\n      dup6\n        /* \"#utility.yul\":1355:1377   */\n      add\n        /* \"#utility.yul\":1334:1387   */\n      tag_151\n      jump\t// in\n    tag_169:\n        /* \"#utility.yul\":1324:1387   */\n      swap2\n      pop\n        /* \"#utility.yul\":1280:1397   */\n      pop\n        /* \"#utility.yul\":1075:1404   */\n      swap3\n      swap2\n      pop\n      pop\n      jump\t// out\n        /* \"#utility.yul\":1410:1884   */\n    tag_67:\n        /* \"#utility.yul\":1478:1484   */\n      0x00\n        /* \"#utility.yul\":1486:1492   */\n      dup1\n        /* \"#utility.yul\":1535:1537   */\n      0x40\n        /* \"#utility.yul\":1523:1532   */\n      dup4\n        /* \"#utility.yul\":1514:1521   */\n      dup6\n        /* \"#utility.yul\":1510:1533   */\n      sub\n        /* \"#utility.yul\":1506:1538   */\n      slt\n        /* \"#utility.yul\":1503:1622   */\n      iszero\n      tag_171\n      jumpi\n        /* \"#utility.yul\":1541:1620   */\n      tag_172\n      tag_168\n      jump\t// in\n    tag_172:\n        /* \"#utility.yul\":1503:1622   */\n    tag_171:\n        /* \"#utility.yul\":1661:1662   */\n      0x00\n        /* \"#utility.yul\":1686:1739   */\n      tag_173\n        /* \"#utility.yul\":1731:1738   */\n      dup6\n        /* \"#utility.yul\":1722:1728   */\n      dup3\n        /* \"#utility.yul\":1711:1720   */\n      dup7\n        /* \"#utility.yul\":1707:1729   */\n      add\n        /* \"#utility.yul\":1686:1739   */\n      tag_151\n      jump\t// in\n    tag_173:\n        /* \"#utility.yul\":1676:1739   */\n      swap3\n      pop\n        /* \"#utility.yul\":1632:1749   */\n      pop\n        /* \"#utility.yul\":1788:1790   */\n      0x20\n        /* \"#utility.yul\":1814:1867   */\n      tag_174\n        /* \"#utility.yul\":1859:1866   */\n      dup6\n        /* \"#utility.yul\":1850:1856   */\n      dup3\n        /* \"#utility.yul\":1839:1848   */\n      dup7\n        /* \"#utility.yul\":1835:1857   */\n      add\n        /* \"#utility.yul\":1814:1867   */\n      tag_151\n      jump\t// in\n    tag_174:\n        /* \"#utility.yul\":1804:1867   */\n      swap2\n      pop\n        /* \"#utility.yul\":1759:1877   */\n      pop\n        /* \"#utility.yul\":1410:1884   */\n      swap3\n      pop\n      swap3\n      swap1\n      pop\n      jump\t// out\n        /* \"#utility.yul\":1890:2509   */\n    tag_50:\n        /* \"#utility.yul\":1967:1973   */\n      0x00\n        /* \"#utility.yul\":1975:1981   */\n      dup1\n        /* \"#utility.yul\":1983:1989   */\n      0x00\n        /* \"#utility.yul\":2032:2034   */\n      0x60\n        /* \"#utility.yul\":2020:2029   */\n      dup5\n        /* \"#utility.yul\":2011:2018   */\n      dup7\n        /* \"#utility.yul\":2007:2030   */\n      sub\n        /* \"#utility.yul\":2003:2035   */\n      slt\n        /* \"#utility.yul\":2000:2119   */\n      iszero\n      tag_176\n      jumpi\n        /* \"#utility.yul\":2038:2117   */\n      tag_177\n      tag_168\n      jump\t// in\n    tag_177:\n        /* \"#utility.yul\":2000:2119   */\n    tag_176:\n        /* \"#utility.yul\":2158:2159   */\n      0x00\n        /* \"#utility.yul\":2183:2236   */\n      tag_178\n        /* \"#utility.yul\":2228:2235   */\n      dup7\n        /* \"#utility.yul\":2219:2225   */\n      dup3\n        /* \"#utility.yul\":2208:2217   */\n      dup8\n        /* \"#utility.yul\":2204:2226   */\n      add\n        /* \"#utility.yul\":2183:2236   */\n      tag_151\n      jump\t// in\n    tag_178:\n        /* \"#utility.yul\":2173:2236   */\n      swap4\n      pop\n        /* \"#utility.yul\":2129:2246   */\n      pop\n        /* \"#utility.yul\":2285:2287   */\n      0x20\n        /* \"#utility.yul\":2311:2364   */\n      tag_179\n        /* \"#utility.yul\":2356:2363   */\n      dup7\n        /* \"#utility.yul\":2347:2353   */\n      dup3\n        /* \"#utility.yul\":2336:2345   */\n      dup8\n        /* \"#utility.yul\":2332:2354   */\n      add\n        /* \"#utility.yul\":2311:2364   */\n      tag_151\n      jump\t// in\n    tag_179:\n        /* \"#utility.yul\":2301:2364   */\n      swap3\n      pop\n        /* \"#utility.yul\":2256:2374   */\n      pop\n        /* \"#utility.yul\":2413:2415   */\n      0x40\n        /* \"#utility.yul\":2439:2492   */\n      tag_180\n        /* \"#utility.yul\":2484:2491   */\n      dup7\n        /* \"#utility.yul\":2475:2481   */\n      dup3\n        /* \"#utility.yul\":2464:2473   */\n      dup8\n        /* \"#utility.yul\":2460:2482   */\n      add\n        /* \"#utility.yul\":2439:2492   */\n      tag_161\n      jump\t// in\n    tag_180:\n        /* \"#utility.yul\":2429:2492   */\n      swap2\n      pop\n        /* \"#utility.yul\":2384:2502   */\n      pop\n        /* \"#utility.yul\":1890:2509   */\n      swap3\n      pop\n      swap3\n      pop\n      swap3\n      jump\t// out\n        /* \"#utility.yul\":2515:2989   */\n    tag_30:\n        /* \"#utility.yul\":2583:2589   */\n      0x00\n        /* \"#utility.yul\":2591:2597   */\n      dup1\n        /* \"#utility.yul\":2640:2642   */\n      0x40\n        /* \"#utility.yul\":2628:2637   */\n      dup4\n        /* \"#utility.yul\":2619:2626   */\n      dup6\n        /* \"#utility.yul\":2615:2638   */\n      sub\n        /* \"#utility.yul\":2611:2643   */\n      slt\n        /* \"#utility.yul\":2608:2727   */\n      iszero\n      tag_182\n      jumpi\n        /* \"#utility.yul\":2646:2725   */\n      tag_183\n      tag_168\n      jump\t// in\n    tag_183:\n        /* \"#utility.yul\":2608:2727   */\n    tag_182:\n        /* \"#utility.yul\":2766:2767   */\n      0x00\n        /* \"#utility.yul\":2791:2844   */\n      tag_184\n        /* \"#utility.yul\":2836:2843   */\n      dup6\n        /* \"#utility.yul\":2827:2833   */\n      dup3\n        /* \"#utility.yul\":2816:2825   */\n      dup7\n        /* \"#utility.yul\":2812:2834   */\n      add\n        /* \"#utility.yul\":2791:2844   */\n      tag_151\n      jump\t// in\n    tag_184:\n        /* \"#utility.yul\":2781:2844   */\n      swap3\n      pop\n        /* \"#utility.yul\":2737:2854   */\n      pop\n        /* \"#utility.yul\":2893:2895   */\n      0x20\n        /* \"#utility.yul\":2919:2972   */\n      tag_185\n        /* \"#utility.yul\":2964:2971   */\n      dup6\n        /* \"#utility.yul\":2955:2961   */\n      dup3\n        /* \"#utility.yul\":2944:2953   */\n      dup7\n        /* \"#utility.yul\":2940:2962   */\n      add\n        /* \"#utility.yul\":2919:2972   */\n      tag_161\n      jump\t// in\n    tag_185:\n        /* \"#utility.yul\":2909:2972   */\n      swap2\n      pop\n        /* \"#utility.yul\":2864:2982   */\n      pop\n        /* \"#utility.yul\":2515:2989   */\n      swap3\n      pop\n      swap3\n      swap1\n      pop\n      jump\t// out\n        /* \"#utility.yul\":2995:3504   */\n    tag_86:\n        /* \"#utility.yul\":3064:3070   */\n      0x00\n        /* \"#utility.yul\":3113:3115   */\n      0x20\n        /* \"#utility.yul\":3101:3110   */\n      dup3\n        /* \"#utility.yul\":3092:3099   */\n      dup5\n        /* \"#utility.yul\":3088:3111   */\n      sub\n        /* \"#utility.yul\":3084:3116   */\n      slt\n        /* \"#utility.yul\":3081:3200   */\n      iszero\n      tag_187\n      jumpi\n        /* \"#utility.yul\":3119:3198   */\n      tag_188\n      tag_168\n      jump\t// in\n    tag_188:\n        /* \"#utility.yul\":3081:3200   */\n    tag_187:\n        /* \"#utility.yul\":3267:3268   */\n      0x00\n        /* \"#utility.yul\":3256:3265   */\n      dup3\n        /* \"#utility.yul\":3252:3269   */\n      add\n        /* \"#utility.yul\":3239:3270   */\n      calldataload\n        /* \"#utility.yul\":3297:3315   */\n      0xffffffffffffffff\n        /* \"#utility.yul\":3289:3295   */\n      dup2\n        /* \"#utility.yul\":3286:3316   */\n      gt\n        /* \"#utility.yul\":3283:3400   */\n      iszero\n      tag_189\n      jumpi\n        /* \"#utility.yul\":3319:3398   */\n      tag_190\n      tag_191\n      jump\t// in\n    tag_190:\n        /* \"#utility.yul\":3283:3400   */\n    tag_189:\n        /* \"#utility.yul\":3424:3487   */\n      tag_192\n        /* \"#utility.yul\":3479:3486   */\n      dup5\n        /* \"#utility.yul\":3470:3476   */\n      dup3\n        /* \"#utility.yul\":3459:3468   */\n      dup6\n        /* \"#utility.yul\":3455:3477   */\n      add\n        /* \"#utility.yul\":3424:3487   */\n      tag_155\n      jump\t// in\n    tag_192:\n        /* \"#utility.yul\":3414:3487   */\n      swap2\n      pop\n        /* \"#utility.yul\":3210:3497   */\n      pop\n        /* \"#utility.yul\":2995:3504   */\n      swap3\n      swap2\n      pop\n      pop\n      jump\t// out\n        /* \"#utility.yul\":3510:3628   */\n    tag_193:\n        /* \"#utility.yul\":3597:3621   */\n      tag_195\n        /* \"#utility.yul\":3615:3620   */\n      dup2\n        /* \"#utility.yul\":3597:3621   */\n      tag_196\n      jump\t// in\n    tag_195:\n        /* \"#utility.yul\":3592:3595   */\n      dup3\n        /* \"#utility.yul\":3585:3622   */\n      mstore\n        /* \"#utility.yul\":3510:3628   */\n      pop\n      pop\n      jump\t// out\n        /* \"#utility.yul\":3634:3743   */\n    tag_197:\n        /* \"#utility.yul\":3715:3736   */\n      tag_199\n        /* \"#utility.yul\":3730:3735   */\n      dup2\n        /* \"#utility.yul\":3715:3736   */\n      tag_200\n      jump\t// in\n    tag_199:\n        /* \"#utility.yul\":3710:3713   */\n      dup3\n        /* \"#utility.yul\":3703:3737   */\n      mstore\n        /* \"#utility.yul\":3634:3743   */\n      pop\n      pop\n      jump\t// out\n        /* \"#utility.yul\":3749:4113   */\n    tag_201:\n        /* \"#utility.yul\":3837:3840   */\n      0x00\n        /* \"#utility.yul\":3865:3904   */\n      tag_203\n        /* \"#utility.yul\":3898:3903   */\n      dup3\n        /* \"#utility.yul\":3865:3904   */\n      tag_204\n      jump\t// in\n    tag_203:\n        /* \"#utility.yul\":3920:3991   */\n      tag_205\n        /* \"#utility.yul\":3984:3990   */\n      dup2\n        /* \"#utility.yul\":3979:3982   */\n      dup6\n        /* \"#utility.yul\":3920:3991   */\n      tag_206\n      jump\t// in\n    tag_205:\n        /* \"#utility.yul\":3913:3991   */\n      swap4\n      pop\n        /* \"#utility.yul\":4000:4052   */\n      tag_207\n        /* \"#utility.yul\":4045:4051   */\n      dup2\n        /* \"#utility.yul\":4040:4043   */\n      dup6\n        /* \"#utility.yul\":4033:4037   */\n      0x20\n        /* \"#utility.yul\":4026:4031   */\n      dup7\n        /* \"#utility.yul\":4022:4038   */\n      add\n        /* \"#utility.yul\":4000:4052   */\n      tag_208\n      jump\t// in\n    tag_207:\n        /* \"#utility.yul\":4077:4106   */\n      tag_209\n        /* \"#utility.yul\":4099:4105   */\n      dup2\n        /* \"#utility.yul\":4077:4106   */\n      tag_210\n      jump\t// in\n    tag_209:\n        /* \"#utility.yul\":4072:4075   */\n      dup5\n        /* \"#utility.yul\":4068:4107   */\n      add\n        /* \"#utility.yul\":4061:4107   */\n      swap2\n      pop\n        /* \"#utility.yul\":3841:4113   */\n      pop\n        /* \"#utility.yul\":3749:4113   */\n      swap3\n      swap2\n      pop\n      pop\n      jump\t// out\n        /* \"#utility.yul\":4119:4485   */\n    tag_211:\n        /* \"#utility.yul\":4261:4264   */\n      0x00\n        /* \"#utility.yul\":4282:4349   */\n      tag_213\n        /* \"#utility.yul\":4346:4348   */\n      0x22\n        /* \"#utility.yul\":4341:4344   */\n      dup4\n        /* \"#utility.yul\":4282:4349   */\n      tag_206\n      jump\t// in\n    tag_213:\n        /* \"#utility.yul\":4275:4349   */\n      swap2\n      pop\n        /* \"#utility.yul\":4358:4451   */\n      tag_214\n        /* \"#utility.yul\":4447:4450   */\n      dup3\n        /* \"#utility.yul\":4358:4451   */\n      tag_215\n      jump\t// in\n    tag_214:\n        /* \"#utility.yul\":4476:4478   */\n      0x40\n        /* \"#utility.yul\":4471:4474   */\n      dup3\n        /* \"#utility.yul\":4467:4479   */\n      add\n        /* \"#utility.yul\":4460:4479   */\n      swap1\n      pop\n        /* \"#utility.yul\":4119:4485   */\n      swap2\n      swap1\n      pop\n      jump\t// out\n        /* \"#utility.yul\":4491:4857   */\n    tag_216:\n        /* \"#utility.yul\":4633:4636   */\n      0x00\n        /* \"#utility.yul\":4654:4721   */\n      tag_218\n        /* \"#utility.yul\":4718:4720   */\n      0x23\n        /* \"#utility.yul\":4713:4716   */\n      dup4\n        /* \"#utility.yul\":4654:4721   */\n      tag_206\n      jump\t// in\n    tag_218:\n        /* \"#utility.yul\":4647:4721   */\n      swap2\n      pop\n        /* \"#utility.yul\":4730:4823   */\n      tag_219\n        /* \"#utility.yul\":4819:4822   */\n      dup3\n        /* \"#utility.yul\":4730:4823   */\n      tag_220\n      jump\t// in\n    tag_219:\n        /* \"#utility.yul\":4848:4850   */\n      0x40\n        /* \"#utility.yul\":4843:4846   */\n      dup3\n        /* \"#utility.yul\":4839:4851   */\n      add\n        /* \"#utility.yul\":4832:4851   */\n      swap1\n      pop\n        /* \"#utility.yul\":4491:4857   */\n      swap2\n      swap1\n      pop\n      jump\t// out\n        /* \"#utility.yul\":4863:5229   */\n    tag_221:\n        /* \"#utility.yul\":5005:5008   */\n      0x00\n        /* \"#utility.yul\":5026:5093   */\n      tag_223\n        /* \"#utility.yul\":5090:5092   */\n      0x2c\n        /* \"#utility.yul\":5085:5088   */\n      dup4\n        /* \"#utility.yul\":5026:5093   */\n      tag_206\n      jump\t// in\n    tag_223:\n        /* \"#utility.yul\":5019:5093   */\n      swap2\n      pop\n        /* \"#utility.yul\":5102:5195   */\n      tag_224\n        /* \"#utility.yul\":5191:5194   */\n      dup3\n        /* \"#utility.yul\":5102:5195   */\n      tag_225\n      jump\t// in\n    tag_224:\n        /* \"#utility.yul\":5220:5222   */\n      0x40\n        /* \"#utility.yul\":5215:5218   */\n      dup3\n        /* \"#utility.yul\":5211:5223   */\n      add\n        /* \"#utility.yul\":5204:5223   */\n      swap1\n      pop\n        /* \"#utility.yul\":4863:5229   */\n      swap2\n      swap1\n      pop\n      jump\t// out\n        /* \"#utility.yul\":5235:5601   */\n    tag_226:\n        /* \"#utility.yul\":5377:5380   */\n      0x00\n        /* \"#utility.yul\":5398:5465   */\n      tag_228\n        /* \"#utility.yul\":5462:5464   */\n      0x27\n        /* \"#utility.yul\":5457:5460   */\n      dup4\n        /* \"#utility.yul\":5398:5465   */\n      tag_206\n      jump\t// in\n    tag_228:\n        /* \"#utility.yul\":5391:5465   */\n      swap2\n      pop\n        /* \"#utility.yul\":5474:5567   */\n      tag_229\n        /* \"#utility.yul\":5563:5566   */\n      dup3\n        /* \"#utility.yul\":5474:5567   */\n      tag_230\n      jump\t// in\n    tag_229:\n        /* \"#utility.yul\":5592:5594   */\n      0x40\n        /* \"#utility.yul\":5587:5590   */\n      dup3\n        /* \"#utility.yul\":5583:5595   */\n      add\n        /* \"#utility.yul\":5576:5595   */\n      swap1\n      pop\n        /* \"#utility.yul\":5235:5601   */\n      swap2\n      swap1\n      pop\n      jump\t// out\n        /* \"#utility.yul\":5607:5725   */\n    tag_231:\n        /* \"#utility.yul\":5694:5718   */\n      tag_233\n        /* \"#utility.yul\":5712:5717   */\n      dup2\n        /* \"#utility.yul\":5694:5718   */\n      tag_234\n      jump\t// in\n    tag_233:\n        /* \"#utility.yul\":5689:5692   */\n      dup3\n        /* \"#utility.yul\":5682:5719   */\n      mstore\n        /* \"#utility.yul\":5607:5725   */\n      pop\n      pop\n      jump\t// out\n        /* \"#utility.yul\":5731:5953   */\n    tag_73:\n        /* \"#utility.yul\":5824:5828   */\n      0x00\n        /* \"#utility.yul\":5862:5864   */\n      0x20\n        /* \"#utility.yul\":5851:5860   */\n      dup3\n        /* \"#utility.yul\":5847:5865   */\n      add\n        /* \"#utility.yul\":5839:5865   */\n      swap1\n      pop\n        /* \"#utility.yul\":5875:5946   */\n      tag_236\n        /* \"#utility.yul\":5943:5944   */\n      0x00\n        /* \"#utility.yul\":5932:5941   */\n      dup4\n        /* \"#utility.yul\":5928:5945   */\n      add\n        /* \"#utility.yul\":5919:5925   */\n      dup5\n        /* \"#utility.yul\":5875:5946   */\n      tag_193\n      jump\t// in\n    tag_236:\n        /* \"#utility.yul\":5731:5953   */\n      swap3\n      swap2\n      pop\n      pop\n      jump\t// out\n        /* \"#utility.yul\":5959:6169   */\n    tag_33:\n        /* \"#utility.yul\":6046:6050   */\n      0x00\n        /* \"#utility.yul\":6084:6086   */\n      0x20\n        /* \"#utility.yul\":6073:6082   */\n      dup3\n        /* \"#utility.yul\":6069:6087   */\n      add\n        /* \"#utility.yul\":6061:6087   */\n      swap1\n      pop\n        /* \"#utility.yul\":6097:6162   */\n      tag_238\n        /* \"#utility.yul\":6159:6160   */\n      0x00\n        /* \"#utility.yul\":6148:6157   */\n      dup4\n        /* \"#utility.yul\":6144:6161   */\n      add\n        /* \"#utility.yul\":6135:6141   */\n      dup5\n        /* \"#utility.yul\":6097:6162   */\n      tag_197\n      jump\t// in\n    tag_238:\n        /* \"#utility.yul\":5959:6169   */\n      swap3\n      swap2\n      pop\n      pop\n      jump\t// out\n        /* \"#utility.yul\":6175:6488   */\n    tag_27:\n        /* \"#utility.yul\":6288:6292   */\n      0x00\n        /* \"#utility.yul\":6326:6328   */\n      0x20\n        /* \"#utility.yul\":6315:6324   */\n      dup3\n        /* \"#utility.yul\":6311:6329   */\n      add\n        /* \"#utility.yul\":6303:6329   */\n      swap1\n      pop\n        /* \"#utility.yul\":6375:6384   */\n      dup2\n        /* \"#utility.yul\":6369:6373   */\n      dup2\n        /* \"#utility.yul\":6365:6385   */\n      sub\n        /* \"#utility.yul\":6361:6362   */\n      0x00\n        /* \"#utility.yul\":6350:6359   */\n      dup4\n        /* \"#utility.yul\":6346:6363   */\n      add\n        /* \"#utility.yul\":6339:6386   */\n      mstore\n        /* \"#utility.yul\":6403:6481   */\n      tag_240\n        /* \"#utility.yul\":6476:6480   */\n      dup2\n        /* \"#utility.yul\":6467:6473   */\n      dup5\n        /* \"#utility.yul\":6403:6481   */\n      tag_201\n      jump\t// in\n    tag_240:\n        /* \"#utility.yul\":6395:6481   */\n      swap1\n      pop\n        /* \"#utility.yul\":6175:6488   */\n      swap3\n      swap2\n      pop\n      pop\n      jump\t// out\n        /* \"#utility.yul\":6494:6913   */\n    tag_138:\n        /* \"#utility.yul\":6660:6664   */\n      0x00\n        /* \"#utility.yul\":6698:6700   */\n      0x20\n        /* \"#utility.yul\":6687:6696   */\n      dup3\n        /* \"#utility.yul\":6683:6701   */\n      add\n        /* \"#utility.yul\":6675:6701   */\n      swap1\n      pop\n        /* \"#utility.yul\":6747:6756   */\n      dup2\n        /* \"#utility.yul\":6741:6745   */\n      dup2\n        /* \"#utility.yul\":6737:6757   */\n      sub\n        /* \"#utility.yul\":6733:6734   */\n      0x00\n        /* \"#utility.yul\":6722:6731   */\n      dup4\n        /* \"#utility.yul\":6718:6735   */\n      add\n        /* \"#utility.yul\":6711:6758   */\n      mstore\n        /* \"#utility.yul\":6775:6906   */\n      tag_242\n        /* \"#utility.yul\":6901:6905   */\n      dup2\n        /* \"#utility.yul\":6775:6906   */\n      tag_211\n      jump\t// in\n    tag_242:\n        /* \"#utility.yul\":6767:6906   */\n      swap1\n      pop\n        /* \"#utility.yul\":6494:6913   */\n      swap2\n      swap1\n      pop\n      jump\t// out\n        /* \"#utility.yul\":6919:7338   */\n    tag_112:\n        /* \"#utility.yul\":7085:7089   */\n      0x00\n        /* \"#utility.yul\":7123:7125   */\n      0x20\n        /* \"#utility.yul\":7112:7121   */\n      dup3\n        /* \"#utility.yul\":7108:7126   */\n      add\n        /* \"#utility.yul\":7100:7126   */\n      swap1\n      pop\n        /* \"#utility.yul\":7172:7181   */\n      dup2\n        /* \"#utility.yul\":7166:7170   */\n      dup2\n        /* \"#utility.yul\":7162:7182   */\n      sub\n        /* \"#utility.yul\":7158:7159   */\n      0x00\n        /* \"#utility.yul\":7147:7156   */\n      dup4\n        /* \"#utility.yul\":7143:7160   */\n      add\n        /* \"#utility.yul\":7136:7183   */\n      mstore\n        /* \"#utility.yul\":7200:7331   */\n      tag_244\n        /* \"#utility.yul\":7326:7330   */\n      dup2\n        /* \"#utility.yul\":7200:7331   */\n      tag_216\n      jump\t// in\n    tag_244:\n        /* \"#utility.yul\":7192:7331   */\n      swap1\n      pop\n        /* \"#utility.yul\":6919:7338   */\n      swap2\n      swap1\n      pop\n      jump\t// out\n        /* \"#utility.yul\":7344:7763   */\n    tag_109:\n        /* \"#utility.yul\":7510:7514   */\n      0x00\n        /* \"#utility.yul\":7548:7550   */\n      0x20\n        /* \"#utility.yul\":7537:7546   */\n      dup3\n        /* \"#utility.yul\":7533:7551   */\n      add\n        /* \"#utility.yul\":7525:7551   */\n      swap1\n      pop\n        /* \"#utility.yul\":7597:7606   */\n      dup2\n        /* \"#utility.yul\":7591:7595   */\n      dup2\n        /* \"#utility.yul\":7587:7607   */\n      sub\n        /* \"#utility.yul\":7583:7584   */\n      0x00\n        /* \"#utility.yul\":7572:7581   */\n      dup4\n        /* \"#utility.yul\":7568:7585   */\n      add\n        /* \"#utility.yul\":7561:7608   */\n      mstore\n        /* \"#utility.yul\":7625:7756   */\n      tag_246\n        /* \"#utility.yul\":7751:7755   */\n      dup2\n        /* \"#utility.yul\":7625:7756   */\n      tag_221\n      jump\t// in\n    tag_246:\n        /* \"#utility.yul\":7617:7756   */\n      swap1\n      pop\n        /* \"#utility.yul\":7344:7763   */\n      swap2\n      swap1\n      pop\n      jump\t// out\n        /* \"#utility.yul\":7769:8188   */\n    tag_135:\n        /* \"#utility.yul\":7935:7939   */\n      0x00\n        /* \"#utility.yul\":7973:7975   */\n      0x20\n        /* \"#utility.yul\":7962:7971   */\n      dup3\n        /* \"#utility.yul\":7958:7976   */\n      add\n        /* \"#utility.yul\":7950:7976   */\n      swap1\n      pop\n        /* \"#utility.yul\":8022:8031   */\n      dup2\n        /* \"#utility.yul\":8016:8020   */\n      dup2\n        /* \"#utility.yul\":8012:8032   */\n      sub\n        /* \"#utility.yul\":8008:8009   */\n      0x00\n        /* \"#utility.yul\":7997:8006   */\n      dup4\n        /* \"#utility.yul\":7993:8010   */\n      add\n        /* \"#utility.yul\":7986:8033   */\n      mstore\n        /* \"#utility.yul\":8050:8181   */\n      tag_248\n        /* \"#utility.yul\":8176:8180   */\n      dup2\n        /* \"#utility.yul\":8050:8181   */\n      tag_226\n      jump\t// in\n    tag_248:\n        /* \"#utility.yul\":8042:8181   */\n      swap1\n      pop\n        /* \"#utility.yul\":7769:8188   */\n      swap2\n      swap1\n      pop\n      jump\t// out\n        /* \"#utility.yul\":8194:8416   */\n    tag_39:\n        /* \"#utility.yul\":8287:8291   */\n      0x00\n        /* \"#utility.yul\":8325:8327   */\n      0x20\n        /* \"#utility.yul\":8314:8323   */\n      dup3\n        /* \"#utility.yul\":8310:8328   */\n      add\n        /* \"#utility.yul\":8302:8328   */\n      swap1\n      pop\n        /* \"#utility.yul\":8338:8409   */\n      tag_250\n        /* \"#utility.yul\":8406:8407   */\n      0x00\n        /* \"#utility.yul\":8395:8404   */\n      dup4\n        /* \"#utility.yul\":8391:8408   */\n      add\n        /* \"#utility.yul\":8382:8388   */\n      dup5\n        /* \"#utility.yul\":8338:8409   */\n      tag_231\n      jump\t// in\n    tag_250:\n        /* \"#utility.yul\":8194:8416   */\n      swap3\n      swap2\n      pop\n      pop\n      jump\t// out\n        /* \"#utility.yul\":8422:8551   */\n    tag_145:\n        /* \"#utility.yul\":8456:8462   */\n      0x00\n        /* \"#utility.yul\":8483:8503   */\n      tag_252\n      tag_253\n      jump\t// in\n    tag_252:\n        /* \"#utility.yul\":8473:8503   */\n      swap1\n      pop\n        /* \"#utility.yul\":8512:8545   */\n      tag_254\n        /* \"#utility.yul\":8540:8544   */\n      dup3\n        /* \"#utility.yul\":8532:8538   */\n      dup3\n        /* \"#utility.yul\":8512:8545   */\n      tag_255\n      jump\t// in\n    tag_254:\n        /* \"#utility.yul\":8422:8551   */\n      swap2\n      swap1\n      pop\n      jump\t// out\n        /* \"#utility.yul\":8557:8632   */\n    tag_253:\n        /* \"#utility.yul\":8590:8596   */\n      0x00\n        /* \"#utility.yul\":8623:8625   */\n      0x40\n        /* \"#utility.yul\":8617:8626   */\n      mload\n        /* \"#utility.yul\":8607:8626   */\n      swap1\n      pop\n        /* \"#utility.yul\":8557:8632   */\n      swap1\n      jump\t// out\n        /* \"#utility.yul\":8638:8946   */\n    tag_144:\n        /* \"#utility.yul\":8700:8704   */\n      0x00\n        /* \"#utility.yul\":8790:8808   */\n      0xffffffffffffffff\n        /* \"#utility.yul\":8782:8788   */\n      dup3\n        /* \"#utility.yul\":8779:8809   */\n      gt\n        /* \"#utility.yul\":8776:8832   */\n      iszero\n      tag_258\n      jumpi\n        /* \"#utility.yul\":8812:8830   */\n      tag_259\n      tag_260\n      jump\t// in\n    tag_259:\n        /* \"#utility.yul\":8776:8832   */\n    tag_258:\n        /* \"#utility.yul\":8850:8879   */\n      tag_261\n        /* \"#utility.yul\":8872:8878   */\n      dup3\n        /* \"#utility.yul\":8850:8879   */\n      tag_210\n      jump\t// in\n    tag_261:\n        /* \"#utility.yul\":8842:8879   */\n      swap1\n      pop\n        /* \"#utility.yul\":8934:8938   */\n      0x20\n        /* \"#utility.yul\":8928:8932   */\n      dup2\n        /* \"#utility.yul\":8924:8939   */\n      add\n        /* \"#utility.yul\":8916:8939   */\n      swap1\n      pop\n        /* \"#utility.yul\":8638:8946   */\n      swap2\n      swap1\n      pop\n      jump\t// out\n        /* \"#utility.yul\":8952:9051   */\n    tag_204:\n        /* \"#utility.yul\":9004:9010   */\n      0x00\n        /* \"#utility.yul\":9038:9043   */\n      dup2\n        /* \"#utility.yul\":9032:9044   */\n      mload\n        /* \"#utility.yul\":9022:9044   */\n      swap1\n      pop\n        /* \"#utility.yul\":8952:9051   */\n      swap2\n      swap1\n      pop\n      jump\t// out\n        /* \"#utility.yul\":9057:9226   */\n    tag_206:\n        /* \"#utility.yul\":9141:9152   */\n      0x00\n        /* \"#utility.yul\":9175:9181   */\n      dup3\n        /* \"#utility.yul\":9170:9173   */\n      dup3\n        /* \"#utility.yul\":9163:9182   */\n      mstore\n        /* \"#utility.yul\":9215:9219   */\n      0x20\n        /* \"#utility.yul\":9210:9213   */\n      dup3\n        /* \"#utility.yul\":9206:9220   */\n      add\n        /* \"#utility.yul\":9191:9220   */\n      swap1\n      pop\n        /* \"#utility.yul\":9057:9226   */\n      swap3\n      swap2\n      pop\n      pop\n      jump\t// out\n        /* \"#utility.yul\":9232:9537   */\n    tag_118:\n        /* \"#utility.yul\":9272:9275   */\n      0x00\n        /* \"#utility.yul\":9291:9311   */\n      tag_265\n        /* \"#utility.yul\":9309:9310   */\n      dup3\n        /* \"#utility.yul\":9291:9311   */\n      tag_234\n      jump\t// in\n    tag_265:\n        /* \"#utility.yul\":9286:9311   */\n      swap2\n      pop\n        /* \"#utility.yul\":9325:9345   */\n      tag_266\n        /* \"#utility.yul\":9343:9344   */\n      dup4\n        /* \"#utility.yul\":9325:9345   */\n      tag_234\n      jump\t// in\n    tag_266:\n        /* \"#utility.yul\":9320:9345   */\n      swap3\n      pop\n        /* \"#utility.yul\":9479:9480   */\n      dup3\n        /* \"#utility.yul\":9411:9477   */\n      0xffffffffffffffffffffffffffffffffffffffffffffffffffffffffffffffff\n        /* \"#utility.yul\":9407:9481   */\n      sub\n        /* \"#utility.yul\":9404:9405   */\n      dup3\n        /* \"#utility.yul\":9401:9482   */\n      gt\n        /* \"#utility.yul\":9398:9505   */\n      iszero\n      tag_267\n      jumpi\n        /* \"#utility.yul\":9485:9503   */\n      tag_268\n      tag_269\n      jump\t// in\n    tag_268:\n        /* \"#utility.yul\":9398:9505   */\n    tag_267:\n        /* \"#utility.yul\":9529:9530   */\n      dup3\n        /* \"#utility.yul\":9526:9527   */\n      dup3\n        /* \"#utility.yul\":9522:9531   */\n      add\n        /* \"#utility.yul\":9515:9531   */\n      swap1\n      pop\n        /* \"#utility.yul\":9232:9537   */\n      swap3\n      swap2\n      pop\n      pop\n      jump\t// out\n        /* \"#utility.yul\":9543:9734   */\n    tag_115:\n        /* \"#utility.yul\":9583:9587   */\n      0x00\n        /* \"#utility.yul\":9603:9623   */\n      tag_271\n        /* \"#utility.yul\":9621:9622   */\n      dup3\n        /* \"#utility.yul\":9603:9623   */\n      tag_234\n      jump\t// in\n    tag_271:\n        /* \"#utility.yul\":9598:9623   */\n      swap2\n      pop\n        /* \"#utility.yul\":9637:9657   */\n      tag_272\n        /* \"#utility.yul\":9655:9656   */\n      dup4\n        /* \"#utility.yul\":9637:9657   */\n      tag_234\n      jump\t// in\n    tag_272:\n        /* \"#utility.yul\":9632:9657   */\n      swap3\n      pop\n        /* \"#utility.yul\":9676:9677   */\n      dup3\n        /* \"#utility.yul\":9673:9674   */\n      dup3\n        /* \"#utility.yul\":9670:9678   */\n      lt\n        /* \"#utility.yul\":9667:9701   */\n      iszero\n      tag_273\n      jumpi\n        /* \"#utility.yul\":9681:9699   */\n      tag_274\n      tag_269\n      jump\t// in\n    tag_274:\n        /* \"#utility.yul\":9667:9701   */\n    tag_273:\n        /* \"#utility.yul\":9726:9727   */\n      dup3\n        /* \"#utility.yul\":9723:9724   */\n      dup3\n        /* \"#utility.yul\":9719:9728   */\n      sub\n        /* \"#utility.yul\":9711:9728   */\n      swap1\n      pop\n        /* \"#utility.yul\":9543:9734   */\n      swap3\n      swap2\n      pop\n      pop\n      jump\t// out\n        /* \"#utility.yul\":9740:9836   */\n    tag_196:\n        /* \"#utility.yul\":9777:9784   */\n      0x00\n        /* \"#utility.yul\":9806:9830   */\n      tag_276\n        /* \"#utility.yul\":9824:9829   */\n      dup3\n        /* \"#utility.yul\":9806:9830   */\n      tag_277\n      jump\t// in\n    tag_276:\n        /* \"#utility.yul\":9795:9830   */\n      swap1\n      pop\n        /* \"#utility.yul\":9740:9836   */\n      swap2\n      swap1\n      pop\n      jump\t// out\n        /* \"#utility.yul\":9842:9932   */\n    tag_200:\n        /* \"#utility.yul\":9876:9883   */\n      0x00\n        /* \"#utility.yul\":9919:9924   */\n      dup2\n        /* \"#utility.yul\":9912:9925   */\n      iszero\n        /* \"#utility.yul\":9905:9926   */\n      iszero\n        /* \"#utility.yul\":9894:9926   */\n      swap1\n      pop\n        /* \"#utility.yul\":9842:9932   */\n      swap2\n      swap1\n      pop\n      jump\t// out\n        /* \"#utility.yul\":9938:10064   */\n    tag_277:\n        /* \"#utility.yul\":9975:9982   */\n      0x00\n        /* \"#utility.yul\":10015:10057   */\n      0xffffffffffffffffffffffffffffffffffffffff\n        /* \"#utility.yul\":10008:10013   */\n      dup3\n        /* \"#utility.yul\":10004:10058   */\n      and\n        /* \"#utility.yul\":9993:10058   */\n      swap1\n      pop\n        /* \"#utility.yul\":9938:10064   */\n      swap2\n      swap1\n      pop\n      jump\t// out\n        /* \"#utility.yul\":10070:10147   */\n    tag_234:\n        /* \"#utility.yul\":10107:10114   */\n      0x00\n        /* \"#utility.yul\":10136:10141   */\n      dup2\n        /* \"#utility.yul\":10125:10141   */\n      swap1\n      pop\n        /* \"#utility.yul\":10070:10147   */\n      swap2\n      swap1\n      pop\n      jump\t// out\n        /* \"#utility.yul\":10153:10307   */\n    tag_150:\n        /* \"#utility.yul\":10237:10243   */\n      dup3\n        /* \"#utility.yul\":10232:10235   */\n      dup2\n        /* \"#utility.yul\":10227:10230   */\n      dup4\n        /* \"#utility.yul\":10214:10244   */\n      calldatacopy\n        /* \"#utility.yul\":10299:10300   */\n      0x00\n        /* \"#utility.yul\":10290:10296   */\n      dup4\n        /* \"#utility.yul\":10285:10288   */\n      dup4\n        /* \"#utility.yul\":10281:10297   */\n      add\n        /* \"#utility.yul\":10274:10301   */\n      mstore\n        /* \"#utility.yul\":10153:10307   */\n      pop\n      pop\n      pop\n      jump\t// out\n        /* \"#utility.yul\":10313:10620   */\n    tag_208:\n        /* \"#utility.yul\":10381:10382   */\n      0x00\n        /* \"#utility.yul\":10391:10504   */\n    tag_283:\n        /* \"#utility.yul\":10405:10411   */\n      dup4\n        /* \"#utility.yul\":10402:10403   */\n      dup2\n        /* \"#utility.yul\":10399:10412   */\n      lt\n        /* \"#utility.yul\":10391:10504   */\n      iszero\n      tag_285\n      jumpi\n        /* \"#utility.yul\":10490:10491   */\n      dup1\n        /* \"#utility.yul\":10485:10488   */\n      dup3\n        /* \"#utility.yul\":10481:10492   */\n      add\n        /* \"#utility.yul\":10475:10493   */\n      mload\n        /* \"#utility.yul\":10471:10472   */\n      dup2\n        /* \"#utility.yul\":10466:10469   */\n      dup5\n        /* \"#utility.yul\":10462:10473   */\n      add\n        /* \"#utility.yul\":10455:10494   */\n      mstore\n        /* \"#utility.yul\":10427:10429   */\n      0x20\n        /* \"#utility.yul\":10424:10425   */\n      dup2\n        /* \"#utility.yul\":10420:10430   */\n      add\n        /* \"#utility.yul\":10415:10430   */\n      swap1\n      pop\n        /* \"#utility.yul\":10391:10504   */\n      jump(tag_283)\n    tag_285:\n        /* \"#utility.yul\":10522:10528   */\n      dup4\n        /* \"#utility.yul\":10519:10520   */\n      dup2\n        /* \"#utility.yul\":10516:10529   */\n      gt\n        /* \"#utility.yul\":10513:10614   */\n      iszero\n      tag_286\n      jumpi\n        /* \"#utility.yul\":10602:10603   */\n      0x00\n        /* \"#utility.yul\":10593:10599   */\n      dup5\n        /* \"#utility.yul\":10588:10591   */\n      dup5\n        /* \"#utility.yul\":10584:10600   */\n      add\n        /* \"#utility.yul\":10577:10604   */\n      mstore\n        /* \"#utility.yul\":10513:10614   */\n    tag_286:\n        /* \"#utility.yul\":10362:10620   */\n      pop\n        /* \"#utility.yul\":10313:10620   */\n      pop\n      pop\n      pop\n      jump\t// out\n        /* \"#utility.yul\":10626:10946   */\n    tag_97:\n        /* \"#utility.yul\":10670:10676   */\n      0x00\n        /* \"#utility.yul\":10707:10708   */\n      0x02\n        /* \"#utility.yul\":10701:10705   */\n      dup3\n        /* \"#utility.yul\":10697:10709   */\n      div\n        /* \"#utility.yul\":10687:10709   */\n      swap1\n      pop\n        /* \"#utility.yul\":10754:10755   */\n      0x01\n        /* \"#utility.yul\":10748:10752   */\n      dup3\n        /* \"#utility.yul\":10744:10756   */\n      and\n        /* \"#utility.yul\":10775:10793   */\n      dup1\n        /* \"#utility.yul\":10765:10846   */\n      tag_288\n      jumpi\n        /* \"#utility.yul\":10831:10835   */\n      0x7f\n        /* \"#utility.yul\":10823:10829   */\n      dup3\n        /* \"#utility.yul\":10819:10836   */\n      and\n        /* \"#utility.yul\":10809:10836   */\n      swap2\n      pop\n        /* \"#utility.yul\":10765:10846   */\n    tag_288:\n        /* \"#utility.yul\":10893:10895   */\n      0x20\n        /* \"#utility.yul\":10885:10891   */\n      dup3\n        /* \"#utility.yul\":10882:10896   */\n      lt\n        /* \"#utility.yul\":10862:10880   */\n      dup2\n        /* \"#utility.yul\":10859:10897   */\n      eq\n        /* \"#utility.yul\":10856:10940   */\n      iszero\n      tag_289\n      jumpi\n        /* \"#utility.yul\":10912:10930   */\n      tag_290\n      tag_291\n      jump\t// in\n    tag_290:\n        /* \"#utility.yul\":10856:10940   */\n    tag_289:\n        /* \"#utility.yul\":10677:10946   */\n      pop\n        /* \"#utility.yul\":10626:10946   */\n      swap2\n      swap1\n      pop\n      jump\t// out\n        /* \"#utility.yul\":10952:11233   */\n    tag_255:\n        /* \"#utility.yul\":11035:11062   */\n      tag_293\n        /* \"#utility.yul\":11057:11061   */\n      dup3\n        /* \"#utility.yul\":11035:11062   */\n      tag_210\n      jump\t// in\n    tag_293:\n        /* \"#utility.yul\":11027:11033   */\n      dup2\n        /* \"#utility.yul\":11023:11063   */\n      add\n        /* \"#utility.yul\":11165:11171   */\n      dup2\n        /* \"#utility.yul\":11153:11163   */\n      dup2\n        /* \"#utility.yul\":11150:11172   */\n      lt\n        /* \"#utility.yul\":11129:11147   */\n      0xffffffffffffffff\n        /* \"#utility.yul\":11117:11127   */\n      dup3\n        /* \"#utility.yul\":11114:11148   */\n      gt\n        /* \"#utility.yul\":11111:11173   */\n      or\n        /* \"#utility.yul\":11108:11196   */\n      iszero\n      tag_294\n      jumpi\n        /* \"#utility.yul\":11176:11194   */\n      tag_295\n      tag_260\n      jump\t// in\n    tag_295:\n        /* \"#utility.yul\":11108:11196   */\n    tag_294:\n        /* \"#utility.yul\":11216:11226   */\n      dup1\n        /* \"#utility.yul\":11212:11214   */\n      0x40\n        /* \"#utility.yul\":11205:11227   */\n      mstore\n        /* \"#utility.yul\":10995:11233   */\n      pop\n        /* \"#utility.yul\":10952:11233   */\n      pop\n      pop\n      jump\t// out\n        /* \"#utility.yul\":11239:11419   */\n    tag_269:\n        /* \"#utility.yul\":11287:11364   */\n      0x4e487b7100000000000000000000000000000000000000000000000000000000\n        /* \"#utility.yul\":11284:11285   */\n      0x00\n        /* \"#utility.yul\":11277:11365   */\n      mstore\n        /* \"#utility.yul\":11384:11388   */\n      0x11\n        /* \"#utility.yul\":11381:11382   */\n      0x04\n        /* \"#utility.yul\":11374:11389   */\n      mstore\n        /* \"#utility.yul\":11408:11412   */\n      0x24\n        /* \"#utility.yul\":11405:11406   */\n      0x00\n        /* \"#utility.yul\":11398:11413   */\n      revert\n        /* \"#utility.yul\":11425:11605   */\n    tag_291:\n        /* \"#utility.yul\":11473:11550   */\n      0x4e487b7100000000000000000000000000000000000000000000000000000000\n        /* \"#utility.yul\":11470:11471   */\n      0x00\n        /* \"#utility.yul\":11463:11551   */\n      mstore\n        /* \"#utility.yul\":11570:11574   */\n      0x22\n        /* \"#utility.yul\":11567:11568   */\n      0x04\n        /* \"#utility.yul\":11560:11575   */\n      mstore\n        /* \"#utility.yul\":11594:11598   */\n      0x24\n        /* \"#utility.yul\":11591:11592   */\n      0x00\n        /* \"#utility.yul\":11584:11599   */\n      revert\n        /* \"#utility.yul\":11611:11791   */\n    tag_260:\n        /* \"#utility.yul\":11659:11736   */\n      0x4e487b7100000000000000000000000000000000000000000000000000000000\n        /* \"#utility.yul\":11656:11657   */\n      0x00\n        /* \"#utility.yul\":11649:11737   */\n      mstore\n        /* \"#utility.yul\":11756:11760   */\n      0x41\n        /* \"#utility.yul\":11753:11754   */\n      0x04\n        /* \"#utility.yul\":11746:11761   */\n      mstore\n        /* \"#utility.yul\":11780:11784   */\n      0x24\n        /* \"#utility.yul\":11777:11778   */\n      0x00\n        /* \"#utility.yul\":11770:11785   */\n      revert\n        /* \"#utility.yul\":11797:11914   */\n    tag_159:\n        /* \"#utility.yul\":11906:11907   */\n      0x00\n        /* \"#utility.yul\":11903:11904   */\n      dup1\n        /* \"#utility.yul\":11896:11908   */\n      revert\n        /* \"#utility.yul\":11920:12037   */\n    tag_148:\n        /* \"#utility.yul\":12029:12030   */\n      0x00\n        /* \"#utility.yul\":12026:12027   */\n      dup1\n        /* \"#utility.yul\":12019:12031   */\n      revert\n        /* \"#utility.yul\":12043:12160   */\n    tag_191:\n        /* \"#utility.yul\":12152:12153   */\n      0x00\n        /* \"#utility.yul\":12149:12150   */\n      dup1\n        /* \"#utility.yul\":12142:12154   */\n      revert\n        /* \"#utility.yul\":12166:12283   */\n    tag_168:\n        /* \"#utility.yul\":12275:12276   */\n      0x00\n        /* \"#utility.yul\":12272:12273   */\n      dup1\n        /* \"#utility.yul\":12265:12277   */\n      revert\n        /* \"#utility.yul\":12289:12391   */\n    tag_210:\n        /* \"#utility.yul\":12330:12336   */\n      0x00\n        /* \"#utility.yul\":12381:12383   */\n      0x1f\n        /* \"#utility.yul\":12377:12384   */\n      not\n        /* \"#utility.yul\":12372:12374   */\n      0x1f\n        /* \"#utility.yul\":12365:12370   */\n      dup4\n        /* \"#utility.yul\":12361:12375   */\n      add\n        /* \"#utility.yul\":12357:12385   */\n      and\n        /* \"#utility.yul\":12347:12385   */\n      swap1\n      pop\n        /* \"#utility.yul\":12289:12391   */\n      swap2\n      swap1\n      pop\n      jump\t// out\n        /* \"#utility.yul\":12397:12618   */\n    tag_215:\n        /* \"#utility.yul\":12537:12571   */\n      0x546865206164647265737320697320616c726561647920626c61636b6c697374\n        /* \"#utility.yul\":12533:12534   */\n      0x00\n        /* \"#utility.yul\":12525:12531   */\n      dup3\n        /* \"#utility.yul\":12521:12535   */\n      add\n        /* \"#utility.yul\":12514:12572   */\n      mstore\n        /* \"#utility.yul\":12606:12610   */\n      0x6564000000000000000000000000000000000000000000000000000000000000\n        /* \"#utility.yul\":12601:12603   */\n      0x20\n        /* \"#utility.yul\":12593:12599   */\n      dup3\n        /* \"#utility.yul\":12589:12604   */\n      add\n        /* \"#utility.yul\":12582:12611   */\n      mstore\n        /* \"#utility.yul\":12397:12618   */\n      pop\n      jump\t// out\n        /* \"#utility.yul\":12624:12846   */\n    tag_220:\n        /* \"#utility.yul\":12764:12798   */\n      0x5468652061646472657373206973206e6f7420696e2074686520626c61636b6c\n        /* \"#utility.yul\":12760:12761   */\n      0x00\n        /* \"#utility.yul\":12752:12758   */\n      dup3\n        /* \"#utility.yul\":12748:12762   */\n      add\n        /* \"#utility.yul\":12741:12799   */\n      mstore\n        /* \"#utility.yul\":12833:12838   */\n      0x6973740000000000000000000000000000000000000000000000000000000000\n        /* \"#utility.yul\":12828:12830   */\n      0x20\n        /* \"#utility.yul\":12820:12826   */\n      dup3\n        /* \"#utility.yul\":12816:12831   */\n      add\n        /* \"#utility.yul\":12809:12839   */\n      mstore\n        /* \"#utility.yul\":12624:12846   */\n      pop\n      jump\t// out\n        /* \"#utility.yul\":12852:13083   */\n    tag_225:\n        /* \"#utility.yul\":12992:13026   */\n      0x4f6e6c7920746865206f776e65722063616e2072656d6f76652066726f6d2074\n        /* \"#utility.yul\":12988:12989   */\n      0x00\n        /* \"#utility.yul\":12980:12986   */\n      dup3\n        /* \"#utility.yul\":12976:12990   */\n      add\n        /* \"#utility.yul\":12969:13027   */\n      mstore\n        /* \"#utility.yul\":13061:13075   */\n      0x686520626c61636b6c6973740000000000000000000000000000000000000000\n        /* \"#utility.yul\":13056:13058   */\n      0x20\n        /* \"#utility.yul\":13048:13054   */\n      dup3\n        /* \"#utility.yul\":13044:13059   */\n      add\n        /* \"#utility.yul\":13037:13076   */\n      mstore\n        /* \"#utility.yul\":12852:13083   */\n      pop\n      jump\t// out\n        /* \"#utility.yul\":13089:13315   */\n    tag_230:\n        /* \"#utility.yul\":13229:13263   */\n      0x4f6e6c7920746865206f776e65722063616e2061646420746f2074686520626c\n        /* \"#utility.yul\":13225:13226   */\n      0x00\n        /* \"#utility.yul\":13217:13223   */\n      dup3\n        /* \"#utility.yul\":13213:13227   */\n      add\n        /* \"#utility.yul\":13206:13264   */\n      mstore\n        /* \"#utility.yul\":13298:13307   */\n      0x61636b6c69737400000000000000000000000000000000000000000000000000\n        /* \"#utility.yul\":13293:13295   */\n      0x20\n        /* \"#utility.yul\":13285:13291   */\n      dup3\n        /* \"#utility.yul\":13281:13296   */\n      add\n        /* \"#utility.yul\":13274:13308   */\n      mstore\n        /* \"#utility.yul\":13089:13315   */\n      pop\n      jump\t// out\n        /* \"#utility.yul\":13321:13443   */\n    tag_154:\n        /* \"#utility.yul\":13394:13418   */\n      tag_309\n        /* \"#utility.yul\":13412:13417   */\n      dup2\n        /* \"#utility.yul\":13394:13418   */\n      tag_196\n      jump\t// in\n    tag_309:\n        /* \"#utility.yul\":13387:13392   */\n      dup2\n        /* \"#utility.yul\":13384:13419   */\n      eq\n        /* \"#utility.yul\":13374:13437   */\n      tag_310\n      jumpi\n        /* \"#utility.yul\":13433:13434   */\n      0x00\n        /* \"#utility.yul\":13430:13431   */\n      dup1\n        /* \"#utility.yul\":13423:13435   */\n      revert\n        /* \"#utility.yul\":13374:13437   */\n    tag_310:\n        /* \"#utility.yul\":13321:13443   */\n      pop\n      jump\t// out\n        /* \"#utility.yul\":13449:13571   */\n    tag_164:\n        /* \"#utility.yul\":13522:13546   */\n      tag_312\n        /* \"#utility.yul\":13540:13545   */\n      dup2\n        /* \"#utility.yul\":13522:13546   */\n      tag_234\n      jump\t// in\n    tag_312:\n        /* \"#utility.yul\":13515:13520   */\n      dup2\n        /* \"#utility.yul\":13512:13547   */\n      eq\n        /* \"#utility.yul\":13502:13565   */\n      tag_313\n      jumpi\n        /* \"#utility.yul\":13561:13562   */\n      0x00\n        /* \"#utility.yul\":13558:13559   */\n      dup1\n        /* \"#utility.yul\":13551:13563   */\n      revert\n        /* \"#utility.yul\":13502:13565   */\n    tag_313:\n        /* \"#utility.yul\":13449:13571   */\n      pop\n      jump\t// out\n\n    auxdata: 0xa26469706673582212209225170ea4478dc56f6690a800235e57102eb3743be15a262bfdeab9ec4d269c64736f6c63430008070033\n}\n",
				"bytecode": {
					"linkReferences": {},
					"object": "608060405269d3c21bcecceda10000006000556040518060400160405280600581526020017f4b617a6168000000000000000000000000000000000000000000000000000000815250600590805190602001906200005f92919062000108565b506040518060400160405280600281526020017f4b5a00000000000000000000000000000000000000000000000000000000000081525060069080519060200190620000ad92919062000108565b506012600755348015620000c057600080fd5b5033600460006101000a81548173ffffffffffffffffffffffffffffffffffffffff021916908373ffffffffffffffffffffffffffffffffffffffff1602179055506200021d565b8280546200011690620001b8565b90600052602060002090601f0160209004810192826200013a576000855562000186565b82601f106200015557805160ff191683800117855562000186565b8280016001018555821562000186579182015b828111156200018557825182559160200191906001019062000168565b5b50905062000195919062000199565b5090565b5b80821115620001b45760008160009055506001016200019a565b5090565b60006002820490506001821680620001d157607f821691505b60208210811415620001e857620001e7620001ee565b5b50919050565b7f4e487b7100000000000000000000000000000000000000000000000000000000600052602260045260246000fd5b61156d806200022d6000396000f3fe608060405234801561001057600080fd5b50600436106101165760003560e01c80634838d165116100a257806395d89b411161007157806395d89b411461030b578063a9059cbb14610329578063c47f002714610359578063dbad491a14610375578063dd62ed3e146103a557610116565b80634838d1651461026f5780634b133e771461029f57806373688914146102cf57806376809ce3146102ed57610116565b806320188d72116100e957806320188d7214610191578063217cb89a146101c157806323b872dd146101df578063244e0c871461020f57806332e2d3671461023f57610116565b806306fdde031461011b578063095ea7b3146101395780631249c58b1461016957806318160ddd14610173575b600080fd5b6101236103d5565b6040516101309190611075565b60405180910390f35b610153600480360381019061014e9190610ec4565b610463565b604051610160919061105a565b60405180910390f35b610171610555565b005b61017b6105a4565b6040516101889190611117565b60405180910390f35b6101ab60048036038101906101a69190610e04565b6105ad565b6040516101b8919061105a565b60405180910390f35b6101c961072c565b6040516101d69190611117565b60405180910390f35b6101f960048036038101906101f49190610e71565b610732565b604051610206919061105a565b60405180910390f35b61022960048036038101906102249190610e04565b6108e3565b6040516102369190611117565b60405180910390f35b61025960048036038101906102549190610e04565b61092c565b6040516102669190611117565b60405180910390f35b61028960048036038101906102849190610e04565b610944565b604051610296919061105a565b60405180910390f35b6102b960048036038101906102b49190610e31565b610964565b6040516102c69190611117565b60405180910390f35b6102d76109eb565b6040516102e4919061103f565b60405180910390f35b6102f5610a11565b6040516103029190611117565b60405180910390f35b610313610a17565b6040516103209190611075565b60405180910390f35b610343600480360381019061033e9190610ec4565b610aa5565b604051610350919061105a565b60405180910390f35b610373600480360381019061036e9190610f04565b610bc2565b005b61038f600480360381019061038a9190610e04565b610bc5565b60405161039c919061105a565b60405180910390f35b6103bf60048036038101906103ba9190610e31565b610d45565b6040516103cc9190611117565b60405180910390f35b600580546103e2906112b8565b80601f016020809104026020016040519081016040528092919081815260200182805461040e906112b8565b801561045b5780601f106104305761010080835404028352916020019161045b565b820191906000526020600020905b81548152906001019060200180831161043e57829003601f168201915b505050505081565b600081600260003373ffffffffffffffffffffffffffffffffffffffff1673ffffffffffffffffffffffffffffffffffffffff16815260200190815260200160002060008573ffffffffffffffffffffffffffffffffffffffff1673ffffffffffffffffffffffffffffffffffffffff168152602001908152602001600020819055508273ffffffffffffffffffffffffffffffffffffffff163373ffffffffffffffffffffffffffffffffffffffff167f6e11fb1b7f119e3f2fa29896ef5fdf8b8a2d0d4df6fe90ba8668e7d8b2ffa25e846040516105439190611117565b60405180910390a36001905092915050565b681b1ae4d6e2ef500000600160003373ffffffffffffffffffffffffffffffffffffffff1673ffffffffffffffffffffffffffffffffffffffff16815260200190815260200160002081905550565b60008054905090565b60003373ffffffffffffffffffffffffffffffffffffffff16600460009054906101000a900473ffffffffffffffffffffffffffffffffffffffff1673ffffffffffffffffffffffffffffffffffffffff161461063f576040517f08c379a0000000000000000000000000000000000000000000000000000000008152600401610636906110d7565b60405180910390fd5b600360008373ffffffffffffffffffffffffffffffffffffffff1673ffffffffffffffffffffffffffffffffffffffff16815260200190815260200160002060009054906101000a900460ff166106cb576040517f08c379a00000000000000000000000000000000000000000000000000000000081526004016106c2906110b7565b60405180910390fd5b6000600360008473ffffffffffffffffffffffffffffffffffffffff1673ffffffffffffffffffffffffffffffffffffffff16815260200190815260200160002060006101000a81548160ff02191690831515021790555060019050919050565b60005481565b600081600260008673ffffffffffffffffffffffffffffffffffffffff1673ffffffffffffffffffffffffffffffffffffffff16815260200190815260200160002060008573ffffffffffffffffffffffffffffffffffffffff1673ffffffffffffffffffffffffffffffffffffffff16815260200190815260200160002060008282546107c091906111fa565b9250508190555081600160008673ffffffffffffffffffffffffffffffffffffffff1673ffffffffffffffffffffffffffffffffffffffff168152602001908152602001600020600082825461081691906111fa565b9250508190555081600160008573ffffffffffffffffffffffffffffffffffffffff1673ffffffffffffffffffffffffffffffffffffffff168152602001908152602001600020600082825461086c91906111a4565b925050819055508273ffffffffffffffffffffffffffffffffffffffff168473ffffffffffffffffffffffffffffffffffffffff167fddf252ad1be2c89b69c2b068fc378daa952ba7f163c4a11628f55a4df523b3ef846040516108d09190611117565b60405180910390a3600190509392505050565b6000600160008373ffffffffffffffffffffffffffffffffffffffff1673ffffffffffffffffffffffffffffffffffffffff168152602001908152602001600020549050919050565b60016020528060005260406000206000915090505481565b60036020528060005260406000206000915054906101000a900460ff1681565b6000600260008473ffffffffffffffffffffffffffffffffffffffff1673ffffffffffffffffffffffffffffffffffffffff16815260200190815260200160002060008373ffffffffffffffffffffffffffffffffffffffff1673ffffffffffffffffffffffffffffffffffffffff16815260200190815260200160002054905092915050565b600460009054906101000a900473ffffffffffffffffffffffffffffffffffffffff1681565b60075481565b60068054610a24906112b8565b80601f0160208091040260200160405190810160405280929190818152602001828054610a50906112b8565b8015610a9d5780601f10610a7257610100808354040283529160200191610a9d565b820191906000526020600020905b815481529060010190602001808311610a8057829003601f168201915b505050505081565b600081600160003373ffffffffffffffffffffffffffffffffffffffff1673ffffffffffffffffffffffffffffffffffffffff1681526020019081526020016000206000828254610af691906111fa565b9250508190555081600160008573ffffffffffffffffffffffffffffffffffffffff1673ffffffffffffffffffffffffffffffffffffffff1681526020019081526020016000206000828254610b4c91906111a4565b925050819055508273ffffffffffffffffffffffffffffffffffffffff163373ffffffffffffffffffffffffffffffffffffffff167fddf252ad1be2c89b69c2b068fc378daa952ba7f163c4a11628f55a4df523b3ef84604051610bb09190611117565b60405180910390a36001905092915050565b50565b60003373ffffffffffffffffffffffffffffffffffffffff16600460009054906101000a900473ffffffffffffffffffffffffffffffffffffffff1673ffffffffffffffffffffffffffffffffffffffff1614610c57576040517f08c379a0000000000000000000000000000000000000000000000000000000008152600401610c4e906110f7565b60405180910390fd5b600360008373ffffffffffffffffffffffffffffffffffffffff1673ffffffffffffffffffffffffffffffffffffffff16815260200190815260200160002060009054906101000a900460ff1615610ce4576040517f08c379a0000000000000000000000000000000000000000000000000000000008152600401610cdb90611097565b60405180910390fd5b6001600360008473ffffffffffffffffffffffffffffffffffffffff1673ffffffffffffffffffffffffffffffffffffffff16815260200190815260200160002060006101000a81548160ff02191690831515021790555060019050919050565b6002602052816000526040600020602052806000526040600020600091509150505481565b6000610d7d610d7884611157565b611132565b905082815260208101848484011115610d9957610d986113ad565b5b610da4848285611276565b509392505050565b600081359050610dbb81611509565b92915050565b600082601f830112610dd657610dd56113a8565b5b8135610de6848260208601610d6a565b91505092915050565b600081359050610dfe81611520565b92915050565b600060208284031215610e1a57610e196113b7565b5b6000610e2884828501610dac565b91505092915050565b60008060408385031215610e4857610e476113b7565b5b6000610e5685828601610dac565b9250506020610e6785828601610dac565b9150509250929050565b600080600060608486031215610e8a57610e896113b7565b5b6000610e9886828701610dac565b9350506020610ea986828701610dac565b9250506040610eba86828701610def565b9150509250925092565b60008060408385031215610edb57610eda6113b7565b5b6000610ee985828601610dac565b9250506020610efa85828601610def565b9150509250929050565b600060208284031215610f1a57610f196113b7565b5b600082013567ffffffffffffffff811115610f3857610f376113b2565b5b610f4484828501610dc1565b91505092915050565b610f568161122e565b82525050565b610f6581611240565b82525050565b6000610f7682611188565b610f808185611193565b9350610f90818560208601611285565b610f99816113bc565b840191505092915050565b6000610fb1602283611193565b9150610fbc826113cd565b604082019050919050565b6000610fd4602383611193565b9150610fdf8261141c565b604082019050919050565b6000610ff7602c83611193565b91506110028261146b565b604082019050919050565b600061101a602783611193565b9150611025826114ba565b604082019050919050565b6110398161126c565b82525050565b60006020820190506110546000830184610f4d565b92915050565b600060208201905061106f6000830184610f5c565b92915050565b6000602082019050818103600083015261108f8184610f6b565b905092915050565b600060208201905081810360008301526110b081610fa4565b9050919050565b600060208201905081810360008301526110d081610fc7565b9050919050565b600060208201905081810360008301526110f081610fea565b9050919050565b600060208201905081810360008301526111108161100d565b9050919050565b600060208201905061112c6000830184611030565b92915050565b600061113c61114d565b905061114882826112ea565b919050565b6000604051905090565b600067ffffffffffffffff82111561117257611171611379565b5b61117b826113bc565b9050602081019050919050565b600081519050919050565b600082825260208201905092915050565b60006111af8261126c565b91506111ba8361126c565b9250827fffffffffffffffffffffffffffffffffffffffffffffffffffffffffffffffff038211156111ef576111ee61131b565b5b828201905092915050565b60006112058261126c565b91506112108361126c565b9250828210156112235761122261131b565b5b828203905092915050565b60006112398261124c565b9050919050565b60008115159050919050565b600073ffffffffffffffffffffffffffffffffffffffff82169050919050565b6000819050919050565b82818337600083830152505050565b60005b838110156112a3578082015181840152602081019050611288565b838111156112b2576000848401525b50505050565b600060028204905060018216806112d057607f821691505b602082108114156112e4576112e361134a565b5b50919050565b6112f3826113bc565b810181811067ffffffffffffffff8211171561131257611311611379565b5b80604052505050565b7f4e487b7100000000000000000000000000000000000000000000000000000000600052601160045260246000fd5b7f4e487b7100000000000000000000000000000000000000000000000000000000600052602260045260246000fd5b7f4e487b7100000000000000000000000000000000000000000000000000000000600052604160045260246000fd5b600080fd5b600080fd5b600080fd5b600080fd5b6000601f19601f8301169050919050565b7f546865206164647265737320697320616c726561647920626c61636b6c69737460008201527f6564000000000000000000000000000000000000000000000000000000000000602082015250565b7f5468652061646472657373206973206e6f7420696e2074686520626c61636b6c60008201527f6973740000000000000000000000000000000000000000000000000000000000602082015250565b7f4f6e6c7920746865206f776e65722063616e2072656d6f76652066726f6d207460008201527f686520626c61636b6c6973740000000000000000000000000000000000000000602082015250565b7f4f6e6c7920746865206f776e65722063616e2061646420746f2074686520626c60008201527f61636b6c69737400000000000000000000000000000000000000000000000000602082015250565b6115128161122e565b811461151d57600080fd5b50565b6115298161126c565b811461153457600080fd5b5056fea26469706673582212209225170ea4478dc56f6690a800235e57102eb3743be15a262bfdeab9ec4d269c64736f6c63430008070033",
					"opcodes": "PUSH1 0x80 PUSH1 0x40 MSTORE PUSH10 0xD3C21BCECCEDA1000000 PUSH1 0x0 SSTORE PUSH1 0x40 MLOAD DUP1 PUSH1 0x40 ADD PUSH1 0x40 MSTORE DUP1 PUSH1 0x5 DUP2 MSTORE PUSH1 0x20 ADD PUSH32 0x4B617A6168000000000000000000000000000000000000000000000000000000 DUP2 MSTORE POP PUSH1 0x5 SWAP1 DUP1 MLOAD SWAP1 PUSH1 0x20 ADD SWAP1 PUSH3 0x5F SWAP3 SWAP2 SWAP1 PUSH3 0x108 JUMP JUMPDEST POP PUSH1 0x40 MLOAD DUP1 PUSH1 0x40 ADD PUSH1 0x40 MSTORE DUP1 PUSH1 0x2 DUP2 MSTORE PUSH1 0x20 ADD PUSH32 0x4B5A000000000000000000000000000000000000000000000000000000000000 DUP2 MSTORE POP PUSH1 0x6 SWAP1 DUP1 MLOAD SWAP1 PUSH1 0x20 ADD SWAP1 PUSH3 0xAD SWAP3 SWAP2 SWAP1 PUSH3 0x108 JUMP JUMPDEST POP PUSH1 0x12 PUSH1 0x7 SSTORE CALLVALUE DUP1 ISZERO PUSH3 0xC0 JUMPI PUSH1 0x0 DUP1 REVERT JUMPDEST POP CALLER PUSH1 0x4 PUSH1 0x0 PUSH2 0x100 EXP DUP2 SLOAD DUP2 PUSH20 0xFFFFFFFFFFFFFFFFFFFFFFFFFFFFFFFFFFFFFFFF MUL NOT AND SWAP1 DUP4 PUSH20 0xFFFFFFFFFFFFFFFFFFFFFFFFFFFFFFFFFFFFFFFF AND MUL OR SWAP1 SSTORE POP PUSH3 0x21D JUMP JUMPDEST DUP3 DUP1 SLOAD PUSH3 0x116 SWAP1 PUSH3 0x1B8 JUMP JUMPDEST SWAP1 PUSH1 0x0 MSTORE PUSH1 0x20 PUSH1 0x0 KECCAK256 SWAP1 PUSH1 0x1F ADD PUSH1 0x20 SWAP1 DIV DUP2 ADD SWAP3 DUP3 PUSH3 0x13A JUMPI PUSH1 0x0 DUP6 SSTORE PUSH3 0x186 JUMP JUMPDEST DUP3 PUSH1 0x1F LT PUSH3 0x155 JUMPI DUP1 MLOAD PUSH1 0xFF NOT AND DUP4 DUP1 ADD OR DUP6 SSTORE PUSH3 0x186 JUMP JUMPDEST DUP3 DUP1 ADD PUSH1 0x1 ADD DUP6 SSTORE DUP3 ISZERO PUSH3 0x186 JUMPI SWAP2 DUP3 ADD JUMPDEST DUP3 DUP2 GT ISZERO PUSH3 0x185 JUMPI DUP3 MLOAD DUP3 SSTORE SWAP2 PUSH1 0x20 ADD SWAP2 SWAP1 PUSH1 0x1 ADD SWAP1 PUSH3 0x168 JUMP JUMPDEST JUMPDEST POP SWAP1 POP PUSH3 0x195 SWAP2 SWAP1 PUSH3 0x199 JUMP JUMPDEST POP SWAP1 JUMP JUMPDEST JUMPDEST DUP1 DUP3 GT ISZERO PUSH3 0x1B4 JUMPI PUSH1 0x0 DUP2 PUSH1 0x0 SWAP1 SSTORE POP PUSH1 0x1 ADD PUSH3 0x19A JUMP JUMPDEST POP SWAP1 JUMP JUMPDEST PUSH1 0x0 PUSH1 0x2 DUP3 DIV SWAP1 POP PUSH1 0x1 DUP3 AND DUP1 PUSH3 0x1D1 JUMPI PUSH1 0x7F DUP3 AND SWAP2 POP JUMPDEST PUSH1 0x20 DUP3 LT DUP2 EQ ISZERO PUSH3 0x1E8 JUMPI PUSH3 0x1E7 PUSH3 0x1EE JUMP JUMPDEST JUMPDEST POP SWAP2 SWAP1 POP JUMP JUMPDEST PUSH32 0x4E487B7100000000000000000000000000000000000000000000000000000000 PUSH1 0x0 MSTORE PUSH1 0x22 PUSH1 0x4 MSTORE PUSH1 0x24 PUSH1 0x0 REVERT JUMPDEST PUSH2 0x156D DUP1 PUSH3 0x22D PUSH1 0x0 CODECOPY PUSH1 0x0 RETURN INVALID PUSH1 0x80 PUSH1 0x40 MSTORE CALLVALUE DUP1 ISZERO PUSH2 0x10 JUMPI PUSH1 0x0 DUP1 REVERT JUMPDEST POP PUSH1 0x4 CALLDATASIZE LT PUSH2 0x116 JUMPI PUSH1 0x0 CALLDATALOAD PUSH1 0xE0 SHR DUP1 PUSH4 0x4838D165 GT PUSH2 0xA2 JUMPI DUP1 PUSH4 0x95D89B41 GT PUSH2 0x71 JUMPI DUP1 PUSH4 0x95D89B41 EQ PUSH2 0x30B JUMPI DUP1 PUSH4 0xA9059CBB EQ PUSH2 0x329 JUMPI DUP1 PUSH4 0xC47F0027 EQ PUSH2 0x359 JUMPI DUP1 PUSH4 0xDBAD491A EQ PUSH2 0x375 JUMPI DUP1 PUSH4 0xDD62ED3E EQ PUSH2 0x3A5 JUMPI PUSH2 0x116 JUMP JUMPDEST DUP1 PUSH4 0x4838D165 EQ PUSH2 0x26F JUMPI DUP1 PUSH4 0x4B133E77 EQ PUSH2 0x29F JUMPI DUP1 PUSH4 0x73688914 EQ PUSH2 0x2CF JUMPI DUP1 PUSH4 0x76809CE3 EQ PUSH2 0x2ED JUMPI PUSH2 0x116 JUMP JUMPDEST DUP1 PUSH4 0x20188D72 GT PUSH2 0xE9 JUMPI DUP1 PUSH4 0x20188D72 EQ PUSH2 0x191 JUMPI DUP1 PUSH4 0x217CB89A EQ PUSH2 0x1C1 JUMPI DUP1 PUSH4 0x23B872DD EQ PUSH2 0x1DF JUMPI DUP1 PUSH4 0x244E0C87 EQ PUSH2 0x20F JUMPI DUP1 PUSH4 0x32E2D367 EQ PUSH2 0x23F JUMPI PUSH2 0x116 JUMP JUMPDEST DUP1 PUSH4 0x6FDDE03 EQ PUSH2 0x11B JUMPI DUP1 PUSH4 0x95EA7B3 EQ PUSH2 0x139 JUMPI DUP1 PUSH4 0x1249C58B EQ PUSH2 0x169 JUMPI DUP1 PUSH4 0x18160DDD EQ PUSH2 0x173 JUMPI JUMPDEST PUSH1 0x0 DUP1 REVERT JUMPDEST PUSH2 0x123 PUSH2 0x3D5 JUMP JUMPDEST PUSH1 0x40 MLOAD PUSH2 0x130 SWAP2 SWAP1 PUSH2 0x1075 JUMP JUMPDEST PUSH1 0x40 MLOAD DUP1 SWAP2 SUB SWAP1 RETURN JUMPDEST PUSH2 0x153 PUSH1 0x4 DUP1 CALLDATASIZE SUB DUP2 ADD SWAP1 PUSH2 0x14E SWAP2 SWAP1 PUSH2 0xEC4 JUMP JUMPDEST PUSH2 0x463 JUMP JUMPDEST PUSH1 0x40 MLOAD PUSH2 0x160 SWAP2 SWAP1 PUSH2 0x105A JUMP JUMPDEST PUSH1 0x40 MLOAD DUP1 SWAP2 SUB SWAP1 RETURN JUMPDEST PUSH2 0x171 PUSH2 0x555 JUMP JUMPDEST STOP JUMPDEST PUSH2 0x17B PUSH2 0x5A4 JUMP JUMPDEST PUSH1 0x40 MLOAD PUSH2 0x188 SWAP2 SWAP1 PUSH2 0x1117 JUMP JUMPDEST PUSH1 0x40 MLOAD DUP1 SWAP2 SUB SWAP1 RETURN JUMPDEST PUSH2 0x1AB PUSH1 0x4 DUP1 CALLDATASIZE SUB DUP2 ADD SWAP1 PUSH2 0x1A6 SWAP2 SWAP1 PUSH2 0xE04 JUMP JUMPDEST PUSH2 0x5AD JUMP JUMPDEST PUSH1 0x40 MLOAD PUSH2 0x1B8 SWAP2 SWAP1 PUSH2 0x105A JUMP JUMPDEST PUSH1 0x40 MLOAD DUP1 SWAP2 SUB SWAP1 RETURN JUMPDEST PUSH2 0x1C9 PUSH2 0x72C JUMP JUMPDEST PUSH1 0x40 MLOAD PUSH2 0x1D6 SWAP2 SWAP1 PUSH2 0x1117 JUMP JUMPDEST PUSH1 0x40 MLOAD DUP1 SWAP2 SUB SWAP1 RETURN JUMPDEST PUSH2 0x1F9 PUSH1 0x4 DUP1 CALLDATASIZE SUB DUP2 ADD SWAP1 PUSH2 0x1F4 SWAP2 SWAP1 PUSH2 0xE71 JUMP JUMPDEST PUSH2 0x732 JUMP JUMPDEST PUSH1 0x40 MLOAD PUSH2 0x206 SWAP2 SWAP1 PUSH2 0x105A JUMP JUMPDEST PUSH1 0x40 MLOAD DUP1 SWAP2 SUB SWAP1 RETURN JUMPDEST PUSH2 0x229 PUSH1 0x4 DUP1 CALLDATASIZE SUB DUP2 ADD SWAP1 PUSH2 0x224 SWAP2 SWAP1 PUSH2 0xE04 JUMP JUMPDEST PUSH2 0x8E3 JUMP JUMPDEST PUSH1 0x40 MLOAD PUSH2 0x236 SWAP2 SWAP1 PUSH2 0x1117 JUMP JUMPDEST PUSH1 0x40 MLOAD DUP1 SWAP2 SUB SWAP1 RETURN JUMPDEST PUSH2 0x259 PUSH1 0x4 DUP1 CALLDATASIZE SUB DUP2 ADD SWAP1 PUSH2 0x254 SWAP2 SWAP1 PUSH2 0xE04 JUMP JUMPDEST PUSH2 0x92C JUMP JUMPDEST PUSH1 0x40 MLOAD PUSH2 0x266 SWAP2 SWAP1 PUSH2 0x1117 JUMP JUMPDEST PUSH1 0x40 MLOAD DUP1 SWAP2 SUB SWAP1 RETURN JUMPDEST PUSH2 0x289 PUSH1 0x4 DUP1 CALLDATASIZE SUB DUP2 ADD SWAP1 PUSH2 0x284 SWAP2 SWAP1 PUSH2 0xE04 JUMP JUMPDEST PUSH2 0x944 JUMP JUMPDEST PUSH1 0x40 MLOAD PUSH2 0x296 SWAP2 SWAP1 PUSH2 0x105A JUMP JUMPDEST PUSH1 0x40 MLOAD DUP1 SWAP2 SUB SWAP1 RETURN JUMPDEST PUSH2 0x2B9 PUSH1 0x4 DUP1 CALLDATASIZE SUB DUP2 ADD SWAP1 PUSH2 0x2B4 SWAP2 SWAP1 PUSH2 0xE31 JUMP JUMPDEST PUSH2 0x964 JUMP JUMPDEST PUSH1 0x40 MLOAD PUSH2 0x2C6 SWAP2 SWAP1 PUSH2 0x1117 JUMP JUMPDEST PUSH1 0x40 MLOAD DUP1 SWAP2 SUB SWAP1 RETURN JUMPDEST PUSH2 0x2D7 PUSH2 0x9EB JUMP JUMPDEST PUSH1 0x40 MLOAD PUSH2 0x2E4 SWAP2 SWAP1 PUSH2 0x103F JUMP JUMPDEST PUSH1 0x40 MLOAD DUP1 SWAP2 SUB SWAP1 RETURN JUMPDEST PUSH2 0x2F5 PUSH2 0xA11 JUMP JUMPDEST PUSH1 0x40 MLOAD PUSH2 0x302 SWAP2 SWAP1 PUSH2 0x1117 JUMP JUMPDEST PUSH1 0x40 MLOAD DUP1 SWAP2 SUB SWAP1 RETURN JUMPDEST PUSH2 0x313 PUSH2 0xA17 JUMP JUMPDEST PUSH1 0x40 MLOAD PUSH2 0x320 SWAP2 SWAP1 PUSH2 0x1075 JUMP JUMPDEST PUSH1 0x40 MLOAD DUP1 SWAP2 SUB SWAP1 RETURN JUMPDEST PUSH2 0x343 PUSH1 0x4 DUP1 CALLDATASIZE SUB DUP2 ADD SWAP1 PUSH2 0x33E SWAP2 SWAP1 PUSH2 0xEC4 JUMP JUMPDEST PUSH2 0xAA5 JUMP JUMPDEST PUSH1 0x40 MLOAD PUSH2 0x350 SWAP2 SWAP1 PUSH2 0x105A JUMP JUMPDEST PUSH1 0x40 MLOAD DUP1 SWAP2 SUB SWAP1 RETURN JUMPDEST PUSH2 0x373 PUSH1 0x4 DUP1 CALLDATASIZE SUB DUP2 ADD SWAP1 PUSH2 0x36E SWAP2 SWAP1 PUSH2 0xF04 JUMP JUMPDEST PUSH2 0xBC2 JUMP JUMPDEST STOP JUMPDEST PUSH2 0x38F PUSH1 0x4 DUP1 CALLDATASIZE SUB DUP2 ADD SWAP1 PUSH2 0x38A SWAP2 SWAP1 PUSH2 0xE04 JUMP JUMPDEST PUSH2 0xBC5 JUMP JUMPDEST PUSH1 0x40 MLOAD PUSH2 0x39C SWAP2 SWAP1 PUSH2 0x105A JUMP JUMPDEST PUSH1 0x40 MLOAD DUP1 SWAP2 SUB SWAP1 RETURN JUMPDEST PUSH2 0x3BF PUSH1 0x4 DUP1 CALLDATASIZE SUB DUP2 ADD SWAP1 PUSH2 0x3BA SWAP2 SWAP1 PUSH2 0xE31 JUMP JUMPDEST PUSH2 0xD45 JUMP JUMPDEST PUSH1 0x40 MLOAD PUSH2 0x3CC SWAP2 SWAP1 PUSH2 0x1117 JUMP JUMPDEST PUSH1 0x40 MLOAD DUP1 SWAP2 SUB SWAP1 RETURN JUMPDEST PUSH1 0x5 DUP1 SLOAD PUSH2 0x3E2 SWAP1 PUSH2 0x12B8 JUMP JUMPDEST DUP1 PUSH1 0x1F ADD PUSH1 0x20 DUP1 SWAP2 DIV MUL PUSH1 0x20 ADD PUSH1 0x40 MLOAD SWAP1 DUP2 ADD PUSH1 0x40 MSTORE DUP1 SWAP3 SWAP2 SWAP1 DUP2 DUP2 MSTORE PUSH1 0x20 ADD DUP3 DUP1 SLOAD PUSH2 0x40E SWAP1 PUSH2 0x12B8 JUMP JUMPDEST DUP1 ISZERO PUSH2 0x45B JUMPI DUP1 PUSH1 0x1F LT PUSH2 0x430 JUMPI PUSH2 0x100 DUP1 DUP4 SLOAD DIV MUL DUP4 MSTORE SWAP2 PUSH1 0x20 ADD SWAP2 PUSH2 0x45B JUMP JUMPDEST DUP3 ADD SWAP2 SWAP1 PUSH1 0x0 MSTORE PUSH1 0x20 PUSH1 0x0 KECCAK256 SWAP1 JUMPDEST DUP2 SLOAD DUP2 MSTORE SWAP1 PUSH1 0x1 ADD SWAP1 PUSH1 0x20 ADD DUP1 DUP4 GT PUSH2 0x43E JUMPI DUP3 SWAP1 SUB PUSH1 0x1F AND DUP3 ADD SWAP2 JUMPDEST POP POP POP POP POP DUP2 JUMP JUMPDEST PUSH1 0x0 DUP2 PUSH1 0x2 PUSH1 0x0 CALLER PUSH20 0xFFFFFFFFFFFFFFFFFFFFFFFFFFFFFFFFFFFFFFFF AND PUSH20 0xFFFFFFFFFFFFFFFFFFFFFFFFFFFFFFFFFFFFFFFF AND DUP2 MSTORE PUSH1 0x20 ADD SWAP1 DUP2 MSTORE PUSH1 0x20 ADD PUSH1 0x0 KECCAK256 PUSH1 0x0 DUP6 PUSH20 0xFFFFFFFFFFFFFFFFFFFFFFFFFFFFFFFFFFFFFFFF AND PUSH20 0xFFFFFFFFFFFFFFFFFFFFFFFFFFFFFFFFFFFFFFFF AND DUP2 MSTORE PUSH1 0x20 ADD SWAP1 DUP2 MSTORE PUSH1 0x20 ADD PUSH1 0x0 KECCAK256 DUP2 SWAP1 SSTORE POP DUP3 PUSH20 0xFFFFFFFFFFFFFFFFFFFFFFFFFFFFFFFFFFFFFFFF AND CALLER PUSH20 0xFFFFFFFFFFFFFFFFFFFFFFFFFFFFFFFFFFFFFFFF AND PUSH32 0x6E11FB1B7F119E3F2FA29896EF5FDF8B8A2D0D4DF6FE90BA8668E7D8B2FFA25E DUP5 PUSH1 0x40 MLOAD PUSH2 0x543 SWAP2 SWAP1 PUSH2 0x1117 JUMP JUMPDEST PUSH1 0x40 MLOAD DUP1 SWAP2 SUB SWAP1 LOG3 PUSH1 0x1 SWAP1 POP SWAP3 SWAP2 POP POP JUMP JUMPDEST PUSH9 0x1B1AE4D6E2EF500000 PUSH1 0x1 PUSH1 0x0 CALLER PUSH20 0xFFFFFFFFFFFFFFFFFFFFFFFFFFFFFFFFFFFFFFFF AND PUSH20 0xFFFFFFFFFFFFFFFFFFFFFFFFFFFFFFFFFFFFFFFF AND DUP2 MSTORE PUSH1 0x20 ADD SWAP1 DUP2 MSTORE PUSH1 0x20 ADD PUSH1 0x0 KECCAK256 DUP2 SWAP1 SSTORE POP JUMP JUMPDEST PUSH1 0x0 DUP1 SLOAD SWAP1 POP SWAP1 JUMP JUMPDEST PUSH1 0x0 CALLER PUSH20 0xFFFFFFFFFFFFFFFFFFFFFFFFFFFFFFFFFFFFFFFF AND PUSH1 0x4 PUSH1 0x0 SWAP1 SLOAD SWAP1 PUSH2 0x100 EXP SWAP1 DIV PUSH20 0xFFFFFFFFFFFFFFFFFFFFFFFFFFFFFFFFFFFFFFFF AND PUSH20 0xFFFFFFFFFFFFFFFFFFFFFFFFFFFFFFFFFFFFFFFF AND EQ PUSH2 0x63F JUMPI PUSH1 0x40 MLOAD PUSH32 0x8C379A000000000000000000000000000000000000000000000000000000000 DUP2 MSTORE PUSH1 0x4 ADD PUSH2 0x636 SWAP1 PUSH2 0x10D7 JUMP JUMPDEST PUSH1 0x40 MLOAD DUP1 SWAP2 SUB SWAP1 REVERT JUMPDEST PUSH1 0x3 PUSH1 0x0 DUP4 PUSH20 0xFFFFFFFFFFFFFFFFFFFFFFFFFFFFFFFFFFFFFFFF AND PUSH20 0xFFFFFFFFFFFFFFFFFFFFFFFFFFFFFFFFFFFFFFFF AND DUP2 MSTORE PUSH1 0x20 ADD SWAP1 DUP2 MSTORE PUSH1 0x20 ADD PUSH1 0x0 KECCAK256 PUSH1 0x0 SWAP1 SLOAD SWAP1 PUSH2 0x100 EXP SWAP1 DIV PUSH1 0xFF AND PUSH2 0x6CB JUMPI PUSH1 0x40 MLOAD PUSH32 0x8C379A000000000000000000000000000000000000000000000000000000000 DUP2 MSTORE PUSH1 0x4 ADD PUSH2 0x6C2 SWAP1 PUSH2 0x10B7 JUMP JUMPDEST PUSH1 0x40 MLOAD DUP1 SWAP2 SUB SWAP1 REVERT JUMPDEST PUSH1 0x0 PUSH1 0x3 PUSH1 0x0 DUP5 PUSH20 0xFFFFFFFFFFFFFFFFFFFFFFFFFFFFFFFFFFFFFFFF AND PUSH20 0xFFFFFFFFFFFFFFFFFFFFFFFFFFFFFFFFFFFFFFFF AND DUP2 MSTORE PUSH1 0x20 ADD SWAP1 DUP2 MSTORE PUSH1 0x20 ADD PUSH1 0x0 KECCAK256 PUSH1 0x0 PUSH2 0x100 EXP DUP2 SLOAD DUP2 PUSH1 0xFF MUL NOT AND SWAP1 DUP4 ISZERO ISZERO MUL OR SWAP1 SSTORE POP PUSH1 0x1 SWAP1 POP SWAP2 SWAP1 POP JUMP JUMPDEST PUSH1 0x0 SLOAD DUP2 JUMP JUMPDEST PUSH1 0x0 DUP2 PUSH1 0x2 PUSH1 0x0 DUP7 PUSH20 0xFFFFFFFFFFFFFFFFFFFFFFFFFFFFFFFFFFFFFFFF AND PUSH20 0xFFFFFFFFFFFFFFFFFFFFFFFFFFFFFFFFFFFFFFFF AND DUP2 MSTORE PUSH1 0x20 ADD SWAP1 DUP2 MSTORE PUSH1 0x20 ADD PUSH1 0x0 KECCAK256 PUSH1 0x0 DUP6 PUSH20 0xFFFFFFFFFFFFFFFFFFFFFFFFFFFFFFFFFFFFFFFF AND PUSH20 0xFFFFFFFFFFFFFFFFFFFFFFFFFFFFFFFFFFFFFFFF AND DUP2 MSTORE PUSH1 0x20 ADD SWAP1 DUP2 MSTORE PUSH1 0x20 ADD PUSH1 0x0 KECCAK256 PUSH1 0x0 DUP3 DUP3 SLOAD PUSH2 0x7C0 SWAP2 SWAP1 PUSH2 0x11FA JUMP JUMPDEST SWAP3 POP POP DUP2 SWAP1 SSTORE POP DUP2 PUSH1 0x1 PUSH1 0x0 DUP7 PUSH20 0xFFFFFFFFFFFFFFFFFFFFFFFFFFFFFFFFFFFFFFFF AND PUSH20 0xFFFFFFFFFFFFFFFFFFFFFFFFFFFFFFFFFFFFFFFF AND DUP2 MSTORE PUSH1 0x20 ADD SWAP1 DUP2 MSTORE PUSH1 0x20 ADD PUSH1 0x0 KECCAK256 PUSH1 0x0 DUP3 DUP3 SLOAD PUSH2 0x816 SWAP2 SWAP1 PUSH2 0x11FA JUMP JUMPDEST SWAP3 POP POP DUP2 SWAP1 SSTORE POP DUP2 PUSH1 0x1 PUSH1 0x0 DUP6 PUSH20 0xFFFFFFFFFFFFFFFFFFFFFFFFFFFFFFFFFFFFFFFF AND PUSH20 0xFFFFFFFFFFFFFFFFFFFFFFFFFFFFFFFFFFFFFFFF AND DUP2 MSTORE PUSH1 0x20 ADD SWAP1 DUP2 MSTORE PUSH1 0x20 ADD PUSH1 0x0 KECCAK256 PUSH1 0x0 DUP3 DUP3 SLOAD PUSH2 0x86C SWAP2 SWAP1 PUSH2 0x11A4 JUMP JUMPDEST SWAP3 POP POP DUP2 SWAP1 SSTORE POP DUP3 PUSH20 0xFFFFFFFFFFFFFFFFFFFFFFFFFFFFFFFFFFFFFFFF AND DUP5 PUSH20 0xFFFFFFFFFFFFFFFFFFFFFFFFFFFFFFFFFFFFFFFF AND PUSH32 0xDDF252AD1BE2C89B69C2B068FC378DAA952BA7F163C4A11628F55A4DF523B3EF DUP5 PUSH1 0x40 MLOAD PUSH2 0x8D0 SWAP2 SWAP1 PUSH2 0x1117 JUMP JUMPDEST PUSH1 0x40 MLOAD DUP1 SWAP2 SUB SWAP1 LOG3 PUSH1 0x1 SWAP1 POP SWAP4 SWAP3 POP POP POP JUMP JUMPDEST PUSH1 0x0 PUSH1 0x1 PUSH1 0x0 DUP4 PUSH20 0xFFFFFFFFFFFFFFFFFFFFFFFFFFFFFFFFFFFFFFFF AND PUSH20 0xFFFFFFFFFFFFFFFFFFFFFFFFFFFFFFFFFFFFFFFF AND DUP2 MSTORE PUSH1 0x20 ADD SWAP1 DUP2 MSTORE PUSH1 0x20 ADD PUSH1 0x0 KECCAK256 SLOAD SWAP1 POP SWAP2 SWAP1 POP JUMP JUMPDEST PUSH1 0x1 PUSH1 0x20 MSTORE DUP1 PUSH1 0x0 MSTORE PUSH1 0x40 PUSH1 0x0 KECCAK256 PUSH1 0x0 SWAP2 POP SWAP1 POP SLOAD DUP2 JUMP JUMPDEST PUSH1 0x3 PUSH1 0x20 MSTORE DUP1 PUSH1 0x0 MSTORE PUSH1 0x40 PUSH1 0x0 KECCAK256 PUSH1 0x0 SWAP2 POP SLOAD SWAP1 PUSH2 0x100 EXP SWAP1 DIV PUSH1 0xFF AND DUP2 JUMP JUMPDEST PUSH1 0x0 PUSH1 0x2 PUSH1 0x0 DUP5 PUSH20 0xFFFFFFFFFFFFFFFFFFFFFFFFFFFFFFFFFFFFFFFF AND PUSH20 0xFFFFFFFFFFFFFFFFFFFFFFFFFFFFFFFFFFFFFFFF AND DUP2 MSTORE PUSH1 0x20 ADD SWAP1 DUP2 MSTORE PUSH1 0x20 ADD PUSH1 0x0 KECCAK256 PUSH1 0x0 DUP4 PUSH20 0xFFFFFFFFFFFFFFFFFFFFFFFFFFFFFFFFFFFFFFFF AND PUSH20 0xFFFFFFFFFFFFFFFFFFFFFFFFFFFFFFFFFFFFFFFF AND DUP2 MSTORE PUSH1 0x20 ADD SWAP1 DUP2 MSTORE PUSH1 0x20 ADD PUSH1 0x0 KECCAK256 SLOAD SWAP1 POP SWAP3 SWAP2 POP POP JUMP JUMPDEST PUSH1 0x4 PUSH1 0x0 SWAP1 SLOAD SWAP1 PUSH2 0x100 EXP SWAP1 DIV PUSH20 0xFFFFFFFFFFFFFFFFFFFFFFFFFFFFFFFFFFFFFFFF AND DUP2 JUMP JUMPDEST PUSH1 0x7 SLOAD DUP2 JUMP JUMPDEST PUSH1 0x6 DUP1 SLOAD PUSH2 0xA24 SWAP1 PUSH2 0x12B8 JUMP JUMPDEST DUP1 PUSH1 0x1F ADD PUSH1 0x20 DUP1 SWAP2 DIV MUL PUSH1 0x20 ADD PUSH1 0x40 MLOAD SWAP1 DUP2 ADD PUSH1 0x40 MSTORE DUP1 SWAP3 SWAP2 SWAP1 DUP2 DUP2 MSTORE PUSH1 0x20 ADD DUP3 DUP1 SLOAD PUSH2 0xA50 SWAP1 PUSH2 0x12B8 JUMP JUMPDEST DUP1 ISZERO PUSH2 0xA9D JUMPI DUP1 PUSH1 0x1F LT PUSH2 0xA72 JUMPI PUSH2 0x100 DUP1 DUP4 SLOAD DIV MUL DUP4 MSTORE SWAP2 PUSH1 0x20 ADD SWAP2 PUSH2 0xA9D JUMP JUMPDEST DUP3 ADD SWAP2 SWAP1 PUSH1 0x0 MSTORE PUSH1 0x20 PUSH1 0x0 KECCAK256 SWAP1 JUMPDEST DUP2 SLOAD DUP2 MSTORE SWAP1 PUSH1 0x1 ADD SWAP1 PUSH1 0x20 ADD DUP1 DUP4 GT PUSH2 0xA80 JUMPI DUP3 SWAP1 SUB PUSH1 0x1F AND DUP3 ADD SWAP2 JUMPDEST POP POP POP POP POP DUP2 JUMP JUMPDEST PUSH1 0x0 DUP2 PUSH1 0x1 PUSH1 0x0 CALLER PUSH20 0xFFFFFFFFFFFFFFFFFFFFFFFFFFFFFFFFFFFFFFFF AND PUSH20 0xFFFFFFFFFFFFFFFFFFFFFFFFFFFFFFFFFFFFFFFF AND DUP2 MSTORE PUSH1 0x20 ADD SWAP1 DUP2 MSTORE PUSH1 0x20 ADD PUSH1 0x0 KECCAK256 PUSH1 0x0 DUP3 DUP3 SLOAD PUSH2 0xAF6 SWAP2 SWAP1 PUSH2 0x11FA JUMP JUMPDEST SWAP3 POP POP DUP2 SWAP1 SSTORE POP DUP2 PUSH1 0x1 PUSH1 0x0 DUP6 PUSH20 0xFFFFFFFFFFFFFFFFFFFFFFFFFFFFFFFFFFFFFFFF AND PUSH20 0xFFFFFFFFFFFFFFFFFFFFFFFFFFFFFFFFFFFFFFFF AND DUP2 MSTORE PUSH1 0x20 ADD SWAP1 DUP2 MSTORE PUSH1 0x20 ADD PUSH1 0x0 KECCAK256 PUSH1 0x0 DUP3 DUP3 SLOAD PUSH2 0xB4C SWAP2 SWAP1 PUSH2 0x11A4 JUMP JUMPDEST SWAP3 POP POP DUP2 SWAP1 SSTORE POP DUP3 PUSH20 0xFFFFFFFFFFFFFFFFFFFFFFFFFFFFFFFFFFFFFFFF AND CALLER PUSH20 0xFFFFFFFFFFFFFFFFFFFFFFFFFFFFFFFFFFFFFFFF AND PUSH32 0xDDF252AD1BE2C89B69C2B068FC378DAA952BA7F163C4A11628F55A4DF523B3EF DUP5 PUSH1 0x40 MLOAD PUSH2 0xBB0 SWAP2 SWAP1 PUSH2 0x1117 JUMP JUMPDEST PUSH1 0x40 MLOAD DUP1 SWAP2 SUB SWAP1 LOG3 PUSH1 0x1 SWAP1 POP SWAP3 SWAP2 POP POP JUMP JUMPDEST POP JUMP JUMPDEST PUSH1 0x0 CALLER PUSH20 0xFFFFFFFFFFFFFFFFFFFFFFFFFFFFFFFFFFFFFFFF AND PUSH1 0x4 PUSH1 0x0 SWAP1 SLOAD SWAP1 PUSH2 0x100 EXP SWAP1 DIV PUSH20 0xFFFFFFFFFFFFFFFFFFFFFFFFFFFFFFFFFFFFFFFF AND PUSH20 0xFFFFFFFFFFFFFFFFFFFFFFFFFFFFFFFFFFFFFFFF AND EQ PUSH2 0xC57 JUMPI PUSH1 0x40 MLOAD PUSH32 0x8C379A000000000000000000000000000000000000000000000000000000000 DUP2 MSTORE PUSH1 0x4 ADD PUSH2 0xC4E SWAP1 PUSH2 0x10F7 JUMP JUMPDEST PUSH1 0x40 MLOAD DUP1 SWAP2 SUB SWAP1 REVERT JUMPDEST PUSH1 0x3 PUSH1 0x0 DUP4 PUSH20 0xFFFFFFFFFFFFFFFFFFFFFFFFFFFFFFFFFFFFFFFF AND PUSH20 0xFFFFFFFFFFFFFFFFFFFFFFFFFFFFFFFFFFFFFFFF AND DUP2 MSTORE PUSH1 0x20 ADD SWAP1 DUP2 MSTORE PUSH1 0x20 ADD PUSH1 0x0 KECCAK256 PUSH1 0x0 SWAP1 SLOAD SWAP1 PUSH2 0x100 EXP SWAP1 DIV PUSH1 0xFF AND ISZERO PUSH2 0xCE4 JUMPI PUSH1 0x40 MLOAD PUSH32 0x8C379A000000000000000000000000000000000000000000000000000000000 DUP2 MSTORE PUSH1 0x4 ADD PUSH2 0xCDB SWAP1 PUSH2 0x1097 JUMP JUMPDEST PUSH1 0x40 MLOAD DUP1 SWAP2 SUB SWAP1 REVERT JUMPDEST PUSH1 0x1 PUSH1 0x3 PUSH1 0x0 DUP5 PUSH20 0xFFFFFFFFFFFFFFFFFFFFFFFFFFFFFFFFFFFFFFFF AND PUSH20 0xFFFFFFFFFFFFFFFFFFFFFFFFFFFFFFFFFFFFFFFF AND DUP2 MSTORE PUSH1 0x20 ADD SWAP1 DUP2 MSTORE PUSH1 0x20 ADD PUSH1 0x0 KECCAK256 PUSH1 0x0 PUSH2 0x100 EXP DUP2 SLOAD DUP2 PUSH1 0xFF MUL NOT AND SWAP1 DUP4 ISZERO ISZERO MUL OR SWAP1 SSTORE POP PUSH1 0x1 SWAP1 POP SWAP2 SWAP1 POP JUMP JUMPDEST PUSH1 0x2 PUSH1 0x20 MSTORE DUP2 PUSH1 0x0 MSTORE PUSH1 0x40 PUSH1 0x0 KECCAK256 PUSH1 0x20 MSTORE DUP1 PUSH1 0x0 MSTORE PUSH1 0x40 PUSH1 0x0 KECCAK256 PUSH1 0x0 SWAP2 POP SWAP2 POP POP SLOAD DUP2 JUMP JUMPDEST PUSH1 0x0 PUSH2 0xD7D PUSH2 0xD78 DUP5 PUSH2 0x1157 JUMP JUMPDEST PUSH2 0x1132 JUMP JUMPDEST SWAP1 POP DUP3 DUP2 MSTORE PUSH1 0x20 DUP2 ADD DUP5 DUP5 DUP5 ADD GT ISZERO PUSH2 0xD99 JUMPI PUSH2 0xD98 PUSH2 0x13AD JUMP JUMPDEST JUMPDEST PUSH2 0xDA4 DUP5 DUP3 DUP6 PUSH2 0x1276 JUMP JUMPDEST POP SWAP4 SWAP3 POP POP POP JUMP JUMPDEST PUSH1 0x0 DUP2 CALLDATALOAD SWAP1 POP PUSH2 0xDBB DUP2 PUSH2 0x1509 JUMP JUMPDEST SWAP3 SWAP2 POP POP JUMP JUMPDEST PUSH1 0x0 DUP3 PUSH1 0x1F DUP4 ADD SLT PUSH2 0xDD6 JUMPI PUSH2 0xDD5 PUSH2 0x13A8 JUMP JUMPDEST JUMPDEST DUP2 CALLDATALOAD PUSH2 0xDE6 DUP5 DUP3 PUSH1 0x20 DUP7 ADD PUSH2 0xD6A JUMP JUMPDEST SWAP2 POP POP SWAP3 SWAP2 POP POP JUMP JUMPDEST PUSH1 0x0 DUP2 CALLDATALOAD SWAP1 POP PUSH2 0xDFE DUP2 PUSH2 0x1520 JUMP JUMPDEST SWAP3 SWAP2 POP POP JUMP JUMPDEST PUSH1 0x0 PUSH1 0x20 DUP3 DUP5 SUB SLT ISZERO PUSH2 0xE1A JUMPI PUSH2 0xE19 PUSH2 0x13B7 JUMP JUMPDEST JUMPDEST PUSH1 0x0 PUSH2 0xE28 DUP5 DUP3 DUP6 ADD PUSH2 0xDAC JUMP JUMPDEST SWAP2 POP POP SWAP3 SWAP2 POP POP JUMP JUMPDEST PUSH1 0x0 DUP1 PUSH1 0x40 DUP4 DUP6 SUB SLT ISZERO PUSH2 0xE48 JUMPI PUSH2 0xE47 PUSH2 0x13B7 JUMP JUMPDEST JUMPDEST PUSH1 0x0 PUSH2 0xE56 DUP6 DUP3 DUP7 ADD PUSH2 0xDAC JUMP JUMPDEST SWAP3 POP POP PUSH1 0x20 PUSH2 0xE67 DUP6 DUP3 DUP7 ADD PUSH2 0xDAC JUMP JUMPDEST SWAP2 POP POP SWAP3 POP SWAP3 SWAP1 POP JUMP JUMPDEST PUSH1 0x0 DUP1 PUSH1 0x0 PUSH1 0x60 DUP5 DUP7 SUB SLT ISZERO PUSH2 0xE8A JUMPI PUSH2 0xE89 PUSH2 0x13B7 JUMP JUMPDEST JUMPDEST PUSH1 0x0 PUSH2 0xE98 DUP7 DUP3 DUP8 ADD PUSH2 0xDAC JUMP JUMPDEST SWAP4 POP POP PUSH1 0x20 PUSH2 0xEA9 DUP7 DUP3 DUP8 ADD PUSH2 0xDAC JUMP JUMPDEST SWAP3 POP POP PUSH1 0x40 PUSH2 0xEBA DUP7 DUP3 DUP8 ADD PUSH2 0xDEF JUMP JUMPDEST SWAP2 POP POP SWAP3 POP SWAP3 POP SWAP3 JUMP JUMPDEST PUSH1 0x0 DUP1 PUSH1 0x40 DUP4 DUP6 SUB SLT ISZERO PUSH2 0xEDB JUMPI PUSH2 0xEDA PUSH2 0x13B7 JUMP JUMPDEST JUMPDEST PUSH1 0x0 PUSH2 0xEE9 DUP6 DUP3 DUP7 ADD PUSH2 0xDAC JUMP JUMPDEST SWAP3 POP POP PUSH1 0x20 PUSH2 0xEFA DUP6 DUP3 DUP7 ADD PUSH2 0xDEF JUMP JUMPDEST SWAP2 POP POP SWAP3 POP SWAP3 SWAP1 POP JUMP JUMPDEST PUSH1 0x0 PUSH1 0x20 DUP3 DUP5 SUB SLT ISZERO PUSH2 0xF1A JUMPI PUSH2 0xF19 PUSH2 0x13B7 JUMP JUMPDEST JUMPDEST PUSH1 0x0 DUP3 ADD CALLDATALOAD PUSH8 0xFFFFFFFFFFFFFFFF DUP2 GT ISZERO PUSH2 0xF38 JUMPI PUSH2 0xF37 PUSH2 0x13B2 JUMP JUMPDEST JUMPDEST PUSH2 0xF44 DUP5 DUP3 DUP6 ADD PUSH2 0xDC1 JUMP JUMPDEST SWAP2 POP POP SWAP3 SWAP2 POP POP JUMP JUMPDEST PUSH2 0xF56 DUP2 PUSH2 0x122E JUMP JUMPDEST DUP3 MSTORE POP POP JUMP JUMPDEST PUSH2 0xF65 DUP2 PUSH2 0x1240 JUMP JUMPDEST DUP3 MSTORE POP POP JUMP JUMPDEST PUSH1 0x0 PUSH2 0xF76 DUP3 PUSH2 0x1188 JUMP JUMPDEST PUSH2 0xF80 DUP2 DUP6 PUSH2 0x1193 JUMP JUMPDEST SWAP4 POP PUSH2 0xF90 DUP2 DUP6 PUSH1 0x20 DUP7 ADD PUSH2 0x1285 JUMP JUMPDEST PUSH2 0xF99 DUP2 PUSH2 0x13BC JUMP JUMPDEST DUP5 ADD SWAP2 POP POP SWAP3 SWAP2 POP POP JUMP JUMPDEST PUSH1 0x0 PUSH2 0xFB1 PUSH1 0x22 DUP4 PUSH2 0x1193 JUMP JUMPDEST SWAP2 POP PUSH2 0xFBC DUP3 PUSH2 0x13CD JUMP JUMPDEST PUSH1 0x40 DUP3 ADD SWAP1 POP SWAP2 SWAP1 POP JUMP JUMPDEST PUSH1 0x0 PUSH2 0xFD4 PUSH1 0x23 DUP4 PUSH2 0x1193 JUMP JUMPDEST SWAP2 POP PUSH2 0xFDF DUP3 PUSH2 0x141C JUMP JUMPDEST PUSH1 0x40 DUP3 ADD SWAP1 POP SWAP2 SWAP1 POP JUMP JUMPDEST PUSH1 0x0 PUSH2 0xFF7 PUSH1 0x2C DUP4 PUSH2 0x1193 JUMP JUMPDEST SWAP2 POP PUSH2 0x1002 DUP3 PUSH2 0x146B JUMP JUMPDEST PUSH1 0x40 DUP3 ADD SWAP1 POP SWAP2 SWAP1 POP JUMP JUMPDEST PUSH1 0x0 PUSH2 0x101A PUSH1 0x27 DUP4 PUSH2 0x1193 JUMP JUMPDEST SWAP2 POP PUSH2 0x1025 DUP3 PUSH2 0x14BA JUMP JUMPDEST PUSH1 0x40 DUP3 ADD SWAP1 POP SWAP2 SWAP1 POP JUMP JUMPDEST PUSH2 0x1039 DUP2 PUSH2 0x126C JUMP JUMPDEST DUP3 MSTORE POP POP JUMP JUMPDEST PUSH1 0x0 PUSH1 0x20 DUP3 ADD SWAP1 POP PUSH2 0x1054 PUSH1 0x0 DUP4 ADD DUP5 PUSH2 0xF4D JUMP JUMPDEST SWAP3 SWAP2 POP POP JUMP JUMPDEST PUSH1 0x0 PUSH1 0x20 DUP3 ADD SWAP1 POP PUSH2 0x106F PUSH1 0x0 DUP4 ADD DUP5 PUSH2 0xF5C JUMP JUMPDEST SWAP3 SWAP2 POP POP JUMP JUMPDEST PUSH1 0x0 PUSH1 0x20 DUP3 ADD SWAP1 POP DUP2 DUP2 SUB PUSH1 0x0 DUP4 ADD MSTORE PUSH2 0x108F DUP2 DUP5 PUSH2 0xF6B JUMP JUMPDEST SWAP1 POP SWAP3 SWAP2 POP POP JUMP JUMPDEST PUSH1 0x0 PUSH1 0x20 DUP3 ADD SWAP1 POP DUP2 DUP2 SUB PUSH1 0x0 DUP4 ADD MSTORE PUSH2 0x10B0 DUP2 PUSH2 0xFA4 JUMP JUMPDEST SWAP1 POP SWAP2 SWAP1 POP JUMP JUMPDEST PUSH1 0x0 PUSH1 0x20 DUP3 ADD SWAP1 POP DUP2 DUP2 SUB PUSH1 0x0 DUP4 ADD MSTORE PUSH2 0x10D0 DUP2 PUSH2 0xFC7 JUMP JUMPDEST SWAP1 POP SWAP2 SWAP1 POP JUMP JUMPDEST PUSH1 0x0 PUSH1 0x20 DUP3 ADD SWAP1 POP DUP2 DUP2 SUB PUSH1 0x0 DUP4 ADD MSTORE PUSH2 0x10F0 DUP2 PUSH2 0xFEA JUMP JUMPDEST SWAP1 POP SWAP2 SWAP1 POP JUMP JUMPDEST PUSH1 0x0 PUSH1 0x20 DUP3 ADD SWAP1 POP DUP2 DUP2 SUB PUSH1 0x0 DUP4 ADD MSTORE PUSH2 0x1110 DUP2 PUSH2 0x100D JUMP JUMPDEST SWAP1 POP SWAP2 SWAP1 POP JUMP JUMPDEST PUSH1 0x0 PUSH1 0x20 DUP3 ADD SWAP1 POP PUSH2 0x112C PUSH1 0x0 DUP4 ADD DUP5 PUSH2 0x1030 JUMP JUMPDEST SWAP3 SWAP2 POP POP JUMP JUMPDEST PUSH1 0x0 PUSH2 0x113C PUSH2 0x114D JUMP JUMPDEST SWAP1 POP PUSH2 0x1148 DUP3 DUP3 PUSH2 0x12EA JUMP JUMPDEST SWAP2 SWAP1 POP JUMP JUMPDEST PUSH1 0x0 PUSH1 0x40 MLOAD SWAP1 POP SWAP1 JUMP JUMPDEST PUSH1 0x0 PUSH8 0xFFFFFFFFFFFFFFFF DUP3 GT ISZERO PUSH2 0x1172 JUMPI PUSH2 0x1171 PUSH2 0x1379 JUMP JUMPDEST JUMPDEST PUSH2 0x117B DUP3 PUSH2 0x13BC JUMP JUMPDEST SWAP1 POP PUSH1 0x20 DUP2 ADD SWAP1 POP SWAP2 SWAP1 POP JUMP JUMPDEST PUSH1 0x0 DUP2 MLOAD SWAP1 POP SWAP2 SWAP1 POP JUMP JUMPDEST PUSH1 0x0 DUP3 DUP3 MSTORE PUSH1 0x20 DUP3 ADD SWAP1 POP SWAP3 SWAP2 POP POP JUMP JUMPDEST PUSH1 0x0 PUSH2 0x11AF DUP3 PUSH2 0x126C JUMP JUMPDEST SWAP2 POP PUSH2 0x11BA DUP4 PUSH2 0x126C JUMP JUMPDEST SWAP3 POP DUP3 PUSH32 0xFFFFFFFFFFFFFFFFFFFFFFFFFFFFFFFFFFFFFFFFFFFFFFFFFFFFFFFFFFFFFFFF SUB DUP3 GT ISZERO PUSH2 0x11EF JUMPI PUSH2 0x11EE PUSH2 0x131B JUMP JUMPDEST JUMPDEST DUP3 DUP3 ADD SWAP1 POP SWAP3 SWAP2 POP POP JUMP JUMPDEST PUSH1 0x0 PUSH2 0x1205 DUP3 PUSH2 0x126C JUMP JUMPDEST SWAP2 POP PUSH2 0x1210 DUP4 PUSH2 0x126C JUMP JUMPDEST SWAP3 POP DUP3 DUP3 LT ISZERO PUSH2 0x1223 JUMPI PUSH2 0x1222 PUSH2 0x131B JUMP JUMPDEST JUMPDEST DUP3 DUP3 SUB SWAP1 POP SWAP3 SWAP2 POP POP JUMP JUMPDEST PUSH1 0x0 PUSH2 0x1239 DUP3 PUSH2 0x124C JUMP JUMPDEST SWAP1 POP SWAP2 SWAP1 POP JUMP JUMPDEST PUSH1 0x0 DUP2 ISZERO ISZERO SWAP1 POP SWAP2 SWAP1 POP JUMP JUMPDEST PUSH1 0x0 PUSH20 0xFFFFFFFFFFFFFFFFFFFFFFFFFFFFFFFFFFFFFFFF DUP3 AND SWAP1 POP SWAP2 SWAP1 POP JUMP JUMPDEST PUSH1 0x0 DUP2 SWAP1 POP SWAP2 SWAP1 POP JUMP JUMPDEST DUP3 DUP2 DUP4 CALLDATACOPY PUSH1 0x0 DUP4 DUP4 ADD MSTORE POP POP POP JUMP JUMPDEST PUSH1 0x0 JUMPDEST DUP4 DUP2 LT ISZERO PUSH2 0x12A3 JUMPI DUP1 DUP3 ADD MLOAD DUP2 DUP5 ADD MSTORE PUSH1 0x20 DUP2 ADD SWAP1 POP PUSH2 0x1288 JUMP JUMPDEST DUP4 DUP2 GT ISZERO PUSH2 0x12B2 JUMPI PUSH1 0x0 DUP5 DUP5 ADD MSTORE JUMPDEST POP POP POP POP JUMP JUMPDEST PUSH1 0x0 PUSH1 0x2 DUP3 DIV SWAP1 POP PUSH1 0x1 DUP3 AND DUP1 PUSH2 0x12D0 JUMPI PUSH1 0x7F DUP3 AND SWAP2 POP JUMPDEST PUSH1 0x20 DUP3 LT DUP2 EQ ISZERO PUSH2 0x12E4 JUMPI PUSH2 0x12E3 PUSH2 0x134A JUMP JUMPDEST JUMPDEST POP SWAP2 SWAP1 POP JUMP JUMPDEST PUSH2 0x12F3 DUP3 PUSH2 0x13BC JUMP JUMPDEST DUP2 ADD DUP2 DUP2 LT PUSH8 0xFFFFFFFFFFFFFFFF DUP3 GT OR ISZERO PUSH2 0x1312 JUMPI PUSH2 0x1311 PUSH2 0x1379 JUMP JUMPDEST JUMPDEST DUP1 PUSH1 0x40 MSTORE POP POP POP JUMP JUMPDEST PUSH32 0x4E487B7100000000000000000000000000000000000000000000000000000000 PUSH1 0x0 MSTORE PUSH1 0x11 PUSH1 0x4 MSTORE PUSH1 0x24 PUSH1 0x0 REVERT JUMPDEST PUSH32 0x4E487B7100000000000000000000000000000000000000000000000000000000 PUSH1 0x0 MSTORE PUSH1 0x22 PUSH1 0x4 MSTORE PUSH1 0x24 PUSH1 0x0 REVERT JUMPDEST PUSH32 0x4E487B7100000000000000000000000000000000000000000000000000000000 PUSH1 0x0 MSTORE PUSH1 0x41 PUSH1 0x4 MSTORE PUSH1 0x24 PUSH1 0x0 REVERT JUMPDEST PUSH1 0x0 DUP1 REVERT JUMPDEST PUSH1 0x0 DUP1 REVERT JUMPDEST PUSH1 0x0 DUP1 REVERT JUMPDEST PUSH1 0x0 DUP1 REVERT JUMPDEST PUSH1 0x0 PUSH1 0x1F NOT PUSH1 0x1F DUP4 ADD AND SWAP1 POP SWAP2 SWAP1 POP JUMP JUMPDEST PUSH32 0x546865206164647265737320697320616C726561647920626C61636B6C697374 PUSH1 0x0 DUP3 ADD MSTORE PUSH32 0x6564000000000000000000000000000000000000000000000000000000000000 PUSH1 0x20 DUP3 ADD MSTORE POP JUMP JUMPDEST PUSH32 0x5468652061646472657373206973206E6F7420696E2074686520626C61636B6C PUSH1 0x0 DUP3 ADD MSTORE PUSH32 0x6973740000000000000000000000000000000000000000000000000000000000 PUSH1 0x20 DUP3 ADD MSTORE POP JUMP JUMPDEST PUSH32 0x4F6E6C7920746865206F776E65722063616E2072656D6F76652066726F6D2074 PUSH1 0x0 DUP3 ADD MSTORE PUSH32 0x686520626C61636B6C6973740000000000000000000000000000000000000000 PUSH1 0x20 DUP3 ADD MSTORE POP JUMP JUMPDEST PUSH32 0x4F6E6C7920746865206F776E65722063616E2061646420746F2074686520626C PUSH1 0x0 DUP3 ADD MSTORE PUSH32 0x61636B6C69737400000000000000000000000000000000000000000000000000 PUSH1 0x20 DUP3 ADD MSTORE POP JUMP JUMPDEST PUSH2 0x1512 DUP2 PUSH2 0x122E JUMP JUMPDEST DUP2 EQ PUSH2 0x151D JUMPI PUSH1 0x0 DUP1 REVERT JUMPDEST POP JUMP JUMPDEST PUSH2 0x1529 DUP2 PUSH2 0x126C JUMP JUMPDEST DUP2 EQ PUSH2 0x1534 JUMPI PUSH1 0x0 DUP1 REVERT JUMPDEST POP JUMP INVALID LOG2 PUSH5 0x6970667358 0x22 SLT KECCAK256 SWAP3 0x25 OR 0xE LOG4 SELFBALANCE DUP14 0xC5 PUSH16 0x6690A800235E57102EB3743BE15A262B REVERT 0xEA 0xB9 0xEC 0x4D 0x26 SWAP13 PUSH5 0x736F6C6343 STOP ADDMOD SMOD STOP CALLER "
				},
				"gasEstimates": {
					"creation": {
						"codeDepositCost": "1097000",
						"executionCost": "infinite",
						"totalCost": "infinite"
					},
					"external": {
						"allowanc(address,address)": "infinite",
						"allowance(address,address)": "infinite",
						"approve(address,uint256)": "infinite",
						"balancOF(address)": "2925",
						"balanceOF(address)": "2930",
						"blackList(address)": "2868",
						"decimal()": "2518",
						"fromBlackList(address)": "29450",
						"mint()": "22415",
						"name()": "infinite",
						"owner1()": "2581",
						"setName(string)": "infinite",
						"symbol()": "infinite",
						"toBlackList(address)": "29518",
						"totalSuppl()": "2474",
						"totalSupply()": "2527",
						"transfer(address,uint256)": "infinite",
						"transferFrom(address,address,uint256)": "infinite"
					}
				},
				"methodIdentifiers": {
					"allowanc(address,address)": "4b133e77",
					"allowance(address,address)": "dd62ed3e",
					"approve(address,uint256)": "095ea7b3",
					"balancOF(address)": "32e2d367",
					"balanceOF(address)": "244e0c87",
					"blackList(address)": "4838d165",
					"decimal()": "76809ce3",
					"fromBlackList(address)": "20188d72",
					"mint()": "1249c58b",
					"name()": "06fdde03",
					"owner1()": "73688914",
					"setName(string)": "c47f0027",
					"symbol()": "95d89b41",
					"toBlackList(address)": "dbad491a",
					"totalSuppl()": "217cb89a",
					"totalSupply()": "18160ddd",
					"transfer(address,uint256)": "a9059cbb",
					"transferFrom(address,address,uint256)": "23b872dd"
				}
			},
			"storageLayout": {
				"storage": [
					{
						"astId": 4,
						"contract": "contracts/artifacts/Kazah.sol:Token",
						"label": "totalSuppl",
						"offset": 0,
						"slot": "0",
						"type": "t_uint256"
					},
					{
						"astId": 8,
						"contract": "contracts/artifacts/Kazah.sol:Token",
						"label": "balancOF",
						"offset": 0,
						"slot": "1",
						"type": "t_mapping(t_address,t_uint256)"
					},
					{
						"astId": 14,
						"contract": "contracts/artifacts/Kazah.sol:Token",
						"label": "allowance",
						"offset": 0,
						"slot": "2",
						"type": "t_mapping(t_address,t_mapping(t_address,t_uint256))"
					},
					{
						"astId": 18,
						"contract": "contracts/artifacts/Kazah.sol:Token",
						"label": "blackList",
						"offset": 0,
						"slot": "3",
						"type": "t_mapping(t_address,t_bool)"
					},
					{
						"astId": 20,
						"contract": "contracts/artifacts/Kazah.sol:Token",
						"label": "owner1",
						"offset": 0,
						"slot": "4",
						"type": "t_address"
					},
					{
						"astId": 23,
						"contract": "contracts/artifacts/Kazah.sol:Token",
						"label": "name",
						"offset": 0,
						"slot": "5",
						"type": "t_string_storage"
					},
					{
						"astId": 26,
						"contract": "contracts/artifacts/Kazah.sol:Token",
						"label": "symbol",
						"offset": 0,
						"slot": "6",
						"type": "t_string_storage"
					},
					{
						"astId": 29,
						"contract": "contracts/artifacts/Kazah.sol:Token",
						"label": "decimal",
						"offset": 0,
						"slot": "7",
						"type": "t_uint256"
					}
				],
				"types": {
					"t_address": {
						"encoding": "inplace",
						"label": "address",
						"numberOfBytes": "20"
					},
					"t_bool": {
						"encoding": "inplace",
						"label": "bool",
						"numberOfBytes": "1"
					},
					"t_mapping(t_address,t_bool)": {
						"encoding": "mapping",
						"key": "t_address",
						"label": "mapping(address => bool)",
						"numberOfBytes": "32",
						"value": "t_bool"
					},
					"t_mapping(t_address,t_mapping(t_address,t_uint256))": {
						"encoding": "mapping",
						"key": "t_address",
						"label": "mapping(address => mapping(address => uint256))",
						"numberOfBytes": "32",
						"value": "t_mapping(t_address,t_uint256)"
					},
					"t_mapping(t_address,t_uint256)": {
						"encoding": "mapping",
						"key": "t_address",
						"label": "mapping(address => uint256)",
						"numberOfBytes": "32",
						"value": "t_uint256"
					},
					"t_string_storage": {
						"encoding": "bytes",
						"label": "string",
						"numberOfBytes": "32"
					},
					"t_uint256": {
						"encoding": "inplace",
						"label": "uint256",
						"numberOfBytes": "32"
					}
				}
			},
			"userdoc": {
				"kind": "user",
				"methods": {},
				"version": 1
			}
		}
	}
}